{
  "contractName": "OnlineBetting",
  "abi": [
    {
      "anonymous": false,
      "inputs": [
        {
          "indexed": false,
          "internalType": "uint256",
          "name": "betId",
          "type": "uint256"
        },
        {
          "indexed": false,
          "internalType": "string",
          "name": "title",
          "type": "string"
        }
      ],
      "name": "BetAdded",
      "type": "event"
    },
    {
      "anonymous": false,
      "inputs": [
        {
          "indexed": false,
          "internalType": "uint256",
          "name": "betId",
          "type": "uint256"
        },
        {
          "indexed": false,
          "internalType": "uint256",
          "name": "amount",
          "type": "uint256"
        }
      ],
      "name": "MoneyAdded",
      "type": "event"
    },
    {
      "constant": false,
      "inputs": [
        {
          "internalType": "string",
          "name": "_title",
          "type": "string"
        },
        {
          "internalType": "uint256",
          "name": "_lowerBound",
          "type": "uint256"
        },
        {
          "internalType": "uint256",
          "name": "_upperBound",
          "type": "uint256"
        },
        {
          "internalType": "uint256",
          "name": "_publishTime",
          "type": "uint256"
        },
        {
          "internalType": "uint256",
          "name": "_lastBetTime",
          "type": "uint256"
        }
      ],
      "name": "addBet",
      "outputs": [],
      "payable": false,
      "stateMutability": "nonpayable",
      "type": "function"
    },
    {
      "constant": false,
      "inputs": [
        {
          "internalType": "uint256",
          "name": "_id",
          "type": "uint256"
        },
        {
          "internalType": "uint256",
          "name": "_amount",
          "type": "uint256"
        }
      ],
      "name": "addMoney",
      "outputs": [],
      "payable": false,
      "stateMutability": "nonpayable",
      "type": "function"
    },
    {
      "constant": true,
      "inputs": [
        {
          "internalType": "uint256",
          "name": "_id",
          "type": "uint256"
        }
      ],
      "name": "getBet",
      "outputs": [
        {
          "internalType": "string",
          "name": "",
          "type": "string"
        },
        {
          "internalType": "uint256",
          "name": "",
          "type": "uint256"
        }
      ],
      "payable": false,
      "stateMutability": "view",
      "type": "function"
    }
  ],
  "bytecode": "0x608060405234801561001057600080fd5b50610937806100206000396000f3fe608060405234801561001057600080fd5b50600436106100415760003560e01c8063061e494f14610046578063bd95972c146100f4578063bf40a1ce1461012c575b600080fd5b6100726004803603602081101561005c57600080fd5b810190808035906020019092919050505061020f565b6040518080602001838152602001828103825284818151815260200191508051906020019080838360005b838110156100b857808201518184015260208101905061009d565b50505050905090810190601f1680156100e55780820380516001836020036101000a031916815260200191505b50935050505060405180910390f35b61012a6004803603604081101561010a57600080fd5b810190808035906020019092919080359060200190929190505050610405565b005b61020d600480360360a081101561014257600080fd5b810190808035906020019064010000000081111561015f57600080fd5b82018360208201111561017157600080fd5b8035906020019184600183028401116401000000008311171561019357600080fd5b91908080601f016020809104026020016040519081016040528093929190818152602001838380828437600081840152601f19601f8201169050808301925050505050505091929192908035906020019092919080359060200190929190803590602001909291908035906020019092919050505061063c565b005b6060600082600080549050811061028e576040517f08c379a000000000000000000000000000000000000000000000000000000000815260040180806020018281038252600d8152602001807f496e76616c69642049442121210000000000000000000000000000000000000081525060200191505060405180910390fd5b6000818154811061029b57fe5b906000526020600020906007020160050154421115610322576040517f08c379a000000000000000000000000000000000000000000000000000000000815260040180806020018281038252600f8152602001807f426574206861732065787069726564000000000000000000000000000000000081525060200191505060405180910390fd5b6000848154811061032f57fe5b90600052602060002090600702016001016000858154811061034d57fe5b906000526020600020906007020160030154818054600181600116156101000203166002900480601f0160208091040260200160405190810160405280929190818152602001828054600181600116156101000203166002900480156103f45780601f106103c9576101008083540402835291602001916103f4565b820191906000526020600020905b8154815290600101906020018083116103d757829003601f168201915b505050505091509250925050915091565b816000805490508110610480576040517f08c379a000000000000000000000000000000000000000000000000000000000815260040180806020018281038252600d8152602001807f496e76616c69642049442121210000000000000000000000000000000000000081525060200191505060405180910390fd5b6000818154811061048d57fe5b906000526020600020906007020160050154421115610514576040517f08c379a000000000000000000000000000000000000000000000000000000000815260040180806020018281038252600f8152602001807f426574206861732065787069726564000000000000000000000000000000000081525060200191505060405180910390fd5b82826000828154811061052357fe5b906000526020600020906007020160040154816000848154811061054357fe5b9060005260206000209060070201600301540111156105ca576040517f08c379a00000000000000000000000000000000000000000000000000000000081526004018080602001828103825260118152602001807f546f6f206d756368206d6f6e657921212100000000000000000000000000000081525060200191505060405180910390fd5b83600086815481106105d857fe5b9060005260206000209060070201600301600082825401925050819055507f79971fed3fbb48bbaebe1b00b2b71e6909c78aa06670ec0932f2d4dd04a4f0088585604051808381526020018281526020019250505060405180910390a15050505050565b61064461080a565b6040518060e001604052803373ffffffffffffffffffffffffffffffffffffffff16815260200187815260200186815260200160008152602001858152602001848152602001838152509050600060016000839080600181540180825580915050906001820390600052602060002090600702016000909192909190915060008201518160000160006101000a81548173ffffffffffffffffffffffffffffffffffffffff021916908373ffffffffffffffffffffffffffffffffffffffff160217905550602082015181600101908051906020019061072592919061085d565b5060408201518160020155606082015181600301556080820151816004015560a0820151816005015560c0820151816006015550500390507ffd9b824c32c4b314de8cc8632b170ef722e0fa61fcf35583a814356d916bc1fa81886040518083815260200180602001828103825283818151815260200191508051906020019080838360005b838110156107c65780820151818401526020810190506107ab565b50505050905090810190601f1680156107f35780820380516001836020036101000a031916815260200191505b50935050505060405180910390a150505050505050565b6040518060e00160405280600073ffffffffffffffffffffffffffffffffffffffff1681526020016060815260200160008152602001600081526020016000815260200160008152602001600081525090565b828054600181600116156101000203166002900490600052602060002090601f016020900481019282601f1061089e57805160ff19168380011785556108cc565b828001600101855582156108cc579182015b828111156108cb5782518255916020019190600101906108b0565b5b5090506108d991906108dd565b5090565b6108ff91905b808211156108fb5760008160009055506001016108e3565b5090565b9056fea265627a7a72315820fb13a6086b393bbdc3690c8ed1dd8387929ad730f542f9b3203e6ce41ac8d90a64736f6c63430005100032",
  "source": "pragma solidity >=0.4.21 <0.6.0;\n\ncontract OnlineBetting {\n\n    event BetAdded(uint betId, string title);\n    event MoneyAdded(uint betId, uint amount);\n\n    struct Bet {\n        address owner;\n        string title;\n        uint lowerBound;\n        uint currentAmount;\n        uint upperBound;\n        uint publishTime;\n        uint lastBetTime;\n    }\n\n    //Bet list\n    Bet[] bets;\n\n    modifier isValidId(uint _id) {\n        require(_id < bets.length, \"Invalid ID!!!\");\n        require(now <= bets[_id].publishTime, \"Bet has expired\");\n        _;\n    }\n\n    modifier isValidAmount(uint _id, uint _amount) {\n        require(bets[_id].currentAmount + _amount <= bets[_id].upperBound, \"Too much money!!!\");\n        _;\n    }\n\n    //Add bet to bets\n    function addBet(string memory _title, uint _lowerBound, uint _upperBound, uint _publishTime, uint _lastBetTime) public {\n        Bet memory bet = Bet(msg.sender, _title, _lowerBound, 0, _upperBound, _publishTime, _lastBetTime);\n        uint betId = bets.push(bet) - 1;\n        emit BetAdded(betId, _title);\n    }\n\n    //Add money to bets\n    function addMoney(uint _id, uint _amount) public isValidId(_id) isValidAmount(_id, _amount) {\n        bets[_id].currentAmount += _amount;\n        emit MoneyAdded(_id, _amount);\n    }\n    \n    function getBet(uint _id) public view isValidId(_id) returns(string memory, uint) {\n        return (bets[_id].title, bets[_id].currentAmount);\n    }\n}",
  "sourcePath": "/Users/howardchou0302/Desktop/大三下/網多/final/OnlineBetting/ethereum/contracts/OnlineBetting.sol",
  "compiler": {
    "name": "solc",
    "version": "0.5.16+commit.9c3226ce.Emscripten.clang"
  },
  "schemaVersion": "3.4.1",
  "updatedAt": "2021-05-30T11:38:55.984Z",
  "devdoc": {
    "methods": {}
  },
  "userdoc": {
    "methods": {}
  }
}