{
  "contractName": "OnlineBetting",
  "abi": [
    {
      "anonymous": false,
      "inputs": [
        {
          "indexed": false,
          "internalType": "uint256",
          "name": "betId",
          "type": "uint256"
        },
        {
          "indexed": false,
          "internalType": "string",
          "name": "title",
          "type": "string"
        }
      ],
      "name": "BetAdded",
      "type": "event"
    },
    {
      "anonymous": false,
      "inputs": [
        {
          "indexed": false,
          "internalType": "uint256",
          "name": "betId",
          "type": "uint256"
        },
        {
          "indexed": false,
          "internalType": "string",
          "name": "choice",
          "type": "string"
        },
        {
          "indexed": false,
          "internalType": "uint256",
          "name": "amount",
          "type": "uint256"
        }
      ],
      "name": "MoneyAdded",
      "type": "event"
    },
    {
      "constant": false,
      "inputs": [
        {
          "internalType": "string",
          "name": "_title",
          "type": "string"
        },
        {
          "internalType": "uint256",
          "name": "_lowerBound",
          "type": "uint256"
        },
        {
          "internalType": "uint256",
          "name": "_upperBound",
          "type": "uint256"
        },
        {
          "internalType": "uint256",
          "name": "_publishTime",
          "type": "uint256"
        },
        {
          "internalType": "uint256",
          "name": "_lastBetTime",
          "type": "uint256"
        }
      ],
      "name": "addBet",
      "outputs": [
        {
          "internalType": "uint256",
          "name": "",
          "type": "uint256"
        }
      ],
      "payable": false,
      "stateMutability": "nonpayable",
      "type": "function"
    },
    {
      "constant": false,
      "inputs": [
        {
          "internalType": "uint256",
          "name": "_id",
          "type": "uint256"
        },
        {
          "internalType": "string",
          "name": "_choice",
          "type": "string"
        }
      ],
      "name": "addChoice",
      "outputs": [],
      "payable": false,
      "stateMutability": "nonpayable",
      "type": "function"
    },
    {
      "constant": false,
      "inputs": [
        {
          "internalType": "uint256",
          "name": "_id",
          "type": "uint256"
        },
        {
          "internalType": "string",
          "name": "_choice",
          "type": "string"
        },
        {
          "internalType": "uint256",
          "name": "_amount",
          "type": "uint256"
        }
      ],
      "name": "addMoney",
      "outputs": [],
      "payable": true,
      "stateMutability": "payable",
      "type": "function"
    },
    {
      "constant": true,
      "inputs": [],
      "name": "getOwnId",
      "outputs": [
        {
          "internalType": "bool[]",
          "name": "",
          "type": "bool[]"
        }
      ],
      "payable": false,
      "stateMutability": "view",
      "type": "function"
    },
    {
      "constant": true,
      "inputs": [
        {
          "internalType": "uint256",
          "name": "_id",
          "type": "uint256"
        }
      ],
      "name": "getTitle",
      "outputs": [
        {
          "internalType": "string",
          "name": "",
          "type": "string"
        }
      ],
      "payable": false,
      "stateMutability": "view",
      "type": "function"
    },
    {
      "constant": true,
      "inputs": [
        {
          "internalType": "uint256",
          "name": "_id",
          "type": "uint256"
        }
      ],
      "name": "getLowerBound",
      "outputs": [
        {
          "internalType": "uint256",
          "name": "",
          "type": "uint256"
        }
      ],
      "payable": false,
      "stateMutability": "view",
      "type": "function"
    },
    {
      "constant": true,
      "inputs": [
        {
          "internalType": "uint256",
          "name": "_id",
          "type": "uint256"
        }
      ],
      "name": "getCurrentAmount",
      "outputs": [
        {
          "internalType": "uint256",
          "name": "",
          "type": "uint256"
        }
      ],
      "payable": false,
      "stateMutability": "view",
      "type": "function"
    },
    {
      "constant": true,
      "inputs": [
        {
          "internalType": "uint256",
          "name": "_id",
          "type": "uint256"
        }
      ],
      "name": "getUpperBound",
      "outputs": [
        {
          "internalType": "uint256",
          "name": "",
          "type": "uint256"
        }
      ],
      "payable": false,
      "stateMutability": "view",
      "type": "function"
    },
    {
      "constant": true,
      "inputs": [
        {
          "internalType": "uint256",
          "name": "_id",
          "type": "uint256"
        }
      ],
      "name": "getChoiceNum",
      "outputs": [
        {
          "internalType": "uint256",
          "name": "",
          "type": "uint256"
        }
      ],
      "payable": false,
      "stateMutability": "view",
      "type": "function"
    },
    {
      "constant": true,
      "inputs": [
        {
          "internalType": "uint256",
          "name": "_id",
          "type": "uint256"
        },
        {
          "internalType": "uint256",
          "name": "_choice",
          "type": "uint256"
        }
      ],
      "name": "getChoice",
      "outputs": [
        {
          "internalType": "string",
          "name": "",
          "type": "string"
        }
      ],
      "payable": false,
      "stateMutability": "view",
      "type": "function"
    },
    {
      "constant": true,
      "inputs": [
        {
          "internalType": "uint256",
          "name": "_id",
          "type": "uint256"
        },
        {
          "internalType": "string",
          "name": "_choice",
          "type": "string"
        }
      ],
      "name": "getChoiceAmount",
      "outputs": [
        {
          "internalType": "uint256",
          "name": "",
          "type": "uint256"
        }
      ],
      "payable": false,
      "stateMutability": "view",
      "type": "function"
    }
  ],
  "bytecode": "0x608060405234801561001057600080fd5b50611998806100206000396000f3fe60806040526004361061009c5760003560e01c8063a57f60c911610064578063a57f60c914610397578063b1c4713e14610403578063bf40a1ce14610452578063d4d2d91c14610556578063d787629114610628578063fb7cc35a146106775761009c565b806328d4155a146100a157806345bdbbc01461018757806356e78dc3146102455780636e9d922714610294578063929a79b1146102e3575b600080fd5b3480156100ad57600080fd5b50610171600480360360408110156100c457600080fd5b8101908080359060200190929190803590602001906401000000008111156100eb57600080fd5b8201836020820111156100fd57600080fd5b8035906020019184600183028401116401000000008311171561011f57600080fd5b91908080601f016020809104026020016040519081016040528093929190818152602001838380828437600081840152601f19601f820116905080830192505050505050509192919290505050610746565b6040518082815260200191505060405180910390f35b34801561019357600080fd5b506101ca600480360360408110156101aa57600080fd5b810190808035906020019092919080359060200190929190505050610847565b6040518080602001828103825283818151815260200191508051906020019080838360005b8381101561020a5780820151818401526020810190506101ef565b50505050905090810190601f1680156102375780820380516001836020036101000a031916815260200191505b509250505060405180910390f35b34801561025157600080fd5b5061027e6004803603602081101561026857600080fd5b810190808035906020019092919050505061098e565b6040518082815260200191505060405180910390f35b3480156102a057600080fd5b506102cd600480360360208110156102b757600080fd5b8101908080359060200190929190505050610b73565b6040518082815260200191505060405180910390f35b3480156102ef57600080fd5b5061031c6004803603602081101561030657600080fd5b8101908080359060200190929190505050610c0f565b6040518080602001828103825283818151815260200191508051906020019080838360005b8381101561035c578082015181840152602081019050610341565b50505050905090810190601f1680156103895780820380516001836020036101000a031916815260200191505b509250505060405180910390f35b3480156103a357600080fd5b506103ac610df4565b6040518080602001828103825283818151815260200191508051906020019060200280838360005b838110156103ef5780820151818401526020810190506103d4565b505050509050019250505060405180910390f35b34801561040f57600080fd5b5061043c6004803603602081101561042657600080fd5b8101908080359060200190929190505050610ee1565b6040518082815260200191505060405180910390f35b34801561045e57600080fd5b50610540600480360360a081101561047557600080fd5b810190808035906020019064010000000081111561049257600080fd5b8201836020820111156104a457600080fd5b803590602001918460018302840111640100000000831117156104c657600080fd5b91908080601f016020809104026020016040519081016040528093929190818152602001838380828437600081840152601f19601f820116905080830192505050505050509192919290803590602001909291908035906020019092919080359060200190929190803590602001909291905050506110c6565b6040518082815260200191505060405180910390f35b34801561056257600080fd5b506106266004803603604081101561057957600080fd5b8101908080359060200190929190803590602001906401000000008111156105a057600080fd5b8201836020820111156105b257600080fd5b803590602001918460018302840111640100000000831117156105d457600080fd5b91908080601f016020809104026020016040519081016040528093929190818152602001838380828437600081840152601f19601f82011690508083019250505050505050919291929050505061129b565b005b34801561063457600080fd5b506106616004803603602081101561064b57600080fd5b81019080803590602001909291905050506112ef565b6040518082815260200191505060405180910390f35b6107446004803603606081101561068d57600080fd5b8101908080359060200190929190803590602001906401000000008111156106b457600080fd5b8201836020820111156106c657600080fd5b803590602001918460018302840111640100000000831117156106e857600080fd5b91908080601f016020809104026020016040519081016040528093929190818152602001838380828437600081840152601f19601f820116905080830192505050505050509192919290803590602001909291905050506114d4565b005b60008260008054905081106107c3576040517f08c379a000000000000000000000000000000000000000000000000000000000815260040180806020018281038252600d8152602001807f496e76616c69642049442121210000000000000000000000000000000000000081525060200191505060405180910390fd5b60026000858152602001908152602001600020836040518082805190602001908083835b6020831061080a57805182526020820191506020810190506020830392506107e7565b6001836020036101000a03801982511681845116808217855250505050505090500191505090815260200160405180910390205491505092915050565b60608260008054905081106108c4576040517f08c379a000000000000000000000000000000000000000000000000000000000815260040180806020018281038252600d8152602001807f496e76616c69642049442121210000000000000000000000000000000000000081525060200191505060405180910390fd5b6001600085815260200190815260200160002083815481106108e257fe5b906000526020600020018054600181600116156101000203166002900480601f0160208091040260200160405190810160405280929190818152602001828054600181600116156101000203166002900480156109805780601f1061095557610100808354040283529160200191610980565b820191906000526020600020905b81548152906001019060200180831161096357829003601f168201915b505050505091505092915050565b6000816000805490508110610a0b576040517f08c379a000000000000000000000000000000000000000000000000000000000815260040180806020018281038252600d8152602001807f496e76616c69642049442121210000000000000000000000000000000000000081525060200191505060405180910390fd5b610a136117eb565b60008481548110610a2057fe5b90600052602060002090600702016040518060e0016040529081600082018054600181600116156101000203166002900480601f016020809104026020016040519081016040528092919081815260200182805460018160011615610100020316600290048015610ad25780601f10610aa757610100808354040283529160200191610ad2565b820191906000526020600020905b815481529060010190602001808311610ab557829003601f168201915b505050505081526020016001820160009054906101000a900473ffffffffffffffffffffffffffffffffffffffff1673ffffffffffffffffffffffffffffffffffffffff1673ffffffffffffffffffffffffffffffffffffffff168152602001600282015481526020016003820154815260200160048201548152602001600582015481526020016006820154815250509050806060015192505050919050565b6000816000805490508110610bf0576040517f08c379a000000000000000000000000000000000000000000000000000000000815260040180806020018281038252600d8152602001807f496e76616c69642049442121210000000000000000000000000000000000000081525060200191505060405180910390fd5b6001600084815260200190815260200160002080549050915050919050565b6060816000805490508110610c8c576040517f08c379a000000000000000000000000000000000000000000000000000000000815260040180806020018281038252600d8152602001807f496e76616c69642049442121210000000000000000000000000000000000000081525060200191505060405180910390fd5b610c946117eb565b60008481548110610ca157fe5b90600052602060002090600702016040518060e0016040529081600082018054600181600116156101000203166002900480601f016020809104026020016040519081016040528092919081815260200182805460018160011615610100020316600290048015610d535780601f10610d2857610100808354040283529160200191610d53565b820191906000526020600020905b815481529060010190602001808311610d3657829003601f168201915b505050505081526020016001820160009054906101000a900473ffffffffffffffffffffffffffffffffffffffff1673ffffffffffffffffffffffffffffffffffffffff1673ffffffffffffffffffffffffffffffffffffffff168152602001600282015481526020016003820154815260200160048201548152602001600582015481526020016006820154815250509050806000015192505050919050565b606080600080549050604051908082528060200260200182016040528015610e2b5781602001602082028038833980820191505090505b50905060008090505b600080549050811015610ed9573373ffffffffffffffffffffffffffffffffffffffff1660008281548110610e6557fe5b906000526020600020906007020160010160009054906101000a900473ffffffffffffffffffffffffffffffffffffffff1673ffffffffffffffffffffffffffffffffffffffff1614828281518110610eba57fe5b6020026020010190151590811515815250508080600101915050610e34565b508091505090565b6000816000805490508110610f5e576040517f08c379a000000000000000000000000000000000000000000000000000000000815260040180806020018281038252600d8152602001807f496e76616c69642049442121210000000000000000000000000000000000000081525060200191505060405180910390fd5b610f666117eb565b60008481548110610f7357fe5b90600052602060002090600702016040518060e0016040529081600082018054600181600116156101000203166002900480601f0160208091040260200160405190810160405280929190818152602001828054600181600116156101000203166002900480156110255780601f10610ffa57610100808354040283529160200191611025565b820191906000526020600020905b81548152906001019060200180831161100857829003601f168201915b505050505081526020016001820160009054906101000a900473ffffffffffffffffffffffffffffffffffffffff1673ffffffffffffffffffffffffffffffffffffffff1673ffffffffffffffffffffffffffffffffffffffff168152602001600282015481526020016003820154815260200160048201548152602001600582015481526020016006820154815250509050806040015192505050919050565b60006110d06117eb565b6040518060e001604052808881526020013373ffffffffffffffffffffffffffffffffffffffff168152602001878152602001600081526020018681526020018581526020018481525090506000600160008390806001815401808255809150509060018203906000526020600020906007020160009091929091909150600082015181600001908051906020019061116a92919061183e565b5060208201518160010160006101000a81548173ffffffffffffffffffffffffffffffffffffffff021916908373ffffffffffffffffffffffffffffffffffffffff16021790555060408201518160020155606082015181600301556080820151816004015560a0820151816005015560c0820151816006015550500390507ffd9b824c32c4b314de8cc8632b170ef722e0fa61fcf35583a814356d916bc1fa81896040518083815260200180602001828103825283818151815260200191508051906020019080838360005b83811015611252578082015181840152602081019050611237565b50505050905090810190601f16801561127f5780820380516001836020036101000a031916815260200191505b50935050505060405180910390a1809250505095945050505050565b600160008381526020019081526020016000208190806001815401808255809150509060018203906000526020600020016000909192909190915090805190602001906112e99291906118be565b50505050565b600081600080549050811061136c576040517f08c379a000000000000000000000000000000000000000000000000000000000815260040180806020018281038252600d8152602001807f496e76616c69642049442121210000000000000000000000000000000000000081525060200191505060405180910390fd5b6113746117eb565b6000848154811061138157fe5b90600052602060002090600702016040518060e0016040529081600082018054600181600116156101000203166002900480601f0160208091040260200160405190810160405280929190818152602001828054600181600116156101000203166002900480156114335780601f1061140857610100808354040283529160200191611433565b820191906000526020600020905b81548152906001019060200180831161141657829003601f168201915b505050505081526020016001820160009054906101000a900473ffffffffffffffffffffffffffffffffffffffff1673ffffffffffffffffffffffffffffffffffffffff1673ffffffffffffffffffffffffffffffffffffffff168152602001600282015481526020016003820154815260200160048201548152602001600582015481526020016006820154815250509050806080015192505050919050565b82600080549050811061154f576040517f08c379a000000000000000000000000000000000000000000000000000000000815260040180806020018281038252600d8152602001807f496e76616c69642049442121210000000000000000000000000000000000000081525060200191505060405180910390fd5b83826000828154811061155e57fe5b906000526020600020906007020160040154816000848154811061157e57fe5b906000526020600020906007020160030154011115611605576040517f08c379a00000000000000000000000000000000000000000000000000000000081526004018080602001828103825260118152602001807f546f6f206d756368206d6f6e657921212100000000000000000000000000000081525060200191505060405180910390fd5b66038d7ea4c6800084023414611683576040517f08c379a00000000000000000000000000000000000000000000000000000000081526004018080602001828103825260108152602001807f4e6f7420456e6f756768204d6f6e65790000000000000000000000000000000081525060200191505060405180910390fd5b836000878154811061169157fe5b9060005260206000209060070201600301600082825401925050819055508360026000888152602001908152602001600020866040518082805190602001908083835b602083106116f757805182526020820191506020810190506020830392506116d4565b6001836020036101000a0380198251168184511680821785525050505050509050019150509081526020016040518091039020600082825401925050819055507f5b10a10d5e4a332d7df29badbed73d4cd6cd22729938f55d2193eee562e0e21b8686866040518084815260200180602001838152602001828103825284818151815260200191508051906020019080838360005b838110156117a757808201518184015260208101905061178c565b50505050905090810190601f1680156117d45780820380516001836020036101000a031916815260200191505b5094505050505060405180910390a1505050505050565b6040518060e0016040528060608152602001600073ffffffffffffffffffffffffffffffffffffffff16815260200160008152602001600081526020016000815260200160008152602001600081525090565b828054600181600116156101000203166002900490600052602060002090601f016020900481019282601f1061187f57805160ff19168380011785556118ad565b828001600101855582156118ad579182015b828111156118ac578251825591602001919060010190611891565b5b5090506118ba919061193e565b5090565b828054600181600116156101000203166002900490600052602060002090601f016020900481019282601f106118ff57805160ff191683800117855561192d565b8280016001018555821561192d579182015b8281111561192c578251825591602001919060010190611911565b5b50905061193a919061193e565b5090565b61196091905b8082111561195c576000816000905550600101611944565b5090565b9056fea265627a7a72315820aa112e9017dd0382f456b8b779327f34ad20b5a25460a986c6e8b4b0b17da10a64736f6c63430005100032",
  "source": "pragma solidity >=0.4.21 <0.6.0;\n\ncontract OnlineBetting {\n\n    //constants\n    uint constant SMALLEST_FEE = 0.001 ether;\n\n    //events\n    event BetAdded(uint betId, string title);  //emit when\n    event MoneyAdded(uint betId, string choice, uint amount);\n\n    //Bet\n    struct Bet {\n        string title;\n        address owner;\n        uint lowerBound;\n        uint currentAmount;\n        uint upperBound;\n        uint publishTime;\n        uint lastBetTime;\n    }\n\n    //Bet list\n    Bet[] bets;\n    mapping (uint => string[]) choices;\n    mapping (uint => mapping (string => uint)) currentChoice;\n\n    //Modifiers\n    //Valid bet modifier\n    modifier isValidId(uint _id) {\n        require(_id < bets.length, \"Invalid ID!!!\");\n        //require(now <= bets[_id].publishTime, \"Bet has expired\");\n        _;\n    }\n\n    //Valid amount\n    modifier isValidAmount(uint _id, uint _amount) {\n        require(bets[_id].currentAmount + _amount <= bets[_id].upperBound, \"Too much money!!!\");\n        _;\n    }\n\n    //functions\n    //Add bet to bets\n    function addBet(string memory _title, uint _lowerBound, uint _upperBound, uint _publishTime, uint _lastBetTime) public returns(uint) {\n        Bet memory bet = Bet(_title, msg.sender, _lowerBound, 0, _upperBound, _publishTime, _lastBetTime);\n        uint betId = bets.push(bet) - 1;\n        emit BetAdded(betId, _title);\n        return betId;\n    }\n\n    function addChoice(uint _id, string memory _choice) public {\n        choices[_id].push(_choice);\n    }\n\n    //Add money to selected choice\n    function addMoney(uint _id, string memory _choice, uint _amount) public payable isValidId(_id) isValidAmount(_id, _amount) {\n        //require(bets[_id].owner != msg.sender, \"Cannot add money to your own bets.\");\n        require(msg.value == _amount*SMALLEST_FEE, \"Not Enough Money\");\n        bets[_id].currentAmount += _amount;\n        currentChoice[_id][_choice] += _amount;\n        emit MoneyAdded(_id, _choice, _amount);\n    }\n    \n    //Get Title from ID\n    function getOwnId() public view returns(bool[] memory) {\n        bool[] memory isOwnBets = new bool[](bets.length);\n        for(uint i = 0; i < bets.length; i++) {\n            isOwnBets[i] = (bets[i].owner == msg.sender);\n        }\n        return isOwnBets;\n    }\n\n    function getTitle(uint _id) public view isValidId(_id) returns(string memory) {\n        Bet memory bet = bets[_id];\n        return bet.title;\n    }\n\n    function getLowerBound(uint _id) public view isValidId(_id) returns(uint) {\n        Bet memory bet = bets[_id];\n        return bet.lowerBound;\n    }\n\n    function getCurrentAmount(uint _id) public view isValidId(_id) returns(uint) {\n        Bet memory bet = bets[_id];\n        return bet.currentAmount;\n    }\n\n    function getUpperBound(uint _id) public view isValidId(_id) returns(uint) {\n        Bet memory bet = bets[_id];\n        return bet.upperBound;\n    }\n\n    function getChoiceNum(uint _id) public view isValidId(_id) returns(uint) {\n        return choices[_id].length;\n    }\n\n    function getChoice(uint _id, uint _choice) public view isValidId(_id) returns(string memory) {\n        return choices[_id][_choice];\n    }\n\n    //Get Amount from choice\n    function getChoiceAmount(uint _id, string memory _choice) public view isValidId(_id) returns(uint) {\n        return currentChoice[_id][_choice];\n    }\n}",
  "sourcePath": "/Users/howardchou0302/Desktop///final/OnlineBetting/ethereum/contracts/OnlineBetting.sol",
  "compiler": {
    "name": "solc",
    "version": "0.5.16+commit.9c3226ce.Emscripten.clang"
  },
  "schemaVersion": "3.4.1",
  "updatedAt": "2021-06-02T09:25:41.579Z",
  "networkType": "ethereum",
  "devdoc": {
    "methods": {}
  },
  "userdoc": {
    "methods": {}
  }
}