{
  "contractName": "OnlineBetting",
  "abi": [
    {
      "anonymous": false,
      "inputs": [
        {
          "indexed": false,
          "internalType": "uint256",
          "name": "betId",
          "type": "uint256"
        },
        {
          "indexed": false,
          "internalType": "uint256",
          "name": "choice",
          "type": "uint256"
        }
      ],
      "name": "AnswerSet",
      "type": "event"
    },
    {
      "anonymous": false,
      "inputs": [
        {
          "indexed": false,
          "internalType": "uint256",
          "name": "betId",
          "type": "uint256"
        },
        {
          "indexed": false,
          "internalType": "string",
          "name": "title",
          "type": "string"
        }
      ],
      "name": "BetAdded",
      "type": "event"
    },
    {
      "anonymous": false,
      "inputs": [
        {
          "indexed": false,
          "internalType": "uint256",
          "name": "betId",
          "type": "uint256"
        },
        {
          "indexed": false,
          "internalType": "address",
          "name": "adder",
          "type": "address"
        },
        {
          "indexed": false,
          "internalType": "uint256",
          "name": "choice",
          "type": "uint256"
        },
        {
          "indexed": false,
          "internalType": "uint256",
          "name": "amount",
          "type": "uint256"
        }
      ],
      "name": "MoneyAdded",
      "type": "event"
    },
    {
      "anonymous": false,
      "inputs": [
        {
          "indexed": false,
          "internalType": "address",
          "name": "receiver",
          "type": "address"
        },
        {
          "indexed": false,
          "internalType": "uint256",
          "name": "amount",
          "type": "uint256"
        }
      ],
      "name": "MoneyGiven",
      "type": "event"
    },
    {
      "inputs": [
        {
          "internalType": "string",
          "name": "_title",
          "type": "string"
        },
        {
          "internalType": "uint256",
          "name": "_lowerBound",
          "type": "uint256"
        },
        {
          "internalType": "uint256",
          "name": "_upperBound",
          "type": "uint256"
        },
        {
          "internalType": "uint256",
          "name": "_publishTime",
          "type": "uint256"
        },
        {
          "internalType": "uint256",
          "name": "_lastBetTime",
          "type": "uint256"
        },
        {
          "internalType": "string[]",
          "name": "_choices",
          "type": "string[]"
        },
        {
          "internalType": "string",
          "name": "_region",
          "type": "string"
        },
        {
          "internalType": "string",
          "name": "_genre",
          "type": "string"
        }
      ],
      "name": "addBet",
      "outputs": [],
      "stateMutability": "nonpayable",
      "type": "function"
    },
    {
      "inputs": [
        {
          "internalType": "uint256",
          "name": "_id",
          "type": "uint256"
        },
        {
          "internalType": "uint256",
          "name": "_choice",
          "type": "uint256"
        },
        {
          "internalType": "uint256",
          "name": "_amount",
          "type": "uint256"
        }
      ],
      "name": "addMoney",
      "outputs": [],
      "stateMutability": "payable",
      "type": "function",
      "payable": true
    },
    {
      "inputs": [
        {
          "internalType": "uint256",
          "name": "_id",
          "type": "uint256"
        },
        {
          "internalType": "uint256",
          "name": "_answer",
          "type": "uint256"
        }
      ],
      "name": "setAnswer",
      "outputs": [],
      "stateMutability": "nonpayable",
      "type": "function"
    },
    {
      "inputs": [
        {
          "internalType": "uint256",
          "name": "_id",
          "type": "uint256"
        }
      ],
      "name": "distributeMoney",
      "outputs": [],
      "stateMutability": "payable",
      "type": "function",
      "payable": true
    },
    {
      "inputs": [],
      "name": "getLastBet",
      "outputs": [
        {
          "components": [
            {
              "internalType": "string",
              "name": "title",
              "type": "string"
            },
            {
              "internalType": "string[]",
              "name": "choices",
              "type": "string[]"
            },
            {
              "internalType": "address",
              "name": "owner",
              "type": "address"
            },
            {
              "internalType": "uint256",
              "name": "lowerBound",
              "type": "uint256"
            },
            {
              "internalType": "uint256",
              "name": "currentAmount",
              "type": "uint256"
            },
            {
              "internalType": "uint256",
              "name": "upperBound",
              "type": "uint256"
            },
            {
              "internalType": "uint256",
              "name": "publishTime",
              "type": "uint256"
            },
            {
              "internalType": "uint256",
              "name": "lastBetTime",
              "type": "uint256"
            },
            {
              "internalType": "uint256",
              "name": "answer",
              "type": "uint256"
            },
            {
              "internalType": "uint256[]",
              "name": "currentChoices",
              "type": "uint256[]"
            },
            {
              "internalType": "address[]",
              "name": "voter",
              "type": "address[]"
            },
            {
              "internalType": "bool",
              "name": "isAnswerSet",
              "type": "bool"
            },
            {
              "internalType": "enum OnlineBetting.Region",
              "name": "region",
              "type": "uint8"
            },
            {
              "internalType": "enum OnlineBetting.Genre",
              "name": "genre",
              "type": "uint8"
            }
          ],
          "internalType": "struct OnlineBetting.Bet",
          "name": "",
          "type": "tuple"
        }
      ],
      "stateMutability": "view",
      "type": "function",
      "constant": true
    },
    {
      "inputs": [],
      "name": "getBets",
      "outputs": [
        {
          "components": [
            {
              "internalType": "string",
              "name": "title",
              "type": "string"
            },
            {
              "internalType": "string[]",
              "name": "choices",
              "type": "string[]"
            },
            {
              "internalType": "address",
              "name": "owner",
              "type": "address"
            },
            {
              "internalType": "uint256",
              "name": "lowerBound",
              "type": "uint256"
            },
            {
              "internalType": "uint256",
              "name": "currentAmount",
              "type": "uint256"
            },
            {
              "internalType": "uint256",
              "name": "upperBound",
              "type": "uint256"
            },
            {
              "internalType": "uint256",
              "name": "publishTime",
              "type": "uint256"
            },
            {
              "internalType": "uint256",
              "name": "lastBetTime",
              "type": "uint256"
            },
            {
              "internalType": "uint256",
              "name": "answer",
              "type": "uint256"
            },
            {
              "internalType": "uint256[]",
              "name": "currentChoices",
              "type": "uint256[]"
            },
            {
              "internalType": "address[]",
              "name": "voter",
              "type": "address[]"
            },
            {
              "internalType": "bool",
              "name": "isAnswerSet",
              "type": "bool"
            },
            {
              "internalType": "enum OnlineBetting.Region",
              "name": "region",
              "type": "uint8"
            },
            {
              "internalType": "enum OnlineBetting.Genre",
              "name": "genre",
              "type": "uint8"
            }
          ],
          "internalType": "struct OnlineBetting.Bet[]",
          "name": "",
          "type": "tuple[]"
        }
      ],
      "stateMutability": "view",
      "type": "function",
      "constant": true
    },
    {
      "inputs": [],
      "name": "getHotBets",
      "outputs": [
        {
          "components": [
            {
              "internalType": "string",
              "name": "title",
              "type": "string"
            },
            {
              "internalType": "string[]",
              "name": "choices",
              "type": "string[]"
            },
            {
              "internalType": "address",
              "name": "owner",
              "type": "address"
            },
            {
              "internalType": "uint256",
              "name": "lowerBound",
              "type": "uint256"
            },
            {
              "internalType": "uint256",
              "name": "currentAmount",
              "type": "uint256"
            },
            {
              "internalType": "uint256",
              "name": "upperBound",
              "type": "uint256"
            },
            {
              "internalType": "uint256",
              "name": "publishTime",
              "type": "uint256"
            },
            {
              "internalType": "uint256",
              "name": "lastBetTime",
              "type": "uint256"
            },
            {
              "internalType": "uint256",
              "name": "answer",
              "type": "uint256"
            },
            {
              "internalType": "uint256[]",
              "name": "currentChoices",
              "type": "uint256[]"
            },
            {
              "internalType": "address[]",
              "name": "voter",
              "type": "address[]"
            },
            {
              "internalType": "bool",
              "name": "isAnswerSet",
              "type": "bool"
            },
            {
              "internalType": "enum OnlineBetting.Region",
              "name": "region",
              "type": "uint8"
            },
            {
              "internalType": "enum OnlineBetting.Genre",
              "name": "genre",
              "type": "uint8"
            }
          ],
          "internalType": "struct OnlineBetting.Bet[]",
          "name": "",
          "type": "tuple[]"
        }
      ],
      "stateMutability": "view",
      "type": "function",
      "constant": true
    },
    {
      "inputs": [],
      "name": "getIds",
      "outputs": [
        {
          "internalType": "uint256[]",
          "name": "",
          "type": "uint256[]"
        },
        {
          "internalType": "bool[]",
          "name": "",
          "type": "bool[]"
        }
      ],
      "stateMutability": "view",
      "type": "function",
      "constant": true
    },
    {
      "inputs": [
        {
          "internalType": "uint256",
          "name": "_id",
          "type": "uint256"
        }
      ],
      "name": "getTitle",
      "outputs": [
        {
          "internalType": "string",
          "name": "",
          "type": "string"
        }
      ],
      "stateMutability": "view",
      "type": "function",
      "constant": true
    },
    {
      "inputs": [
        {
          "internalType": "uint256",
          "name": "_id",
          "type": "uint256"
        }
      ],
      "name": "getLowerBound",
      "outputs": [
        {
          "internalType": "uint256",
          "name": "",
          "type": "uint256"
        }
      ],
      "stateMutability": "view",
      "type": "function",
      "constant": true
    },
    {
      "inputs": [
        {
          "internalType": "uint256",
          "name": "_id",
          "type": "uint256"
        }
      ],
      "name": "getCurrentAmount",
      "outputs": [
        {
          "internalType": "uint256",
          "name": "",
          "type": "uint256"
        }
      ],
      "stateMutability": "view",
      "type": "function",
      "constant": true
    },
    {
      "inputs": [
        {
          "internalType": "uint256",
          "name": "_id",
          "type": "uint256"
        }
      ],
      "name": "getUpperBound",
      "outputs": [
        {
          "internalType": "uint256",
          "name": "",
          "type": "uint256"
        }
      ],
      "stateMutability": "view",
      "type": "function",
      "constant": true
    },
    {
      "inputs": [
        {
          "internalType": "uint256",
          "name": "_id",
          "type": "uint256"
        }
      ],
      "name": "getChoiceNum",
      "outputs": [
        {
          "internalType": "uint256",
          "name": "",
          "type": "uint256"
        }
      ],
      "stateMutability": "view",
      "type": "function",
      "constant": true
    },
    {
      "inputs": [
        {
          "internalType": "uint256",
          "name": "_id",
          "type": "uint256"
        },
        {
          "internalType": "uint256",
          "name": "_choice",
          "type": "uint256"
        }
      ],
      "name": "getChoice",
      "outputs": [
        {
          "internalType": "string",
          "name": "",
          "type": "string"
        }
      ],
      "stateMutability": "view",
      "type": "function",
      "constant": true
    },
    {
      "inputs": [
        {
          "internalType": "uint256",
          "name": "_id",
          "type": "uint256"
        }
      ],
      "name": "getChoicesAmount",
      "outputs": [
        {
          "internalType": "uint256[]",
          "name": "",
          "type": "uint256[]"
        }
      ],
      "stateMutability": "view",
      "type": "function",
      "constant": true
    },
    {
      "inputs": [
        {
          "internalType": "uint256",
          "name": "_id",
          "type": "uint256"
        }
      ],
      "name": "getAddressAmount",
      "outputs": [
        {
          "internalType": "uint256[]",
          "name": "",
          "type": "uint256[]"
        }
      ],
      "stateMutability": "view",
      "type": "function",
      "constant": true
    },
    {
      "inputs": [
        {
          "internalType": "uint256",
          "name": "_id",
          "type": "uint256"
        }
      ],
      "name": "getAnswer",
      "outputs": [
        {
          "internalType": "uint256",
          "name": "",
          "type": "uint256"
        }
      ],
      "stateMutability": "view",
      "type": "function",
      "constant": true
    },
    {
      "inputs": [],
      "name": "getTime",
      "outputs": [
        {
          "internalType": "uint256",
          "name": "",
          "type": "uint256"
        }
      ],
      "stateMutability": "view",
      "type": "function",
      "constant": true
    }
  ],
  "bytecode": "0x608060405234801561001057600080fd5b50614b56806100206000396000f3fe6080604052600436106101095760003560e01c8063a0f8973a11610095578063b5ab58dc11610064578063b5ab58dc1461038a578063bbce3fc2146103c7578063caf76d41146103f2578063d78762911461041b578063f070eb2f1461045857610109565b8063a0f8973a146102dd578063a5a7da6a146102f9578063a6afd5fd14610322578063b1c4713e1461034d57610109565b8063557ed1ba116100dc578063557ed1ba146101d057806356e78dc3146101fb5780636e9d922714610238578063929a79b114610275578063950d1187146102b257610109565b806301afe1af1461010e57806324b204ab1461014b5780632b1056631461016757806345bdbbc014610193575b600080fd5b34801561011a57600080fd5b5061013560048036038101906101309190613aea565b610495565b60405161014291906145f7565b60405180910390f35b61016560048036038101906101609190613b4f565b610555565b005b34801561017357600080fd5b5061017c6107fc565b60405161018a929190614619565b60405180910390f35b34801561019f57600080fd5b506101ba60048036038101906101b59190613b13565b610987565b6040516101c79190614650565b60405180910390f35b3480156101dc57600080fd5b506101e5610aa7565b6040516101f29190614734565b60405180910390f35b34801561020757600080fd5b50610222600480360381019061021d9190613aea565b610aaf565b60405161022f9190614734565b60405180910390f35b34801561024457600080fd5b5061025f600480360381019061025a9190613aea565b610eb1565b60405161026c9190614734565b60405180910390f35b34801561028157600080fd5b5061029c60048036038101906102979190613aea565b610f26565b6040516102a99190614650565b60405180910390f35b3480156102be57600080fd5b506102c7611328565b6040516102d491906145d5565b60405180910390f35b6102f760048036038101906102f29190613aea565b6113ea565b005b34801561030557600080fd5b50610320600480360381019061031b91906139d8565b611a26565b005b34801561032e57600080fd5b50610337611bf6565b60405161034491906145d5565b60405180910390f35b34801561035957600080fd5b50610374600480360381019061036f9190613aea565b61204d565b6040516103819190614734565b60405180910390f35b34801561039657600080fd5b506103b160048036038101906103ac9190613aea565b61244f565b6040516103be9190614734565b60405180910390f35b3480156103d357600080fd5b506103dc61252c565b6040516103e99190614712565b60405180910390f35b3480156103fe57600080fd5b5061041960048036038101906104149190613b13565b6128e0565b005b34801561042757600080fd5b50610442600480360381019061043d9190613aea565b6129ed565b60405161044f9190614734565b60405180910390f35b34801561046457600080fd5b5061047f600480360381019061047a9190613aea565b612def565b60405161048c91906145f7565b60405180910390f35b6060816104a181612f44565b6104e0576040517f08c379a00000000000000000000000000000000000000000000000000000000081526004016104d7906146d2565b60405180910390fd5b600083815481106104ed57fe5b90600052602060002090600c020160090180548060200260200160405190810160405280929190818152602001828054801561054857602002820191906000526020600020905b815481526020019060010190808311610534575b5050505050915050919050565b8261055f81612f44565b61059e576040517f08c379a0000000000000000000000000000000000000000000000000000000008152600401610595906146d2565b60405180910390fd5b8382600082815481106105ad57fe5b90600052602060002090600c02016005015481600084815481106105cd57fe5b90600052602060002090600c020160040154011115610621576040517f08c379a0000000000000000000000000000000000000000000000000000000008152600401610618906146f2565b60405180910390fd5b66038d7ea4c680008402341461066c576040517f08c379a000000000000000000000000000000000000000000000000000000000815260040161066390614692565b60405180910390fd5b6000868154811061067957fe5b90600052602060002090600c0201600701544211156106cd576040517f08c379a00000000000000000000000000000000000000000000000000000000081526004016106c4906146b2565b60405180910390fd5b83600087815481106106db57fe5b90600052602060002090600c020160040160008282540192505081905550836000878154811061070757fe5b90600052602060002090600c0201600901868154811061072357fe5b90600052602060002001600082825401925050819055506107448633612f6e565b836001600088815260200190815260200160002060003373ffffffffffffffffffffffffffffffffffffffff1673ffffffffffffffffffffffffffffffffffffffff16815260200190815260200160002086815481106107a057fe5b90600052602060002001600082825401925050819055507f9ae068d0bdbacb4831e59338d8b28e0bbd2d53764219e625df5dbad665cd3a33863387876040516107ec949392919061474f565b60405180910390a1505050505050565b6060806000606061080b613103565b809250819350505060608267ffffffffffffffff8111801561082c57600080fd5b5060405190808252806020026020018201604052801561085b5781602001602082028036833780820191505090505b50905060608367ffffffffffffffff8111801561087757600080fd5b506040519080825280602002602001820160405280156108a65781602001602082028036833780820191505090505b50905060005b84811015610978578381815181106108c057fe5b60200260200101518382815181106108d457fe5b6020026020010181815250503373ffffffffffffffffffffffffffffffffffffffff166000828154811061090457fe5b90600052602060002090600c020160020160009054906101000a900473ffffffffffffffffffffffffffffffffffffffff1673ffffffffffffffffffffffffffffffffffffffff161482828151811061095957fe5b60200260200101901515908115158152505080806001019150506108ac565b50818195509550505050509091565b60608261099381612f44565b6109d2576040517f08c379a00000000000000000000000000000000000000000000000000000000081526004016109c9906146d2565b60405180910390fd5b600084815481106109df57fe5b90600052602060002090600c020160010183815481106109fb57fe5b906000526020600020018054600181600116156101000203166002900480601f016020809104026020016040519081016040528092919081815260200182805460018160011615610100020316600290048015610a995780601f10610a6e57610100808354040283529160200191610a99565b820191906000526020600020905b815481529060010190602001808311610a7c57829003601f168201915b505050505091505092915050565b600042905090565b600081610abb81612f44565b610afa576040517f08c379a0000000000000000000000000000000000000000000000000000000008152600401610af1906146d2565b60405180910390fd5b610b026136a8565b60008481548110610b0f57fe5b90600052602060002090600c0201604051806101c0016040529081600082018054600181600116156101000203166002900480601f016020809104026020016040519081016040528092919081815260200182805460018160011615610100020316600290048015610bc25780601f10610b9757610100808354040283529160200191610bc2565b820191906000526020600020905b815481529060010190602001808311610ba557829003601f168201915b5050505050815260200160018201805480602002602001604051908101604052809291908181526020016000905b82821015610cac578382906000526020600020018054600181600116156101000203166002900480601f016020809104026020016040519081016040528092919081815260200182805460018160011615610100020316600290048015610c985780601f10610c6d57610100808354040283529160200191610c98565b820191906000526020600020905b815481529060010190602001808311610c7b57829003601f168201915b505050505081526020019060010190610bf0565b5050505081526020016002820160009054906101000a900473ffffffffffffffffffffffffffffffffffffffff1673ffffffffffffffffffffffffffffffffffffffff1673ffffffffffffffffffffffffffffffffffffffff16815260200160038201548152602001600482015481526020016005820154815260200160068201548152602001600782015481526020016008820154815260200160098201805480602002602001604051908101604052809291908181526020018280548015610d9557602002820191906000526020600020905b815481526020019060010190808311610d81575b50505050508152602001600a8201805480602002602001604051908101604052809291908181526020018280548015610e2357602002820191906000526020600020905b8160009054906101000a900473ffffffffffffffffffffffffffffffffffffffff1673ffffffffffffffffffffffffffffffffffffffff1681526020019060010190808311610dd9575b50505050508152602001600b820160009054906101000a900460ff16151515158152602001600b820160019054906101000a900460ff166004811115610e6557fe5b6004811115610e7057fe5b8152602001600b820160029054906101000a900460ff166003811115610e9257fe5b6003811115610e9d57fe5b815250509050806080015192505050919050565b600081610ebd81612f44565b610efc576040517f08c379a0000000000000000000000000000000000000000000000000000000008152600401610ef3906146d2565b60405180910390fd5b60008381548110610f0957fe5b90600052602060002090600c020160010180549050915050919050565b606081610f3281612f44565b610f71576040517f08c379a0000000000000000000000000000000000000000000000000000000008152600401610f68906146d2565b60405180910390fd5b610f796136a8565b60008481548110610f8657fe5b90600052602060002090600c0201604051806101c0016040529081600082018054600181600116156101000203166002900480601f0160208091040260200160405190810160405280929190818152602001828054600181600116156101000203166002900480156110395780601f1061100e57610100808354040283529160200191611039565b820191906000526020600020905b81548152906001019060200180831161101c57829003601f168201915b5050505050815260200160018201805480602002602001604051908101604052809291908181526020016000905b82821015611123578382906000526020600020018054600181600116156101000203166002900480601f01602080910402602001604051908101604052809291908181526020018280546001816001161561010002031660029004801561110f5780601f106110e45761010080835404028352916020019161110f565b820191906000526020600020905b8154815290600101906020018083116110f257829003601f168201915b505050505081526020019060010190611067565b5050505081526020016002820160009054906101000a900473ffffffffffffffffffffffffffffffffffffffff1673ffffffffffffffffffffffffffffffffffffffff1673ffffffffffffffffffffffffffffffffffffffff1681526020016003820154815260200160048201548152602001600582015481526020016006820154815260200160078201548152602001600882015481526020016009820180548060200260200160405190810160405280929190818152602001828054801561120c57602002820191906000526020600020905b8154815260200190600101908083116111f8575b50505050508152602001600a820180548060200260200160405190810160405280929190818152602001828054801561129a57602002820191906000526020600020905b8160009054906101000a900473ffffffffffffffffffffffffffffffffffffffff1673ffffffffffffffffffffffffffffffffffffffff1681526020019060010190808311611250575b50505050508152602001600b820160009054906101000a900460ff16151515158152602001600b820160019054906101000a900460ff1660048111156112dc57fe5b60048111156112e757fe5b8152602001600b820160029054906101000a900460ff16600381111561130957fe5b600381111561131457fe5b815250509050806000015192505050919050565b606080611333611bf6565b90506060600a67ffffffffffffffff8111801561134f57600080fd5b5060405190808252806020026020018201604052801561138957816020015b6113766136a8565b81526020019060019003908161136e5790505b509050611395826131b1565b60005b6113a4600a84516131c4565b8110156113e1578281815181106113b757fe5b60200260200101518282815181106113cb57fe5b6020026020010181905250806001019050611398565b50809250505090565b600081815481106113f757fe5b90600052602060002090600c020160020160009054906101000a900473ffffffffffffffffffffffffffffffffffffffff1673ffffffffffffffffffffffffffffffffffffffff163373ffffffffffffffffffffffffffffffffffffffff161461146057600080fd5b6000818154811061146d57fe5b90600052602060002090600c0201600b0160009054906101000a900460ff16156117f85760006005600083815481106114a257fe5b90600052602060002090600c0201600401540290506000605a600084815481106114c857fe5b90600052602060002090600c02016004015402905060008084815481106114eb57fe5b90600052602060002090600c0201600a01805490509050600080858154811061151057fe5b90600052602060002090600c020160080154905060003390508073ffffffffffffffffffffffffffffffffffffffff166108fc6509184e72a00087029081150290604051600060405180830381858888f19350505050158015611577573d6000803e3d6000fd5b507f9bb2540ba4555d75223ea5cea496bb837f39aecdc27e8a45a41e3c7b2c4f8f5581866040516115a99291906145ac565b60405180910390a160005b838110156117ed57600087815481106115c957fe5b90600052602060002090600c0201600a0181815481106115e557fe5b9060005260206000200160009054906101000a900473ffffffffffffffffffffffffffffffffffffffff1691508173ffffffffffffffffffffffffffffffffffffffff166108fc6000898154811061163957fe5b90600052602060002090600c0201600901858154811061165557fe5b9060005260206000200154600160008b815260200190815260200160002060008673ffffffffffffffffffffffffffffffffffffffff1673ffffffffffffffffffffffffffffffffffffffff16815260200190815260200160002086815481106116bb57fe5b90600052602060002001546509184e72a000890202816116d757fe5b049081150290604051600060405180830381858888f19350505050158015611703573d6000803e3d6000fd5b507f9bb2540ba4555d75223ea5cea496bb837f39aecdc27e8a45a41e3c7b2c4f8f55826000898154811061173357fe5b90600052602060002090600c0201600901858154811061174f57fe5b9060005260206000200154600160008b815260200190815260200160002060008673ffffffffffffffffffffffffffffffffffffffff1673ffffffffffffffffffffffffffffffffffffffff16815260200190815260200160002086815481106117b557fe5b90600052602060002001548802816117c957fe5b046040516117d89291906145ac565b60405180910390a180806001019150506115b4565b505050505050611a23565b6000806000838154811061180857fe5b90600052602060002090600c0201600a01805490509050600080848154811061182d57fe5b90600052602060002090600c020160010180549050905060005b82811015611a1e576000858154811061185c57fe5b90600052602060002090600c0201600a01818154811061187857fe5b9060005260206000200160009054906101000a900473ffffffffffffffffffffffffffffffffffffffff16935060005b82811015611a10578473ffffffffffffffffffffffffffffffffffffffff166108fc66038d7ea4c68000600160008a815260200190815260200160002060008973ffffffffffffffffffffffffffffffffffffffff1673ffffffffffffffffffffffffffffffffffffffff168152602001908152602001600020848154811061192d57fe5b9060005260206000200154029081150290604051600060405180830381858888f19350505050158015611964573d6000803e3d6000fd5b507f9bb2540ba4555d75223ea5cea496bb837f39aecdc27e8a45a41e3c7b2c4f8f55856001600089815260200190815260200160002060008873ffffffffffffffffffffffffffffffffffffffff1673ffffffffffffffffffffffffffffffffffffffff16815260200190815260200160002083815481106119e257fe5b90600052602060002001546040516119fb9291906145ac565b60405180910390a180806001019150506118a8565b508080600101915050611847565b505050505b50565b60008080549050905060008451905060608167ffffffffffffffff81118015611a4e57600080fd5b50604051908082528060200260200182016040528015611a7d5781602001602082028036833780820191505090505b5090506000806001816001815401808255809150500390600052602060002090600c020190508b816000019080519060200190611abb929190613745565b50338160020160006101000a81548173ffffffffffffffffffffffffffffffffffffffff021916908373ffffffffffffffffffffffffffffffffffffffff1602179055508a816003018190555089816005018190555088816006018190555087816007018190555086816001019080519060200190611b3b9291906137c5565b5081816009019080519060200190611b54929190613825565b50611b5e866131e0565b81600b0160016101000a81548160ff02191690836004811115611b7d57fe5b0217905550611b8b85613358565b81600b0160026101000a81548160ff02191690836003811115611baa57fe5b02179055507ffd9b824c32c4b314de8cc8632b170ef722e0fa61fcf35583a814356d916bc1fa848d604051611be0929190614794565b60405180910390a1505050505050505050505050565b606060006060611c04613103565b809250819350505060608267ffffffffffffffff81118015611c2557600080fd5b50604051908082528060200260200182016040528015611c5f57816020015b611c4c6136a8565b815260200190600190039081611c445790505b50905060005b83811015612043576000838281518110611c7b57fe5b602002602001015181548110611c8d57fe5b90600052602060002090600c0201604051806101c0016040529081600082018054600181600116156101000203166002900480601f016020809104026020016040519081016040528092919081815260200182805460018160011615610100020316600290048015611d405780601f10611d1557610100808354040283529160200191611d40565b820191906000526020600020905b815481529060010190602001808311611d2357829003601f168201915b5050505050815260200160018201805480602002602001604051908101604052809291908181526020016000905b82821015611e2a578382906000526020600020018054600181600116156101000203166002900480601f016020809104026020016040519081016040528092919081815260200182805460018160011615610100020316600290048015611e165780601f10611deb57610100808354040283529160200191611e16565b820191906000526020600020905b815481529060010190602001808311611df957829003601f168201915b505050505081526020019060010190611d6e565b5050505081526020016002820160009054906101000a900473ffffffffffffffffffffffffffffffffffffffff1673ffffffffffffffffffffffffffffffffffffffff1673ffffffffffffffffffffffffffffffffffffffff16815260200160038201548152602001600482015481526020016005820154815260200160068201548152602001600782015481526020016008820154815260200160098201805480602002602001604051908101604052809291908181526020018280548015611f1357602002820191906000526020600020905b815481526020019060010190808311611eff575b50505050508152602001600a8201805480602002602001604051908101604052809291908181526020018280548015611fa157602002820191906000526020600020905b8160009054906101000a900473ffffffffffffffffffffffffffffffffffffffff1673ffffffffffffffffffffffffffffffffffffffff1681526020019060010190808311611f57575b50505050508152602001600b820160009054906101000a900460ff16151515158152602001600b820160019054906101000a900460ff166004811115611fe357fe5b6004811115611fee57fe5b8152602001600b820160029054906101000a900460ff16600381111561201057fe5b600381111561201b57fe5b8152505082828151811061202b57fe5b60200260200101819052508080600101915050611c65565b5080935050505090565b60008161205981612f44565b612098576040517f08c379a000000000000000000000000000000000000000000000000000000000815260040161208f906146d2565b60405180910390fd5b6120a06136a8565b600084815481106120ad57fe5b90600052602060002090600c0201604051806101c0016040529081600082018054600181600116156101000203166002900480601f0160208091040260200160405190810160405280929190818152602001828054600181600116156101000203166002900480156121605780601f1061213557610100808354040283529160200191612160565b820191906000526020600020905b81548152906001019060200180831161214357829003601f168201915b5050505050815260200160018201805480602002602001604051908101604052809291908181526020016000905b8282101561224a578382906000526020600020018054600181600116156101000203166002900480601f0160208091040260200160405190810160405280929190818152602001828054600181600116156101000203166002900480156122365780601f1061220b57610100808354040283529160200191612236565b820191906000526020600020905b81548152906001019060200180831161221957829003601f168201915b50505050508152602001906001019061218e565b5050505081526020016002820160009054906101000a900473ffffffffffffffffffffffffffffffffffffffff1673ffffffffffffffffffffffffffffffffffffffff1673ffffffffffffffffffffffffffffffffffffffff1681526020016003820154815260200160048201548152602001600582015481526020016006820154815260200160078201548152602001600882015481526020016009820180548060200260200160405190810160405280929190818152602001828054801561233357602002820191906000526020600020905b81548152602001906001019080831161231f575b50505050508152602001600a82018054806020026020016040519081016040528092919081815260200182805480156123c157602002820191906000526020600020905b8160009054906101000a900473ffffffffffffffffffffffffffffffffffffffff1673ffffffffffffffffffffffffffffffffffffffff1681526020019060010190808311612377575b50505050508152602001600b820160009054906101000a900460ff16151515158152602001600b820160019054906101000a900460ff16600481111561240357fe5b600481111561240e57fe5b8152602001600b820160029054906101000a900460ff16600381111561243057fe5b600381111561243b57fe5b815250509050806060015192505050919050565b60008161245b81612f44565b61249a576040517f08c379a0000000000000000000000000000000000000000000000000000000008152600401612491906146d2565b60405180910390fd5b600083815481106124a757fe5b90600052602060002090600c0201600b0160009054906101000a900460ff16612505576040517f08c379a00000000000000000000000000000000000000000000000000000000081526004016124fc90614672565b60405180910390fd5b6000838154811061251257fe5b90600052602060002090600c020160080154915050919050565b6125346136a8565b60006001600080549050038154811061254957fe5b90600052602060002090600c0201604051806101c0016040529081600082018054600181600116156101000203166002900480601f0160208091040260200160405190810160405280929190818152602001828054600181600116156101000203166002900480156125fc5780601f106125d1576101008083540402835291602001916125fc565b820191906000526020600020905b8154815290600101906020018083116125df57829003601f168201915b5050505050815260200160018201805480602002602001604051908101604052809291908181526020016000905b828210156126e6578382906000526020600020018054600181600116156101000203166002900480601f0160208091040260200160405190810160405280929190818152602001828054600181600116156101000203166002900480156126d25780601f106126a7576101008083540402835291602001916126d2565b820191906000526020600020905b8154815290600101906020018083116126b557829003601f168201915b50505050508152602001906001019061262a565b5050505081526020016002820160009054906101000a900473ffffffffffffffffffffffffffffffffffffffff1673ffffffffffffffffffffffffffffffffffffffff1673ffffffffffffffffffffffffffffffffffffffff168152602001600382015481526020016004820154815260200160058201548152602001600682015481526020016007820154815260200160088201548152602001600982018054806020026020016040519081016040528092919081815260200182805480156127cf57602002820191906000526020600020905b8154815260200190600101908083116127bb575b50505050508152602001600a820180548060200260200160405190810160405280929190818152602001828054801561285d57602002820191906000526020600020905b8160009054906101000a900473ffffffffffffffffffffffffffffffffffffffff1673ffffffffffffffffffffffffffffffffffffffff1681526020019060010190808311612813575b50505050508152602001600b820160009054906101000a900460ff16151515158152602001600b820160019054906101000a900460ff16600481111561289f57fe5b60048111156128aa57fe5b8152602001600b820160029054906101000a900460ff1660038111156128cc57fe5b60038111156128d757fe5b81525050905090565b600082815481106128ed57fe5b90600052602060002090600c020160020160009054906101000a900473ffffffffffffffffffffffffffffffffffffffff1673ffffffffffffffffffffffffffffffffffffffff163373ffffffffffffffffffffffffffffffffffffffff161461295657600080fd5b806000838154811061296457fe5b90600052602060002090600c02016008018190555060016000838154811061298857fe5b90600052602060002090600c0201600b0160006101000a81548160ff0219169083151502179055507f4772d83d7289b527150ec81022e02e39b5b278f66492d7f0702903636f33396d82826040516129e19291906147c4565b60405180910390a15050565b6000816129f981612f44565b612a38576040517f08c379a0000000000000000000000000000000000000000000000000000000008152600401612a2f906146d2565b60405180910390fd5b612a406136a8565b60008481548110612a4d57fe5b90600052602060002090600c0201604051806101c0016040529081600082018054600181600116156101000203166002900480601f016020809104026020016040519081016040528092919081815260200182805460018160011615610100020316600290048015612b005780601f10612ad557610100808354040283529160200191612b00565b820191906000526020600020905b815481529060010190602001808311612ae357829003601f168201915b5050505050815260200160018201805480602002602001604051908101604052809291908181526020016000905b82821015612bea578382906000526020600020018054600181600116156101000203166002900480601f016020809104026020016040519081016040528092919081815260200182805460018160011615610100020316600290048015612bd65780601f10612bab57610100808354040283529160200191612bd6565b820191906000526020600020905b815481529060010190602001808311612bb957829003601f168201915b505050505081526020019060010190612b2e565b5050505081526020016002820160009054906101000a900473ffffffffffffffffffffffffffffffffffffffff1673ffffffffffffffffffffffffffffffffffffffff1673ffffffffffffffffffffffffffffffffffffffff16815260200160038201548152602001600482015481526020016005820154815260200160068201548152602001600782015481526020016008820154815260200160098201805480602002602001604051908101604052809291908181526020018280548015612cd357602002820191906000526020600020905b815481526020019060010190808311612cbf575b50505050508152602001600a8201805480602002602001604051908101604052809291908181526020018280548015612d6157602002820191906000526020600020905b8160009054906101000a900473ffffffffffffffffffffffffffffffffffffffff1673ffffffffffffffffffffffffffffffffffffffff1681526020019060010190808311612d17575b50505050508152602001600b820160009054906101000a900460ff16151515158152602001600b820160019054906101000a900460ff166004811115612da357fe5b6004811115612dae57fe5b8152602001600b820160029054906101000a900460ff166003811115612dd057fe5b6003811115612ddb57fe5b8152505090508060a0015192505050919050565b606081612dfb81612f44565b612e3a576040517f08c379a0000000000000000000000000000000000000000000000000000000008152600401612e31906146d2565b60405180910390fd5b6000612e4584610eb1565b905060608167ffffffffffffffff81118015612e6057600080fd5b50604051908082528060200260200182016040528015612e8f5781602001602082028036833780820191505090505b509050612e9c8533613475565b15612f395760005b82811015612f37576001600087815260200190815260200160002060003373ffffffffffffffffffffffffffffffffffffffff1673ffffffffffffffffffffffffffffffffffffffff1681526020019081526020016000208181548110612f0757fe5b9060005260206000200154828281518110612f1e57fe5b6020026020010181815250508080600101915050612ea4565b505b809350505050919050565b6000808281548110612f5257fe5b90600052602060002090600c0201600601544211159050919050565b81612f7881612f44565b612fb7576040517f08c379a0000000000000000000000000000000000000000000000000000000008152600401612fae906146d2565b60405180910390fd5b6000612fc38484613475565b9050806130fd5760008481548110612fd757fe5b90600052602060002090600c0201600a01839080600181540180825580915050600190039060005260206000200160009091909190916101000a81548173ffffffffffffffffffffffffffffffffffffffff021916908373ffffffffffffffffffffffffffffffffffffffff16021790555061305284610eb1565b67ffffffffffffffff8111801561306857600080fd5b506040519080825280602002602001820160405280156130975781602001602082028036833780820191505090505b506001600086815260200190815260200160002060003373ffffffffffffffffffffffffffffffffffffffff1673ffffffffffffffffffffffffffffffffffffffff16815260200190815260200160002090805190602001906130fb929190613825565b505b50505050565b600060608060008054905067ffffffffffffffff8111801561312457600080fd5b506040519080825280602002602001820160405280156131535781602001602082028036833780820191505090505b5090506000805b6000805490508110156131a45761317081612f44565b15613197578083838151811061318257fe5b60200260200101818152505081806001019250505b808060010191505061315a565b5080829350935050509091565b6131c18160006001845103613553565b50565b6000818311156131d6578290506131da565b8190505b92915050565b60006040516020016131f190614582565b60405160208183030381529060405280519060200120826040516020016132189190614502565b60405160208183030381529060405280519060200120141561323d5760019050613353565b60405160200161324c90614558565b60405160208183030381529060405280519060200120826040516020016132739190614502565b6040516020818303038152906040528051906020012014156132985760029050613353565b6040516020016132a790614543565b60405160208183030381529060405280519060200120826040516020016132ce9190614502565b6040516020818303038152906040528051906020012014156132f35760019050613353565b60405160200161330290614519565b60405160208183030381529060405280519060200120826040516020016133299190614502565b60405160208183030381529060405280519060200120141561334e5760049050613353565b600090505b919050565b600060405160200161336990614597565b60405160208183030381529060405280519060200120826040516020016133909190614502565b6040516020818303038152906040528051906020012014156133b55760019050613470565b6040516020016133c49061456d565b60405160208183030381529060405280519060200120826040516020016133eb9190614502565b6040516020818303038152906040528051906020012014156134105760039050613470565b60405160200161341f9061452e565b60405160208183030381529060405280519060200120826040516020016134469190614502565b60405160208183030381529060405280519060200120141561346b5760029050613470565b600090505b919050565b6000806000848154811061348557fe5b90600052602060002090600c0201600a0180549050905060005b81811015613546578373ffffffffffffffffffffffffffffffffffffffff16600086815481106134cb57fe5b90600052602060002090600c0201600a0182815481106134e757fe5b9060005260206000200160009054906101000a900473ffffffffffffffffffffffffffffffffffffffff1673ffffffffffffffffffffffffffffffffffffffff1614156135395760019250505061354d565b808060010191505061349f565b5060009150505b92915050565b600082905060008290508082141561356c5750506136a3565b6135746136a8565b8560028686038161358157fe5b0486018151811061358e57fe5b602002602001015190505b818311613677575b80608001518684815181106135b257fe5b60200260200101516080015110156135d15782806001019350506135a1565b5b8582815181106135de57fe5b60200260200101516080015181608001511015613603578180600190039250506135d2565b8183116136725785828151811061361657fe5b602002602001015186848151811061362a57fe5b602002602001015187858151811061363e57fe5b6020026020010188858151811061365157fe5b60200260200101829052829052505082806001019350508180600190039250505b613599565b8185101561368b5761368a868684613553565b5b8383101561369f5761369e868486613553565b5b5050505b505050565b604051806101c001604052806060815260200160608152602001600073ffffffffffffffffffffffffffffffffffffffff16815260200160008152602001600081526020016000815260200160008152602001600081526020016000815260200160608152602001606081526020016000151581526020016000600481111561372d57fe5b81526020016000600381111561373f57fe5b81525090565b828054600181600116156101000203166002900490600052602060002090601f016020900481019282601f1061378657805160ff19168380011785556137b4565b828001600101855582156137b4579182015b828111156137b3578251825591602001919060010190613798565b5b5090506137c19190613872565b5090565b828054828255906000526020600020908101928215613814579160200282015b82811115613813578251829080519060200190613803929190613745565b50916020019190600101906137e5565b5b509050613821919061388f565b5090565b828054828255906000526020600020908101928215613861579160200282015b82811115613860578251825591602001919060010190613845565b5b50905061386e9190613872565b5090565b5b8082111561388b576000816000905550600101613873565b5090565b5b808211156138af57600081816138a691906138b3565b50600101613890565b5090565b50805460018160011615610100020316600290046000825580601f106138d957506138f8565b601f0160209004906000526020600020908101906138f79190613872565b5b50565b600082601f83011261390c57600080fd5b813561391f61391a8261481a565b6147ed565b9150818183526020840193506020810190508360005b83811015613965578135860161394b888261396f565b845260208401935060208301925050600181019050613935565b5050505092915050565b600082601f83011261398057600080fd5b813561399361398e82614842565b6147ed565b915080825260208301602083018583830111156139af57600080fd5b6139ba838284614a9c565b50505092915050565b6000813590506139d281614b09565b92915050565b600080600080600080600080610100898b0312156139f557600080fd5b600089013567ffffffffffffffff811115613a0f57600080fd5b613a1b8b828c0161396f565b9850506020613a2c8b828c016139c3565b9750506040613a3d8b828c016139c3565b9650506060613a4e8b828c016139c3565b9550506080613a5f8b828c016139c3565b94505060a089013567ffffffffffffffff811115613a7c57600080fd5b613a888b828c016138fb565b93505060c089013567ffffffffffffffff811115613aa557600080fd5b613ab18b828c0161396f565b92505060e089013567ffffffffffffffff811115613ace57600080fd5b613ada8b828c0161396f565b9150509295985092959890939650565b600060208284031215613afc57600080fd5b6000613b0a848285016139c3565b91505092915050565b60008060408385031215613b2657600080fd5b6000613b34858286016139c3565b9250506020613b45858286016139c3565b9150509250929050565b600080600060608486031215613b6457600080fd5b6000613b72868287016139c3565b9350506020613b83868287016139c3565b9250506040613b94868287016139c3565b9150509250925092565b6000613baa8383613c1d565b60208301905092915050565b6000613bc28383613e8e565b60208301905092915050565b6000613bda8383613ebb565b905092915050565b6000613bee838361425e565b905092915050565b6000613c0283836144e4565b60208301905092915050565b613c1781614a42565b82525050565b613c26816149d4565b82525050565b6000613c37826148be565b613c418185614941565b9350613c4c8361486e565b8060005b83811015613c7d578151613c648882613b9e565b9750613c6f83614900565b925050600181019050613c50565b5085935050505092915050565b6000613c95826148c9565b613c9f8185614952565b9350613caa8361487e565b8060005b83811015613cdb578151613cc28882613bb6565b9750613ccd8361490d565b925050600181019050613cae565b5085935050505092915050565b6000613cf3826148d4565b613cfd8185614963565b935083602082028501613d0f8561488e565b8060005b85811015613d4b5784840389528151613d2c8582613bce565b9450613d378361491a565b925060208a01995050600181019050613d13565b50829750879550505050505092915050565b6000613d68826148df565b613d728185614974565b935083602082028501613d848561489e565b8060005b85811015613dc05784840389528151613da18582613be2565b9450613dac83614927565b925060208a01995050600181019050613d88565b50829750879550505050505092915050565b6000613ddd826148ea565b613de78185614985565b9350613df2836148ae565b8060005b83811015613e23578151613e0a8882613bf6565b9750613e1583614934565b925050600181019050613df6565b5085935050505092915050565b6000613e3b826148ea565b613e458185614996565b9350613e50836148ae565b8060005b83811015613e81578151613e688882613bf6565b9750613e7383614934565b925050600181019050613e54565b5085935050505092915050565b613e97816149e6565b82525050565b613ea681614a54565b82525050565b613eb581614a66565b82525050565b6000613ec6826148f5565b613ed081856149a7565b9350613ee0818560208601614aab565b613ee981614ade565b840191505092915050565b6000613eff826148f5565b613f0981856149b8565b9350613f19818560208601614aab565b613f2281614ade565b840191505092915050565b6000613f38826148f5565b613f4281856149c9565b9350613f52818560208601614aab565b80840191505092915050565b6000613f6b6006836149c9565b91507f4575726f706500000000000000000000000000000000000000000000000000006000830152600682019050919050565b6000613fab6008836149c9565b91507f506f6c69746963730000000000000000000000000000000000000000000000006000830152600882019050919050565b6000613feb6012836149b8565b91507f416e73776572206e6f74207365742079657400000000000000000000000000006000830152602082019050919050565b600061402b6003836149c9565b91507f55534100000000000000000000000000000000000000000000000000000000006000830152600382019050919050565b600061406b6010836149b8565b91507f4e6f7420456e6f756768204d6f6e6579000000000000000000000000000000006000830152602082019050919050565b60006140ab6005836149c9565b91507f4368696e610000000000000000000000000000000000000000000000000000006000830152600582019050919050565b60006140eb6006836149c9565b91507f53706f72747300000000000000000000000000000000000000000000000000006000830152600682019050919050565b600061412b6010836149b8565b91507f4265742074696d65206973206f766572000000000000000000000000000000006000830152602082019050919050565b600061416b600f836149b8565b91507f42657420686173206578706972656400000000000000000000000000000000006000830152602082019050919050565b60006141ab6011836149b8565b91507f546f6f206d756368206d6f6e65792121210000000000000000000000000000006000830152602082019050919050565b60006141eb6006836149c9565b91507f54616977616e00000000000000000000000000000000000000000000000000006000830152600682019050919050565b600061422b6004836149c9565b91507f4e657773000000000000000000000000000000000000000000000000000000006000830152600482019050919050565b60006101c083016000830151848203600086015261427c8282613ebb565b915050602083015184820360208601526142968282613ce8565b91505060408301516142ab6040860182613c1d565b5060608301516142be60608601826144e4565b5060808301516142d160808601826144e4565b5060a08301516142e460a08601826144e4565b5060c08301516142f760c08601826144e4565b5060e083015161430a60e08601826144e4565b5061010083015161431f6101008601826144e4565b506101208301518482036101208601526143398282613dd2565b9150506101408301518482036101408601526143558282613c2c565b91505061016083015161436c610160860182613e8e565b50610180830151614381610180860182613eac565b506101a08301516143966101a0860182613e9d565b508091505092915050565b60006101c08301600083015184820360008601526143bf8282613ebb565b915050602083015184820360208601526143d98282613ce8565b91505060408301516143ee6040860182613c1d565b50606083015161440160608601826144e4565b50608083015161441460808601826144e4565b5060a083015161442760a08601826144e4565b5060c083015161443a60c08601826144e4565b5060e083015161444d60e08601826144e4565b506101008301516144626101008601826144e4565b5061012083015184820361012086015261447c8282613dd2565b9150506101408301518482036101408601526144988282613c2c565b9150506101608301516144af610160860182613e8e565b506101808301516144c4610180860182613eac565b506101a08301516144d96101a0860182613e9d565b508091505092915050565b6144ed81614a38565b82525050565b6144fc81614a38565b82525050565b600061450e8284613f2d565b915081905092915050565b600061452482613f5e565b9150819050919050565b600061453982613f9e565b9150819050919050565b600061454e8261401e565b9150819050919050565b60006145638261409e565b9150819050919050565b6000614578826140de565b9150819050919050565b600061458d826141de565b9150819050919050565b60006145a28261421e565b9150819050919050565b60006040820190506145c16000830185613c0e565b6145ce60208301846144f3565b9392505050565b600060208201905081810360008301526145ef8184613d5d565b905092915050565b600060208201905081810360008301526146118184613e30565b905092915050565b600060408201905081810360008301526146338185613e30565b905081810360208301526146478184613c8a565b90509392505050565b6000602082019050818103600083015261466a8184613ef4565b905092915050565b6000602082019050818103600083015261468b81613fde565b9050919050565b600060208201905081810360008301526146ab8161405e565b9050919050565b600060208201905081810360008301526146cb8161411e565b9050919050565b600060208201905081810360008301526146eb8161415e565b9050919050565b6000602082019050818103600083015261470b8161419e565b9050919050565b6000602082019050818103600083015261472c81846143a1565b905092915050565b600060208201905061474960008301846144f3565b92915050565b600060808201905061476460008301876144f3565b6147716020830186613c0e565b61477e60408301856144f3565b61478b60608301846144f3565b95945050505050565b60006040820190506147a960008301856144f3565b81810360208301526147bb8184613ef4565b90509392505050565b60006040820190506147d960008301856144f3565b6147e660208301846144f3565b9392505050565b6000604051905081810181811067ffffffffffffffff8211171561481057600080fd5b8060405250919050565b600067ffffffffffffffff82111561483157600080fd5b602082029050602081019050919050565b600067ffffffffffffffff82111561485957600080fd5b601f19601f8301169050602081019050919050565b6000819050602082019050919050565b6000819050602082019050919050565b6000819050602082019050919050565b6000819050602082019050919050565b6000819050602082019050919050565b600081519050919050565b600081519050919050565b600081519050919050565b600081519050919050565b600081519050919050565b600081519050919050565b6000602082019050919050565b6000602082019050919050565b6000602082019050919050565b6000602082019050919050565b6000602082019050919050565b600082825260208201905092915050565b600082825260208201905092915050565b600082825260208201905092915050565b600082825260208201905092915050565b600082825260208201905092915050565b600082825260208201905092915050565b600082825260208201905092915050565b600082825260208201905092915050565b600081905092915050565b60006149df82614a18565b9050919050565b60008115159050919050565b6000819050614a0082614aef565b919050565b6000819050614a1382614afc565b919050565b600073ffffffffffffffffffffffffffffffffffffffff82169050919050565b6000819050919050565b6000614a4d82614a78565b9050919050565b6000614a5f826149f2565b9050919050565b6000614a7182614a05565b9050919050565b6000614a8382614a8a565b9050919050565b6000614a9582614a18565b9050919050565b82818337600083830152505050565b60005b83811015614ac9578082015181840152602081019050614aae565b83811115614ad8576000848401525b50505050565b6000601f19601f8301169050919050565b60048110614af957fe5b50565b60058110614b0657fe5b50565b614b1281614a38565b8114614b1d57600080fd5b5056fea2646970667358221220ce6c2c74a34b8bf366f664608a93247d2bb575ab30e3c25134a071396fa48c1864736f6c634300060c0033",
  "immutableReferences": {},
  "source": "pragma solidity >=0.6.0 <0.8.0;\npragma experimental ABIEncoderV2;\n\ncontract OnlineBetting {\n\n    //constants\n    uint constant SMALLEST_FEE = 0.001 ether;\n    uint constant PERCENTAGE_FEE = 0.00001 ether;\n\n    //events\n    event BetAdded(uint betId, string title);  //emit when\n    event MoneyAdded(uint betId, address adder, uint choice, uint amount);\n    event AnswerSet(uint betId, uint choice);\n    event MoneyGiven(address receiver, uint amount);\n\n    //Enums\n    enum Region{ Other, Taiwan, China, USA, Europe }\n    enum Genre{ Other, News, Politics, Sports }\n\n    //Bet\n    struct Bet {\n        string title;\n        string[] choices;\n        address owner;\n        uint lowerBound;\n        uint currentAmount;\n        uint upperBound;\n        uint publishTime;\n        uint lastBetTime;\n        uint answer;\n        uint[] currentChoices;\n        address[] voter;\n        bool isAnswerSet;\n        Region region;\n        Genre genre;\n    }\n\n    //Bet list\n    Bet[] bets;\n    mapping (uint => mapping (address => uint[])) voterChoice;\n\n    //Modifiers\n    //Valid bet modifier\n    modifier isValidId(uint _id) {\n        require(_isIdValid(_id), \"Bet has expired\");\n        _;\n    }\n\n    //Valid amount\n    modifier isValidAmount(uint _id, uint _amount) {\n        require(bets[_id].currentAmount + _amount <= bets[_id].upperBound, \"Too much money!!!\");\n        _;\n    }\n\n    //functions\n    //Add bet to bets\n    function addBet(\n        string memory _title, \n        uint _lowerBound, \n        uint _upperBound, \n        uint _publishTime, \n        uint _lastBetTime, \n        string[] memory _choices, \n        string memory _region, \n        string memory _genre\n    ) public {\n        uint betId = bets.length;\n        uint choiceLength = _choices.length;\n        uint[] memory currentChoices = new uint[](choiceLength);\n        Bet storage bet = bets.push();\n        bet.title = _title;\n        bet.owner = msg.sender;\n        bet.lowerBound = _lowerBound;\n        bet.upperBound = _upperBound;\n        bet.publishTime = _publishTime;\n        bet.lastBetTime = _lastBetTime;\n        bet.choices = _choices;\n        bet.currentChoices = currentChoices;\n        bet.region = _str2Region(_region);\n        bet.genre = _str2Genre(_genre);\n        emit BetAdded(betId, _title);\n    }\n\n    function addMoney(uint _id, uint _choice, uint _amount) public payable isValidId(_id) isValidAmount(_id, _amount) {\n        //require(bets[_id].owner != msg.sender, \"Cannot add money to your own bets.\");\n        require(msg.value == _amount*SMALLEST_FEE, \"Not Enough Money\");\n        require(now <= bets[_id].lastBetTime, \"Bet time is over\");\n        bets[_id].currentAmount += _amount;\n        bets[_id].currentChoices[_choice] += _amount;\n        _addressInit(_id, msg.sender);\n        voterChoice[_id][msg.sender][_choice] += _amount;\n        emit MoneyAdded(_id, msg.sender, _choice, _amount);\n    }\n    \n    function setAnswer(uint _id, uint _answer) public {\n        require(msg.sender == bets[_id].owner);\n        bets[_id].answer = _answer;\n        bets[_id].isAnswerSet = true;\n        emit AnswerSet(_id, _answer);\n    }\n\n    function distributeMoney(uint _id) public payable {\n        require(msg.sender == bets[_id].owner);\n        if(bets[_id].isAnswerSet) {\n            uint creatorReward = uint(bets[_id].currentAmount*5);\n            uint otherReward = uint(bets[_id].currentAmount*90);\n            uint numVoters = bets[_id].voter.length;\n            uint answer = bets[_id].answer;\n\n            address payable receiver = msg.sender;\n            receiver.transfer(creatorReward * PERCENTAGE_FEE);\n            emit MoneyGiven(receiver, creatorReward);\n            for(uint i = 0; i < numVoters; i++) {\n                receiver = payable(bets[_id].voter[i]);\n                receiver.transfer(otherReward * PERCENTAGE_FEE * voterChoice[_id][receiver][answer] / bets[_id].currentChoices[answer]);\n                emit MoneyGiven(receiver, otherReward * voterChoice[_id][receiver][answer] / bets[_id].currentChoices[answer]);\n            }\n        }\n        else {\n            address payable receiver;\n            uint numVoters = bets[_id].voter.length;\n            uint numChoices = bets[_id].choices.length;\n            for(uint i = 0; i < numVoters; i++) {\n                receiver = payable(bets[_id].voter[i]);\n                for(uint j = 0; j < numChoices; j++) {\n                    receiver.transfer(voterChoice[_id][receiver][j] * SMALLEST_FEE);\n                    emit MoneyGiven(receiver, voterChoice[_id][receiver][j]);\n                }\n            }\n        }\n    }\n\n    function getLastBet() public view returns(Bet memory) {\n        return bets[bets.length-1];\n    }\n\n    function getBets() public view returns(Bet[] memory) {\n        uint count;\n        uint[] memory ids;\n        (count, ids) = _getValidIds();\n        Bet[] memory validBets = new Bet[](count);\n        for(uint i = 0; i < count; i++) {\n            validBets[i] = bets[ids[i]];\n        }\n        return validBets;\n    }\n\n    function getHotBets() public view returns(Bet[] memory) {\n        Bet[] memory validBets = getBets();\n        Bet[] memory hotBets = new Bet[](10);\n        _sortBets(validBets);\n        for(uint i = 0; i < _max(10, validBets.length); ++i) {\n            hotBets[i] = validBets[i];\n        }\n        return hotBets;\n    }\n\n\n// version 1.0\n    function getIds() public view returns(uint[] memory, bool[] memory) {\n        uint count;\n        uint[] memory ids;\n        (count, ids) = _getValidIds();\n        uint[] memory validIds = new uint[](count);\n        bool[] memory isOwnIds = new bool[](count);\n        for(uint i = 0; i < count; i++) {\n            validIds[i] = ids[i];\n            isOwnIds[i] = (bets[i].owner == msg.sender);\n        }\n        return (validIds, isOwnIds);\n    }\n\n    function getTitle(uint _id) public view isValidId(_id) returns(string memory) {\n        Bet memory bet = bets[_id];\n        return bet.title;\n    }\n\n    function getLowerBound(uint _id) public view isValidId(_id) returns(uint) {\n        Bet memory bet = bets[_id];\n        return bet.lowerBound;\n    }\n\n    function getCurrentAmount(uint _id) public view isValidId(_id) returns(uint) {\n        Bet memory bet = bets[_id];\n        return bet.currentAmount;\n    }\n\n    function getUpperBound(uint _id) public view isValidId(_id) returns(uint) {\n        Bet memory bet = bets[_id];\n        return bet.upperBound;\n    }\n\n    function getChoiceNum(uint _id) public view isValidId(_id) returns(uint) {\n        return bets[_id].choices.length;\n    }\n\n    function getChoice(uint _id, uint _choice) public view isValidId(_id) returns(string memory) {\n        return bets[_id].choices[_choice];\n    }\n\n    function getChoicesAmount(uint _id) public view isValidId(_id) returns(uint[] memory) {\n        return bets[_id].currentChoices;\n    }\n\n    function getAddressAmount(uint _id) public view isValidId(_id) returns(uint[] memory) {\n        uint len = getChoiceNum(_id);\n        uint[] memory amounts = new uint[](len);\n        if(_hasBet(_id, msg.sender)) {\n            for(uint i = 0; i < len; i++) {\n                amounts[i] = voterChoice[_id][msg.sender][i];\n            }\n        }\n        return amounts;\n    } \n\n    function getAnswer(uint _id) public view isValidId(_id) returns(uint) {\n        require(bets[_id].isAnswerSet, \"Answer not set yet\");\n        return bets[_id].answer;\n    }\n\n    function getTime() public view returns(uint) {\n        return now;\n    }\n\n    function _getValidIds() internal view returns(uint, uint[] memory) {\n        uint[] memory validIds = new uint[](bets.length);\n        uint count = 0;\n        for(uint i = 0; i < bets.length; i++) {\n            if(_isIdValid(i)) {\n                validIds[count] = i;\n                count++;\n            }\n        }\n        return (count, validIds);\n    }\n\n    function _isIdValid(uint _id) internal view returns(bool) {\n        return (now <= bets[_id].publishTime);\n    }\n\n    function _hasBet(uint _id, address _better) internal view returns(bool) {\n        uint len = bets[_id].voter.length;\n        for(uint i = 0; i < len; i++) {\n            if(bets[_id].voter[i] == _better) return true;\n        }\n        return false;\n    }\n\n    function _addressInit(uint _id, address _better) internal isValidId(_id) {\n        bool isInit = _hasBet(_id, _better);\n        if(!isInit) {\n            bets[_id].voter.push(_better);\n            voterChoice[_id][msg.sender] = new uint[](getChoiceNum(_id));\n        }\n    }\n\n    function _str2Region(string memory _region) internal pure returns(Region) {\n        if(keccak256(abi.encodePacked(_region)) == keccak256(abi.encodePacked(\"Taiwan\"))) return Region.Taiwan;\n        if(keccak256(abi.encodePacked(_region)) == keccak256(abi.encodePacked(\"China\"))) return Region.China;\n        if(keccak256(abi.encodePacked(_region)) == keccak256(abi.encodePacked(\"USA\"))) return Region.Taiwan;\n        if(keccak256(abi.encodePacked(_region)) == keccak256(abi.encodePacked(\"Europe\"))) return Region.Europe;\n        else return Region.Other;\n    }\n\n    function _str2Genre(string memory _genre) internal pure returns(Genre) {\n        if(keccak256(abi.encodePacked(_genre)) == keccak256(abi.encodePacked(\"News\"))) return Genre.News;\n        if(keccak256(abi.encodePacked(_genre)) == keccak256(abi.encodePacked(\"Sports\"))) return Genre.Sports;\n        if(keccak256(abi.encodePacked(_genre)) == keccak256(abi.encodePacked(\"Politics\"))) return Genre.Politics;\n        return Genre.Other;\n    }\n\n    function _sortBets(Bet[] memory _bets) internal pure {\n        _quickSort(_bets, 0, _bets.length-1);\n    }\n\n    function _quickSort(Bet[] memory _bets, uint _init, uint _end) internal pure {\n        uint i = _init;\n        uint j = _end;\n        if(i == j) return;\n        Bet memory pivot = _bets[(_init + (_end - _init) / 2)];\n        while (i <= j) {\n            while (_bets[i].currentAmount < pivot.currentAmount) i++;\n            while (pivot.currentAmount < _bets[j].currentAmount) j--;\n            if (i <= j) {\n                (_bets[uint(i)], _bets[uint(j)]) = (_bets[uint(j)], _bets[uint(i)]);\n                i++;\n                j--;\n            }\n        }\n        if (_init < j)\n            _quickSort(_bets, _init, j);\n        if (i < _end)\n            _quickSort(_bets, i, _end);\n    }\n\n    function _max(uint a, uint b) internal pure returns(uint) {\n        if(a > b) return a;\n        else return b;\n    }\n}",
  "sourcePath": "/Users/peterlin/OnlineBetting/ethereum/contracts/OnlineBetting.sol",
  "compiler": {
    "name": "solc",
    "version": "0.6.12+commit.27d51765.Emscripten.clang"
  },
  "schemaVersion": "3.4.0",
  "updatedAt": "2021-06-22T01:54:21.606Z",
  "networkType": "ethereum",
  "devdoc": {
    "kind": "dev",
    "methods": {},
    "version": 1
  },
  "userdoc": {
    "kind": "user",
    "methods": {},
    "version": 1
  }
}