{
  "contractName": "OnlineBetting",
  "abi": [
    {
      "inputs": [],
      "stateMutability": "nonpayable",
      "type": "constructor"
    },
    {
      "anonymous": false,
      "inputs": [
        {
          "indexed": false,
          "internalType": "uint256",
          "name": "betId",
          "type": "uint256"
        },
        {
          "indexed": false,
          "internalType": "string",
          "name": "comment",
          "type": "string"
        }
      ],
      "name": "AddComment",
      "type": "event"
    },
    {
      "anonymous": false,
      "inputs": [
        {
          "indexed": false,
          "internalType": "uint256",
          "name": "betId",
          "type": "uint256"
        },
        {
          "indexed": false,
          "internalType": "uint256",
          "name": "choice",
          "type": "uint256"
        }
      ],
      "name": "AnswerSet",
      "type": "event"
    },
    {
      "anonymous": false,
      "inputs": [
        {
          "indexed": false,
          "internalType": "uint256",
          "name": "betId",
          "type": "uint256"
        },
        {
          "indexed": false,
          "internalType": "string",
          "name": "title",
          "type": "string"
        }
      ],
      "name": "BetAdded",
      "type": "event"
    },
    {
      "anonymous": false,
      "inputs": [
        {
          "indexed": false,
          "internalType": "uint256",
          "name": "betId",
          "type": "uint256"
        },
        {
          "indexed": false,
          "internalType": "address",
          "name": "adder",
          "type": "address"
        },
        {
          "indexed": false,
          "internalType": "uint256",
          "name": "choice",
          "type": "uint256"
        },
        {
          "indexed": false,
          "internalType": "uint256",
          "name": "amount",
          "type": "uint256"
        }
      ],
      "name": "MoneyAdded",
      "type": "event"
    },
    {
      "anonymous": false,
      "inputs": [
        {
          "indexed": false,
          "internalType": "address",
          "name": "receiver",
          "type": "address"
        },
        {
          "indexed": false,
          "internalType": "uint256",
          "name": "amount",
          "type": "uint256"
        }
      ],
      "name": "MoneyGiven",
      "type": "event"
    },
    {
      "anonymous": false,
      "inputs": [
        {
          "indexed": false,
          "internalType": "address",
          "name": "member",
          "type": "address"
        }
      ],
      "name": "SetVIP",
      "type": "event"
    },
    {
      "inputs": [
        {
          "internalType": "string",
          "name": "_title",
          "type": "string"
        },
        {
          "internalType": "uint256",
          "name": "_lowerBound",
          "type": "uint256"
        },
        {
          "internalType": "uint256",
          "name": "_upperBound",
          "type": "uint256"
        },
        {
          "internalType": "uint256",
          "name": "_publishTime",
          "type": "uint256"
        },
        {
          "internalType": "uint256",
          "name": "_lastBetTime",
          "type": "uint256"
        },
        {
          "internalType": "uint256",
          "name": "_distributeTime",
          "type": "uint256"
        },
        {
          "internalType": "string[]",
          "name": "_choices",
          "type": "string[]"
        },
        {
          "internalType": "string",
          "name": "_region",
          "type": "string"
        },
        {
          "internalType": "string",
          "name": "_genre",
          "type": "string"
        }
      ],
      "name": "addBet",
      "outputs": [],
      "stateMutability": "nonpayable",
      "type": "function"
    },
    {
      "inputs": [],
      "name": "setVIP",
      "outputs": [],
      "stateMutability": "payable",
      "type": "function",
      "payable": true
    },
    {
      "inputs": [
        {
          "internalType": "uint256",
          "name": "_id",
          "type": "uint256"
        },
        {
          "internalType": "uint256",
          "name": "_choice",
          "type": "uint256"
        },
        {
          "internalType": "uint256",
          "name": "_amount",
          "type": "uint256"
        }
      ],
      "name": "addMoney",
      "outputs": [],
      "stateMutability": "payable",
      "type": "function",
      "payable": true
    },
    {
      "inputs": [
        {
          "internalType": "uint256",
          "name": "_id",
          "type": "uint256"
        },
        {
          "internalType": "uint256",
          "name": "_answer",
          "type": "uint256"
        }
      ],
      "name": "setAnswer",
      "outputs": [],
      "stateMutability": "nonpayable",
      "type": "function"
    },
    {
      "inputs": [
        {
          "internalType": "uint256",
          "name": "_id",
          "type": "uint256"
        }
      ],
      "name": "distributeMoney",
      "outputs": [],
      "stateMutability": "payable",
      "type": "function",
      "payable": true
    },
    {
      "inputs": [
        {
          "internalType": "uint256",
          "name": "_id",
          "type": "uint256"
        },
        {
          "internalType": "string",
          "name": "_comment",
          "type": "string"
        }
      ],
      "name": "addComment",
      "outputs": [],
      "stateMutability": "nonpayable",
      "type": "function"
    },
    {
      "inputs": [],
      "name": "spinWheel",
      "outputs": [],
      "stateMutability": "payable",
      "type": "function",
      "payable": true
    },
    {
      "inputs": [],
      "name": "getLastBet",
      "outputs": [
        {
          "components": [
            {
              "internalType": "string",
              "name": "title",
              "type": "string"
            },
            {
              "internalType": "string[]",
              "name": "choices",
              "type": "string[]"
            },
            {
              "internalType": "string[]",
              "name": "comments",
              "type": "string[]"
            },
            {
              "internalType": "address",
              "name": "owner",
              "type": "address"
            },
            {
              "internalType": "uint256",
              "name": "lowerBound",
              "type": "uint256"
            },
            {
              "internalType": "uint256",
              "name": "currentAmount",
              "type": "uint256"
            },
            {
              "internalType": "uint256",
              "name": "upperBound",
              "type": "uint256"
            },
            {
              "internalType": "uint256",
              "name": "publishTime",
              "type": "uint256"
            },
            {
              "internalType": "uint256",
              "name": "lastBetTime",
              "type": "uint256"
            },
            {
              "internalType": "uint256",
              "name": "distributeTime",
              "type": "uint256"
            },
            {
              "internalType": "uint256",
              "name": "answer",
              "type": "uint256"
            },
            {
              "internalType": "uint256[]",
              "name": "currentChoices",
              "type": "uint256[]"
            },
            {
              "internalType": "address[]",
              "name": "voter",
              "type": "address[]"
            },
            {
              "internalType": "bool",
              "name": "isAnswerSet",
              "type": "bool"
            },
            {
              "internalType": "enum OnlineBetting.Region",
              "name": "region",
              "type": "uint8"
            },
            {
              "internalType": "enum OnlineBetting.Genre",
              "name": "genre",
              "type": "uint8"
            }
          ],
          "internalType": "struct OnlineBetting.Bet",
          "name": "",
          "type": "tuple"
        }
      ],
      "stateMutability": "view",
      "type": "function",
      "constant": true
    },
    {
      "inputs": [],
      "name": "getBets",
      "outputs": [
        {
          "internalType": "uint256[]",
          "name": "",
          "type": "uint256[]"
        },
        {
          "components": [
            {
              "internalType": "string",
              "name": "title",
              "type": "string"
            },
            {
              "internalType": "string[]",
              "name": "choices",
              "type": "string[]"
            },
            {
              "internalType": "string[]",
              "name": "comments",
              "type": "string[]"
            },
            {
              "internalType": "address",
              "name": "owner",
              "type": "address"
            },
            {
              "internalType": "uint256",
              "name": "lowerBound",
              "type": "uint256"
            },
            {
              "internalType": "uint256",
              "name": "currentAmount",
              "type": "uint256"
            },
            {
              "internalType": "uint256",
              "name": "upperBound",
              "type": "uint256"
            },
            {
              "internalType": "uint256",
              "name": "publishTime",
              "type": "uint256"
            },
            {
              "internalType": "uint256",
              "name": "lastBetTime",
              "type": "uint256"
            },
            {
              "internalType": "uint256",
              "name": "distributeTime",
              "type": "uint256"
            },
            {
              "internalType": "uint256",
              "name": "answer",
              "type": "uint256"
            },
            {
              "internalType": "uint256[]",
              "name": "currentChoices",
              "type": "uint256[]"
            },
            {
              "internalType": "address[]",
              "name": "voter",
              "type": "address[]"
            },
            {
              "internalType": "bool",
              "name": "isAnswerSet",
              "type": "bool"
            },
            {
              "internalType": "enum OnlineBetting.Region",
              "name": "region",
              "type": "uint8"
            },
            {
              "internalType": "enum OnlineBetting.Genre",
              "name": "genre",
              "type": "uint8"
            }
          ],
          "internalType": "struct OnlineBetting.Bet[]",
          "name": "",
          "type": "tuple[]"
        },
        {
          "internalType": "enum OnlineBetting.Status[]",
          "name": "",
          "type": "uint8[]"
        }
      ],
      "stateMutability": "view",
      "type": "function",
      "constant": true
    },
    {
      "inputs": [],
      "name": "getHotBets",
      "outputs": [
        {
          "internalType": "uint256[]",
          "name": "",
          "type": "uint256[]"
        },
        {
          "components": [
            {
              "internalType": "string",
              "name": "title",
              "type": "string"
            },
            {
              "internalType": "string[]",
              "name": "choices",
              "type": "string[]"
            },
            {
              "internalType": "string[]",
              "name": "comments",
              "type": "string[]"
            },
            {
              "internalType": "address",
              "name": "owner",
              "type": "address"
            },
            {
              "internalType": "uint256",
              "name": "lowerBound",
              "type": "uint256"
            },
            {
              "internalType": "uint256",
              "name": "currentAmount",
              "type": "uint256"
            },
            {
              "internalType": "uint256",
              "name": "upperBound",
              "type": "uint256"
            },
            {
              "internalType": "uint256",
              "name": "publishTime",
              "type": "uint256"
            },
            {
              "internalType": "uint256",
              "name": "lastBetTime",
              "type": "uint256"
            },
            {
              "internalType": "uint256",
              "name": "distributeTime",
              "type": "uint256"
            },
            {
              "internalType": "uint256",
              "name": "answer",
              "type": "uint256"
            },
            {
              "internalType": "uint256[]",
              "name": "currentChoices",
              "type": "uint256[]"
            },
            {
              "internalType": "address[]",
              "name": "voter",
              "type": "address[]"
            },
            {
              "internalType": "bool",
              "name": "isAnswerSet",
              "type": "bool"
            },
            {
              "internalType": "enum OnlineBetting.Region",
              "name": "region",
              "type": "uint8"
            },
            {
              "internalType": "enum OnlineBetting.Genre",
              "name": "genre",
              "type": "uint8"
            }
          ],
          "internalType": "struct OnlineBetting.Bet[]",
          "name": "",
          "type": "tuple[]"
        }
      ],
      "stateMutability": "view",
      "type": "function",
      "constant": true
    },
    {
      "inputs": [
        {
          "internalType": "uint256",
          "name": "_id",
          "type": "uint256"
        }
      ],
      "name": "getVoterChoices",
      "outputs": [
        {
          "internalType": "uint256[]",
          "name": "",
          "type": "uint256[]"
        }
      ],
      "stateMutability": "view",
      "type": "function",
      "constant": true
    },
    {
      "inputs": [
        {
          "internalType": "uint256",
          "name": "_id",
          "type": "uint256"
        }
      ],
      "name": "getComments",
      "outputs": [
        {
          "internalType": "string[]",
          "name": "",
          "type": "string[]"
        }
      ],
      "stateMutability": "view",
      "type": "function",
      "constant": true
    },
    {
      "inputs": [],
      "name": "getMemberView",
      "outputs": [
        {
          "components": [
            {
              "internalType": "uint256",
              "name": "betsConstructed",
              "type": "uint256"
            },
            {
              "internalType": "uint256",
              "name": "moneyAdded",
              "type": "uint256"
            },
            {
              "internalType": "uint256",
              "name": "howard",
              "type": "uint256"
            },
            {
              "internalType": "bool",
              "name": "isVIP",
              "type": "bool"
            },
            {
              "internalType": "bool",
              "name": "canGetReward",
              "type": "bool"
            },
            {
              "internalType": "enum OnlineBetting.Reward",
              "name": "reward",
              "type": "uint8"
            }
          ],
          "internalType": "struct OnlineBetting.MemberView",
          "name": "",
          "type": "tuple"
        }
      ],
      "stateMutability": "view",
      "type": "function",
      "constant": true
    },
    {
      "inputs": [],
      "name": "getJackpot",
      "outputs": [
        {
          "internalType": "uint256",
          "name": "",
          "type": "uint256"
        }
      ],
      "stateMutability": "view",
      "type": "function",
      "constant": true
    },
    {
      "inputs": [],
      "name": "getReward",
      "outputs": [
        {
          "internalType": "enum OnlineBetting.Reward",
          "name": "",
          "type": "uint8"
        }
      ],
      "stateMutability": "view",
      "type": "function",
      "constant": true
    }
  ],
  "bytecode": "0x608060405234801561001057600080fd5b5060008081905550615c8f80620000286000396000f3fe6080604052600436106100e85760003560e01c8063950d11871161008a578063bbce3fc211610059578063bbce3fc214610279578063caf76d41146102a4578063cfca10fd146102cd578063e6a7dc2b1461030a576100e8565b8063950d1187146101db578063a0f8973a14610207578063a6afd5fd14610223578063aa7e568314610250576100e8565b806324b204ab116100c657806324b204ab1461013e5780633a8aa9a51461015a5780633d18b912146101855780639329066c146101b0576100e8565b806315032fb2146100ed57806315ecef92146100f757806323edf69714610101575b600080fd5b6100f5610333565b005b6100ff610411565b005b34801561010d57600080fd5b5061012860048036038101906101239190614426565b610b71565b60405161013591906155cf565b60405180910390f35b610158600480360381019061015391906144df565b610c78565b005b34801561016657600080fd5b5061016f610f6f565b60405161017c91906157d3565b60405180910390f35b34801561019157600080fd5b5061019a611047565b6040516101a79190615696565b60405180910390f35b3480156101bc57600080fd5b506101c561112d565b6040516101d291906157ee565b60405180910390f35b3480156101e757600080fd5b506101f0611136565b6040516101fe929190615613565b60405180910390f35b610221600480360381019061021c9190614426565b611211565b005b34801561022f57600080fd5b50610238611850565b6040516102479392919061564a565b60405180910390f35b34801561025c57600080fd5b506102776004803603810190610272919061444f565b611e3a565b005b34801561028557600080fd5b5061028e611ecf565b60405161029b91906157b1565b60405180910390f35b3480156102b057600080fd5b506102cb60048036038101906102c691906144a3565b612374565b005b3480156102d957600080fd5b506102f460048036038101906102ef9190614426565b612480565b60405161030191906155f1565b60405180910390f35b34801561031657600080fd5b50610331600480360381019061032c9190614300565b612528565b005b6706f05b59d3b20000341461037d576040517f08c379a0000000000000000000000000000000000000000000000000000000008152600401610374906156d1565b60405180910390fd5b6001600260003373ffffffffffffffffffffffffffffffffffffffff1673ffffffffffffffffffffffffffffffffffffffff16815260200190815260200160002060030160006101000a81548160ff0219169083151502179055507fae988cc47e58f3e7d89bba758a5bfd7227a6be5930d95147b89ab3086885b4c933604051610407919061558b565b60405180910390a1565b67016345785d8a0000341461045b576040517f08c379a000000000000000000000000000000000000000000000000000000000815260040161045290615751565b60405180910390fd5b6064600080828254019250508190555060006104756127e4565b905080600260003373ffffffffffffffffffffffffffffffffffffffff1673ffffffffffffffffffffffffffffffffffffffff168152602001908152602001600020600201819055506000600260003373ffffffffffffffffffffffffffffffffffffffff1673ffffffffffffffffffffffffffffffffffffffff16815260200190815260200160002060030160016101000a81548160ff02191690831515021790555060008114156105e0573373ffffffffffffffffffffffffffffffffffffffff166108fc66038d7ea4c68000600054029081150290604051600060405180830381858888f19350505050158015610573573d6000803e3d6000fd5b50600080819055506007600260003373ffffffffffffffffffffffffffffffffffffffff1673ffffffffffffffffffffffffffffffffffffffff16815260200190815260200160002060030160026101000a81548160ff021916908360078111156105da57fe5b02179055505b6000811180156105f257506101f48111155b156106bb573373ffffffffffffffffffffffffffffffffffffffff166108fc6702c68af0bb1400009081150290604051600060405180830381858888f19350505050158015610645573d6000803e3d6000fd5b5060c860008082825403925050819055506006600260003373ffffffffffffffffffffffffffffffffffffffff1673ffffffffffffffffffffffffffffffffffffffff16815260200190815260200160002060030160026101000a81548160ff021916908360078111156106b557fe5b02179055505b6101f4811180156106ce57506103e88111155b15610797573373ffffffffffffffffffffffffffffffffffffffff166108fc67016345785d8a00009081150290604051600060405180830381858888f19350505050158015610721573d6000803e3d6000fd5b50606460008082825403925050819055506005600260003373ffffffffffffffffffffffffffffffffffffffff1673ffffffffffffffffffffffffffffffffffffffff16815260200190815260200160002060030160026101000a81548160ff0219169083600781111561079157fe5b02179055505b6103e8811180156107aa57506107d08111155b15610872573373ffffffffffffffffffffffffffffffffffffffff166108fc66b1a2bc2ec500009081150290604051600060405180830381858888f193505050501580156107fc573d6000803e3d6000fd5b50603260008082825403925050819055506004600260003373ffffffffffffffffffffffffffffffffffffffff1673ffffffffffffffffffffffffffffffffffffffff16815260200190815260200160002060030160026101000a81548160ff0219169083600781111561086c57fe5b02179055505b6107d0811180156108855750610bb88111155b1561094d573373ffffffffffffffffffffffffffffffffffffffff166108fc66470de4df8200009081150290604051600060405180830381858888f193505050501580156108d7573d6000803e3d6000fd5b50601460008082825403925050819055506003600260003373ffffffffffffffffffffffffffffffffffffffff1673ffffffffffffffffffffffffffffffffffffffff16815260200190815260200160002060030160026101000a81548160ff0219169083600781111561094757fe5b02179055505b610bb8811180156109605750610fa08111155b15610a27573373ffffffffffffffffffffffffffffffffffffffff166108fc662386f26fc100009081150290604051600060405180830381858888f193505050501580156109b2573d6000803e3d6000fd5b50600a600080828254039250508190555060028060003373ffffffffffffffffffffffffffffffffffffffff1673ffffffffffffffffffffffffffffffffffffffff16815260200190815260200160002060030160026101000a81548160ff02191690836007811115610a2157fe5b02179055505b610fa081118015610a3a5750611b588111155b15610aa4576000600260003373ffffffffffffffffffffffffffffffffffffffff1673ffffffffffffffffffffffffffffffffffffffff16815260200190815260200160002060030160026101000a81548160ff02191690836007811115610a9e57fe5b02179055505b611b58811115610b13576001600260003373ffffffffffffffffffffffffffffffffffffffff1673ffffffffffffffffffffffffffffffffffffffff16815260200190815260200160002060030160026101000a81548160ff02191690836007811115610b0d57fe5b02179055505b6001600260003373ffffffffffffffffffffffffffffffffffffffff1673ffffffffffffffffffffffffffffffffffffffff16815260200190815260200160002060030160016101000a81548160ff02191690831515021790555050565b606060018281548110610b8057fe5b90600052602060002090600e0201600201805480602002602001604051908101604052809291908181526020016000905b82821015610c6d578382906000526020600020018054600181600116156101000203166002900480601f016020809104026020016040519081016040528092919081815260200182805460018160011615610100020316600290048015610c595780601f10610c2e57610100808354040283529160200191610c59565b820191906000526020600020905b815481529060010190602001808311610c3c57829003601f168201915b505050505081526020019060010190610bb1565b505050509050919050565b82610c8281612827565b610cc1576040517f08c379a0000000000000000000000000000000000000000000000000000000008152600401610cb890615771565b60405180910390fd5b838260018281548110610cd057fe5b90600052602060002090600e0201600601548160018481548110610cf057fe5b90600052602060002090600e020160050154011115610d44576040517f08c379a0000000000000000000000000000000000000000000000000000000008152600401610d3b90615791565b60405180910390fd5b66038d7ea4c6800084023414610d8f576040517f08c379a0000000000000000000000000000000000000000000000000000000008152600401610d86906156f1565b60405180910390fd5b60018681548110610d9c57fe5b90600052602060002090600e020160080154421115610df0576040517f08c379a0000000000000000000000000000000000000000000000000000000008152600401610de790615731565b60405180910390fd5b8360018781548110610dfe57fe5b90600052602060002090600e0201600501600082825401925050819055508360018781548110610e2a57fe5b90600052602060002090600e0201600b018681548110610e4657fe5b9060005260206000200160008282540192505081905550610e678633612852565b836003600088815260200190815260200160002060003373ffffffffffffffffffffffffffffffffffffffff1673ffffffffffffffffffffffffffffffffffffffff1681526020019081526020016000208681548110610ec357fe5b90600052602060002001600082825401925050819055507f9ae068d0bdbacb4831e59338d8b28e0bbd2d53764219e625df5dbad665cd3a3386338787604051610f0f9493929190615809565b60405180910390a183600260003373ffffffffffffffffffffffffffffffffffffffff1673ffffffffffffffffffffffffffffffffffffffff16815260200190815260200160002060010160008282540192505081905550505050505050565b610f77613f7d565b600260003373ffffffffffffffffffffffffffffffffffffffff1673ffffffffffffffffffffffffffffffffffffffff1681526020019081526020016000206040518060c00160405290816000820154815260200160018201548152602001600282015481526020016003820160009054906101000a900460ff161515151581526020016003820160019054906101000a900460ff161515151581526020016003820160029054906101000a900460ff16600781111561103357fe5b600781111561103e57fe5b81525050905090565b6000600260003373ffffffffffffffffffffffffffffffffffffffff1673ffffffffffffffffffffffffffffffffffffffff16815260200190815260200160002060030160019054906101000a900460ff166110d8576040517f08c379a00000000000000000000000000000000000000000000000000000000081526004016110cf906156b1565b60405180910390fd5b600260003373ffffffffffffffffffffffffffffffffffffffff1673ffffffffffffffffffffffffffffffffffffffff16815260200190815260200160002060030160029054906101000a900460ff16905090565b60008054905090565b606080606080611144612a00565b8092508193505050606061115a600a8351612f4f565b67ffffffffffffffff8111801561117057600080fd5b506040519080825280602002602001820160405280156111aa57816020015b611197613fc2565b81526020019060019003908161118f5790505b5090506111b78383612f6b565b60005b6111c6600a8451612f4f565b811015611203578281815181106111d957fe5b60200260200101518282815181106111ed57fe5b60200260200101819052508060010190506111ba565b508281945094505050509091565b6001818154811061121e57fe5b90600052602060002090600e020160030160009054906101000a900473ffffffffffffffffffffffffffffffffffffffff1673ffffffffffffffffffffffffffffffffffffffff163373ffffffffffffffffffffffffffffffffffffffff161461128757600080fd5b6001818154811061129457fe5b90600052602060002090600e0201600d0160009054906101000a900460ff16156116215760006005600183815481106112c957fe5b90600052602060002090600e0201600501540290506000605a600184815481106112ef57fe5b90600052602060002090600e02016005015402905060006001848154811061131357fe5b90600052602060002090600e0201600c0180549050905060006001858154811061133957fe5b90600052602060002090600e0201600a0154905060003390508073ffffffffffffffffffffffffffffffffffffffff166108fc6509184e72a00087029081150290604051600060405180830381858888f193505050501580156113a0573d6000803e3d6000fd5b507f9bb2540ba4555d75223ea5cea496bb837f39aecdc27e8a45a41e3c7b2c4f8f5581866040516113d29291906155a6565b60405180910390a160005b8381101561161657600187815481106113f257fe5b90600052602060002090600e0201600c01818154811061140e57fe5b9060005260206000200160009054906101000a900473ffffffffffffffffffffffffffffffffffffffff1691508173ffffffffffffffffffffffffffffffffffffffff166108fc6001898154811061146257fe5b90600052602060002090600e0201600b01858154811061147e57fe5b9060005260206000200154600360008b815260200190815260200160002060008673ffffffffffffffffffffffffffffffffffffffff1673ffffffffffffffffffffffffffffffffffffffff16815260200190815260200160002086815481106114e457fe5b90600052602060002001546509184e72a0008902028161150057fe5b049081150290604051600060405180830381858888f1935050505015801561152c573d6000803e3d6000fd5b507f9bb2540ba4555d75223ea5cea496bb837f39aecdc27e8a45a41e3c7b2c4f8f55826001898154811061155c57fe5b90600052602060002090600e0201600b01858154811061157857fe5b9060005260206000200154600360008b815260200190815260200160002060008673ffffffffffffffffffffffffffffffffffffffff1673ffffffffffffffffffffffffffffffffffffffff16815260200190815260200160002086815481106115de57fe5b90600052602060002001548802816115f257fe5b046040516116019291906155a6565b60405180910390a180806001019150506113dd565b50505050505061184d565b6000806001838154811061163157fe5b90600052602060002090600e0201600c0180549050905060006001848154811061165757fe5b90600052602060002090600e020160010180549050905060005b82811015611848576001858154811061168657fe5b90600052602060002090600e0201600c0181815481106116a257fe5b9060005260206000200160009054906101000a900473ffffffffffffffffffffffffffffffffffffffff16935060005b8281101561183a578473ffffffffffffffffffffffffffffffffffffffff166108fc66038d7ea4c68000600360008a815260200190815260200160002060008973ffffffffffffffffffffffffffffffffffffffff1673ffffffffffffffffffffffffffffffffffffffff168152602001908152602001600020848154811061175757fe5b9060005260206000200154029081150290604051600060405180830381858888f1935050505015801561178e573d6000803e3d6000fd5b507f9bb2540ba4555d75223ea5cea496bb837f39aecdc27e8a45a41e3c7b2c4f8f55856003600089815260200190815260200160002060008873ffffffffffffffffffffffffffffffffffffffff1673ffffffffffffffffffffffffffffffffffffffff168152602001908152602001600020838154811061180c57fe5b90600052602060002001546040516118259291906155a6565b60405180910390a180806001019150506116d2565b508080600101915050611671565b505050505b50565b60608060608060018054905067ffffffffffffffff8111801561187257600080fd5b506040519080825280602002602001820160405280156118a15781602001602082028036833780820191505090505b509050606060018054905067ffffffffffffffff811180156118c257600080fd5b506040519080825280602002602001820160405280156118f15781602001602082028036833780820191505090505b50905060005b600180549050811015611963578083828151811061191157fe5b60200260200101818152505061192681612f8b565b82828151811061193257fe5b6020026020010190600381111561194557fe5b9081600381111561195257fe5b8152505080806001019150506118f7565b508160018281805480602002602001604051908101604052809291908181526020016000905b82821015611e2757838290600052602060002090600e020160405180610200016040529081600082018054600181600116156101000203166002900480601f016020809104026020016040519081016040528092919081815260200182805460018160011615610100020316600290048015611a465780601f10611a1b57610100808354040283529160200191611a46565b820191906000526020600020905b815481529060010190602001808311611a2957829003601f168201915b5050505050815260200160018201805480602002602001604051908101604052809291908181526020016000905b82821015611b30578382906000526020600020018054600181600116156101000203166002900480601f016020809104026020016040519081016040528092919081815260200182805460018160011615610100020316600290048015611b1c5780601f10611af157610100808354040283529160200191611b1c565b820191906000526020600020905b815481529060010190602001808311611aff57829003601f168201915b505050505081526020019060010190611a74565b50505050815260200160028201805480602002602001604051908101604052809291908181526020016000905b82821015611c19578382906000526020600020018054600181600116156101000203166002900480601f016020809104026020016040519081016040528092919081815260200182805460018160011615610100020316600290048015611c055780601f10611bda57610100808354040283529160200191611c05565b820191906000526020600020905b815481529060010190602001808311611be857829003601f168201915b505050505081526020019060010190611b5d565b5050505081526020016003820160009054906101000a900473ffffffffffffffffffffffffffffffffffffffff1673ffffffffffffffffffffffffffffffffffffffff1673ffffffffffffffffffffffffffffffffffffffff168152602001600482015481526020016005820154815260200160068201548152602001600782015481526020016008820154815260200160098201548152602001600a8201548152602001600b8201805480602002602001604051908101604052809291908181526020018280548015611d0c57602002820191906000526020600020905b815481526020019060010190808311611cf8575b50505050508152602001600c8201805480602002602001604051908101604052809291908181526020018280548015611d9a57602002820191906000526020600020905b8160009054906101000a900473ffffffffffffffffffffffffffffffffffffffff1673ffffffffffffffffffffffffffffffffffffffff1681526020019060010190808311611d50575b50505050508152602001600d820160009054906101000a900460ff16151515158152602001600d820160019054906101000a900460ff166009811115611ddc57fe5b6009811115611de757fe5b8152602001600d820160029054906101000a900460ff166009811115611e0957fe5b6009811115611e1457fe5b8152505081526020019060010190611989565b5050505091509450945094505050909192565b60018281548110611e4757fe5b90600052602060002090600e020160020181908060018154018082558091505060019003906000526020600020016000909190919091509080519060200190611e9192919061406d565b507f3b0cf47bf0008e5099d76f10a991fc69e1984797f0830b83910efb1c4d59c1f38282604051611ec392919061584e565b60405180910390a15050565b611ed7613fc2565b60018080805490500381548110611eea57fe5b90600052602060002090600e020160405180610200016040529081600082018054600181600116156101000203166002900480601f016020809104026020016040519081016040528092919081815260200182805460018160011615610100020316600290048015611f9d5780601f10611f7257610100808354040283529160200191611f9d565b820191906000526020600020905b815481529060010190602001808311611f8057829003601f168201915b5050505050815260200160018201805480602002602001604051908101604052809291908181526020016000905b82821015612087578382906000526020600020018054600181600116156101000203166002900480601f0160208091040260200160405190810160405280929190818152602001828054600181600116156101000203166002900480156120735780601f1061204857610100808354040283529160200191612073565b820191906000526020600020905b81548152906001019060200180831161205657829003601f168201915b505050505081526020019060010190611fcb565b50505050815260200160028201805480602002602001604051908101604052809291908181526020016000905b82821015612170578382906000526020600020018054600181600116156101000203166002900480601f01602080910402602001604051908101604052809291908181526020018280546001816001161561010002031660029004801561215c5780601f106121315761010080835404028352916020019161215c565b820191906000526020600020905b81548152906001019060200180831161213f57829003601f168201915b5050505050815260200190600101906120b4565b5050505081526020016003820160009054906101000a900473ffffffffffffffffffffffffffffffffffffffff1673ffffffffffffffffffffffffffffffffffffffff1673ffffffffffffffffffffffffffffffffffffffff168152602001600482015481526020016005820154815260200160068201548152602001600782015481526020016008820154815260200160098201548152602001600a8201548152602001600b820180548060200260200160405190810160405280929190818152602001828054801561226357602002820191906000526020600020905b81548152602001906001019080831161224f575b50505050508152602001600c82018054806020026020016040519081016040528092919081815260200182805480156122f157602002820191906000526020600020905b8160009054906101000a900473ffffffffffffffffffffffffffffffffffffffff1673ffffffffffffffffffffffffffffffffffffffff16815260200190600101908083116122a7575b50505050508152602001600d820160009054906101000a900460ff16151515158152602001600d820160019054906101000a900460ff16600981111561233357fe5b600981111561233e57fe5b8152602001600d820160029054906101000a900460ff16600981111561236057fe5b600981111561236b57fe5b81525050905090565b6001828154811061238157fe5b90600052602060002090600e020160030160009054906101000a900473ffffffffffffffffffffffffffffffffffffffff1673ffffffffffffffffffffffffffffffffffffffff163373ffffffffffffffffffffffffffffffffffffffff16146123ea57600080fd5b80600183815481106123f857fe5b90600052602060002090600e0201600a0181905550600180838154811061241b57fe5b90600052602060002090600e0201600d0160006101000a81548160ff0219169083151502179055507f4772d83d7289b527150ec81022e02e39b5b278f66492d7f0702903636f33396d828260405161247492919061587e565b60405180910390a15050565b60606003600083815260200190815260200160002060003373ffffffffffffffffffffffffffffffffffffffff1673ffffffffffffffffffffffffffffffffffffffff16815260200190815260200160002080548060200260200160405190810160405280929190818152602001828054801561251c57602002820191906000526020600020905b815481526020019060010190808311612508575b50505050509050919050565b600260003373ffffffffffffffffffffffffffffffffffffffff1673ffffffffffffffffffffffffffffffffffffffff16815260200190815260200160002060030160009054906101000a900460ff166125b7576040517f08c379a00000000000000000000000000000000000000000000000000000000081526004016125ae90615711565b60405180910390fd5b6000600180549050905060008451905060608167ffffffffffffffff811180156125e057600080fd5b5060405190808252806020026020018201604052801561260f5781602001602082028036833780820191505090505b5090506000600180816001815401808255809150500390600052602060002090600e020190508c81600001908051906020019061264d92919061406d565b50338160030160006101000a81548173ffffffffffffffffffffffffffffffffffffffff021916908373ffffffffffffffffffffffffffffffffffffffff1602179055508b81600401819055508a8160060181905550898160070181905550888160080181905550878160090181905550868160010190805190602001906126d69291906140ed565b508181600b0190805190602001906126ef92919061414d565b506126f986613578565b81600d0160016101000a81548160ff0219169083600981111561271857fe5b0217905550612726856138b7565b81600d0160026101000a81548160ff0219169083600981111561274557fe5b02179055507ffd9b824c32c4b314de8cc8632b170ef722e0fa61fcf35583a814356d916bc1fa848e60405161277b92919061584e565b60405180910390a1600260003373ffffffffffffffffffffffffffffffffffffffff1673ffffffffffffffffffffffffffffffffffffffff1681526020019081526020016000206000016000815480929190600101919050555050505050505050505050505050565b60008044426040516020016127fa92919061555f565b6040516020818303038152906040528051906020012060001c9050612710818161282057fe5b0691505090565b60006001828154811061283657fe5b90600052602060002090600e0201600701544211159050919050565b8161285c81612827565b61289b576040517f08c379a000000000000000000000000000000000000000000000000000000000815260040161289290615771565b60405180910390fd5b60006128a78484613bf6565b9050806129fa57600184815481106128bb57fe5b90600052602060002090600e0201600c01839080600181540180825580915050600190039060005260206000200160009091909190916101000a81548173ffffffffffffffffffffffffffffffffffffffff021916908373ffffffffffffffffffffffffffffffffffffffff1602179055506001848154811061293a57fe5b90600052602060002090600e02016001018054905067ffffffffffffffff8111801561296557600080fd5b506040519080825280602002602001820160405280156129945781602001602082028036833780820191505090505b506003600086815260200190815260200160002060003373ffffffffffffffffffffffffffffffffffffffff1673ffffffffffffffffffffffffffffffffffffffff16815260200190815260200160002090805190602001906129f892919061414d565b505b50505050565b60608060006060612a0f613cd4565b809250819350505060608267ffffffffffffffff81118015612a3057600080fd5b50604051908082528060200260200182016040528015612a6a57816020015b612a57613fc2565b815260200190600190039081612a4f5790505b50905060005b83811015612f41576001838281518110612a8657fe5b602002602001015181548110612a9857fe5b90600052602060002090600e020160405180610200016040529081600082018054600181600116156101000203166002900480601f016020809104026020016040519081016040528092919081815260200182805460018160011615610100020316600290048015612b4b5780601f10612b2057610100808354040283529160200191612b4b565b820191906000526020600020905b815481529060010190602001808311612b2e57829003601f168201915b5050505050815260200160018201805480602002602001604051908101604052809291908181526020016000905b82821015612c35578382906000526020600020018054600181600116156101000203166002900480601f016020809104026020016040519081016040528092919081815260200182805460018160011615610100020316600290048015612c215780601f10612bf657610100808354040283529160200191612c21565b820191906000526020600020905b815481529060010190602001808311612c0457829003601f168201915b505050505081526020019060010190612b79565b50505050815260200160028201805480602002602001604051908101604052809291908181526020016000905b82821015612d1e578382906000526020600020018054600181600116156101000203166002900480601f016020809104026020016040519081016040528092919081815260200182805460018160011615610100020316600290048015612d0a5780601f10612cdf57610100808354040283529160200191612d0a565b820191906000526020600020905b815481529060010190602001808311612ced57829003601f168201915b505050505081526020019060010190612c62565b5050505081526020016003820160009054906101000a900473ffffffffffffffffffffffffffffffffffffffff1673ffffffffffffffffffffffffffffffffffffffff1673ffffffffffffffffffffffffffffffffffffffff168152602001600482015481526020016005820154815260200160068201548152602001600782015481526020016008820154815260200160098201548152602001600a8201548152602001600b8201805480602002602001604051908101604052809291908181526020018280548015612e1157602002820191906000526020600020905b815481526020019060010190808311612dfd575b50505050508152602001600c8201805480602002602001604051908101604052809291908181526020018280548015612e9f57602002820191906000526020600020905b8160009054906101000a900473ffffffffffffffffffffffffffffffffffffffff1673ffffffffffffffffffffffffffffffffffffffff1681526020019060010190808311612e55575b50505050508152602001600d820160009054906101000a900460ff16151515158152602001600d820160019054906101000a900460ff166009811115612ee157fe5b6009811115612eec57fe5b8152602001600d820160029054906101000a900460ff166009811115612f0e57fe5b6009811115612f1957fe5b81525050828281518110612f2957fe5b60200260200101819052508080600101915050612a70565b508181945094505050509091565b600081831115612f6157819050612f65565b8290505b92915050565b600081511115612f8757612f86828260006001855103613d82565b5b5050565b6000612f95613fc2565b60018381548110612fa257fe5b90600052602060002090600e020160405180610200016040529081600082018054600181600116156101000203166002900480601f0160208091040260200160405190810160405280929190818152602001828054600181600116156101000203166002900480156130555780601f1061302a57610100808354040283529160200191613055565b820191906000526020600020905b81548152906001019060200180831161303857829003601f168201915b5050505050815260200160018201805480602002602001604051908101604052809291908181526020016000905b8282101561313f578382906000526020600020018054600181600116156101000203166002900480601f01602080910402602001604051908101604052809291908181526020018280546001816001161561010002031660029004801561312b5780601f106131005761010080835404028352916020019161312b565b820191906000526020600020905b81548152906001019060200180831161310e57829003601f168201915b505050505081526020019060010190613083565b50505050815260200160028201805480602002602001604051908101604052809291908181526020016000905b82821015613228578382906000526020600020018054600181600116156101000203166002900480601f0160208091040260200160405190810160405280929190818152602001828054600181600116156101000203166002900480156132145780601f106131e957610100808354040283529160200191613214565b820191906000526020600020905b8154815290600101906020018083116131f757829003601f168201915b50505050508152602001906001019061316c565b5050505081526020016003820160009054906101000a900473ffffffffffffffffffffffffffffffffffffffff1673ffffffffffffffffffffffffffffffffffffffff1673ffffffffffffffffffffffffffffffffffffffff168152602001600482015481526020016005820154815260200160068201548152602001600782015481526020016008820154815260200160098201548152602001600a8201548152602001600b820180548060200260200160405190810160405280929190818152602001828054801561331b57602002820191906000526020600020905b815481526020019060010190808311613307575b50505050508152602001600c82018054806020026020016040519081016040528092919081815260200182805480156133a957602002820191906000526020600020905b8160009054906101000a900473ffffffffffffffffffffffffffffffffffffffff1673ffffffffffffffffffffffffffffffffffffffff168152602001906001019080831161335f575b50505050508152602001600d820160009054906101000a900460ff16151515158152602001600d820160019054906101000a900460ff1660098111156133eb57fe5b60098111156133f657fe5b8152602001600d820160029054906101000a900460ff16600981111561341857fe5b600981111561342357fe5b8152505090503373ffffffffffffffffffffffffffffffffffffffff16816060015173ffffffffffffffffffffffffffffffffffffffff1614801561346b5750428160e00151115b1561347a576000915050613573565b3373ffffffffffffffffffffffffffffffffffffffff16816060015173ffffffffffffffffffffffffffffffffffffffff16141580156134bd5750428160e00151115b156134cc576001915050613573565b3373ffffffffffffffffffffffffffffffffffffffff16816060015173ffffffffffffffffffffffffffffffffffffffff1614801561350f5750428160e0015111155b1561351e576002915050613573565b3373ffffffffffffffffffffffffffffffffffffffff16816060015173ffffffffffffffffffffffffffffffffffffffff16141580156135625750428160e0015111155b15613571576003915050613573565b505b919050565b60006040516020016135899061550b565b60405160208183030381529060405280519060200120826040516020016135b091906153ce565b6040516020818303038152906040528051906020012014156135d557600190506138b2565b6040516020016135e490615478565b604051602081830303815290604052805190602001208260405160200161360b91906153ce565b60405160208183030381529060405280519060200120141561363057600290506138b2565b60405160200161363f90615463565b604051602081830303815290604052805190602001208260405160200161366691906153ce565b60405160208183030381529060405280519060200120141561368b57600390506138b2565b60405160200161369a906154e1565b60405160208183030381529060405280519060200120826040516020016136c191906153ce565b6040516020818303038152906040528051906020012014156136e657600490506138b2565b6040516020016136f590615535565b604051602081830303815290604052805190602001208260405160200161371c91906153ce565b60405160208183030381529060405280519060200120141561374157600590506138b2565b6040516020016137509061540f565b604051602081830303815290604052805190602001208260405160200161377791906153ce565b60405160208183030381529060405280519060200120141561379c57600690506138b2565b6040516020016137ab90615439565b60405160208183030381529060405280519060200120826040516020016137d291906153ce565b6040516020818303038152906040528051906020012014156137f757600790506138b2565b604051602001613806906154f6565b604051602081830303815290604052805190602001208260405160200161382d91906153ce565b60405160208183030381529060405280519060200120141561385257600890506138b2565b604051602001613861906154cc565b604051602081830303815290604052805190602001208260405160200161388891906153ce565b6040516020818303038152906040528051906020012014156138ad57600990506138b2565b600090505b919050565b60006040516020016138c890615520565b60405160208183030381529060405280519060200120826040516020016138ef91906153ce565b6040516020818303038152906040528051906020012014156139145760019050613bf1565b6040516020016139239061548d565b604051602081830303815290604052805190602001208260405160200161394a91906153ce565b60405160208183030381529060405280519060200120141561396f5760039050613bf1565b60405160200161397e906153fa565b60405160208183030381529060405280519060200120826040516020016139a591906153ce565b6040516020818303038152906040528051906020012014156139ca5760029050613bf1565b6040516020016139d9906154a2565b6040516020818303038152906040528051906020012082604051602001613a0091906153ce565b604051602081830303815290604052805190602001201415613a255760049050613bf1565b604051602001613a3490615424565b6040516020818303038152906040528051906020012082604051602001613a5b91906153ce565b604051602081830303815290604052805190602001201415613a805760059050613bf1565b604051602001613a8f906153e5565b6040516020818303038152906040528051906020012082604051602001613ab691906153ce565b604051602081830303815290604052805190602001201415613adb5760069050613bf1565b604051602001613aea9061554a565b6040516020818303038152906040528051906020012082604051602001613b1191906153ce565b604051602081830303815290604052805190602001201415613b365760079050613bf1565b604051602001613b45906154b7565b6040516020818303038152906040528051906020012082604051602001613b6c91906153ce565b604051602081830303815290604052805190602001201415613b915760089050613bf1565b604051602001613ba09061544e565b6040516020818303038152906040528051906020012082604051602001613bc791906153ce565b604051602081830303815290604052805190602001201415613bec5760099050613bf1565b600090505b919050565b60008060018481548110613c0657fe5b90600052602060002090600e0201600c0180549050905060005b81811015613cc7578373ffffffffffffffffffffffffffffffffffffffff1660018681548110613c4c57fe5b90600052602060002090600e0201600c018281548110613c6857fe5b9060005260206000200160009054906101000a900473ffffffffffffffffffffffffffffffffffffffff1673ffffffffffffffffffffffffffffffffffffffff161415613cba57600192505050613cce565b8080600101915050613c20565b5060009150505b92915050565b600060608060018054905067ffffffffffffffff81118015613cf557600080fd5b50604051908082528060200260200182016040528015613d245781602001602082028036833780820191505090505b5090506000805b600180549050811015613d7557613d4181612827565b15613d685780838381518110613d5357fe5b60200260200101818152505081806001019250505b8080600101915050613d2b565b5080829350935050509091565b60008290506000829050808210613d9a575050613f27565b613da2613fc2565b85600285870181613daf57fe5b0481518110613dba57fe5b602002602001015190505b818311613ef9575b613dea868481518110613ddc57fe5b602002602001015182613f2d565b15613dfc578280600101935050613dcd565b5b613e1a81878481518110613e0d57fe5b6020026020010151613f2d565b15613e2d57818060019003925050613dfd565b818311613ef457858281518110613e4057fe5b6020026020010151868481518110613e5457fe5b6020026020010151878581518110613e6857fe5b60200260200101888581518110613e7b57fe5b602002602001018290528290525050868281518110613e9657fe5b6020026020010151878481518110613eaa57fe5b6020026020010151888581518110613ebe57fe5b60200260200101898581518110613ed157fe5b602002602001018281525082815250505082806001019350508180600190039250505b613dc5565b81851015613f0e57613f0d87878785613d82565b5b83831015613f2357613f2287878587613d82565b5b5050505b50505050565b600081610180015151836101800151511115613f4c5760019050613f77565b81610180015151836101800151511415613f72578160a001518360a00151119050613f77565b600090505b92915050565b6040518060c0016040528060008152602001600081526020016000815260200160001515815260200160001515815260200160006007811115613fbc57fe5b81525090565b604051806102000160405280606081526020016060815260200160608152602001600073ffffffffffffffffffffffffffffffffffffffff1681526020016000815260200160008152602001600081526020016000815260200160008152602001600081526020016000815260200160608152602001606081526020016000151581526020016000600981111561405557fe5b81526020016000600981111561406757fe5b81525090565b828054600181600116156101000203166002900490600052602060002090601f016020900481019282601f106140ae57805160ff19168380011785556140dc565b828001600101855582156140dc579182015b828111156140db5782518255916020019190600101906140c0565b5b5090506140e9919061419a565b5090565b82805482825590600052602060002090810192821561413c579160200282015b8281111561413b57825182908051906020019061412b92919061406d565b509160200191906001019061410d565b5b50905061414991906141b7565b5090565b828054828255906000526020600020908101928215614189579160200282015b8281111561418857825182559160200191906001019061416d565b5b509050614196919061419a565b5090565b5b808211156141b357600081600090555060010161419b565b5090565b5b808211156141d757600081816141ce91906141db565b506001016141b8565b5090565b50805460018160011615610100020316600290046000825580601f106142015750614220565b601f01602090049060005260206000209081019061421f919061419a565b5b50565b600082601f83011261423457600080fd5b8135614247614242826158d4565b6158a7565b9150818183526020840193506020810190508360005b8381101561428d57813586016142738882614297565b84526020840193506020830192505060018101905061425d565b5050505092915050565b600082601f8301126142a857600080fd5b81356142bb6142b6826158fc565b6158a7565b915080825260208301602083018583830111156142d757600080fd5b6142e2838284615bb1565b50505092915050565b6000813590506142fa81615c42565b92915050565b60008060008060008060008060006101208a8c03121561431f57600080fd5b60008a013567ffffffffffffffff81111561433957600080fd5b6143458c828d01614297565b99505060206143568c828d016142eb565b98505060406143678c828d016142eb565b97505060606143788c828d016142eb565b96505060806143898c828d016142eb565b95505060a061439a8c828d016142eb565b94505060c08a013567ffffffffffffffff8111156143b757600080fd5b6143c38c828d01614223565b93505060e08a013567ffffffffffffffff8111156143e057600080fd5b6143ec8c828d01614297565b9250506101008a013567ffffffffffffffff81111561440a57600080fd5b6144168c828d01614297565b9150509295985092959850929598565b60006020828403121561443857600080fd5b6000614446848285016142eb565b91505092915050565b6000806040838503121561446257600080fd5b6000614470858286016142eb565b925050602083013567ffffffffffffffff81111561448d57600080fd5b61449985828601614297565b9150509250929050565b600080604083850312156144b657600080fd5b60006144c4858286016142eb565b92505060206144d5858286016142eb565b9150509250929050565b6000806000606084860312156144f457600080fd5b6000614502868287016142eb565b9350506020614513868287016142eb565b9250506040614524868287016142eb565b9150509250925092565b600061453a83836145ad565b60208301905092915050565b600061455283836148de565b60208301905092915050565b600061456a83836148ed565b905092915050565b600061457e8383615036565b905092915050565b60006145928383615399565b60208301905092915050565b6145a781615b33565b82525050565b6145b681615a9f565b82525050565b60006145c782615978565b6145d181856159fb565b93506145dc83615928565b8060005b8381101561460d5781516145f4888261452e565b97506145ff836159ba565b9250506001810190506145e0565b5085935050505092915050565b600061462582615983565b61462f8185615a61565b935061463a83615938565b8060005b8381101561466b5781516146528882614546565b975061465d836159c7565b92505060018101905061463e565b5085935050505092915050565b60006146838261598e565b61468d8185615a0c565b93508360208202850161469f85615948565b8060005b858110156146db57848403895281516146bc858261455e565b94506146c7836159d4565b925060208a019950506001810190506146a3565b50829750879550505050505092915050565b60006146f88261598e565b6147028185615a1d565b93508360208202850161471485615948565b8060005b858110156147505784840389528151614731858261455e565b945061473c836159d4565b925060208a01995050600181019050614718565b50829750879550505050505092915050565b600061476d82615999565b6147778185615a2e565b93508360208202850161478985615958565b8060005b858110156147c557848403895281516147a68582614572565b94506147b1836159e1565b925060208a0199505060018101905061478d565b50829750879550505050505092915050565b60006147e2826159a4565b6147ec8185615a3f565b93506147f783615968565b8060005b8381101561482857815161480f8882614586565b975061481a836159ee565b9250506001810190506147fb565b5085935050505092915050565b6000614840826159a4565b61484a8185615a50565b935061485583615968565b8060005b8381101561488657815161486d8882614586565b9750614878836159ee565b925050600181019050614859565b5085935050505092915050565b61489c81615ab1565b82525050565b6148ab81615b45565b82525050565b6148ba81615b57565b82525050565b6148c981615b69565b82525050565b6148d881615b69565b82525050565b6148e781615b7b565b82525050565b60006148f8826159af565b6149028185615a72565b9350614912818560208601615bc0565b61491b81615bfd565b840191505092915050565b6000614931826159af565b61493b8185615a83565b935061494b818560208601615bc0565b61495481615bfd565b840191505092915050565b600061496a826159af565b6149748185615a94565b9350614984818560208601615bc0565b80840191505092915050565b600061499d602183615a83565b91507f596f7520617265206e6f7420616c6c6f77656420746f2067657420526577617260008301527f64000000000000000000000000000000000000000000000000000000000000006020830152604082019050919050565b6000614a03600383615a94565b91507f41727400000000000000000000000000000000000000000000000000000000006000830152600382019050919050565b6000614a43600883615a94565b91507f506f6c69746963730000000000000000000000000000000000000000000000006000830152600882019050919050565b6000614a83600583615a94565b91507f4b6f7265610000000000000000000000000000000000000000000000000000006000830152600582019050919050565b6000614ac3600483615a94565b91507f4d656d65000000000000000000000000000000000000000000000000000000006000830152600482019050919050565b6000614b03600683615a94565b91507f43616e61646100000000000000000000000000000000000000000000000000006000830152600682019050919050565b6000614b43600483615a94565b91507f54656368000000000000000000000000000000000000000000000000000000006000830152600482019050919050565b6000614b83601b83615a83565b91507f4e6f7420656e6f756768206d6f6e657920746f207365742056495000000000006000830152602082019050919050565b6000614bc3600383615a94565b91507f55534100000000000000000000000000000000000000000000000000000000006000830152600382019050919050565b6000614c03601083615a83565b91507f4e6f7420456e6f756768204d6f6e6579000000000000000000000000000000006000830152602082019050919050565b6000614c43601183615a83565b91507f596f7520617265206e6f742056495021210000000000000000000000000000006000830152602082019050919050565b6000614c83600583615a94565b91507f4368696e610000000000000000000000000000000000000000000000000000006000830152600582019050919050565b6000614cc3600683615a94565b91507f53706f72747300000000000000000000000000000000000000000000000000006000830152600682019050919050565b6000614d03600583615a94565b91507f4d757369630000000000000000000000000000000000000000000000000000006000830152600582019050919050565b6000614d43601083615a83565b91507f4265742074696d65206973206f766572000000000000000000000000000000006000830152602082019050919050565b6000614d83601883615a83565b91507f4e6f7420656e6f756768206d6f6e657920746f207370696e00000000000000006000830152602082019050919050565b6000614dc3600f83615a83565b91507f42657420686173206578706972656400000000000000000000000000000000006000830152602082019050919050565b6000614e03601183615a83565b91507f546f6f206d756368206d6f6e65792121210000000000000000000000000000006000830152602082019050919050565b6000614e43600683615a94565b91507f5363686f6f6c00000000000000000000000000000000000000000000000000006000830152600682019050919050565b6000614e83600583615a94565b91507f4974616c790000000000000000000000000000000000000000000000000000006000830152600582019050919050565b6000614ec3600283615a94565b91507f554b0000000000000000000000000000000000000000000000000000000000006000830152600282019050919050565b6000614f03600583615a94565b91507f45677970740000000000000000000000000000000000000000000000000000006000830152600582019050919050565b6000614f43600683615a94565b91507f54616977616e00000000000000000000000000000000000000000000000000006000830152600682019050919050565b6000614f83600483615a94565b91507f4e657773000000000000000000000000000000000000000000000000000000006000830152600482019050919050565b6000614fc3600583615a94565b91507f4a6170616e0000000000000000000000000000000000000000000000000000006000830152600582019050919050565b6000615003600783615a94565b91507f426974636f696e000000000000000000000000000000000000000000000000006000830152600782019050919050565b600061020083016000830151848203600086015261505482826148ed565b9150506020830151848203602086015261506e8282614678565b915050604083015184820360408601526150888282614678565b915050606083015161509d60608601826145ad565b5060808301516150b06080860182615399565b5060a08301516150c360a0860182615399565b5060c08301516150d660c0860182615399565b5060e08301516150e960e0860182615399565b506101008301516150fe610100860182615399565b50610120830151615113610120860182615399565b50610140830151615128610140860182615399565b5061016083015184820361016086015261514282826147d7565b91505061018083015184820361018086015261515e82826145bc565b9150506101a08301516151756101a0860182614893565b506101c083015161518a6101c08601826148b1565b506101e083015161519f6101e08601826148a2565b508091505092915050565b60006102008301600083015184820360008601526151c882826148ed565b915050602083015184820360208601526151e28282614678565b915050604083015184820360408601526151fc8282614678565b915050606083015161521160608601826145ad565b5060808301516152246080860182615399565b5060a083015161523760a0860182615399565b5060c083015161524a60c0860182615399565b5060e083015161525d60e0860182615399565b50610100830151615272610100860182615399565b50610120830151615287610120860182615399565b5061014083015161529c610140860182615399565b506101608301518482036101608601526152b682826147d7565b9150506101808301518482036101808601526152d282826145bc565b9150506101a08301516152e96101a0860182614893565b506101c08301516152fe6101c08601826148b1565b506101e08301516153136101e08601826148a2565b508091505092915050565b60c0820160008201516153346000850182615399565b5060208201516153476020850182615399565b50604082015161535a6040850182615399565b50606082015161536d6060850182614893565b5060808201516153806080850182614893565b5060a082015161539360a08501826148c0565b50505050565b6153a281615b29565b82525050565b6153b181615b29565b82525050565b6153c86153c382615b29565b615bf3565b82525050565b60006153da828461495f565b915081905092915050565b60006153f0826149f6565b9150819050919050565b600061540582614a36565b9150819050919050565b600061541a82614a76565b9150819050919050565b600061542f82614ab6565b9150819050919050565b600061544482614af6565b9150819050919050565b600061545982614b36565b9150819050919050565b600061546e82614bb6565b9150819050919050565b600061548382614c76565b9150819050919050565b600061549882614cb6565b9150819050919050565b60006154ad82614cf6565b9150819050919050565b60006154c282614e36565b9150819050919050565b60006154d782614e76565b9150819050919050565b60006154ec82614eb6565b9150819050919050565b600061550182614ef6565b9150819050919050565b600061551682614f36565b9150819050919050565b600061552b82614f76565b9150819050919050565b600061554082614fb6565b9150819050919050565b600061555582614ff6565b9150819050919050565b600061556b82856153b7565b60208201915061557b82846153b7565b6020820191508190509392505050565b60006020820190506155a0600083018461459e565b92915050565b60006040820190506155bb600083018561459e565b6155c860208301846153a8565b9392505050565b600060208201905081810360008301526155e981846146ed565b905092915050565b6000602082019050818103600083015261560b8184614835565b905092915050565b6000604082019050818103600083015261562d8185614835565b905081810360208301526156418184614762565b90509392505050565b600060608201905081810360008301526156648186614835565b905081810360208301526156788185614762565b9050818103604083015261568c818461461a565b9050949350505050565b60006020820190506156ab60008301846148cf565b92915050565b600060208201905081810360008301526156ca81614990565b9050919050565b600060208201905081810360008301526156ea81614b76565b9050919050565b6000602082019050818103600083015261570a81614bf6565b9050919050565b6000602082019050818103600083015261572a81614c36565b9050919050565b6000602082019050818103600083015261574a81614d36565b9050919050565b6000602082019050818103600083015261576a81614d76565b9050919050565b6000602082019050818103600083015261578a81614db6565b9050919050565b600060208201905081810360008301526157aa81614df6565b9050919050565b600060208201905081810360008301526157cb81846151aa565b905092915050565b600060c0820190506157e8600083018461531e565b92915050565b600060208201905061580360008301846153a8565b92915050565b600060808201905061581e60008301876153a8565b61582b602083018661459e565b61583860408301856153a8565b61584560608301846153a8565b95945050505050565b600060408201905061586360008301856153a8565b81810360208301526158758184614926565b90509392505050565b600060408201905061589360008301856153a8565b6158a060208301846153a8565b9392505050565b6000604051905081810181811067ffffffffffffffff821117156158ca57600080fd5b8060405250919050565b600067ffffffffffffffff8211156158eb57600080fd5b602082029050602081019050919050565b600067ffffffffffffffff82111561591357600080fd5b601f19601f8301169050602081019050919050565b6000819050602082019050919050565b6000819050602082019050919050565b6000819050602082019050919050565b6000819050602082019050919050565b6000819050602082019050919050565b600081519050919050565b600081519050919050565b600081519050919050565b600081519050919050565b600081519050919050565b600081519050919050565b6000602082019050919050565b6000602082019050919050565b6000602082019050919050565b6000602082019050919050565b6000602082019050919050565b600082825260208201905092915050565b600082825260208201905092915050565b600082825260208201905092915050565b600082825260208201905092915050565b600082825260208201905092915050565b600082825260208201905092915050565b600082825260208201905092915050565b600082825260208201905092915050565b600082825260208201905092915050565b600081905092915050565b6000615aaa82615b09565b9050919050565b60008115159050919050565b6000819050615acb82615c0e565b919050565b6000819050615ade82615c1b565b919050565b6000819050615af182615c28565b919050565b6000819050615b0482615c35565b919050565b600073ffffffffffffffffffffffffffffffffffffffff82169050919050565b6000819050919050565b6000615b3e82615b8d565b9050919050565b6000615b5082615abd565b9050919050565b6000615b6282615ad0565b9050919050565b6000615b7482615ae3565b9050919050565b6000615b8682615af6565b9050919050565b6000615b9882615b9f565b9050919050565b6000615baa82615b09565b9050919050565b82818337600083830152505050565b60005b83811015615bde578082015181840152602081019050615bc3565b83811115615bed576000848401525b50505050565b6000819050919050565b6000601f19601f8301169050919050565b600a8110615c1857fe5b50565b600a8110615c2557fe5b50565b60088110615c3257fe5b50565b60048110615c3f57fe5b50565b615c4b81615b29565b8114615c5657600080fd5b5056fea26469706673582212200feff0e0fa3301564bdcfd794b4aa9f06db759ac5ba6b27112f3a75ed7879dcc64736f6c634300060c0033",
  "immutableReferences": {},
  "source": "pragma solidity >=0.6.0 <0.8.0;\npragma experimental ABIEncoderV2;\n\ncontract OnlineBetting {\n\n    //constants\n    uint constant SMALLEST_FEE = 0.001 ether;\n    uint constant PERCENTAGE_FEE = 0.00001 ether;\n\n    //events\n    event BetAdded(uint betId, string title);  //emit when\n    event MoneyAdded(uint betId, address adder, uint choice, uint amount);\n    event AnswerSet(uint betId, uint choice);\n    event MoneyGiven(address receiver, uint amount);\n    event SetVIP(address member);\n    event AddComment(uint betId, string comment);\n\n    //Enums\n    enum Status{ OwnAvailable, OtherAvailable, OwnExpire, OtherExpire }\n    enum Region{ Other, Taiwan, China, USA, UK, Japan, Korea, Canada, Egypt, Italy }\n    enum Genre{ Other, News, Politics, Sports, Music, Meme, Art, Bitcoin, School, Tech }\n    enum Reward{ Sorry, ByeBye, haha_10, haha_20, haha_50, haha_100, haha_200, Jackpot}\n\n    //Bet\n    struct Bet {\n        string title;\n        string[] choices;\n        string[] comments;\n        address owner;\n        uint lowerBound;\n        uint currentAmount;\n        uint upperBound;\n        uint publishTime;\n        uint lastBetTime;\n        uint distributeTime;\n        uint answer;\n        uint[] currentChoices;\n        address[] voter;\n        bool isAnswerSet;\n        Region region;\n        Genre genre;\n    }\n\n    struct MemberView {\n        uint betsConstructed;\n        uint moneyAdded;\n        uint howard;\n        bool isVIP;\n        bool canGetReward;\n        Reward reward;\n    }\n\n    constructor() public {\n        jackpotAmount = 0;\n    }\n\n    //Bet list\n    uint jackpotAmount;\n    Bet[] bets;\n    mapping (address => MemberView) members;\n    mapping (uint => mapping (address => uint[])) voterChoice;\n\n    //Modifiers\n    //Valid bet modifier\n    modifier isValidId(uint _id) {\n        require(_isIdValid(_id), \"Bet has expired\");\n        _;\n    }\n\n    //Valid amount\n    modifier isValidAmount(uint _id, uint _amount) {\n        require(bets[_id].currentAmount + _amount <= bets[_id].upperBound, \"Too much money!!!\");\n        _;\n    }\n\n    //functions\n    //Add bet to bets\n    function addBet(\n        string memory _title, \n        uint _lowerBound, \n        uint _upperBound, \n        uint _publishTime, \n        uint _lastBetTime, \n        uint _distributeTime,\n        string[] memory _choices, \n        string memory _region, \n        string memory _genre\n    ) public {\n        require(members[msg.sender].isVIP, \"You are not VIP!!\");\n        uint betId = bets.length;\n        uint choiceLength = _choices.length;\n        uint[] memory currentChoices = new uint[](choiceLength);\n        Bet storage bet = bets.push();\n        bet.title = _title;\n        bet.owner = msg.sender;\n        bet.lowerBound = _lowerBound;\n        bet.upperBound = _upperBound;\n        bet.publishTime = _publishTime;\n        bet.lastBetTime = _lastBetTime;\n        bet.distributeTime = _distributeTime;\n        bet.choices = _choices;\n        bet.currentChoices = currentChoices;\n        bet.region = _str2Region(_region);\n        bet.genre = _str2Genre(_genre);\n        emit BetAdded(betId, _title);\n        members[msg.sender].betsConstructed++;\n    }\n\n    function setVIP() public payable {\n        require(msg.value == 0.5 ether, \"Not enough money to set VIP\");\n        members[msg.sender].isVIP = true;\n        emit SetVIP(msg.sender);\n    }\n\n    function addMoney(uint _id, uint _choice, uint _amount) public payable isValidId(_id) isValidAmount(_id, _amount) {\n        //require(bets[_id].owner != msg.sender, \"Cannot add money to your own bets.\");\n        require(msg.value == _amount*SMALLEST_FEE, \"Not Enough Money\");\n        require(now <= bets[_id].lastBetTime, \"Bet time is over\");\n        bets[_id].currentAmount += _amount;\n        bets[_id].currentChoices[_choice] += _amount;\n        _addressInit(_id, msg.sender);\n        voterChoice[_id][msg.sender][_choice] += _amount;\n        emit MoneyAdded(_id, msg.sender, _choice, _amount);\n        members[msg.sender].moneyAdded += _amount;\n    }\n    \n    function setAnswer(uint _id, uint _answer) public {\n        require(msg.sender == bets[_id].owner);\n        bets[_id].answer = _answer;\n        bets[_id].isAnswerSet = true;\n        emit AnswerSet(_id, _answer);\n    }\n\n    function distributeMoney(uint _id) public payable {\n        require(msg.sender == bets[_id].owner);\n        if(bets[_id].isAnswerSet) {\n            uint creatorReward = uint(bets[_id].currentAmount*5);\n            uint otherReward = uint(bets[_id].currentAmount*90);\n            uint numVoters = bets[_id].voter.length;\n            uint answer = bets[_id].answer;\n\n            address payable receiver = msg.sender;\n            receiver.transfer(creatorReward * PERCENTAGE_FEE);\n            emit MoneyGiven(receiver, creatorReward);\n            for(uint i = 0; i < numVoters; i++) {\n                receiver = payable(bets[_id].voter[i]);\n                receiver.transfer(otherReward * PERCENTAGE_FEE * voterChoice[_id][receiver][answer] / bets[_id].currentChoices[answer]);\n                emit MoneyGiven(receiver, otherReward * voterChoice[_id][receiver][answer] / bets[_id].currentChoices[answer]);\n            }\n        }\n        else {\n            address payable receiver;\n            uint numVoters = bets[_id].voter.length;\n            uint numChoices = bets[_id].choices.length;\n            for(uint i = 0; i < numVoters; i++) {\n                receiver = payable(bets[_id].voter[i]);\n                for(uint j = 0; j < numChoices; j++) {\n                    receiver.transfer(voterChoice[_id][receiver][j] * SMALLEST_FEE);\n                    emit MoneyGiven(receiver, voterChoice[_id][receiver][j]);\n                }\n            }\n        }\n    }\n\n    function addComment(uint _id, string memory _comment) public {\n        bets[_id].comments.push(_comment);\n        emit AddComment(_id, _comment);\n    }\n\n    function spinWheel() public payable {\n        require(msg.value == 0.1 ether, \"Not enough money to spin\");\n        jackpotAmount += 100;\n        uint howard = _rng();\n        members[msg.sender].howard = howard;\n        members[msg.sender].canGetReward = false;\n        if(howard == 0) {\n            msg.sender.transfer(jackpotAmount*SMALLEST_FEE);\n            jackpotAmount = 0;\n            members[msg.sender].reward = Reward.Jackpot;\n        }\n        if(howard > 0 && howard <= 500) {\n            msg.sender.transfer(0.2 ether);\n            jackpotAmount -= 200;\n            members[msg.sender].reward = Reward.haha_200;\n        }\n        if(howard > 500 && howard <= 1000) {\n            msg.sender.transfer(0.1 ether);\n            jackpotAmount -= 100;\n            members[msg.sender].reward = Reward.haha_100;\n        }\n        if(howard > 1000 && howard <= 2000) {\n            msg.sender.transfer(0.05 ether);\n            jackpotAmount -= 50;\n            members[msg.sender].reward = Reward.haha_50;\n        }\n        if(howard > 2000 && howard <= 3000) {\n            msg.sender.transfer(0.02 ether);\n            jackpotAmount -= 20;\n            members[msg.sender].reward = Reward.haha_20;\n        }\n        if(howard > 3000 && howard <= 4000) {\n            msg.sender.transfer(0.01 ether);\n            jackpotAmount -= 10;\n            members[msg.sender].reward = Reward.haha_10;\n        }\n        if(howard > 4000 && howard <= 7000) {\n            members[msg.sender].reward = Reward.Sorry;\n        }\n        if(howard > 7000) {\n            members[msg.sender].reward = Reward.ByeBye;\n        }\n        members[msg.sender].canGetReward = true;\n    }\n\n    function getLastBet() public view returns(Bet memory) {\n        return bets[bets.length-1];\n    }\n\n    function getBets() public view returns(uint[] memory, Bet[] memory, Status[] memory) {\n        uint[] memory ids = new uint[](bets.length);\n        Status[] memory statuses = new Status[](bets.length);\n        for(uint i = 0; i < bets.length; i++) {\n            ids[i] = i;\n            statuses[i] = _getStatus(i);\n        }\n        return (ids, bets, statuses);\n    }\n\n    function getHotBets() public view returns(uint[] memory, Bet[] memory) {\n        uint[] memory ids;\n        Bet[] memory validBets;\n        (ids, validBets) = _getValidBets();\n        Bet[] memory hotBets = new Bet[](_min(10, validBets.length));\n        _sortBets(ids, validBets);\n        for(uint i = 0; i < _min(10, validBets.length); ++i) {\n            hotBets[i] = validBets[i];\n        }\n        return (ids, hotBets);\n    }\n\n    function getVoterChoices(uint _id) public view returns(uint[] memory) {\n        return voterChoice[_id][msg.sender];\n    }\n\n    function getComments(uint _id) public view returns(string[] memory) {\n        return bets[_id].comments;\n    }\n\n    function getMemberView() public view returns(MemberView memory) {\n        return members[msg.sender];\n    }\n\n    function getJackpot() public view returns(uint) {\n        return jackpotAmount;\n    }\n\n    function getReward() public view returns(Reward) {\n        require(members[msg.sender].canGetReward, \"You are not allowed to get Reward\");\n        return members[msg.sender].reward;\n    }\n\n    function _getValidBets() internal view returns(uint[] memory, Bet[] memory) {\n        uint count;\n        uint[] memory ids;\n        (count, ids) = _getValidIds();\n        Bet[] memory validBets = new Bet[](count);\n        for(uint i = 0; i < count; i++) {\n            validBets[i] = bets[ids[i]];\n        }\n        return (ids, validBets);\n    }\n\n    function _getValidIds() internal view returns(uint, uint[] memory) {\n        uint[] memory validIds = new uint[](bets.length);\n        uint count = 0;\n        for(uint i = 0; i < bets.length; i++) {\n            if(_isIdValid(i)) {\n                validIds[count] = i;\n                count++;\n            }\n        }\n        return (count, validIds);\n    }\n\n    function _isIdValid(uint _id) internal view returns(bool) {\n        return (now <= bets[_id].publishTime);\n    }\n\n    function _hasBet(uint _id, address _better) internal view returns(bool) {\n        uint len = bets[_id].voter.length;\n        for(uint i = 0; i < len; i++) {\n            if(bets[_id].voter[i] == _better) return true;\n        }\n        return false;\n    }\n\n    function _addressInit(uint _id, address _better) internal isValidId(_id) {\n        bool isInit = _hasBet(_id, _better);\n        if(!isInit) {\n            bets[_id].voter.push(_better);\n            voterChoice[_id][msg.sender] = new uint[](bets[_id].choices.length);\n        }\n    }\n\n    function _str2Region(string memory _region) internal pure returns(Region) {\n        if(keccak256(abi.encodePacked(_region)) == keccak256(abi.encodePacked(\"Taiwan\"))) return Region.Taiwan;\n        if(keccak256(abi.encodePacked(_region)) == keccak256(abi.encodePacked(\"China\"))) return Region.China;\n        if(keccak256(abi.encodePacked(_region)) == keccak256(abi.encodePacked(\"USA\"))) return Region.USA;\n        if(keccak256(abi.encodePacked(_region)) == keccak256(abi.encodePacked(\"UK\"))) return Region.UK;\n        if(keccak256(abi.encodePacked(_region)) == keccak256(abi.encodePacked(\"Japan\"))) return Region.Japan;\n        if(keccak256(abi.encodePacked(_region)) == keccak256(abi.encodePacked(\"Korea\"))) return Region.Korea;\n        if(keccak256(abi.encodePacked(_region)) == keccak256(abi.encodePacked(\"Canada\"))) return Region.Canada;\n        if(keccak256(abi.encodePacked(_region)) == keccak256(abi.encodePacked(\"Egypt\"))) return Region.Egypt;\n        if(keccak256(abi.encodePacked(_region)) == keccak256(abi.encodePacked(\"Italy\"))) return Region.Italy;\n        else return Region.Other;\n    }\n\n    function _str2Genre(string memory _genre) internal pure returns(Genre) {\n        if(keccak256(abi.encodePacked(_genre)) == keccak256(abi.encodePacked(\"News\"))) return Genre.News;\n        if(keccak256(abi.encodePacked(_genre)) == keccak256(abi.encodePacked(\"Sports\"))) return Genre.Sports;\n        if(keccak256(abi.encodePacked(_genre)) == keccak256(abi.encodePacked(\"Politics\"))) return Genre.Politics;\n        if(keccak256(abi.encodePacked(_genre)) == keccak256(abi.encodePacked(\"Music\"))) return Genre.Music;\n        if(keccak256(abi.encodePacked(_genre)) == keccak256(abi.encodePacked(\"Meme\"))) return Genre.Meme;\n        if(keccak256(abi.encodePacked(_genre)) == keccak256(abi.encodePacked(\"Art\"))) return Genre.Art;\n        if(keccak256(abi.encodePacked(_genre)) == keccak256(abi.encodePacked(\"Bitcoin\"))) return Genre.Bitcoin;\n        if(keccak256(abi.encodePacked(_genre)) == keccak256(abi.encodePacked(\"School\"))) return Genre.School;\n        if(keccak256(abi.encodePacked(_genre)) == keccak256(abi.encodePacked(\"Tech\"))) return Genre.Tech;\n        return Genre.Other;\n    }\n\n    function _sortBets(uint[] memory ids, Bet[] memory _bets) internal pure {\n        if(_bets.length > 0) _quickSort(ids, _bets, 0, _bets.length-1);\n    }\n\n    function _quickSort(uint[] memory ids, Bet[] memory _bets, uint _init, uint _end) internal pure {\n        uint i = _init;\n        uint j = _end;\n        if(i >= j) return;\n        Bet memory pivot = _bets[(_init+_end )/ 2];\n        while (i <= j) {\n            while (_isLargerThan(_bets[i], pivot)) i++;\n            while (_isLargerThan(pivot, _bets[j])) j--;\n            if (i <= j) {\n                (_bets[i], _bets[j]) = (_bets[j], _bets[i]);\n                (ids[i], ids[j]) = (ids[j], ids[i]);\n                i++;\n                j--;\n            }\n        }\n        if (_init < j)\n            _quickSort(ids, _bets, _init, j);\n        if (i < _end)\n            _quickSort(ids, _bets, i, _end);\n    }\n\n    function _isLargerThan(Bet memory _bet1, Bet memory _bet2) internal pure returns(bool) {\n        if(_bet1.voter.length > _bet2.voter.length) return true;\n        else if(_bet1.voter.length == _bet2.voter.length) return _bet1.currentAmount > _bet2.currentAmount;\n        else return false;\n    }\n\n    function _min(uint a, uint b) internal pure returns(uint) {\n        if(a > b) return b;\n        else return a;\n    }\n\n    function _getStatus(uint _id) internal view returns(Status) {\n        Bet memory bet = bets[_id];\n        if(bet.owner == msg.sender && bet.publishTime > now) return Status.OwnAvailable;\n        else if(bet.owner != msg.sender && bet.publishTime > now) return Status.OtherAvailable;\n        else if(bet.owner == msg.sender && bet.publishTime <= now) return Status.OwnExpire;\n        else if(bet.owner != msg.sender && bet.publishTime <= now) return Status.OtherExpire;\n    }\n\n    function _rng() internal view returns(uint) {\n        uint random = uint(keccak256(abi.encodePacked(block.difficulty, now)));\n        return random%10000;\n    }\n}",
  "sourcePath": "/Users/peterlin/OnlineBetting/ethereum/contracts/OnlineBetting.sol",
  "compiler": {
    "name": "solc",
    "version": "0.6.12+commit.27d51765.Emscripten.clang"
  },
  "schemaVersion": "3.4.0",
  "updatedAt": "2021-06-26T16:33:28.091Z",
  "networkType": "ethereum",
  "devdoc": {
    "kind": "dev",
    "methods": {},
    "version": 1
  },
  "userdoc": {
    "kind": "user",
    "methods": {},
    "version": 1
  }
}