{
  "contractName": "OnlineBetting",
  "abi": [
    {
      "anonymous": false,
      "inputs": [
        {
          "indexed": false,
          "internalType": "uint256",
          "name": "betId",
          "type": "uint256"
        },
        {
          "indexed": false,
          "internalType": "uint256",
          "name": "choice",
          "type": "uint256"
        }
      ],
      "name": "AnswerSet",
      "type": "event"
    },
    {
      "anonymous": false,
      "inputs": [
        {
          "indexed": false,
          "internalType": "uint256",
          "name": "betId",
          "type": "uint256"
        },
        {
          "indexed": false,
          "internalType": "string",
          "name": "title",
          "type": "string"
        }
      ],
      "name": "BetAdded",
      "type": "event"
    },
    {
      "anonymous": false,
      "inputs": [
        {
          "indexed": false,
          "internalType": "uint256",
          "name": "betId",
          "type": "uint256"
        },
        {
          "indexed": false,
          "internalType": "address",
          "name": "adder",
          "type": "address"
        },
        {
          "indexed": false,
          "internalType": "uint256",
          "name": "choice",
          "type": "uint256"
        },
        {
          "indexed": false,
          "internalType": "uint256",
          "name": "amount",
          "type": "uint256"
        }
      ],
      "name": "MoneyAdded",
      "type": "event"
    },
    {
      "anonymous": false,
      "inputs": [
        {
          "indexed": false,
          "internalType": "address",
          "name": "receiver",
          "type": "address"
        },
        {
          "indexed": false,
          "internalType": "uint256",
          "name": "amount",
          "type": "uint256"
        }
      ],
      "name": "MoneyGiven",
      "type": "event"
    },
    {
      "constant": false,
      "inputs": [
        {
          "internalType": "string",
          "name": "_title",
          "type": "string"
        },
        {
          "internalType": "uint256",
          "name": "_lowerBound",
          "type": "uint256"
        },
        {
          "internalType": "uint256",
          "name": "_upperBound",
          "type": "uint256"
        },
        {
          "internalType": "uint256",
          "name": "_publishTime",
          "type": "uint256"
        },
        {
          "internalType": "uint256",
          "name": "_lastBetTime",
          "type": "uint256"
        }
      ],
      "name": "addBet",
      "outputs": [],
      "payable": false,
      "stateMutability": "nonpayable",
      "type": "function"
    },
    {
      "constant": false,
      "inputs": [
        {
          "internalType": "uint256",
          "name": "_id",
          "type": "uint256"
        },
        {
          "internalType": "string",
          "name": "_choice",
          "type": "string"
        }
      ],
      "name": "addChoice",
      "outputs": [],
      "payable": false,
      "stateMutability": "nonpayable",
      "type": "function"
    },
    {
      "constant": false,
      "inputs": [
        {
          "internalType": "uint256",
          "name": "_id",
          "type": "uint256"
        },
        {
          "internalType": "uint256",
          "name": "_choice",
          "type": "uint256"
        },
        {
          "internalType": "uint256",
          "name": "_amount",
          "type": "uint256"
        }
      ],
      "name": "addMoney",
      "outputs": [],
      "payable": true,
      "stateMutability": "payable",
      "type": "function"
    },
    {
      "constant": false,
      "inputs": [
        {
          "internalType": "uint256",
          "name": "_id",
          "type": "uint256"
        },
        {
          "internalType": "uint256",
          "name": "_answer",
          "type": "uint256"
        }
      ],
      "name": "setAnswer",
      "outputs": [],
      "payable": false,
      "stateMutability": "nonpayable",
      "type": "function"
    },
    {
      "constant": false,
      "inputs": [
        {
          "internalType": "uint256",
          "name": "_id",
          "type": "uint256"
        }
      ],
      "name": "distributeMoney",
      "outputs": [],
      "payable": true,
      "stateMutability": "payable",
      "type": "function"
    },
    {
      "constant": true,
      "inputs": [],
      "name": "getIds",
      "outputs": [
        {
          "internalType": "uint256[]",
          "name": "",
          "type": "uint256[]"
        },
        {
          "internalType": "bool[]",
          "name": "",
          "type": "bool[]"
        }
      ],
      "payable": false,
      "stateMutability": "view",
      "type": "function"
    },
    {
      "constant": true,
      "inputs": [
        {
          "internalType": "uint256",
          "name": "_id",
          "type": "uint256"
        }
      ],
      "name": "getTitle",
      "outputs": [
        {
          "internalType": "string",
          "name": "",
          "type": "string"
        }
      ],
      "payable": false,
      "stateMutability": "view",
      "type": "function"
    },
    {
      "constant": true,
      "inputs": [
        {
          "internalType": "uint256",
          "name": "_id",
          "type": "uint256"
        }
      ],
      "name": "getLowerBound",
      "outputs": [
        {
          "internalType": "uint256",
          "name": "",
          "type": "uint256"
        }
      ],
      "payable": false,
      "stateMutability": "view",
      "type": "function"
    },
    {
      "constant": true,
      "inputs": [
        {
          "internalType": "uint256",
          "name": "_id",
          "type": "uint256"
        }
      ],
      "name": "getCurrentAmount",
      "outputs": [
        {
          "internalType": "uint256",
          "name": "",
          "type": "uint256"
        }
      ],
      "payable": false,
      "stateMutability": "view",
      "type": "function"
    },
    {
      "constant": true,
      "inputs": [
        {
          "internalType": "uint256",
          "name": "_id",
          "type": "uint256"
        }
      ],
      "name": "getUpperBound",
      "outputs": [
        {
          "internalType": "uint256",
          "name": "",
          "type": "uint256"
        }
      ],
      "payable": false,
      "stateMutability": "view",
      "type": "function"
    },
    {
      "constant": true,
      "inputs": [
        {
          "internalType": "uint256",
          "name": "_id",
          "type": "uint256"
        }
      ],
      "name": "getChoiceNum",
      "outputs": [
        {
          "internalType": "uint256",
          "name": "",
          "type": "uint256"
        }
      ],
      "payable": false,
      "stateMutability": "view",
      "type": "function"
    },
    {
      "constant": true,
      "inputs": [
        {
          "internalType": "uint256",
          "name": "_id",
          "type": "uint256"
        },
        {
          "internalType": "uint256",
          "name": "_choice",
          "type": "uint256"
        }
      ],
      "name": "getChoice",
      "outputs": [
        {
          "internalType": "string",
          "name": "",
          "type": "string"
        }
      ],
      "payable": false,
      "stateMutability": "view",
      "type": "function"
    },
    {
      "constant": true,
      "inputs": [
        {
          "internalType": "uint256",
          "name": "_id",
          "type": "uint256"
        }
      ],
      "name": "getChoicesAmount",
      "outputs": [
        {
          "internalType": "uint256[]",
          "name": "",
          "type": "uint256[]"
        }
      ],
      "payable": false,
      "stateMutability": "view",
      "type": "function"
    },
    {
      "constant": true,
      "inputs": [
        {
          "internalType": "uint256",
          "name": "_id",
          "type": "uint256"
        }
      ],
      "name": "getAddressAmount",
      "outputs": [
        {
          "internalType": "uint256[]",
          "name": "",
          "type": "uint256[]"
        }
      ],
      "payable": false,
      "stateMutability": "view",
      "type": "function"
    },
    {
      "constant": true,
      "inputs": [
        {
          "internalType": "uint256",
          "name": "_id",
          "type": "uint256"
        }
      ],
      "name": "getAnswer",
      "outputs": [
        {
          "internalType": "uint256",
          "name": "",
          "type": "uint256"
        }
      ],
      "payable": false,
      "stateMutability": "view",
      "type": "function"
    }
  ],
  "bytecode": "0x608060405234801561001057600080fd5b506125f7806100206000396000f3fe6080604052600436106100e85760003560e01c8063a0f8973a1161008a578063caf76d4111610059578063caf76d411461063f578063d4d2d91c14610684578063d787629114610756578063f070eb2f146107a5576100e8565b8063a0f8973a14610483578063b1c4713e146104b1578063b5ab58dc14610500578063bf40a1ce1461054f576100e8565b806345bdbbc0116100c657806345bdbbc01461027357806356e78dc3146103315780636e9d922714610380578063929a79b1146103cf576100e8565b806301afe1af146100ed57806324b204ab1461017d5780632b105663146101bf575b600080fd5b3480156100f957600080fd5b506101266004803603602081101561011057600080fd5b8101908080359060200190929190505050610835565b6040518080602001828103825283818151815260200191508051906020019060200280838360005b8381101561016957808201518184015260208101905061014e565b505050509050019250505060405180910390f35b6101bd6004803603606081101561019357600080fd5b8101908080359060200190929190803590602001909291908035906020019092919050505061095c565b005b3480156101cb57600080fd5b506101d4610cdb565b604051808060200180602001838103835285818151815260200191508051906020019060200280838360005b8381101561021b578082015181840152602081019050610200565b50505050905001838103825284818151815260200191508051906020019060200280838360005b8381101561025d578082015181840152602081019050610242565b5050505090500194505050505060405180910390f35b34801561027f57600080fd5b506102b66004803603604081101561029657600080fd5b810190808035906020019092919080359060200190929190505050610e3b565b6040518080602001828103825283818151815260200191508051906020019080838360005b838110156102f65780820151818401526020810190506102db565b50505050905090810190601f1680156103235780820380516001836020036101000a031916815260200191505b509250505060405180910390f35b34801561033d57600080fd5b5061036a6004803603602081101561035457600080fd5b8101908080359060200190929190505050610f83565b6040518082815260200191505060405180910390f35b34801561038c57600080fd5b506103b9600480360360208110156103a357600080fd5b810190808035906020019092919050505061118f565b6040518082815260200191505060405180910390f35b3480156103db57600080fd5b50610408600480360360208110156103f257600080fd5b810190808035906020019092919050505061122c565b6040518080602001828103825283818151815260200191508051906020019080838360005b8381101561044857808201518184015260208101905061042d565b50505050905090810190601f1680156104755780820380516001836020036101000a031916815260200191505b509250505060405180910390f35b6104af6004803603602081101561049957600080fd5b8101908080359060200190929190505050611438565b005b3480156104bd57600080fd5b506104ea600480360360208110156104d457600080fd5b8101908080359060200190929190505050611903565b6040518082815260200191505060405180910390f35b34801561050c57600080fd5b506105396004803603602081101561052357600080fd5b8101908080359060200190929190505050611b0f565b6040518082815260200191505060405180910390f35b34801561055b57600080fd5b5061063d600480360360a081101561057257600080fd5b810190808035906020019064010000000081111561058f57600080fd5b8201836020820111156105a157600080fd5b803590602001918460018302840111640100000000831117156105c357600080fd5b91908080601f016020809104026020016040519081016040528093929190818152602001838380828437600081840152601f19601f82011690508083019250505050505050919291929080359060200190929190803590602001909291908035906020019092919080359060200190929190505050611c52565b005b34801561064b57600080fd5b506106826004803603604081101561066257600080fd5b810190808035906020019092919080359060200190929190505050611e5c565b005b34801561069057600080fd5b50610754600480360360408110156106a757600080fd5b8101908080359060200190929190803590602001906401000000008111156106ce57600080fd5b8201836020820111156106e057600080fd5b8035906020019184600183028401116401000000008311171561070257600080fd5b91908080601f016020809104026020016040519081016040528093929190818152602001838380828437600081840152601f19601f820116905080830192505050505050509192919290505050611f6f565b005b34801561076257600080fd5b5061078f6004803603602081101561077957600080fd5b8101908080359060200190929190505050612001565b6040518082815260200191505060405180910390f35b3480156107b157600080fd5b506107de600480360360208110156107c857600080fd5b810190808035906020019092919050505061220d565b6040518080602001828103825283818151815260200191508051906020019060200280838360005b83811015610821578082015181840152602081019050610806565b505050509050019250505060405180910390f35b60608161084181612371565b6108b3576040517f08c379a000000000000000000000000000000000000000000000000000000000815260040180806020018281038252600f8152602001807f426574206861732065787069726564000000000000000000000000000000000081525060200191505060405180910390fd5b60006108be8461118f565b90506060816040519080825280602002602001820160405280156108f15781602001602082028038833980820191505090505b50905060008090505b828110156109505760026000878152602001908152602001600020818154811061092057fe5b906000526020600020015482828151811061093757fe5b60200260200101818152505080806001019150506108fa565b50809350505050919050565b8261096681612371565b6109d8576040517f08c379a000000000000000000000000000000000000000000000000000000000815260040180806020018281038252600f8152602001807f426574206861732065787069726564000000000000000000000000000000000081525060200191505060405180910390fd5b8382600082815481106109e757fe5b9060005260206000209060090201600401548160008481548110610a0757fe5b906000526020600020906009020160030154011115610a8e576040517f08c379a00000000000000000000000000000000000000000000000000000000081526004018080602001828103825260118152602001807f546f6f206d756368206d6f6e657921212100000000000000000000000000000081525060200191505060405180910390fd5b66038d7ea4c6800084023414610b0c576040517f08c379a00000000000000000000000000000000000000000000000000000000081526004018080602001828103825260108152602001807f4e6f7420456e6f756768204d6f6e65790000000000000000000000000000000081525060200191505060405180910390fd5b8360008781548110610b1a57fe5b90600052602060002090600902016003016000828254019250508190555083600260008881526020019081526020016000208681548110610b5757fe5b9060005260206000200160008282540192505081905550600360008781526020019081526020016000203390806001815401808255809150509060018203906000526020600020016000909192909190916101000a81548173ffffffffffffffffffffffffffffffffffffffff021916908373ffffffffffffffffffffffffffffffffffffffff16021790555050836004600088815260200190815260200160002060003373ffffffffffffffffffffffffffffffffffffffff1673ffffffffffffffffffffffffffffffffffffffff1681526020019081526020016000208681548110610c4157fe5b90600052602060002001600082825401925050819055507f9ae068d0bdbacb4831e59338d8b28e0bbd2d53764219e625df5dbad665cd3a3386338787604051808581526020018473ffffffffffffffffffffffffffffffffffffffff1673ffffffffffffffffffffffffffffffffffffffff16815260200183815260200182815260200194505050505060405180910390a1505050505050565b60608060006060610cea61239b565b8092508193505050606082604051908082528060200260200182016040528015610d235781602001602082028038833980820191505090505b509050606083604051908082528060200260200182016040528015610d575781602001602082028038833980820191505090505b50905060008090505b84811015610e2c57838181518110610d7457fe5b6020026020010151838281518110610d8857fe5b6020026020010181815250503373ffffffffffffffffffffffffffffffffffffffff1660008281548110610db857fe5b906000526020600020906009020160010160009054906101000a900473ffffffffffffffffffffffffffffffffffffffff1673ffffffffffffffffffffffffffffffffffffffff1614828281518110610e0d57fe5b6020026020010190151590811515815250508080600101915050610d60565b50818195509550505050509091565b606082610e4781612371565b610eb9576040517f08c379a000000000000000000000000000000000000000000000000000000000815260040180806020018281038252600f8152602001807f426574206861732065787069726564000000000000000000000000000000000081525060200191505060405180910390fd5b600160008581526020019081526020016000208381548110610ed757fe5b906000526020600020018054600181600116156101000203166002900480601f016020809104026020016040519081016040528092919081815260200182805460018160011615610100020316600290048015610f755780601f10610f4a57610100808354040283529160200191610f75565b820191906000526020600020905b815481529060010190602001808311610f5857829003601f168201915b505050505091505092915050565b600081610f8f81612371565b611001576040517f08c379a000000000000000000000000000000000000000000000000000000000815260040180806020018281038252600f8152602001807f426574206861732065787069726564000000000000000000000000000000000081525060200191505060405180910390fd5b611009612439565b6000848154811061101657fe5b906000526020600020906009020160405180610120016040529081600082018054600181600116156101000203166002900480601f0160208091040260200160405190810160405280929190818152602001828054600181600116156101000203166002900480156110c95780601f1061109e576101008083540402835291602001916110c9565b820191906000526020600020905b8154815290600101906020018083116110ac57829003601f168201915b505050505081526020016001820160009054906101000a900473ffffffffffffffffffffffffffffffffffffffff1673ffffffffffffffffffffffffffffffffffffffff1673ffffffffffffffffffffffffffffffffffffffff1681526020016002820154815260200160038201548152602001600482015481526020016005820154815260200160068201548152602001600782015481526020016008820160009054906101000a900460ff1615151515815250509050806060015192505050919050565b60008161119b81612371565b61120d576040517f08c379a000000000000000000000000000000000000000000000000000000000815260040180806020018281038252600f8152602001807f426574206861732065787069726564000000000000000000000000000000000081525060200191505060405180910390fd5b6001600084815260200190815260200160002080549050915050919050565b60608161123881612371565b6112aa576040517f08c379a000000000000000000000000000000000000000000000000000000000815260040180806020018281038252600f8152602001807f426574206861732065787069726564000000000000000000000000000000000081525060200191505060405180910390fd5b6112b2612439565b600084815481106112bf57fe5b906000526020600020906009020160405180610120016040529081600082018054600181600116156101000203166002900480601f0160208091040260200160405190810160405280929190818152602001828054600181600116156101000203166002900480156113725780601f1061134757610100808354040283529160200191611372565b820191906000526020600020905b81548152906001019060200180831161135557829003601f168201915b505050505081526020016001820160009054906101000a900473ffffffffffffffffffffffffffffffffffffffff1673ffffffffffffffffffffffffffffffffffffffff1673ffffffffffffffffffffffffffffffffffffffff1681526020016002820154815260200160038201548152602001600482015481526020016005820154815260200160068201548152602001600782015481526020016008820160009054906101000a900460ff1615151515815250509050806000015192505050919050565b6000818154811061144557fe5b906000526020600020906009020160080160009054906101000a900460ff166114d6576040517f08c379a000000000000000000000000000000000000000000000000000000000815260040180806020018281038252600e8152602001807f416e73776572204e6f742053657400000000000000000000000000000000000081525060200191505060405180910390fd5b600081815481106114e357fe5b906000526020600020906009020160010160009054906101000a900473ffffffffffffffffffffffffffffffffffffffff1673ffffffffffffffffffffffffffffffffffffffff163373ffffffffffffffffffffffffffffffffffffffff161461154c57600080fd5b6000606460056000848154811061155f57fe5b906000526020600020906009020160030154028161157957fe5b0490506000600a60096000858154811061158f57fe5b90600052602060002090600902016003015402816115a957fe5b04905060006003600085815260200190815260200160002080549050905060008085815481106115d557fe5b906000526020600020906009020160070154905060003390508073ffffffffffffffffffffffffffffffffffffffff166108fc66038d7ea4c6800087029081150290604051600060405180830381858888f1935050505015801561163d573d6000803e3d6000fd5b507f9bb2540ba4555d75223ea5cea496bb837f39aecdc27e8a45a41e3c7b2c4f8f558186604051808373ffffffffffffffffffffffffffffffffffffffff1673ffffffffffffffffffffffffffffffffffffffff1681526020018281526020019250505060405180910390a160008090505b838110156118fa576003600088815260200190815260200160002081815481106116d557fe5b9060005260206000200160009054906101000a900473ffffffffffffffffffffffffffffffffffffffff1691508173ffffffffffffffffffffffffffffffffffffffff166108fc600260008a8152602001908152602001600020858154811061173a57fe5b9060005260206000200154600460008b815260200190815260200160002060008673ffffffffffffffffffffffffffffffffffffffff1673ffffffffffffffffffffffffffffffffffffffff16815260200190815260200160002086815481106117a057fe5b906000526020600020015466038d7ea4c68000890202816117bd57fe5b049081150290604051600060405180830381858888f193505050501580156117e9573d6000803e3d6000fd5b507f9bb2540ba4555d75223ea5cea496bb837f39aecdc27e8a45a41e3c7b2c4f8f5582600260008a8152602001908152602001600020858154811061182a57fe5b9060005260206000200154600460008b815260200190815260200160002060008673ffffffffffffffffffffffffffffffffffffffff1673ffffffffffffffffffffffffffffffffffffffff168152602001908152602001600020868154811061189057fe5b90600052602060002001548802816118a457fe5b04604051808373ffffffffffffffffffffffffffffffffffffffff1673ffffffffffffffffffffffffffffffffffffffff1681526020018281526020019250505060405180910390a180806001019150506116af565b50505050505050565b60008161190f81612371565b611981576040517f08c379a000000000000000000000000000000000000000000000000000000000815260040180806020018281038252600f8152602001807f426574206861732065787069726564000000000000000000000000000000000081525060200191505060405180910390fd5b611989612439565b6000848154811061199657fe5b906000526020600020906009020160405180610120016040529081600082018054600181600116156101000203166002900480601f016020809104026020016040519081016040528092919081815260200182805460018160011615610100020316600290048015611a495780601f10611a1e57610100808354040283529160200191611a49565b820191906000526020600020905b815481529060010190602001808311611a2c57829003601f168201915b505050505081526020016001820160009054906101000a900473ffffffffffffffffffffffffffffffffffffffff1673ffffffffffffffffffffffffffffffffffffffff1673ffffffffffffffffffffffffffffffffffffffff1681526020016002820154815260200160038201548152602001600482015481526020016005820154815260200160068201548152602001600782015481526020016008820160009054906101000a900460ff1615151515815250509050806040015192505050919050565b600081611b1b81612371565b611b8d576040517f08c379a000000000000000000000000000000000000000000000000000000000815260040180806020018281038252600f8152602001807f426574206861732065787069726564000000000000000000000000000000000081525060200191505060405180910390fd5b60008381548110611b9a57fe5b906000526020600020906009020160080160009054906101000a900460ff16611c2b576040517f08c379a00000000000000000000000000000000000000000000000000000000081526004018080602001828103825260128152602001807f416e73776572206e6f742073657420796574000000000000000000000000000081525060200191505060405180910390fd5b60008381548110611c3857fe5b906000526020600020906009020160070154915050919050565b611c5a612439565b6040518061012001604052808781526020013373ffffffffffffffffffffffffffffffffffffffff168152602001868152602001600081526020018581526020018481526020018381526020016000815260200160001515815250905060006001600083908060018154018082558091505090600182039060005260206000209060090201600090919290919091506000820151816000019080519060200190611d0592919061249d565b5060208201518160010160006101000a81548173ffffffffffffffffffffffffffffffffffffffff021916908373ffffffffffffffffffffffffffffffffffffffff16021790555060408201518160020155606082015181600301556080820151816004015560a0820151816005015560c0820151816006015560e082015181600701556101008201518160080160006101000a81548160ff02191690831515021790555050500390507ffd9b824c32c4b314de8cc8632b170ef722e0fa61fcf35583a814356d916bc1fa81886040518083815260200180602001828103825283818151815260200191508051906020019080838360005b83811015611e18578082015181840152602081019050611dfd565b50505050905090810190601f168015611e455780820380516001836020036101000a031916815260200191505b50935050505060405180910390a150505050505050565b60008281548110611e6957fe5b906000526020600020906009020160010160009054906101000a900473ffffffffffffffffffffffffffffffffffffffff1673ffffffffffffffffffffffffffffffffffffffff163373ffffffffffffffffffffffffffffffffffffffff1614611ed257600080fd5b8060008381548110611ee057fe5b906000526020600020906009020160070181905550600160008381548110611f0457fe5b906000526020600020906009020160080160006101000a81548160ff0219169083151502179055507f4772d83d7289b527150ec81022e02e39b5b278f66492d7f0702903636f33396d8282604051808381526020018281526020019250505060405180910390a15050565b60016000838152602001908152602001600020819080600181540180825580915050906001820390600052602060002001600090919290919091509080519060200190611fbd92919061251d565b505060026000838152602001908152602001600020600090806001815401808255809150509060018203906000526020600020016000909192909190915055505050565b60008161200d81612371565b61207f576040517f08c379a000000000000000000000000000000000000000000000000000000000815260040180806020018281038252600f8152602001807f426574206861732065787069726564000000000000000000000000000000000081525060200191505060405180910390fd5b612087612439565b6000848154811061209457fe5b906000526020600020906009020160405180610120016040529081600082018054600181600116156101000203166002900480601f0160208091040260200160405190810160405280929190818152602001828054600181600116156101000203166002900480156121475780601f1061211c57610100808354040283529160200191612147565b820191906000526020600020905b81548152906001019060200180831161212a57829003601f168201915b505050505081526020016001820160009054906101000a900473ffffffffffffffffffffffffffffffffffffffff1673ffffffffffffffffffffffffffffffffffffffff1673ffffffffffffffffffffffffffffffffffffffff1681526020016002820154815260200160038201548152602001600482015481526020016005820154815260200160068201548152602001600782015481526020016008820160009054906101000a900460ff1615151515815250509050806080015192505050919050565b60608161221981612371565b61228b576040517f08c379a000000000000000000000000000000000000000000000000000000000815260040180806020018281038252600f8152602001807f426574206861732065787069726564000000000000000000000000000000000081525060200191505060405180910390fd5b60006122968461118f565b90506060816040519080825280602002602001820160405280156122c95781602001602082028038833980820191505090505b50905060008090505b82811015612365576004600087815260200190815260200160002060003373ffffffffffffffffffffffffffffffffffffffff1673ffffffffffffffffffffffffffffffffffffffff168152602001908152602001600020818154811061233557fe5b906000526020600020015482828151811061234c57fe5b60200260200101818152505080806001019150506122d2565b50809350505050919050565b600080828154811061237f57fe5b9060005260206000209060090201600501544211159050919050565b60006060806000805490506040519080825280602002602001820160405280156123d45781602001602082028038833980820191505090505b509050600080905060008090505b60008054905081101561242c576123f881612371565b1561241f578083838151811061240a57fe5b60200260200101818152505081806001019250505b80806001019150506123e2565b5080829350935050509091565b60405180610120016040528060608152602001600073ffffffffffffffffffffffffffffffffffffffff1681526020016000815260200160008152602001600081526020016000815260200160008152602001600081526020016000151581525090565b828054600181600116156101000203166002900490600052602060002090601f016020900481019282601f106124de57805160ff191683800117855561250c565b8280016001018555821561250c579182015b8281111561250b5782518255916020019190600101906124f0565b5b509050612519919061259d565b5090565b828054600181600116156101000203166002900490600052602060002090601f016020900481019282601f1061255e57805160ff191683800117855561258c565b8280016001018555821561258c579182015b8281111561258b578251825591602001919060010190612570565b5b509050612599919061259d565b5090565b6125bf91905b808211156125bb5760008160009055506001016125a3565b5090565b9056fea265627a7a7231582003d8df320c17a439f256d2287b365b1392f95ebe1cc453bd923008ffc71454e364736f6c63430005100032",
  "source": "pragma solidity >=0.4.21 <0.6.0;\n\ncontract OnlineBetting {\n\n    //constants\n    uint constant SMALLEST_FEE = 0.001 ether;\n\n    //events\n    event BetAdded(uint betId, string title);  //emit when\n    event MoneyAdded(uint betId, address adder, uint choice, uint amount);\n    event AnswerSet(uint betId, uint choice);\n    event MoneyGiven(address receiver, uint amount);\n\n    //Bet\n    struct Bet {\n        string title;\n        address owner;\n        uint lowerBound;\n        uint currentAmount;\n        uint upperBound;\n        uint publishTime;\n        uint lastBetTime;\n        uint answer;\n        bool isAnswerSet;\n    }\n\n    //Bet list\n    Bet[] bets;\n    mapping (uint => string[]) choices;\n    mapping (uint => uint[]) currentChoice;\n    mapping (uint => address[]) voters;\n    mapping (uint => mapping (address => uint[])) voterChoice;\n\n    //Modifiers\n    //Valid bet modifier\n    modifier isValidId(uint _id) {\n        require(_isIdValid(_id), \"Bet has expired\");\n        _;\n    }\n\n    //Valid amount\n    modifier isValidAmount(uint _id, uint _amount) {\n        require(bets[_id].currentAmount + _amount <= bets[_id].upperBound, \"Too much money!!!\");\n        _;\n    }\n\n    //functions\n    //Add bet to bets\n    function addBet(string memory _title, uint _lowerBound, uint _upperBound, uint _publishTime, uint _lastBetTime) public {\n        Bet memory bet = Bet(_title, msg.sender, _lowerBound, 0, _upperBound, _publishTime, _lastBetTime, 0, false);\n        uint betId = bets.push(bet) - 1;\n        emit BetAdded(betId, _title);\n    }\n\n    function addChoice(uint _id, string memory _choice) public {\n        choices[_id].push(_choice);\n        currentChoice[_id].push(0);\n    }\n\n    function addMoney(uint _id, uint _choice, uint _amount) public payable isValidId(_id) isValidAmount(_id, _amount) {\n        //require(bets[_id].owner != msg.sender, \"Cannot add money to your own bets.\");\n        require(msg.value == _amount*SMALLEST_FEE, \"Not Enough Money\");\n        bets[_id].currentAmount += _amount;\n        currentChoice[_id][_choice] += _amount;\n        voters[_id].push(msg.sender);\n        voterChoice[_id][msg.sender][_choice] += _amount;\n        emit MoneyAdded(_id, msg.sender, _choice, _amount);\n    }\n    \n    function setAnswer(uint _id, uint _answer) public {\n        require(msg.sender == bets[_id].owner);\n        bets[_id].answer = _answer;\n        bets[_id].isAnswerSet = true;\n        emit AnswerSet(_id, _answer);\n    }\n\n    function distributeMoney(uint _id) public payable {\n        require(bets[_id].isAnswerSet, \"Answer Not Set\");\n        require(msg.sender == bets[_id].owner);\n        uint creatorReward = uint(bets[_id].currentAmount*5/100);\n        uint otherReward = uint(bets[_id].currentAmount*9/10);\n        uint numVoters = voters[_id].length;\n        uint answer = bets[_id].answer;\n\n        address payable receiver = msg.sender;\n        receiver.transfer(creatorReward * SMALLEST_FEE);\n        emit MoneyGiven(receiver, creatorReward);\n        for(uint i = 0; i < numVoters; i++) {\n            receiver = address(uint160(voters[_id][i]));\n            receiver.transfer(otherReward * SMALLEST_FEE * voterChoice[_id][receiver][answer] / currentChoice[_id][answer]);\n            emit MoneyGiven(receiver, otherReward * voterChoice[_id][receiver][answer] / currentChoice[_id][answer]);\n        }\n    }\n\n    function getIds() public view returns(uint[] memory, bool[] memory) {\n        uint count;\n        uint[] memory ids;\n        (count, ids) = _getValidIds();\n        uint[] memory validIds = new uint[](count);\n        bool[] memory isOwnIds = new bool[](count);\n        for(uint i = 0; i < count; i++) {\n            validIds[i] = ids[i];\n            isOwnIds[i] = (bets[i].owner == msg.sender);\n        }\n        return (validIds, isOwnIds);\n    }\n\n    function getTitle(uint _id) public view isValidId(_id) returns(string memory) {\n        Bet memory bet = bets[_id];\n        return bet.title;\n    }\n\n    function getLowerBound(uint _id) public view isValidId(_id) returns(uint) {\n        Bet memory bet = bets[_id];\n        return bet.lowerBound;\n    }\n\n    function getCurrentAmount(uint _id) public view isValidId(_id) returns(uint) {\n        Bet memory bet = bets[_id];\n        return bet.currentAmount;\n    }\n\n    function getUpperBound(uint _id) public view isValidId(_id) returns(uint) {\n        Bet memory bet = bets[_id];\n        return bet.upperBound;\n    }\n\n    function getChoiceNum(uint _id) public view isValidId(_id) returns(uint) {\n        return choices[_id].length;\n    }\n\n    function getChoice(uint _id, uint _choice) public view isValidId(_id) returns(string memory) {\n        return choices[_id][_choice];\n    }\n\n    function getChoicesAmount(uint _id) public view isValidId(_id) returns(uint[] memory) {\n        uint len = getChoiceNum(_id);\n        uint[] memory amounts = new uint[](len);\n        for(uint i = 0; i < len; i++) {\n            amounts[i] = currentChoice[_id][i];\n        }\n        return amounts;\n    }\n\n    function getAddressAmount(uint _id) public view isValidId(_id) returns(uint[] memory) {\n        uint len = getChoiceNum(_id);\n        uint[] memory amounts = new uint[](len);\n        for(uint i = 0; i < len; i++) {\n            amounts[i] = voterChoice[_id][msg.sender][i];\n        }\n        return amounts;\n    } \n\n    function getAnswer(uint _id) public view isValidId(_id) returns(uint) {\n        require(bets[_id].isAnswerSet, \"Answer not set yet\");\n        return bets[_id].answer;\n    }\n\n    function _getValidIds() internal view returns(uint, uint[] memory) {\n        uint[] memory validIds = new uint[](bets.length);\n        uint count = 0;\n        for(uint i = 0; i < bets.length; i++) {\n            if(_isIdValid(i)) {\n                validIds[count] = i;\n                count++;\n            }\n        }\n        return (count, validIds);\n    }\n\n    function _isIdValid(uint _id) internal view returns(bool) {\n        return (now <= bets[_id].publishTime);\n    }\n}",
  "sourcePath": "/Users/peterlin/OnlineBetting/ethereum/contracts/OnlineBetting.sol",
  "compiler": {
    "name": "solc",
    "version": "0.5.16+commit.9c3226ce.Emscripten.clang"
  },
  "schemaVersion": "3.4.0",
  "updatedAt": "2021-06-09T02:18:43.896Z",
  "networkType": "ethereum",
  "devdoc": {
    "methods": {}
  },
  "userdoc": {
    "methods": {}
  }
}