{
  "contractName": "OnlineBetting",
  "abi": [
    {
      "anonymous": false,
      "inputs": [
        {
          "indexed": false,
          "internalType": "uint256",
          "name": "betId",
          "type": "uint256"
        },
        {
          "indexed": false,
          "internalType": "uint256",
          "name": "choice",
          "type": "uint256"
        }
      ],
      "name": "AnswerSet",
      "type": "event"
    },
    {
      "anonymous": false,
      "inputs": [
        {
          "indexed": false,
          "internalType": "uint256",
          "name": "betId",
          "type": "uint256"
        },
        {
          "indexed": false,
          "internalType": "string",
          "name": "title",
          "type": "string"
        }
      ],
      "name": "BetAdded",
      "type": "event"
    },
    {
      "anonymous": false,
      "inputs": [
        {
          "indexed": false,
          "internalType": "uint256",
          "name": "betId",
          "type": "uint256"
        },
        {
          "indexed": false,
          "internalType": "address",
          "name": "adder",
          "type": "address"
        },
        {
          "indexed": false,
          "internalType": "uint256",
          "name": "choice",
          "type": "uint256"
        },
        {
          "indexed": false,
          "internalType": "uint256",
          "name": "amount",
          "type": "uint256"
        }
      ],
      "name": "MoneyAdded",
      "type": "event"
    },
    {
      "anonymous": false,
      "inputs": [
        {
          "indexed": false,
          "internalType": "address",
          "name": "receiver",
          "type": "address"
        },
        {
          "indexed": false,
          "internalType": "uint256",
          "name": "amount",
          "type": "uint256"
        }
      ],
      "name": "MoneyGiven",
      "type": "event"
    },
    {
      "inputs": [
        {
          "internalType": "string",
          "name": "_title",
          "type": "string"
        },
        {
          "internalType": "uint256",
          "name": "_lowerBound",
          "type": "uint256"
        },
        {
          "internalType": "uint256",
          "name": "_upperBound",
          "type": "uint256"
        },
        {
          "internalType": "uint256",
          "name": "_publishTime",
          "type": "uint256"
        },
        {
          "internalType": "uint256",
          "name": "_lastBetTime",
          "type": "uint256"
        },
        {
          "internalType": "string[]",
          "name": "_choices",
          "type": "string[]"
        }
      ],
      "name": "addBet",
      "outputs": [],
      "stateMutability": "nonpayable",
      "type": "function"
    },
    {
      "inputs": [
        {
          "internalType": "uint256",
          "name": "_id",
          "type": "uint256"
        },
        {
          "internalType": "uint256",
          "name": "_choice",
          "type": "uint256"
        },
        {
          "internalType": "uint256",
          "name": "_amount",
          "type": "uint256"
        }
      ],
      "name": "addMoney",
      "outputs": [],
      "stateMutability": "payable",
      "type": "function",
      "payable": true
    },
    {
      "inputs": [
        {
          "internalType": "uint256",
          "name": "_id",
          "type": "uint256"
        },
        {
          "internalType": "uint256",
          "name": "_answer",
          "type": "uint256"
        }
      ],
      "name": "setAnswer",
      "outputs": [],
      "stateMutability": "nonpayable",
      "type": "function"
    },
    {
      "inputs": [
        {
          "internalType": "uint256",
          "name": "_id",
          "type": "uint256"
        }
      ],
      "name": "distributeMoney",
      "outputs": [],
      "stateMutability": "payable",
      "type": "function",
      "payable": true
    },
    {
      "inputs": [],
      "name": "getBets",
      "outputs": [
        {
          "components": [
            {
              "internalType": "string",
              "name": "title",
              "type": "string"
            },
            {
              "internalType": "string[]",
              "name": "choices",
              "type": "string[]"
            },
            {
              "internalType": "address",
              "name": "owner",
              "type": "address"
            },
            {
              "internalType": "uint256",
              "name": "lowerBound",
              "type": "uint256"
            },
            {
              "internalType": "uint256",
              "name": "currentAmount",
              "type": "uint256"
            },
            {
              "internalType": "uint256",
              "name": "upperBound",
              "type": "uint256"
            },
            {
              "internalType": "uint256",
              "name": "publishTime",
              "type": "uint256"
            },
            {
              "internalType": "uint256",
              "name": "lastBetTime",
              "type": "uint256"
            },
            {
              "internalType": "uint256",
              "name": "answer",
              "type": "uint256"
            },
            {
              "internalType": "uint256[]",
              "name": "currentChoices",
              "type": "uint256[]"
            },
            {
              "internalType": "address[]",
              "name": "voter",
              "type": "address[]"
            },
            {
              "internalType": "bool",
              "name": "isAnswerSet",
              "type": "bool"
            }
          ],
          "internalType": "struct OnlineBetting.Bet[]",
          "name": "",
          "type": "tuple[]"
        }
      ],
      "stateMutability": "view",
      "type": "function",
      "constant": true
    },
    {
      "inputs": [],
      "name": "getIds",
      "outputs": [
        {
          "internalType": "uint256[]",
          "name": "",
          "type": "uint256[]"
        },
        {
          "internalType": "bool[]",
          "name": "",
          "type": "bool[]"
        }
      ],
      "stateMutability": "view",
      "type": "function",
      "constant": true
    },
    {
      "inputs": [
        {
          "internalType": "uint256",
          "name": "_id",
          "type": "uint256"
        }
      ],
      "name": "getTitle",
      "outputs": [
        {
          "internalType": "string",
          "name": "",
          "type": "string"
        }
      ],
      "stateMutability": "view",
      "type": "function",
      "constant": true
    },
    {
      "inputs": [
        {
          "internalType": "uint256",
          "name": "_id",
          "type": "uint256"
        }
      ],
      "name": "getLowerBound",
      "outputs": [
        {
          "internalType": "uint256",
          "name": "",
          "type": "uint256"
        }
      ],
      "stateMutability": "view",
      "type": "function",
      "constant": true
    },
    {
      "inputs": [
        {
          "internalType": "uint256",
          "name": "_id",
          "type": "uint256"
        }
      ],
      "name": "getCurrentAmount",
      "outputs": [
        {
          "internalType": "uint256",
          "name": "",
          "type": "uint256"
        }
      ],
      "stateMutability": "view",
      "type": "function",
      "constant": true
    },
    {
      "inputs": [
        {
          "internalType": "uint256",
          "name": "_id",
          "type": "uint256"
        }
      ],
      "name": "getUpperBound",
      "outputs": [
        {
          "internalType": "uint256",
          "name": "",
          "type": "uint256"
        }
      ],
      "stateMutability": "view",
      "type": "function",
      "constant": true
    },
    {
      "inputs": [
        {
          "internalType": "uint256",
          "name": "_id",
          "type": "uint256"
        }
      ],
      "name": "getChoiceNum",
      "outputs": [
        {
          "internalType": "uint256",
          "name": "",
          "type": "uint256"
        }
      ],
      "stateMutability": "view",
      "type": "function",
      "constant": true
    },
    {
      "inputs": [
        {
          "internalType": "uint256",
          "name": "_id",
          "type": "uint256"
        },
        {
          "internalType": "uint256",
          "name": "_choice",
          "type": "uint256"
        }
      ],
      "name": "getChoice",
      "outputs": [
        {
          "internalType": "string",
          "name": "",
          "type": "string"
        }
      ],
      "stateMutability": "view",
      "type": "function",
      "constant": true
    },
    {
      "inputs": [
        {
          "internalType": "uint256",
          "name": "_id",
          "type": "uint256"
        }
      ],
      "name": "getChoicesAmount",
      "outputs": [
        {
          "internalType": "uint256[]",
          "name": "",
          "type": "uint256[]"
        }
      ],
      "stateMutability": "view",
      "type": "function",
      "constant": true
    },
    {
      "inputs": [
        {
          "internalType": "uint256",
          "name": "_id",
          "type": "uint256"
        }
      ],
      "name": "getAddressAmount",
      "outputs": [
        {
          "internalType": "uint256[]",
          "name": "",
          "type": "uint256[]"
        }
      ],
      "stateMutability": "view",
      "type": "function",
      "constant": true
    },
    {
      "inputs": [
        {
          "internalType": "uint256",
          "name": "_id",
          "type": "uint256"
        }
      ],
      "name": "getAnswer",
      "outputs": [
        {
          "internalType": "uint256",
          "name": "",
          "type": "uint256"
        }
      ],
      "stateMutability": "view",
      "type": "function",
      "constant": true
    },
    {
      "inputs": [],
      "name": "getTime",
      "outputs": [
        {
          "internalType": "uint256",
          "name": "",
          "type": "uint256"
        }
      ],
      "stateMutability": "view",
      "type": "function",
      "constant": true
    }
  ],
  "bytecode": "0x608060405234801561001057600080fd5b50613819806100206000396000f3fe6080604052600436106100f35760003560e01c8063a0f8973a1161008a578063caf76d4111610059578063caf76d411461035d578063d787629114610386578063ef6b086d146103c3578063f070eb2f146103ec576100f3565b8063a0f8973a1461029c578063a6afd5fd146102b8578063b1c4713e146102e3578063b5ab58dc14610320576100f3565b8063557ed1ba116100c6578063557ed1ba146101ba57806356e78dc3146101e55780636e9d922714610222578063929a79b11461025f576100f3565b806301afe1af146100f857806324b204ab146101355780632b1056631461015157806345bdbbc01461017d575b600080fd5b34801561010457600080fd5b5061011f600480360381019061011a9190612c64565b610429565b60405161012c919061334b565b60405180910390f35b61014f600480360381019061014a9190612cc9565b6104e9565b005b34801561015d57600080fd5b5061016661072f565b60405161017492919061336d565b60405180910390f35b34801561018957600080fd5b506101a4600480360381019061019f9190612c8d565b6108ba565b6040516101b191906133a4565b60405180910390f35b3480156101c657600080fd5b506101cf6109da565b6040516101dc9190613466565b60405180910390f35b3480156101f157600080fd5b5061020c60048036038101906102079190612c64565b6109e2565b6040516102199190613466565b60405180910390f35b34801561022e57600080fd5b5061024960048036038101906102449190612c64565b610d8a565b6040516102569190613466565b60405180910390f35b34801561026b57600080fd5b5061028660048036038101906102819190612c64565b610dff565b60405161029391906133a4565b60405180910390f35b6102b660048036038101906102b19190612c64565b6111a7565b005b3480156102c457600080fd5b506102cd611603565b6040516102da9190613329565b60405180910390f35b3480156102ef57600080fd5b5061030a60048036038101906103059190612c64565b611a00565b6040516103179190613466565b60405180910390f35b34801561032c57600080fd5b5061034760048036038101906103429190612c64565b611da8565b6040516103549190613466565b60405180910390f35b34801561036957600080fd5b50610384600480360381019061037f9190612c8d565b611e85565b005b34801561039257600080fd5b506103ad60048036038101906103a89190612c64565b611f92565b6040516103ba9190613466565b60405180910390f35b3480156103cf57600080fd5b506103ea60048036038101906103e59190612bab565b61233a565b005b3480156103f857600080fd5b50610413600480360381019061040e9190612c64565b6124ae565b604051610420919061334b565b60405180910390f35b606081610435816125f3565b610474576040517f08c379a000000000000000000000000000000000000000000000000000000000815260040161046b90613426565b60405180910390fd5b6000838154811061048157fe5b90600052602060002090600c02016009018054806020026020016040519081016040528092919081815260200182805480156104dc57602002820191906000526020600020905b8154815260200190600101908083116104c8575b5050505050915050919050565b826104f3816125f3565b610532576040517f08c379a000000000000000000000000000000000000000000000000000000000815260040161052990613426565b60405180910390fd5b83826000828154811061054157fe5b90600052602060002090600c020160050154816000848154811061056157fe5b90600052602060002090600c0201600401540111156105b5576040517f08c379a00000000000000000000000000000000000000000000000000000000081526004016105ac90613446565b60405180910390fd5b66038d7ea4c6800084023414610600576040517f08c379a00000000000000000000000000000000000000000000000000000000081526004016105f790613406565b60405180910390fd5b836000878154811061060e57fe5b90600052602060002090600c020160040160008282540192505081905550836000878154811061063a57fe5b90600052602060002090600c0201600901868154811061065657fe5b9060005260206000200160008282540192505081905550610677863361261d565b836001600088815260200190815260200160002060003373ffffffffffffffffffffffffffffffffffffffff1673ffffffffffffffffffffffffffffffffffffffff16815260200190815260200160002086815481106106d357fe5b90600052602060002001600082825401925050819055507f9ae068d0bdbacb4831e59338d8b28e0bbd2d53764219e625df5dbad665cd3a338633878760405161071f9493929190613481565b60405180910390a1505050505050565b6060806000606061073e6127f1565b809250819350505060608267ffffffffffffffff8111801561075f57600080fd5b5060405190808252806020026020018201604052801561078e5781602001602082028036833780820191505090505b50905060608367ffffffffffffffff811180156107aa57600080fd5b506040519080825280602002602001820160405280156107d95781602001602082028036833780820191505090505b50905060005b848110156108ab578381815181106107f357fe5b602002602001015183828151811061080757fe5b6020026020010181815250503373ffffffffffffffffffffffffffffffffffffffff166000828154811061083757fe5b90600052602060002090600c020160020160009054906101000a900473ffffffffffffffffffffffffffffffffffffffff1673ffffffffffffffffffffffffffffffffffffffff161482828151811061088c57fe5b60200260200101901515908115158152505080806001019150506107df565b50818195509550505050509091565b6060826108c6816125f3565b610905576040517f08c379a00000000000000000000000000000000000000000000000000000000081526004016108fc90613426565b60405180910390fd5b6000848154811061091257fe5b90600052602060002090600c0201600101838154811061092e57fe5b906000526020600020018054600181600116156101000203166002900480601f0160208091040260200160405190810160405280929190818152602001828054600181600116156101000203166002900480156109cc5780601f106109a1576101008083540402835291602001916109cc565b820191906000526020600020905b8154815290600101906020018083116109af57829003601f168201915b505050505091505092915050565b600042905090565b6000816109ee816125f3565b610a2d576040517f08c379a0000000000000000000000000000000000000000000000000000000008152600401610a2490613426565b60405180910390fd5b610a3561289f565b60008481548110610a4257fe5b90600052602060002090600c020160405180610180016040529081600082018054600181600116156101000203166002900480601f016020809104026020016040519081016040528092919081815260200182805460018160011615610100020316600290048015610af55780601f10610aca57610100808354040283529160200191610af5565b820191906000526020600020905b815481529060010190602001808311610ad857829003601f168201915b5050505050815260200160018201805480602002602001604051908101604052809291908181526020016000905b82821015610bdf578382906000526020600020018054600181600116156101000203166002900480601f016020809104026020016040519081016040528092919081815260200182805460018160011615610100020316600290048015610bcb5780601f10610ba057610100808354040283529160200191610bcb565b820191906000526020600020905b815481529060010190602001808311610bae57829003601f168201915b505050505081526020019060010190610b23565b5050505081526020016002820160009054906101000a900473ffffffffffffffffffffffffffffffffffffffff1673ffffffffffffffffffffffffffffffffffffffff1673ffffffffffffffffffffffffffffffffffffffff16815260200160038201548152602001600482015481526020016005820154815260200160068201548152602001600782015481526020016008820154815260200160098201805480602002602001604051908101604052809291908181526020018280548015610cc857602002820191906000526020600020905b815481526020019060010190808311610cb4575b50505050508152602001600a8201805480602002602001604051908101604052809291908181526020018280548015610d5657602002820191906000526020600020905b8160009054906101000a900473ffffffffffffffffffffffffffffffffffffffff1673ffffffffffffffffffffffffffffffffffffffff1681526020019060010190808311610d0c575b50505050508152602001600b820160009054906101000a900460ff1615151515815250509050806080015192505050919050565b600081610d96816125f3565b610dd5576040517f08c379a0000000000000000000000000000000000000000000000000000000008152600401610dcc90613426565b60405180910390fd5b60008381548110610de257fe5b90600052602060002090600c020160010180549050915050919050565b606081610e0b816125f3565b610e4a576040517f08c379a0000000000000000000000000000000000000000000000000000000008152600401610e4190613426565b60405180910390fd5b610e5261289f565b60008481548110610e5f57fe5b90600052602060002090600c020160405180610180016040529081600082018054600181600116156101000203166002900480601f016020809104026020016040519081016040528092919081815260200182805460018160011615610100020316600290048015610f125780601f10610ee757610100808354040283529160200191610f12565b820191906000526020600020905b815481529060010190602001808311610ef557829003601f168201915b5050505050815260200160018201805480602002602001604051908101604052809291908181526020016000905b82821015610ffc578382906000526020600020018054600181600116156101000203166002900480601f016020809104026020016040519081016040528092919081815260200182805460018160011615610100020316600290048015610fe85780601f10610fbd57610100808354040283529160200191610fe8565b820191906000526020600020905b815481529060010190602001808311610fcb57829003601f168201915b505050505081526020019060010190610f40565b5050505081526020016002820160009054906101000a900473ffffffffffffffffffffffffffffffffffffffff1673ffffffffffffffffffffffffffffffffffffffff1673ffffffffffffffffffffffffffffffffffffffff168152602001600382015481526020016004820154815260200160058201548152602001600682015481526020016007820154815260200160088201548152602001600982018054806020026020016040519081016040528092919081815260200182805480156110e557602002820191906000526020600020905b8154815260200190600101908083116110d1575b50505050508152602001600a820180548060200260200160405190810160405280929190818152602001828054801561117357602002820191906000526020600020905b8160009054906101000a900473ffffffffffffffffffffffffffffffffffffffff1673ffffffffffffffffffffffffffffffffffffffff1681526020019060010190808311611129575b50505050508152602001600b820160009054906101000a900460ff1615151515815250509050806000015192505050919050565b600081815481106111b457fe5b90600052602060002090600c0201600b0160009054906101000a900460ff16611212576040517f08c379a0000000000000000000000000000000000000000000000000000000008152600401611209906133e6565b60405180910390fd5b6000818154811061121f57fe5b90600052602060002090600c020160020160009054906101000a900473ffffffffffffffffffffffffffffffffffffffff1673ffffffffffffffffffffffffffffffffffffffff163373ffffffffffffffffffffffffffffffffffffffff161461128857600080fd5b6000606460056000848154811061129b57fe5b90600052602060002090600c02016004015402816112b557fe5b0490506000600a6009600085815481106112cb57fe5b90600052602060002090600c02016004015402816112e557fe5b04905060008084815481106112f657fe5b90600052602060002090600c0201600a01805490509050600080858154811061131b57fe5b90600052602060002090600c020160080154905060003390508073ffffffffffffffffffffffffffffffffffffffff166108fc66038d7ea4c6800087029081150290604051600060405180830381858888f19350505050158015611383573d6000803e3d6000fd5b507f9bb2540ba4555d75223ea5cea496bb837f39aecdc27e8a45a41e3c7b2c4f8f5581866040516113b5929190613300565b60405180910390a160005b838110156115fa57600087815481106113d557fe5b90600052602060002090600c0201600a0181815481106113f157fe5b9060005260206000200160009054906101000a900473ffffffffffffffffffffffffffffffffffffffff1691508173ffffffffffffffffffffffffffffffffffffffff166108fc6000898154811061144557fe5b90600052602060002090600c0201600901858154811061146157fe5b9060005260206000200154600160008b815260200190815260200160002060008673ffffffffffffffffffffffffffffffffffffffff1673ffffffffffffffffffffffffffffffffffffffff16815260200190815260200160002086815481106114c757fe5b906000526020600020015466038d7ea4c68000890202816114e457fe5b049081150290604051600060405180830381858888f19350505050158015611510573d6000803e3d6000fd5b507f9bb2540ba4555d75223ea5cea496bb837f39aecdc27e8a45a41e3c7b2c4f8f55826000898154811061154057fe5b90600052602060002090600c0201600901858154811061155c57fe5b9060005260206000200154600160008b815260200190815260200160002060008673ffffffffffffffffffffffffffffffffffffffff1673ffffffffffffffffffffffffffffffffffffffff16815260200190815260200160002086815481106115c257fe5b90600052602060002001548802816115d657fe5b046040516115e5929190613300565b60405180910390a180806001019150506113c0565b50505050505050565b6060600060606116116127f1565b809250819350505060608267ffffffffffffffff8111801561163257600080fd5b5060405190808252806020026020018201604052801561166c57816020015b61165961289f565b8152602001906001900390816116515790505b50905060005b838110156119f657600083828151811061168857fe5b60200260200101518154811061169a57fe5b90600052602060002090600c020160405180610180016040529081600082018054600181600116156101000203166002900480601f01602080910402602001604051908101604052809291908181526020018280546001816001161561010002031660029004801561174d5780601f106117225761010080835404028352916020019161174d565b820191906000526020600020905b81548152906001019060200180831161173057829003601f168201915b5050505050815260200160018201805480602002602001604051908101604052809291908181526020016000905b82821015611837578382906000526020600020018054600181600116156101000203166002900480601f0160208091040260200160405190810160405280929190818152602001828054600181600116156101000203166002900480156118235780601f106117f857610100808354040283529160200191611823565b820191906000526020600020905b81548152906001019060200180831161180657829003601f168201915b50505050508152602001906001019061177b565b5050505081526020016002820160009054906101000a900473ffffffffffffffffffffffffffffffffffffffff1673ffffffffffffffffffffffffffffffffffffffff1673ffffffffffffffffffffffffffffffffffffffff1681526020016003820154815260200160048201548152602001600582015481526020016006820154815260200160078201548152602001600882015481526020016009820180548060200260200160405190810160405280929190818152602001828054801561192057602002820191906000526020600020905b81548152602001906001019080831161190c575b50505050508152602001600a82018054806020026020016040519081016040528092919081815260200182805480156119ae57602002820191906000526020600020905b8160009054906101000a900473ffffffffffffffffffffffffffffffffffffffff1673ffffffffffffffffffffffffffffffffffffffff1681526020019060010190808311611964575b50505050508152602001600b820160009054906101000a900460ff1615151515815250508282815181106119de57fe5b60200260200101819052508080600101915050611672565b5080935050505090565b600081611a0c816125f3565b611a4b576040517f08c379a0000000000000000000000000000000000000000000000000000000008152600401611a4290613426565b60405180910390fd5b611a5361289f565b60008481548110611a6057fe5b90600052602060002090600c020160405180610180016040529081600082018054600181600116156101000203166002900480601f016020809104026020016040519081016040528092919081815260200182805460018160011615610100020316600290048015611b135780601f10611ae857610100808354040283529160200191611b13565b820191906000526020600020905b815481529060010190602001808311611af657829003601f168201915b5050505050815260200160018201805480602002602001604051908101604052809291908181526020016000905b82821015611bfd578382906000526020600020018054600181600116156101000203166002900480601f016020809104026020016040519081016040528092919081815260200182805460018160011615610100020316600290048015611be95780601f10611bbe57610100808354040283529160200191611be9565b820191906000526020600020905b815481529060010190602001808311611bcc57829003601f168201915b505050505081526020019060010190611b41565b5050505081526020016002820160009054906101000a900473ffffffffffffffffffffffffffffffffffffffff1673ffffffffffffffffffffffffffffffffffffffff1673ffffffffffffffffffffffffffffffffffffffff16815260200160038201548152602001600482015481526020016005820154815260200160068201548152602001600782015481526020016008820154815260200160098201805480602002602001604051908101604052809291908181526020018280548015611ce657602002820191906000526020600020905b815481526020019060010190808311611cd2575b50505050508152602001600a8201805480602002602001604051908101604052809291908181526020018280548015611d7457602002820191906000526020600020905b8160009054906101000a900473ffffffffffffffffffffffffffffffffffffffff1673ffffffffffffffffffffffffffffffffffffffff1681526020019060010190808311611d2a575b50505050508152602001600b820160009054906101000a900460ff1615151515815250509050806060015192505050919050565b600081611db4816125f3565b611df3576040517f08c379a0000000000000000000000000000000000000000000000000000000008152600401611dea90613426565b60405180910390fd5b60008381548110611e0057fe5b90600052602060002090600c0201600b0160009054906101000a900460ff16611e5e576040517f08c379a0000000000000000000000000000000000000000000000000000000008152600401611e55906133c6565b60405180910390fd5b60008381548110611e6b57fe5b90600052602060002090600c020160080154915050919050565b60008281548110611e9257fe5b90600052602060002090600c020160020160009054906101000a900473ffffffffffffffffffffffffffffffffffffffff1673ffffffffffffffffffffffffffffffffffffffff163373ffffffffffffffffffffffffffffffffffffffff1614611efb57600080fd5b8060008381548110611f0957fe5b90600052602060002090600c020160080181905550600160008381548110611f2d57fe5b90600052602060002090600c0201600b0160006101000a81548160ff0219169083151502179055507f4772d83d7289b527150ec81022e02e39b5b278f66492d7f0702903636f33396d8282604051611f869291906134f6565b60405180910390a15050565b600081611f9e816125f3565b611fdd576040517f08c379a0000000000000000000000000000000000000000000000000000000008152600401611fd490613426565b60405180910390fd5b611fe561289f565b60008481548110611ff257fe5b90600052602060002090600c020160405180610180016040529081600082018054600181600116156101000203166002900480601f0160208091040260200160405190810160405280929190818152602001828054600181600116156101000203166002900480156120a55780601f1061207a576101008083540402835291602001916120a5565b820191906000526020600020905b81548152906001019060200180831161208857829003601f168201915b5050505050815260200160018201805480602002602001604051908101604052809291908181526020016000905b8282101561218f578382906000526020600020018054600181600116156101000203166002900480601f01602080910402602001604051908101604052809291908181526020018280546001816001161561010002031660029004801561217b5780601f106121505761010080835404028352916020019161217b565b820191906000526020600020905b81548152906001019060200180831161215e57829003601f168201915b5050505050815260200190600101906120d3565b5050505081526020016002820160009054906101000a900473ffffffffffffffffffffffffffffffffffffffff1673ffffffffffffffffffffffffffffffffffffffff1673ffffffffffffffffffffffffffffffffffffffff1681526020016003820154815260200160048201548152602001600582015481526020016006820154815260200160078201548152602001600882015481526020016009820180548060200260200160405190810160405280929190818152602001828054801561227857602002820191906000526020600020905b815481526020019060010190808311612264575b50505050508152602001600a820180548060200260200160405190810160405280929190818152602001828054801561230657602002820191906000526020600020905b8160009054906101000a900473ffffffffffffffffffffffffffffffffffffffff1673ffffffffffffffffffffffffffffffffffffffff16815260200190600101908083116122bc575b50505050508152602001600b820160009054906101000a900460ff16151515158152505090508060a0015192505050919050565b60008080549050905060008251905060608167ffffffffffffffff8111801561236257600080fd5b506040519080825280602002602001820160405280156123915781602001602082028036833780820191505090505b5090506000806001816001815401808255809150500390600052602060002090600c02019050898160000190805190602001906123cf929190612918565b50338160020160006101000a81548173ffffffffffffffffffffffffffffffffffffffff021916908373ffffffffffffffffffffffffffffffffffffffff1602179055508881600301819055508781600501819055508681600601819055508581600701819055508481600101908051906020019061244f929190612998565b50818160090190805190602001906124689291906129f8565b507ffd9b824c32c4b314de8cc8632b170ef722e0fa61fcf35583a814356d916bc1fa848b60405161249a9291906134c6565b60405180910390a150505050505050505050565b6060816124ba816125f3565b6124f9576040517f08c379a00000000000000000000000000000000000000000000000000000000081526004016124f090613426565b60405180910390fd5b600061250484610d8a565b905060608167ffffffffffffffff8111801561251f57600080fd5b5060405190808252806020026020018201604052801561254e5781602001602082028036833780820191505090505b50905060005b828110156125e7576001600087815260200190815260200160002060003373ffffffffffffffffffffffffffffffffffffffff1673ffffffffffffffffffffffffffffffffffffffff16815260200190815260200160002081815481106125b757fe5b90600052602060002001548282815181106125ce57fe5b6020026020010181815250508080600101915050612554565b50809350505050919050565b600080828154811061260157fe5b90600052602060002090600c0201600601544211159050919050565b81612627816125f3565b612666576040517f08c379a000000000000000000000000000000000000000000000000000000000815260040161265d90613426565b60405180910390fd5b600080848154811061267457fe5b90600052602060002090600c0201600a018054905090506000805b82811015612730578473ffffffffffffffffffffffffffffffffffffffff16600087815481106126bb57fe5b90600052602060002090600c0201600a0182815481106126d757fe5b9060005260206000200160009054906101000a900473ffffffffffffffffffffffffffffffffffffffff1673ffffffffffffffffffffffffffffffffffffffff16141561272357600191505b808060010191505061268f565b50806127ea5761273f85610d8a565b67ffffffffffffffff8111801561275557600080fd5b506040519080825280602002602001820160405280156127845781602001602082028036833780820191505090505b506001600087815260200190815260200160002060003373ffffffffffffffffffffffffffffffffffffffff1673ffffffffffffffffffffffffffffffffffffffff16815260200190815260200160002090805190602001906127e89291906129f8565b505b5050505050565b600060608060008054905067ffffffffffffffff8111801561281257600080fd5b506040519080825280602002602001820160405280156128415781602001602082028036833780820191505090505b5090506000805b6000805490508110156128925761285e816125f3565b15612885578083838151811061287057fe5b60200260200101818152505081806001019250505b8080600101915050612848565b5080829350935050509091565b6040518061018001604052806060815260200160608152602001600073ffffffffffffffffffffffffffffffffffffffff16815260200160008152602001600081526020016000815260200160008152602001600081526020016000815260200160608152602001606081526020016000151581525090565b828054600181600116156101000203166002900490600052602060002090601f016020900481019282601f1061295957805160ff1916838001178555612987565b82800160010185558215612987579182015b8281111561298657825182559160200191906001019061296b565b5b5090506129949190612a45565b5090565b8280548282559060005260206000209081019282156129e7579160200282015b828111156129e65782518290805190602001906129d6929190612918565b50916020019190600101906129b8565b5b5090506129f49190612a62565b5090565b828054828255906000526020600020908101928215612a34579160200282015b82811115612a33578251825591602001919060010190612a18565b5b509050612a419190612a45565b5090565b5b80821115612a5e576000816000905550600101612a46565b5090565b5b80821115612a825760008181612a799190612a86565b50600101612a63565b5090565b50805460018160011615610100020316600290046000825580601f10612aac5750612acb565b601f016020900490600052602060002090810190612aca9190612a45565b5b50565b600082601f830112612adf57600080fd5b8135612af2612aed8261354c565b61351f565b9150818183526020840193506020810190508360005b83811015612b385781358601612b1e8882612b42565b845260208401935060208301925050600181019050612b08565b5050505092915050565b600082601f830112612b5357600080fd5b8135612b66612b6182613574565b61351f565b91508082526020830160208301858383011115612b8257600080fd5b612b8d838284613779565b50505092915050565b600081359050612ba5816137cc565b92915050565b60008060008060008060c08789031215612bc457600080fd5b600087013567ffffffffffffffff811115612bde57600080fd5b612bea89828a01612b42565b9650506020612bfb89828a01612b96565b9550506040612c0c89828a01612b96565b9450506060612c1d89828a01612b96565b9350506080612c2e89828a01612b96565b92505060a087013567ffffffffffffffff811115612c4b57600080fd5b612c5789828a01612ace565b9150509295509295509295565b600060208284031215612c7657600080fd5b6000612c8484828501612b96565b91505092915050565b60008060408385031215612ca057600080fd5b6000612cae85828601612b96565b9250506020612cbf85828601612b96565b9150509250929050565b600080600060608486031215612cde57600080fd5b6000612cec86828701612b96565b9350506020612cfd86828701612b96565b9250506040612d0e86828701612b96565b9150509250925092565b6000612d248383612d97565b60208301905092915050565b6000612d3c8383613008565b60208301905092915050565b6000612d548383613017565b905092915050565b6000612d6883836131c9565b905092915050565b6000612d7c83836132e2565b60208301905092915050565b612d9181613743565b82525050565b612da0816136fb565b82525050565b6000612db1826135f0565b612dbb8185613673565b9350612dc6836135a0565b8060005b83811015612df7578151612dde8882612d18565b9750612de983613632565b925050600181019050612dca565b5085935050505092915050565b6000612e0f826135fb565b612e198185613684565b9350612e24836135b0565b8060005b83811015612e55578151612e3c8882612d30565b9750612e478361363f565b925050600181019050612e28565b5085935050505092915050565b6000612e6d82613606565b612e778185613695565b935083602082028501612e89856135c0565b8060005b85811015612ec55784840389528151612ea68582612d48565b9450612eb18361364c565b925060208a01995050600181019050612e8d565b50829750879550505050505092915050565b6000612ee282613611565b612eec81856136a6565b935083602082028501612efe856135d0565b8060005b85811015612f3a5784840389528151612f1b8582612d5c565b9450612f2683613659565b925060208a01995050600181019050612f02565b50829750879550505050505092915050565b6000612f578261361c565b612f6181856136b7565b9350612f6c836135e0565b8060005b83811015612f9d578151612f848882612d70565b9750612f8f83613666565b925050600181019050612f70565b5085935050505092915050565b6000612fb58261361c565b612fbf81856136c8565b9350612fca836135e0565b8060005b83811015612ffb578151612fe28882612d70565b9750612fed83613666565b925050600181019050612fce565b5085935050505092915050565b6130118161370d565b82525050565b600061302282613627565b61302c81856136d9565b935061303c818560208601613788565b613045816137bb565b840191505092915050565b600061305b82613627565b61306581856136ea565b9350613075818560208601613788565b61307e816137bb565b840191505092915050565b60006130966012836136ea565b91507f416e73776572206e6f74207365742079657400000000000000000000000000006000830152602082019050919050565b60006130d6600e836136ea565b91507f416e73776572204e6f74205365740000000000000000000000000000000000006000830152602082019050919050565b60006131166010836136ea565b91507f4e6f7420456e6f756768204d6f6e6579000000000000000000000000000000006000830152602082019050919050565b6000613156600f836136ea565b91507f42657420686173206578706972656400000000000000000000000000000000006000830152602082019050919050565b60006131966011836136ea565b91507f546f6f206d756368206d6f6e65792121210000000000000000000000000000006000830152602082019050919050565b60006101808301600083015184820360008601526131e78282613017565b915050602083015184820360208601526132018282612e62565b91505060408301516132166040860182612d97565b50606083015161322960608601826132e2565b50608083015161323c60808601826132e2565b5060a083015161324f60a08601826132e2565b5060c083015161326260c08601826132e2565b5060e083015161327560e08601826132e2565b5061010083015161328a6101008601826132e2565b506101208301518482036101208601526132a48282612f4c565b9150506101408301518482036101408601526132c08282612da6565b9150506101608301516132d7610160860182613008565b508091505092915050565b6132eb81613739565b82525050565b6132fa81613739565b82525050565b60006040820190506133156000830185612d88565b61332260208301846132f1565b9392505050565b600060208201905081810360008301526133438184612ed7565b905092915050565b600060208201905081810360008301526133658184612faa565b905092915050565b600060408201905081810360008301526133878185612faa565b9050818103602083015261339b8184612e04565b90509392505050565b600060208201905081810360008301526133be8184613050565b905092915050565b600060208201905081810360008301526133df81613089565b9050919050565b600060208201905081810360008301526133ff816130c9565b9050919050565b6000602082019050818103600083015261341f81613109565b9050919050565b6000602082019050818103600083015261343f81613149565b9050919050565b6000602082019050818103600083015261345f81613189565b9050919050565b600060208201905061347b60008301846132f1565b92915050565b600060808201905061349660008301876132f1565b6134a36020830186612d88565b6134b060408301856132f1565b6134bd60608301846132f1565b95945050505050565b60006040820190506134db60008301856132f1565b81810360208301526134ed8184613050565b90509392505050565b600060408201905061350b60008301856132f1565b61351860208301846132f1565b9392505050565b6000604051905081810181811067ffffffffffffffff8211171561354257600080fd5b8060405250919050565b600067ffffffffffffffff82111561356357600080fd5b602082029050602081019050919050565b600067ffffffffffffffff82111561358b57600080fd5b601f19601f8301169050602081019050919050565b6000819050602082019050919050565b6000819050602082019050919050565b6000819050602082019050919050565b6000819050602082019050919050565b6000819050602082019050919050565b600081519050919050565b600081519050919050565b600081519050919050565b600081519050919050565b600081519050919050565b600081519050919050565b6000602082019050919050565b6000602082019050919050565b6000602082019050919050565b6000602082019050919050565b6000602082019050919050565b600082825260208201905092915050565b600082825260208201905092915050565b600082825260208201905092915050565b600082825260208201905092915050565b600082825260208201905092915050565b600082825260208201905092915050565b600082825260208201905092915050565b600082825260208201905092915050565b600061370682613719565b9050919050565b60008115159050919050565b600073ffffffffffffffffffffffffffffffffffffffff82169050919050565b6000819050919050565b600061374e82613755565b9050919050565b600061376082613767565b9050919050565b600061377282613719565b9050919050565b82818337600083830152505050565b60005b838110156137a657808201518184015260208101905061378b565b838111156137b5576000848401525b50505050565b6000601f19601f8301169050919050565b6137d581613739565b81146137e057600080fd5b5056fea26469706673582212200e3abed86bacfa7e08a002786738f190ec8acfba8e92b2b15c7bb03aad0e835364736f6c634300060c0033",
  "immutableReferences": {},
  "source": "pragma solidity >=0.6.0 <0.8.0;\npragma experimental ABIEncoderV2;\n\ncontract OnlineBetting {\n\n    //constants\n    uint constant SMALLEST_FEE = 0.001 ether;\n\n    //events\n    event BetAdded(uint betId, string title);  //emit when\n    event MoneyAdded(uint betId, address adder, uint choice, uint amount);\n    event AnswerSet(uint betId, uint choice);\n    event MoneyGiven(address receiver, uint amount);\n\n    //Bet\n    struct Bet {\n        string title;\n        string[] choices;\n        address owner;\n        uint lowerBound;\n        uint currentAmount;\n        uint upperBound;\n        uint publishTime;\n        uint lastBetTime;\n        uint answer;\n        uint[] currentChoices;\n        address[] voter;\n        bool isAnswerSet;\n    }\n\n    //Bet list\n    Bet[] bets;\n    mapping (uint => mapping (address => uint[])) voterChoice;\n\n    //Modifiers\n    //Valid bet modifier\n    modifier isValidId(uint _id) {\n        require(_isIdValid(_id), \"Bet has expired\");\n        _;\n    }\n\n    //Valid amount\n    modifier isValidAmount(uint _id, uint _amount) {\n        require(bets[_id].currentAmount + _amount <= bets[_id].upperBound, \"Too much money!!!\");\n        _;\n    }\n\n    //functions\n    //Add bet to bets\n    function addBet(string memory _title, uint _lowerBound, uint _upperBound, uint _publishTime, uint _lastBetTime, string[] memory _choices) public {\n        uint betId = bets.length;\n        uint choiceLength = _choices.length;\n        uint[] memory currentChoices = new uint[](choiceLength);\n        Bet storage bet = bets.push();\n        bet.title = _title;\n        bet.owner = msg.sender;\n        bet.lowerBound = _lowerBound;\n        bet.upperBound = _upperBound;\n        bet.publishTime = _publishTime;\n        bet.lastBetTime = _lastBetTime;\n        bet.choices = _choices;\n        bet.currentChoices = currentChoices;\n        emit BetAdded(betId, _title);\n    }\n\n    function addMoney(uint _id, uint _choice, uint _amount) public payable isValidId(_id) isValidAmount(_id, _amount) {\n        //require(bets[_id].owner != msg.sender, \"Cannot add money to your own bets.\");\n        require(msg.value == _amount*SMALLEST_FEE, \"Not Enough Money\");\n        bets[_id].currentAmount += _amount;\n        bets[_id].currentChoices[_choice] += _amount;\n        _addressInit(_id, msg.sender);\n        voterChoice[_id][msg.sender][_choice] += _amount;\n        emit MoneyAdded(_id, msg.sender, _choice, _amount);\n    }\n    \n    function setAnswer(uint _id, uint _answer) public {\n        require(msg.sender == bets[_id].owner);\n        bets[_id].answer = _answer;\n        bets[_id].isAnswerSet = true;\n        emit AnswerSet(_id, _answer);\n    }\n\n    function distributeMoney(uint _id) public payable {\n        require(bets[_id].isAnswerSet, \"Answer Not Set\");\n        require(msg.sender == bets[_id].owner);\n        uint creatorReward = uint(bets[_id].currentAmount*5/100);\n        uint otherReward = uint(bets[_id].currentAmount*9/10);\n        uint numVoters = bets[_id].voter.length;\n        uint answer = bets[_id].answer;\n\n        address payable receiver = msg.sender;\n        receiver.transfer(creatorReward * SMALLEST_FEE);\n        emit MoneyGiven(receiver, creatorReward);\n        for(uint i = 0; i < numVoters; i++) {\n            receiver = payable(bets[_id].voter[i]);\n            receiver.transfer(otherReward * SMALLEST_FEE * voterChoice[_id][receiver][answer] / bets[_id].currentChoices[answer]);\n            emit MoneyGiven(receiver, otherReward * voterChoice[_id][receiver][answer] / bets[_id].currentChoices[answer]);\n        }\n    }\n\n    function getBets() public view returns(Bet[] memory) {\n        uint count;\n        uint[] memory ids;\n        (count, ids) = _getValidIds();\n        Bet[] memory validBets = new Bet[](count);\n        for(uint i = 0; i < count; i++) {\n            validBets[i] = bets[ids[i]];\n        }\n        return validBets;\n    }\n\n\n// version 1.0\n    function getIds() public view returns(uint[] memory, bool[] memory) {\n        uint count;\n        uint[] memory ids;\n        (count, ids) = _getValidIds();\n        uint[] memory validIds = new uint[](count);\n        bool[] memory isOwnIds = new bool[](count);\n        for(uint i = 0; i < count; i++) {\n            validIds[i] = ids[i];\n            isOwnIds[i] = (bets[i].owner == msg.sender);\n        }\n        return (validIds, isOwnIds);\n    }\n\n    function getTitle(uint _id) public view isValidId(_id) returns(string memory) {\n        Bet memory bet = bets[_id];\n        return bet.title;\n    }\n\n    function getLowerBound(uint _id) public view isValidId(_id) returns(uint) {\n        Bet memory bet = bets[_id];\n        return bet.lowerBound;\n    }\n\n    function getCurrentAmount(uint _id) public view isValidId(_id) returns(uint) {\n        Bet memory bet = bets[_id];\n        return bet.currentAmount;\n    }\n\n    function getUpperBound(uint _id) public view isValidId(_id) returns(uint) {\n        Bet memory bet = bets[_id];\n        return bet.upperBound;\n    }\n\n    function getChoiceNum(uint _id) public view isValidId(_id) returns(uint) {\n        return bets[_id].choices.length;\n    }\n\n    function getChoice(uint _id, uint _choice) public view isValidId(_id) returns(string memory) {\n        return bets[_id].choices[_choice];\n    }\n\n    function getChoicesAmount(uint _id) public view isValidId(_id) returns(uint[] memory) {\n        return bets[_id].currentChoices;\n    }\n\n    function getAddressAmount(uint _id) public view isValidId(_id) returns(uint[] memory) {\n        uint len = getChoiceNum(_id);\n        uint[] memory amounts = new uint[](len);\n        for(uint i = 0; i < len; i++) {\n            amounts[i] = voterChoice[_id][msg.sender][i];\n        }\n        return amounts;\n    } \n\n    function getAnswer(uint _id) public view isValidId(_id) returns(uint) {\n        require(bets[_id].isAnswerSet, \"Answer not set yet\");\n        return bets[_id].answer;\n    }\n\n    function getTime() public view returns(uint) {\n        return now;\n    }\n\n    function _getValidIds() internal view returns(uint, uint[] memory) {\n        uint[] memory validIds = new uint[](bets.length);\n        uint count = 0;\n        for(uint i = 0; i < bets.length; i++) {\n            if(_isIdValid(i)) {\n                validIds[count] = i;\n                count++;\n            }\n        }\n        return (count, validIds);\n    }\n\n    function _isIdValid(uint _id) internal view returns(bool) {\n        return (now <= bets[_id].publishTime);\n    }\n\n    function _addressInit(uint _id, address _better) internal isValidId(_id) {\n        uint len = bets[_id].voter.length;\n        bool isInit = false;\n        for(uint i = 0; i < len; i++) {\n            if(bets[_id].voter[i] == _better) isInit = true;\n        }\n        if(!isInit) {\n            voterChoice[_id][msg.sender] = new uint[](getChoiceNum(_id));\n        }\n    }\n}",
  "sourcePath": "/Users/peterlin/OnlineBetting/ethereum/contracts/OnlineBetting.sol",
  "compiler": {
    "name": "solc",
    "version": "0.6.12+commit.27d51765.Emscripten.clang"
  },
  "schemaVersion": "3.4.0",
  "updatedAt": "2021-06-09T09:05:49.053Z",
  "networkType": "ethereum",
  "devdoc": {
    "kind": "dev",
    "methods": {},
    "version": 1
  },
  "userdoc": {
    "kind": "user",
    "methods": {},
    "version": 1
  }
}