{
  "contractName": "OnlineBetting",
  "abi": [
    {
      "anonymous": false,
      "inputs": [
        {
          "indexed": false,
          "internalType": "uint256",
          "name": "betId",
          "type": "uint256"
        },
        {
          "indexed": false,
          "internalType": "uint256",
          "name": "choice",
          "type": "uint256"
        }
      ],
      "name": "AnswerSet",
      "type": "event"
    },
    {
      "anonymous": false,
      "inputs": [
        {
          "indexed": false,
          "internalType": "uint256",
          "name": "betId",
          "type": "uint256"
        },
        {
          "indexed": false,
          "internalType": "string",
          "name": "title",
          "type": "string"
        }
      ],
      "name": "BetAdded",
      "type": "event"
    },
    {
      "anonymous": false,
      "inputs": [
        {
          "indexed": false,
          "internalType": "uint256",
          "name": "betId",
          "type": "uint256"
        },
        {
          "indexed": false,
          "internalType": "address",
          "name": "adder",
          "type": "address"
        },
        {
          "indexed": false,
          "internalType": "uint256",
          "name": "choice",
          "type": "uint256"
        },
        {
          "indexed": false,
          "internalType": "uint256",
          "name": "amount",
          "type": "uint256"
        }
      ],
      "name": "MoneyAdded",
      "type": "event"
    },
    {
      "anonymous": false,
      "inputs": [
        {
          "indexed": false,
          "internalType": "address",
          "name": "receiver",
          "type": "address"
        },
        {
          "indexed": false,
          "internalType": "uint256",
          "name": "amount",
          "type": "uint256"
        }
      ],
      "name": "MoneyGiven",
      "type": "event"
    },
    {
      "inputs": [
        {
          "internalType": "string",
          "name": "_title",
          "type": "string"
        },
        {
          "internalType": "uint256",
          "name": "_lowerBound",
          "type": "uint256"
        },
        {
          "internalType": "uint256",
          "name": "_upperBound",
          "type": "uint256"
        },
        {
          "internalType": "uint256",
          "name": "_publishTime",
          "type": "uint256"
        },
        {
          "internalType": "uint256",
          "name": "_lastBetTime",
          "type": "uint256"
        },
        {
          "internalType": "string[]",
          "name": "_choices",
          "type": "string[]"
        }
      ],
      "name": "addBet",
      "outputs": [],
      "stateMutability": "nonpayable",
      "type": "function"
    },
    {
      "inputs": [
        {
          "internalType": "uint256",
          "name": "_id",
          "type": "uint256"
        },
        {
          "internalType": "uint256",
          "name": "_choice",
          "type": "uint256"
        },
        {
          "internalType": "uint256",
          "name": "_amount",
          "type": "uint256"
        }
      ],
      "name": "addMoney",
      "outputs": [],
      "stateMutability": "payable",
      "type": "function",
      "payable": true
    },
    {
      "inputs": [
        {
          "internalType": "uint256",
          "name": "_id",
          "type": "uint256"
        },
        {
          "internalType": "uint256",
          "name": "_answer",
          "type": "uint256"
        }
      ],
      "name": "setAnswer",
      "outputs": [],
      "stateMutability": "nonpayable",
      "type": "function"
    },
    {
      "inputs": [
        {
          "internalType": "uint256",
          "name": "_id",
          "type": "uint256"
        }
      ],
      "name": "distributeMoney",
      "outputs": [],
      "stateMutability": "payable",
      "type": "function",
      "payable": true
    },
    {
      "inputs": [],
      "name": "getLastBet",
      "outputs": [
        {
          "components": [
            {
              "internalType": "string",
              "name": "title",
              "type": "string"
            },
            {
              "internalType": "string[]",
              "name": "choices",
              "type": "string[]"
            },
            {
              "internalType": "address",
              "name": "owner",
              "type": "address"
            },
            {
              "internalType": "uint256",
              "name": "lowerBound",
              "type": "uint256"
            },
            {
              "internalType": "uint256",
              "name": "currentAmount",
              "type": "uint256"
            },
            {
              "internalType": "uint256",
              "name": "upperBound",
              "type": "uint256"
            },
            {
              "internalType": "uint256",
              "name": "publishTime",
              "type": "uint256"
            },
            {
              "internalType": "uint256",
              "name": "lastBetTime",
              "type": "uint256"
            },
            {
              "internalType": "uint256",
              "name": "answer",
              "type": "uint256"
            },
            {
              "internalType": "uint256[]",
              "name": "currentChoices",
              "type": "uint256[]"
            },
            {
              "internalType": "address[]",
              "name": "voter",
              "type": "address[]"
            },
            {
              "internalType": "bool",
              "name": "isAnswerSet",
              "type": "bool"
            }
          ],
          "internalType": "struct OnlineBetting.Bet",
          "name": "",
          "type": "tuple"
        }
      ],
      "stateMutability": "view",
      "type": "function",
      "constant": true
    },
    {
      "inputs": [],
      "name": "getBets",
      "outputs": [
        {
          "components": [
            {
              "internalType": "string",
              "name": "title",
              "type": "string"
            },
            {
              "internalType": "string[]",
              "name": "choices",
              "type": "string[]"
            },
            {
              "internalType": "address",
              "name": "owner",
              "type": "address"
            },
            {
              "internalType": "uint256",
              "name": "lowerBound",
              "type": "uint256"
            },
            {
              "internalType": "uint256",
              "name": "currentAmount",
              "type": "uint256"
            },
            {
              "internalType": "uint256",
              "name": "upperBound",
              "type": "uint256"
            },
            {
              "internalType": "uint256",
              "name": "publishTime",
              "type": "uint256"
            },
            {
              "internalType": "uint256",
              "name": "lastBetTime",
              "type": "uint256"
            },
            {
              "internalType": "uint256",
              "name": "answer",
              "type": "uint256"
            },
            {
              "internalType": "uint256[]",
              "name": "currentChoices",
              "type": "uint256[]"
            },
            {
              "internalType": "address[]",
              "name": "voter",
              "type": "address[]"
            },
            {
              "internalType": "bool",
              "name": "isAnswerSet",
              "type": "bool"
            }
          ],
          "internalType": "struct OnlineBetting.Bet[]",
          "name": "",
          "type": "tuple[]"
        }
      ],
      "stateMutability": "view",
      "type": "function",
      "constant": true
    },
    {
      "inputs": [],
      "name": "getIds",
      "outputs": [
        {
          "internalType": "uint256[]",
          "name": "",
          "type": "uint256[]"
        },
        {
          "internalType": "bool[]",
          "name": "",
          "type": "bool[]"
        }
      ],
      "stateMutability": "view",
      "type": "function",
      "constant": true
    },
    {
      "inputs": [
        {
          "internalType": "uint256",
          "name": "_id",
          "type": "uint256"
        }
      ],
      "name": "getTitle",
      "outputs": [
        {
          "internalType": "string",
          "name": "",
          "type": "string"
        }
      ],
      "stateMutability": "view",
      "type": "function",
      "constant": true
    },
    {
      "inputs": [
        {
          "internalType": "uint256",
          "name": "_id",
          "type": "uint256"
        }
      ],
      "name": "getLowerBound",
      "outputs": [
        {
          "internalType": "uint256",
          "name": "",
          "type": "uint256"
        }
      ],
      "stateMutability": "view",
      "type": "function",
      "constant": true
    },
    {
      "inputs": [
        {
          "internalType": "uint256",
          "name": "_id",
          "type": "uint256"
        }
      ],
      "name": "getCurrentAmount",
      "outputs": [
        {
          "internalType": "uint256",
          "name": "",
          "type": "uint256"
        }
      ],
      "stateMutability": "view",
      "type": "function",
      "constant": true
    },
    {
      "inputs": [
        {
          "internalType": "uint256",
          "name": "_id",
          "type": "uint256"
        }
      ],
      "name": "getUpperBound",
      "outputs": [
        {
          "internalType": "uint256",
          "name": "",
          "type": "uint256"
        }
      ],
      "stateMutability": "view",
      "type": "function",
      "constant": true
    },
    {
      "inputs": [
        {
          "internalType": "uint256",
          "name": "_id",
          "type": "uint256"
        }
      ],
      "name": "getChoiceNum",
      "outputs": [
        {
          "internalType": "uint256",
          "name": "",
          "type": "uint256"
        }
      ],
      "stateMutability": "view",
      "type": "function",
      "constant": true
    },
    {
      "inputs": [
        {
          "internalType": "uint256",
          "name": "_id",
          "type": "uint256"
        },
        {
          "internalType": "uint256",
          "name": "_choice",
          "type": "uint256"
        }
      ],
      "name": "getChoice",
      "outputs": [
        {
          "internalType": "string",
          "name": "",
          "type": "string"
        }
      ],
      "stateMutability": "view",
      "type": "function",
      "constant": true
    },
    {
      "inputs": [
        {
          "internalType": "uint256",
          "name": "_id",
          "type": "uint256"
        }
      ],
      "name": "getChoicesAmount",
      "outputs": [
        {
          "internalType": "uint256[]",
          "name": "",
          "type": "uint256[]"
        }
      ],
      "stateMutability": "view",
      "type": "function",
      "constant": true
    },
    {
      "inputs": [
        {
          "internalType": "uint256",
          "name": "_id",
          "type": "uint256"
        }
      ],
      "name": "getAddressAmount",
      "outputs": [
        {
          "internalType": "uint256[]",
          "name": "",
          "type": "uint256[]"
        }
      ],
      "stateMutability": "view",
      "type": "function",
      "constant": true
    },
    {
      "inputs": [
        {
          "internalType": "uint256",
          "name": "_id",
          "type": "uint256"
        }
      ],
      "name": "getAnswer",
      "outputs": [
        {
          "internalType": "uint256",
          "name": "",
          "type": "uint256"
        }
      ],
      "stateMutability": "view",
      "type": "function",
      "constant": true
    },
    {
      "inputs": [],
      "name": "getTime",
      "outputs": [
        {
          "internalType": "uint256",
          "name": "",
          "type": "uint256"
        }
      ],
      "stateMutability": "view",
      "type": "function",
      "constant": true
    }
  ],
  "bytecode": "0x608060405234801561001057600080fd5b50613d7d806100206000396000f3fe6080604052600436106100fe5760003560e01c8063a0f8973a11610095578063bbce3fc211610064578063bbce3fc214610368578063caf76d4114610393578063d7876291146103bc578063ef6b086d146103f9578063f070eb2f14610422576100fe565b8063a0f8973a146102a7578063a6afd5fd146102c3578063b1c4713e146102ee578063b5ab58dc1461032b576100fe565b8063557ed1ba116100d1578063557ed1ba146101c557806356e78dc3146101f05780636e9d92271461022d578063929a79b11461026a576100fe565b806301afe1af1461010357806324b204ab146101405780632b1056631461015c57806345bdbbc014610188575b600080fd5b34801561010f57600080fd5b5061012a6004803603810190610125919061308d565b61045f565b604051610137919061388d565b60405180910390f35b61015a600480360381019061015591906130f2565b61051f565b005b34801561016857600080fd5b50610171610765565b60405161017f9291906138af565b60405180910390f35b34801561019457600080fd5b506101af60048036038101906101aa91906130b6565b6108f0565b6040516101bc91906138e6565b60405180910390f35b3480156101d157600080fd5b506101da610a10565b6040516101e791906139ca565b60405180910390f35b3480156101fc57600080fd5b506102176004803603810190610212919061308d565b610a18565b60405161022491906139ca565b60405180910390f35b34801561023957600080fd5b50610254600480360381019061024f919061308d565b610dc0565b60405161026191906139ca565b60405180910390f35b34801561027657600080fd5b50610291600480360381019061028c919061308d565b610e35565b60405161029e91906138e6565b60405180910390f35b6102c160048036038101906102bc919061308d565b6111dd565b005b3480156102cf57600080fd5b506102d8611623565b6040516102e5919061386b565b60405180910390f35b3480156102fa57600080fd5b506103156004803603810190610310919061308d565b611a20565b60405161032291906139ca565b60405180910390f35b34801561033757600080fd5b50610352600480360381019061034d919061308d565b611dc8565b60405161035f91906139ca565b60405180910390f35b34801561037457600080fd5b5061037d611ea5565b60405161038a91906139a8565b60405180910390f35b34801561039f57600080fd5b506103ba60048036038101906103b591906130b6565b6121ff565b005b3480156103c857600080fd5b506103e360048036038101906103de919061308d565b61230c565b6040516103f091906139ca565b60405180910390f35b34801561040557600080fd5b50610420600480360381019061041b9190612fd4565b6126b4565b005b34801561042e57600080fd5b506104496004803603810190610444919061308d565b612828565b604051610456919061388d565b60405180910390f35b60608161046b8161297d565b6104aa576040517f08c379a00000000000000000000000000000000000000000000000000000000081526004016104a190613968565b60405180910390fd5b600083815481106104b757fe5b90600052602060002090600c020160090180548060200260200160405190810160405280929190818152602001828054801561051257602002820191906000526020600020905b8154815260200190600101908083116104fe575b5050505050915050919050565b826105298161297d565b610568576040517f08c379a000000000000000000000000000000000000000000000000000000000815260040161055f90613968565b60405180910390fd5b83826000828154811061057757fe5b90600052602060002090600c020160050154816000848154811061059757fe5b90600052602060002090600c0201600401540111156105eb576040517f08c379a00000000000000000000000000000000000000000000000000000000081526004016105e290613988565b60405180910390fd5b66038d7ea4c6800084023414610636576040517f08c379a000000000000000000000000000000000000000000000000000000000815260040161062d90613948565b60405180910390fd5b836000878154811061064457fe5b90600052602060002090600c020160040160008282540192505081905550836000878154811061067057fe5b90600052602060002090600c0201600901868154811061068c57fe5b90600052602060002001600082825401925050819055506106ad86336129a7565b836001600088815260200190815260200160002060003373ffffffffffffffffffffffffffffffffffffffff1673ffffffffffffffffffffffffffffffffffffffff168152602001908152602001600020868154811061070957fe5b90600052602060002001600082825401925050819055507f9ae068d0bdbacb4831e59338d8b28e0bbd2d53764219e625df5dbad665cd3a338633878760405161075594939291906139e5565b60405180910390a1505050505050565b60608060006060610774612b3c565b809250819350505060608267ffffffffffffffff8111801561079557600080fd5b506040519080825280602002602001820160405280156107c45781602001602082028036833780820191505090505b50905060608367ffffffffffffffff811180156107e057600080fd5b5060405190808252806020026020018201604052801561080f5781602001602082028036833780820191505090505b50905060005b848110156108e15783818151811061082957fe5b602002602001015183828151811061083d57fe5b6020026020010181815250503373ffffffffffffffffffffffffffffffffffffffff166000828154811061086d57fe5b90600052602060002090600c020160020160009054906101000a900473ffffffffffffffffffffffffffffffffffffffff1673ffffffffffffffffffffffffffffffffffffffff16148282815181106108c257fe5b6020026020010190151590811515815250508080600101915050610815565b50818195509550505050509091565b6060826108fc8161297d565b61093b576040517f08c379a000000000000000000000000000000000000000000000000000000000815260040161093290613968565b60405180910390fd5b6000848154811061094857fe5b90600052602060002090600c0201600101838154811061096457fe5b906000526020600020018054600181600116156101000203166002900480601f016020809104026020016040519081016040528092919081815260200182805460018160011615610100020316600290048015610a025780601f106109d757610100808354040283529160200191610a02565b820191906000526020600020905b8154815290600101906020018083116109e557829003601f168201915b505050505091505092915050565b600042905090565b600081610a248161297d565b610a63576040517f08c379a0000000000000000000000000000000000000000000000000000000008152600401610a5a90613968565b60405180910390fd5b610a6b612cc8565b60008481548110610a7857fe5b90600052602060002090600c020160405180610180016040529081600082018054600181600116156101000203166002900480601f016020809104026020016040519081016040528092919081815260200182805460018160011615610100020316600290048015610b2b5780601f10610b0057610100808354040283529160200191610b2b565b820191906000526020600020905b815481529060010190602001808311610b0e57829003601f168201915b5050505050815260200160018201805480602002602001604051908101604052809291908181526020016000905b82821015610c15578382906000526020600020018054600181600116156101000203166002900480601f016020809104026020016040519081016040528092919081815260200182805460018160011615610100020316600290048015610c015780601f10610bd657610100808354040283529160200191610c01565b820191906000526020600020905b815481529060010190602001808311610be457829003601f168201915b505050505081526020019060010190610b59565b5050505081526020016002820160009054906101000a900473ffffffffffffffffffffffffffffffffffffffff1673ffffffffffffffffffffffffffffffffffffffff1673ffffffffffffffffffffffffffffffffffffffff16815260200160038201548152602001600482015481526020016005820154815260200160068201548152602001600782015481526020016008820154815260200160098201805480602002602001604051908101604052809291908181526020018280548015610cfe57602002820191906000526020600020905b815481526020019060010190808311610cea575b50505050508152602001600a8201805480602002602001604051908101604052809291908181526020018280548015610d8c57602002820191906000526020600020905b8160009054906101000a900473ffffffffffffffffffffffffffffffffffffffff1673ffffffffffffffffffffffffffffffffffffffff1681526020019060010190808311610d42575b50505050508152602001600b820160009054906101000a900460ff1615151515815250509050806080015192505050919050565b600081610dcc8161297d565b610e0b576040517f08c379a0000000000000000000000000000000000000000000000000000000008152600401610e0290613968565b60405180910390fd5b60008381548110610e1857fe5b90600052602060002090600c020160010180549050915050919050565b606081610e418161297d565b610e80576040517f08c379a0000000000000000000000000000000000000000000000000000000008152600401610e7790613968565b60405180910390fd5b610e88612cc8565b60008481548110610e9557fe5b90600052602060002090600c020160405180610180016040529081600082018054600181600116156101000203166002900480601f016020809104026020016040519081016040528092919081815260200182805460018160011615610100020316600290048015610f485780601f10610f1d57610100808354040283529160200191610f48565b820191906000526020600020905b815481529060010190602001808311610f2b57829003601f168201915b5050505050815260200160018201805480602002602001604051908101604052809291908181526020016000905b82821015611032578382906000526020600020018054600181600116156101000203166002900480601f01602080910402602001604051908101604052809291908181526020018280546001816001161561010002031660029004801561101e5780601f10610ff35761010080835404028352916020019161101e565b820191906000526020600020905b81548152906001019060200180831161100157829003601f168201915b505050505081526020019060010190610f76565b5050505081526020016002820160009054906101000a900473ffffffffffffffffffffffffffffffffffffffff1673ffffffffffffffffffffffffffffffffffffffff1673ffffffffffffffffffffffffffffffffffffffff1681526020016003820154815260200160048201548152602001600582015481526020016006820154815260200160078201548152602001600882015481526020016009820180548060200260200160405190810160405280929190818152602001828054801561111b57602002820191906000526020600020905b815481526020019060010190808311611107575b50505050508152602001600a82018054806020026020016040519081016040528092919081815260200182805480156111a957602002820191906000526020600020905b8160009054906101000a900473ffffffffffffffffffffffffffffffffffffffff1673ffffffffffffffffffffffffffffffffffffffff168152602001906001019080831161115f575b50505050508152602001600b820160009054906101000a900460ff1615151515815250509050806000015192505050919050565b600081815481106111ea57fe5b90600052602060002090600c0201600b0160009054906101000a900460ff16611248576040517f08c379a000000000000000000000000000000000000000000000000000000000815260040161123f90613928565b60405180910390fd5b6000818154811061125557fe5b90600052602060002090600c020160020160009054906101000a900473ffffffffffffffffffffffffffffffffffffffff1673ffffffffffffffffffffffffffffffffffffffff163373ffffffffffffffffffffffffffffffffffffffff16146112be57600080fd5b60006005600083815481106112cf57fe5b90600052602060002090600c0201600401540290506000605a600084815481106112f557fe5b90600052602060002090600c020160040154029050600080848154811061131857fe5b90600052602060002090600c0201600a01805490509050600080858154811061133d57fe5b90600052602060002090600c020160080154905060003390508073ffffffffffffffffffffffffffffffffffffffff166108fc6509184e72a00087029081150290604051600060405180830381858888f193505050501580156113a4573d6000803e3d6000fd5b507f9bb2540ba4555d75223ea5cea496bb837f39aecdc27e8a45a41e3c7b2c4f8f5581866040516113d6929190613842565b60405180910390a160005b8381101561161a57600087815481106113f657fe5b90600052602060002090600c0201600a01818154811061141257fe5b9060005260206000200160009054906101000a900473ffffffffffffffffffffffffffffffffffffffff1691508173ffffffffffffffffffffffffffffffffffffffff166108fc6000898154811061146657fe5b90600052602060002090600c0201600901858154811061148257fe5b9060005260206000200154600160008b815260200190815260200160002060008673ffffffffffffffffffffffffffffffffffffffff1673ffffffffffffffffffffffffffffffffffffffff16815260200190815260200160002086815481106114e857fe5b90600052602060002001546509184e72a0008902028161150457fe5b049081150290604051600060405180830381858888f19350505050158015611530573d6000803e3d6000fd5b507f9bb2540ba4555d75223ea5cea496bb837f39aecdc27e8a45a41e3c7b2c4f8f55826000898154811061156057fe5b90600052602060002090600c0201600901858154811061157c57fe5b9060005260206000200154600160008b815260200190815260200160002060008673ffffffffffffffffffffffffffffffffffffffff1673ffffffffffffffffffffffffffffffffffffffff16815260200190815260200160002086815481106115e257fe5b90600052602060002001548802816115f657fe5b04604051611605929190613842565b60405180910390a180806001019150506113e1565b50505050505050565b606060006060611631612b3c565b809250819350505060608267ffffffffffffffff8111801561165257600080fd5b5060405190808252806020026020018201604052801561168c57816020015b611679612cc8565b8152602001906001900390816116715790505b50905060005b83811015611a165760008382815181106116a857fe5b6020026020010151815481106116ba57fe5b90600052602060002090600c020160405180610180016040529081600082018054600181600116156101000203166002900480601f01602080910402602001604051908101604052809291908181526020018280546001816001161561010002031660029004801561176d5780601f106117425761010080835404028352916020019161176d565b820191906000526020600020905b81548152906001019060200180831161175057829003601f168201915b5050505050815260200160018201805480602002602001604051908101604052809291908181526020016000905b82821015611857578382906000526020600020018054600181600116156101000203166002900480601f0160208091040260200160405190810160405280929190818152602001828054600181600116156101000203166002900480156118435780601f1061181857610100808354040283529160200191611843565b820191906000526020600020905b81548152906001019060200180831161182657829003601f168201915b50505050508152602001906001019061179b565b5050505081526020016002820160009054906101000a900473ffffffffffffffffffffffffffffffffffffffff1673ffffffffffffffffffffffffffffffffffffffff1673ffffffffffffffffffffffffffffffffffffffff1681526020016003820154815260200160048201548152602001600582015481526020016006820154815260200160078201548152602001600882015481526020016009820180548060200260200160405190810160405280929190818152602001828054801561194057602002820191906000526020600020905b81548152602001906001019080831161192c575b50505050508152602001600a82018054806020026020016040519081016040528092919081815260200182805480156119ce57602002820191906000526020600020905b8160009054906101000a900473ffffffffffffffffffffffffffffffffffffffff1673ffffffffffffffffffffffffffffffffffffffff1681526020019060010190808311611984575b50505050508152602001600b820160009054906101000a900460ff1615151515815250508282815181106119fe57fe5b60200260200101819052508080600101915050611692565b5080935050505090565b600081611a2c8161297d565b611a6b576040517f08c379a0000000000000000000000000000000000000000000000000000000008152600401611a6290613968565b60405180910390fd5b611a73612cc8565b60008481548110611a8057fe5b90600052602060002090600c020160405180610180016040529081600082018054600181600116156101000203166002900480601f016020809104026020016040519081016040528092919081815260200182805460018160011615610100020316600290048015611b335780601f10611b0857610100808354040283529160200191611b33565b820191906000526020600020905b815481529060010190602001808311611b1657829003601f168201915b5050505050815260200160018201805480602002602001604051908101604052809291908181526020016000905b82821015611c1d578382906000526020600020018054600181600116156101000203166002900480601f016020809104026020016040519081016040528092919081815260200182805460018160011615610100020316600290048015611c095780601f10611bde57610100808354040283529160200191611c09565b820191906000526020600020905b815481529060010190602001808311611bec57829003601f168201915b505050505081526020019060010190611b61565b5050505081526020016002820160009054906101000a900473ffffffffffffffffffffffffffffffffffffffff1673ffffffffffffffffffffffffffffffffffffffff1673ffffffffffffffffffffffffffffffffffffffff16815260200160038201548152602001600482015481526020016005820154815260200160068201548152602001600782015481526020016008820154815260200160098201805480602002602001604051908101604052809291908181526020018280548015611d0657602002820191906000526020600020905b815481526020019060010190808311611cf2575b50505050508152602001600a8201805480602002602001604051908101604052809291908181526020018280548015611d9457602002820191906000526020600020905b8160009054906101000a900473ffffffffffffffffffffffffffffffffffffffff1673ffffffffffffffffffffffffffffffffffffffff1681526020019060010190808311611d4a575b50505050508152602001600b820160009054906101000a900460ff1615151515815250509050806060015192505050919050565b600081611dd48161297d565b611e13576040517f08c379a0000000000000000000000000000000000000000000000000000000008152600401611e0a90613968565b60405180910390fd5b60008381548110611e2057fe5b90600052602060002090600c0201600b0160009054906101000a900460ff16611e7e576040517f08c379a0000000000000000000000000000000000000000000000000000000008152600401611e7590613908565b60405180910390fd5b60008381548110611e8b57fe5b90600052602060002090600c020160080154915050919050565b611ead612cc8565b600060016000805490500381548110611ec257fe5b90600052602060002090600c020160405180610180016040529081600082018054600181600116156101000203166002900480601f016020809104026020016040519081016040528092919081815260200182805460018160011615610100020316600290048015611f755780601f10611f4a57610100808354040283529160200191611f75565b820191906000526020600020905b815481529060010190602001808311611f5857829003601f168201915b5050505050815260200160018201805480602002602001604051908101604052809291908181526020016000905b8282101561205f578382906000526020600020018054600181600116156101000203166002900480601f01602080910402602001604051908101604052809291908181526020018280546001816001161561010002031660029004801561204b5780601f106120205761010080835404028352916020019161204b565b820191906000526020600020905b81548152906001019060200180831161202e57829003601f168201915b505050505081526020019060010190611fa3565b5050505081526020016002820160009054906101000a900473ffffffffffffffffffffffffffffffffffffffff1673ffffffffffffffffffffffffffffffffffffffff1673ffffffffffffffffffffffffffffffffffffffff1681526020016003820154815260200160048201548152602001600582015481526020016006820154815260200160078201548152602001600882015481526020016009820180548060200260200160405190810160405280929190818152602001828054801561214857602002820191906000526020600020905b815481526020019060010190808311612134575b50505050508152602001600a82018054806020026020016040519081016040528092919081815260200182805480156121d657602002820191906000526020600020905b8160009054906101000a900473ffffffffffffffffffffffffffffffffffffffff1673ffffffffffffffffffffffffffffffffffffffff168152602001906001019080831161218c575b50505050508152602001600b820160009054906101000a900460ff161515151581525050905090565b6000828154811061220c57fe5b90600052602060002090600c020160020160009054906101000a900473ffffffffffffffffffffffffffffffffffffffff1673ffffffffffffffffffffffffffffffffffffffff163373ffffffffffffffffffffffffffffffffffffffff161461227557600080fd5b806000838154811061228357fe5b90600052602060002090600c0201600801819055506001600083815481106122a757fe5b90600052602060002090600c0201600b0160006101000a81548160ff0219169083151502179055507f4772d83d7289b527150ec81022e02e39b5b278f66492d7f0702903636f33396d8282604051612300929190613a5a565b60405180910390a15050565b6000816123188161297d565b612357576040517f08c379a000000000000000000000000000000000000000000000000000000000815260040161234e90613968565b60405180910390fd5b61235f612cc8565b6000848154811061236c57fe5b90600052602060002090600c020160405180610180016040529081600082018054600181600116156101000203166002900480601f01602080910402602001604051908101604052809291908181526020018280546001816001161561010002031660029004801561241f5780601f106123f45761010080835404028352916020019161241f565b820191906000526020600020905b81548152906001019060200180831161240257829003601f168201915b5050505050815260200160018201805480602002602001604051908101604052809291908181526020016000905b82821015612509578382906000526020600020018054600181600116156101000203166002900480601f0160208091040260200160405190810160405280929190818152602001828054600181600116156101000203166002900480156124f55780601f106124ca576101008083540402835291602001916124f5565b820191906000526020600020905b8154815290600101906020018083116124d857829003601f168201915b50505050508152602001906001019061244d565b5050505081526020016002820160009054906101000a900473ffffffffffffffffffffffffffffffffffffffff1673ffffffffffffffffffffffffffffffffffffffff1673ffffffffffffffffffffffffffffffffffffffff168152602001600382015481526020016004820154815260200160058201548152602001600682015481526020016007820154815260200160088201548152602001600982018054806020026020016040519081016040528092919081815260200182805480156125f257602002820191906000526020600020905b8154815260200190600101908083116125de575b50505050508152602001600a820180548060200260200160405190810160405280929190818152602001828054801561268057602002820191906000526020600020905b8160009054906101000a900473ffffffffffffffffffffffffffffffffffffffff1673ffffffffffffffffffffffffffffffffffffffff1681526020019060010190808311612636575b50505050508152602001600b820160009054906101000a900460ff16151515158152505090508060a0015192505050919050565b60008080549050905060008251905060608167ffffffffffffffff811180156126dc57600080fd5b5060405190808252806020026020018201604052801561270b5781602001602082028036833780820191505090505b5090506000806001816001815401808255809150500390600052602060002090600c0201905089816000019080519060200190612749929190612d41565b50338160020160006101000a81548173ffffffffffffffffffffffffffffffffffffffff021916908373ffffffffffffffffffffffffffffffffffffffff160217905550888160030181905550878160050181905550868160060181905550858160070181905550848160010190805190602001906127c9929190612dc1565b50818160090190805190602001906127e2929190612e21565b507ffd9b824c32c4b314de8cc8632b170ef722e0fa61fcf35583a814356d916bc1fa848b604051612814929190613a2a565b60405180910390a150505050505050505050565b6060816128348161297d565b612873576040517f08c379a000000000000000000000000000000000000000000000000000000000815260040161286a90613968565b60405180910390fd5b600061287e84610dc0565b905060608167ffffffffffffffff8111801561289957600080fd5b506040519080825280602002602001820160405280156128c85781602001602082028036833780820191505090505b5090506128d58533612bea565b156129725760005b82811015612970576001600087815260200190815260200160002060003373ffffffffffffffffffffffffffffffffffffffff1673ffffffffffffffffffffffffffffffffffffffff168152602001908152602001600020818154811061294057fe5b906000526020600020015482828151811061295757fe5b60200260200101818152505080806001019150506128dd565b505b809350505050919050565b600080828154811061298b57fe5b90600052602060002090600c0201600601544211159050919050565b816129b18161297d565b6129f0576040517f08c379a00000000000000000000000000000000000000000000000000000000081526004016129e790613968565b60405180910390fd5b60006129fc8484612bea565b905080612b365760008481548110612a1057fe5b90600052602060002090600c0201600a01839080600181540180825580915050600190039060005260206000200160009091909190916101000a81548173ffffffffffffffffffffffffffffffffffffffff021916908373ffffffffffffffffffffffffffffffffffffffff160217905550612a8b84610dc0565b67ffffffffffffffff81118015612aa157600080fd5b50604051908082528060200260200182016040528015612ad05781602001602082028036833780820191505090505b506001600086815260200190815260200160002060003373ffffffffffffffffffffffffffffffffffffffff1673ffffffffffffffffffffffffffffffffffffffff1681526020019081526020016000209080519060200190612b34929190612e21565b505b50505050565b600060608060008054905067ffffffffffffffff81118015612b5d57600080fd5b50604051908082528060200260200182016040528015612b8c5781602001602082028036833780820191505090505b5090506000805b600080549050811015612bdd57612ba98161297d565b15612bd05780838381518110612bbb57fe5b60200260200101818152505081806001019250505b8080600101915050612b93565b5080829350935050509091565b60008060008481548110612bfa57fe5b90600052602060002090600c0201600a0180549050905060005b81811015612cbb578373ffffffffffffffffffffffffffffffffffffffff1660008681548110612c4057fe5b90600052602060002090600c0201600a018281548110612c5c57fe5b9060005260206000200160009054906101000a900473ffffffffffffffffffffffffffffffffffffffff1673ffffffffffffffffffffffffffffffffffffffff161415612cae57600192505050612cc2565b8080600101915050612c14565b5060009150505b92915050565b6040518061018001604052806060815260200160608152602001600073ffffffffffffffffffffffffffffffffffffffff16815260200160008152602001600081526020016000815260200160008152602001600081526020016000815260200160608152602001606081526020016000151581525090565b828054600181600116156101000203166002900490600052602060002090601f016020900481019282601f10612d8257805160ff1916838001178555612db0565b82800160010185558215612db0579182015b82811115612daf578251825591602001919060010190612d94565b5b509050612dbd9190612e6e565b5090565b828054828255906000526020600020908101928215612e10579160200282015b82811115612e0f578251829080519060200190612dff929190612d41565b5091602001919060010190612de1565b5b509050612e1d9190612e8b565b5090565b828054828255906000526020600020908101928215612e5d579160200282015b82811115612e5c578251825591602001919060010190612e41565b5b509050612e6a9190612e6e565b5090565b5b80821115612e87576000816000905550600101612e6f565b5090565b5b80821115612eab5760008181612ea29190612eaf565b50600101612e8c565b5090565b50805460018160011615610100020316600290046000825580601f10612ed55750612ef4565b601f016020900490600052602060002090810190612ef39190612e6e565b5b50565b600082601f830112612f0857600080fd5b8135612f1b612f1682613ab0565b613a83565b9150818183526020840193506020810190508360005b83811015612f615781358601612f478882612f6b565b845260208401935060208301925050600181019050612f31565b5050505092915050565b600082601f830112612f7c57600080fd5b8135612f8f612f8a82613ad8565b613a83565b91508082526020830160208301858383011115612fab57600080fd5b612fb6838284613cdd565b50505092915050565b600081359050612fce81613d30565b92915050565b60008060008060008060c08789031215612fed57600080fd5b600087013567ffffffffffffffff81111561300757600080fd5b61301389828a01612f6b565b965050602061302489828a01612fbf565b955050604061303589828a01612fbf565b945050606061304689828a01612fbf565b935050608061305789828a01612fbf565b92505060a087013567ffffffffffffffff81111561307457600080fd5b61308089828a01612ef7565b9150509295509295509295565b60006020828403121561309f57600080fd5b60006130ad84828501612fbf565b91505092915050565b600080604083850312156130c957600080fd5b60006130d785828601612fbf565b92505060206130e885828601612fbf565b9150509250929050565b60008060006060848603121561310757600080fd5b600061311586828701612fbf565b935050602061312686828701612fbf565b925050604061313786828701612fbf565b9150509250925092565b600061314d83836131c0565b60208301905092915050565b60006131658383613431565b60208301905092915050565b600061317d8383613440565b905092915050565b600061319183836135f2565b905092915050565b60006131a58383613824565b60208301905092915050565b6131ba81613ca7565b82525050565b6131c981613c5f565b82525050565b60006131da82613b54565b6131e48185613bd7565b93506131ef83613b04565b8060005b838110156132205781516132078882613141565b975061321283613b96565b9250506001810190506131f3565b5085935050505092915050565b600061323882613b5f565b6132428185613be8565b935061324d83613b14565b8060005b8381101561327e5781516132658882613159565b975061327083613ba3565b925050600181019050613251565b5085935050505092915050565b600061329682613b6a565b6132a08185613bf9565b9350836020820285016132b285613b24565b8060005b858110156132ee57848403895281516132cf8582613171565b94506132da83613bb0565b925060208a019950506001810190506132b6565b50829750879550505050505092915050565b600061330b82613b75565b6133158185613c0a565b93508360208202850161332785613b34565b8060005b8581101561336357848403895281516133448582613185565b945061334f83613bbd565b925060208a0199505060018101905061332b565b50829750879550505050505092915050565b600061338082613b80565b61338a8185613c1b565b935061339583613b44565b8060005b838110156133c65781516133ad8882613199565b97506133b883613bca565b925050600181019050613399565b5085935050505092915050565b60006133de82613b80565b6133e88185613c2c565b93506133f383613b44565b8060005b8381101561342457815161340b8882613199565b975061341683613bca565b9250506001810190506133f7565b5085935050505092915050565b61343a81613c71565b82525050565b600061344b82613b8b565b6134558185613c3d565b9350613465818560208601613cec565b61346e81613d1f565b840191505092915050565b600061348482613b8b565b61348e8185613c4e565b935061349e818560208601613cec565b6134a781613d1f565b840191505092915050565b60006134bf601283613c4e565b91507f416e73776572206e6f74207365742079657400000000000000000000000000006000830152602082019050919050565b60006134ff600e83613c4e565b91507f416e73776572204e6f74205365740000000000000000000000000000000000006000830152602082019050919050565b600061353f601083613c4e565b91507f4e6f7420456e6f756768204d6f6e6579000000000000000000000000000000006000830152602082019050919050565b600061357f600f83613c4e565b91507f42657420686173206578706972656400000000000000000000000000000000006000830152602082019050919050565b60006135bf601183613c4e565b91507f546f6f206d756368206d6f6e65792121210000000000000000000000000000006000830152602082019050919050565b60006101808301600083015184820360008601526136108282613440565b9150506020830151848203602086015261362a828261328b565b915050604083015161363f60408601826131c0565b5060608301516136526060860182613824565b5060808301516136656080860182613824565b5060a083015161367860a0860182613824565b5060c083015161368b60c0860182613824565b5060e083015161369e60e0860182613824565b506101008301516136b3610100860182613824565b506101208301518482036101208601526136cd8282613375565b9150506101408301518482036101408601526136e982826131cf565b915050610160830151613700610160860182613431565b508091505092915050565b60006101808301600083015184820360008601526137298282613440565b91505060208301518482036020860152613743828261328b565b915050604083015161375860408601826131c0565b50606083015161376b6060860182613824565b50608083015161377e6080860182613824565b5060a083015161379160a0860182613824565b5060c08301516137a460c0860182613824565b5060e08301516137b760e0860182613824565b506101008301516137cc610100860182613824565b506101208301518482036101208601526137e68282613375565b91505061014083015184820361014086015261380282826131cf565b915050610160830151613819610160860182613431565b508091505092915050565b61382d81613c9d565b82525050565b61383c81613c9d565b82525050565b600060408201905061385760008301856131b1565b6138646020830184613833565b9392505050565b600060208201905081810360008301526138858184613300565b905092915050565b600060208201905081810360008301526138a781846133d3565b905092915050565b600060408201905081810360008301526138c981856133d3565b905081810360208301526138dd818461322d565b90509392505050565b600060208201905081810360008301526139008184613479565b905092915050565b60006020820190508181036000830152613921816134b2565b9050919050565b60006020820190508181036000830152613941816134f2565b9050919050565b6000602082019050818103600083015261396181613532565b9050919050565b6000602082019050818103600083015261398181613572565b9050919050565b600060208201905081810360008301526139a1816135b2565b9050919050565b600060208201905081810360008301526139c2818461370b565b905092915050565b60006020820190506139df6000830184613833565b92915050565b60006080820190506139fa6000830187613833565b613a0760208301866131b1565b613a146040830185613833565b613a216060830184613833565b95945050505050565b6000604082019050613a3f6000830185613833565b8181036020830152613a518184613479565b90509392505050565b6000604082019050613a6f6000830185613833565b613a7c6020830184613833565b9392505050565b6000604051905081810181811067ffffffffffffffff82111715613aa657600080fd5b8060405250919050565b600067ffffffffffffffff821115613ac757600080fd5b602082029050602081019050919050565b600067ffffffffffffffff821115613aef57600080fd5b601f19601f8301169050602081019050919050565b6000819050602082019050919050565b6000819050602082019050919050565b6000819050602082019050919050565b6000819050602082019050919050565b6000819050602082019050919050565b600081519050919050565b600081519050919050565b600081519050919050565b600081519050919050565b600081519050919050565b600081519050919050565b6000602082019050919050565b6000602082019050919050565b6000602082019050919050565b6000602082019050919050565b6000602082019050919050565b600082825260208201905092915050565b600082825260208201905092915050565b600082825260208201905092915050565b600082825260208201905092915050565b600082825260208201905092915050565b600082825260208201905092915050565b600082825260208201905092915050565b600082825260208201905092915050565b6000613c6a82613c7d565b9050919050565b60008115159050919050565b600073ffffffffffffffffffffffffffffffffffffffff82169050919050565b6000819050919050565b6000613cb282613cb9565b9050919050565b6000613cc482613ccb565b9050919050565b6000613cd682613c7d565b9050919050565b82818337600083830152505050565b60005b83811015613d0a578082015181840152602081019050613cef565b83811115613d19576000848401525b50505050565b6000601f19601f8301169050919050565b613d3981613c9d565b8114613d4457600080fd5b5056fea264697066735822122026de2c130dafffb42444efd3f5e98bbb1b6d31fc1ec60c90c949675505b9bbae64736f6c634300060c0033",
  "immutableReferences": {},
  "source": "pragma solidity >=0.6.0 <0.8.0;\npragma experimental ABIEncoderV2;\n\ncontract OnlineBetting {\n\n    //constants\n    uint constant SMALLEST_FEE = 0.001 ether;\n    uint constant PERCENTAGE_FEE = 0.00001 ether;\n\n    //events\n    event BetAdded(uint betId, string title);  //emit when\n    event MoneyAdded(uint betId, address adder, uint choice, uint amount);\n    event AnswerSet(uint betId, uint choice);\n    event MoneyGiven(address receiver, uint amount);\n\n    //Bet\n    struct Bet {\n        string title;\n        string[] choices;\n        address owner;\n        uint lowerBound;\n        uint currentAmount;\n        uint upperBound;\n        uint publishTime;\n        uint lastBetTime;\n        uint answer;\n        uint[] currentChoices;\n        address[] voter;\n        bool isAnswerSet;\n    }\n\n    //Bet list\n    Bet[] bets;\n    mapping (uint => mapping (address => uint[])) voterChoice;\n\n    //Modifiers\n    //Valid bet modifier\n    modifier isValidId(uint _id) {\n        require(_isIdValid(_id), \"Bet has expired\");\n        _;\n    }\n\n    //Valid amount\n    modifier isValidAmount(uint _id, uint _amount) {\n        require(bets[_id].currentAmount + _amount <= bets[_id].upperBound, \"Too much money!!!\");\n        _;\n    }\n\n    //functions\n    //Add bet to bets\n    function addBet(string memory _title, uint _lowerBound, uint _upperBound, uint _publishTime, uint _lastBetTime, string[] memory _choices) public {\n        uint betId = bets.length;\n        uint choiceLength = _choices.length;\n        uint[] memory currentChoices = new uint[](choiceLength);\n        Bet storage bet = bets.push();\n        bet.title = _title;\n        bet.owner = msg.sender;\n        bet.lowerBound = _lowerBound;\n        bet.upperBound = _upperBound;\n        bet.publishTime = _publishTime;\n        bet.lastBetTime = _lastBetTime;\n        bet.choices = _choices;\n        bet.currentChoices = currentChoices;\n        emit BetAdded(betId, _title);\n    }\n\n    function addMoney(uint _id, uint _choice, uint _amount) public payable isValidId(_id) isValidAmount(_id, _amount) {\n        //require(bets[_id].owner != msg.sender, \"Cannot add money to your own bets.\");\n        require(msg.value == _amount*SMALLEST_FEE, \"Not Enough Money\");\n        bets[_id].currentAmount += _amount;\n        bets[_id].currentChoices[_choice] += _amount;\n        _addressInit(_id, msg.sender);\n        voterChoice[_id][msg.sender][_choice] += _amount;\n        emit MoneyAdded(_id, msg.sender, _choice, _amount);\n    }\n    \n    function setAnswer(uint _id, uint _answer) public {\n        require(msg.sender == bets[_id].owner);\n        bets[_id].answer = _answer;\n        bets[_id].isAnswerSet = true;\n        emit AnswerSet(_id, _answer);\n    }\n\n    function distributeMoney(uint _id) public payable {\n        require(bets[_id].isAnswerSet, \"Answer Not Set\");\n        require(msg.sender == bets[_id].owner);\n        uint creatorReward = uint(bets[_id].currentAmount*5);\n        uint otherReward = uint(bets[_id].currentAmount*90);\n        uint numVoters = bets[_id].voter.length;\n        uint answer = bets[_id].answer;\n\n        address payable receiver = msg.sender;\n        receiver.transfer(creatorReward * PERCENTAGE_FEE);\n        emit MoneyGiven(receiver, creatorReward);\n        for(uint i = 0; i < numVoters; i++) {\n            receiver = payable(bets[_id].voter[i]);\n            receiver.transfer(otherReward * PERCENTAGE_FEE * voterChoice[_id][receiver][answer] / bets[_id].currentChoices[answer]);\n            emit MoneyGiven(receiver, otherReward * voterChoice[_id][receiver][answer] / bets[_id].currentChoices[answer]);\n        }\n    }\n\n    function getLastBet() public view returns(Bet memory) {\n        return bets[bets.length-1];\n    }\n\n    function getBets() public view returns(Bet[] memory) {\n        uint count;\n        uint[] memory ids;\n        (count, ids) = _getValidIds();\n        Bet[] memory validBets = new Bet[](count);\n        for(uint i = 0; i < count; i++) {\n            validBets[i] = bets[ids[i]];\n        }\n        return validBets;\n    }\n\n\n// version 1.0\n    function getIds() public view returns(uint[] memory, bool[] memory) {\n        uint count;\n        uint[] memory ids;\n        (count, ids) = _getValidIds();\n        uint[] memory validIds = new uint[](count);\n        bool[] memory isOwnIds = new bool[](count);\n        for(uint i = 0; i < count; i++) {\n            validIds[i] = ids[i];\n            isOwnIds[i] = (bets[i].owner == msg.sender);\n        }\n        return (validIds, isOwnIds);\n    }\n\n    function getTitle(uint _id) public view isValidId(_id) returns(string memory) {\n        Bet memory bet = bets[_id];\n        return bet.title;\n    }\n\n    function getLowerBound(uint _id) public view isValidId(_id) returns(uint) {\n        Bet memory bet = bets[_id];\n        return bet.lowerBound;\n    }\n\n    function getCurrentAmount(uint _id) public view isValidId(_id) returns(uint) {\n        Bet memory bet = bets[_id];\n        return bet.currentAmount;\n    }\n\n    function getUpperBound(uint _id) public view isValidId(_id) returns(uint) {\n        Bet memory bet = bets[_id];\n        return bet.upperBound;\n    }\n\n    function getChoiceNum(uint _id) public view isValidId(_id) returns(uint) {\n        return bets[_id].choices.length;\n    }\n\n    function getChoice(uint _id, uint _choice) public view isValidId(_id) returns(string memory) {\n        return bets[_id].choices[_choice];\n    }\n\n    function getChoicesAmount(uint _id) public view isValidId(_id) returns(uint[] memory) {\n        return bets[_id].currentChoices;\n    }\n\n    function getAddressAmount(uint _id) public view isValidId(_id) returns(uint[] memory) {\n        uint len = getChoiceNum(_id);\n        uint[] memory amounts = new uint[](len);\n        if(_hasBet(_id, msg.sender)) {\n            for(uint i = 0; i < len; i++) {\n                amounts[i] = voterChoice[_id][msg.sender][i];\n            }\n        }\n        return amounts;\n    } \n\n    function getAnswer(uint _id) public view isValidId(_id) returns(uint) {\n        require(bets[_id].isAnswerSet, \"Answer not set yet\");\n        return bets[_id].answer;\n    }\n\n    function getTime() public view returns(uint) {\n        return now;\n    }\n\n    function _getValidIds() internal view returns(uint, uint[] memory) {\n        uint[] memory validIds = new uint[](bets.length);\n        uint count = 0;\n        for(uint i = 0; i < bets.length; i++) {\n            if(_isIdValid(i)) {\n                validIds[count] = i;\n                count++;\n            }\n        }\n        return (count, validIds);\n    }\n\n    function _isIdValid(uint _id) internal view returns(bool) {\n        return (now <= bets[_id].publishTime);\n    }\n\n    function _hasBet(uint _id, address _better) internal view returns(bool) {\n        uint len = bets[_id].voter.length;\n        for(uint i = 0; i < len; i++) {\n            if(bets[_id].voter[i] == _better) return true;\n        }\n        return false;\n    }\n\n    function _addressInit(uint _id, address _better) internal isValidId(_id) {\n        bool isInit = _hasBet(_id, _better);\n        if(!isInit) {\n            bets[_id].voter.push(_better);\n            voterChoice[_id][msg.sender] = new uint[](getChoiceNum(_id));\n        }\n    }\n}",
  "sourcePath": "/Users/peterlin/OnlineBetting/ethereum/contracts/OnlineBetting.sol",
  "compiler": {
    "name": "solc",
    "version": "0.6.12+commit.27d51765.Emscripten.clang"
  },
  "schemaVersion": "3.4.0",
  "updatedAt": "2021-06-09T09:27:06.209Z",
  "networkType": "ethereum",
  "devdoc": {
    "kind": "dev",
    "methods": {},
    "version": 1
  },
  "userdoc": {
    "kind": "user",
    "methods": {},
    "version": 1
  }
}