{
  "contractName": "OnlineBetting",
  "abi": [
    {
      "inputs": [],
      "stateMutability": "nonpayable",
      "type": "constructor"
    },
    {
      "anonymous": false,
      "inputs": [
        {
          "indexed": false,
          "internalType": "uint256",
          "name": "betId",
          "type": "uint256"
        },
        {
          "indexed": false,
          "internalType": "string",
          "name": "comment",
          "type": "string"
        }
      ],
      "name": "AddComment",
      "type": "event"
    },
    {
      "anonymous": false,
      "inputs": [
        {
          "indexed": false,
          "internalType": "uint256",
          "name": "betId",
          "type": "uint256"
        },
        {
          "indexed": false,
          "internalType": "uint256",
          "name": "choice",
          "type": "uint256"
        }
      ],
      "name": "AnswerSet",
      "type": "event"
    },
    {
      "anonymous": false,
      "inputs": [
        {
          "indexed": false,
          "internalType": "uint256",
          "name": "betId",
          "type": "uint256"
        },
        {
          "indexed": false,
          "internalType": "string",
          "name": "title",
          "type": "string"
        }
      ],
      "name": "BetAdded",
      "type": "event"
    },
    {
      "anonymous": false,
      "inputs": [
        {
          "indexed": false,
          "internalType": "uint256",
          "name": "betId",
          "type": "uint256"
        },
        {
          "indexed": false,
          "internalType": "address",
          "name": "adder",
          "type": "address"
        },
        {
          "indexed": false,
          "internalType": "uint256",
          "name": "choice",
          "type": "uint256"
        },
        {
          "indexed": false,
          "internalType": "uint256",
          "name": "amount",
          "type": "uint256"
        }
      ],
      "name": "MoneyAdded",
      "type": "event"
    },
    {
      "anonymous": false,
      "inputs": [
        {
          "indexed": false,
          "internalType": "address",
          "name": "receiver",
          "type": "address"
        },
        {
          "indexed": false,
          "internalType": "uint256",
          "name": "amount",
          "type": "uint256"
        }
      ],
      "name": "MoneyGiven",
      "type": "event"
    },
    {
      "anonymous": false,
      "inputs": [
        {
          "indexed": false,
          "internalType": "address",
          "name": "member",
          "type": "address"
        }
      ],
      "name": "SetVIP",
      "type": "event"
    },
    {
      "inputs": [
        {
          "internalType": "string",
          "name": "_title",
          "type": "string"
        },
        {
          "internalType": "uint256",
          "name": "_lowerBound",
          "type": "uint256"
        },
        {
          "internalType": "uint256",
          "name": "_upperBound",
          "type": "uint256"
        },
        {
          "internalType": "uint256",
          "name": "_publishTime",
          "type": "uint256"
        },
        {
          "internalType": "uint256",
          "name": "_lastBetTime",
          "type": "uint256"
        },
        {
          "internalType": "uint256",
          "name": "_distributeTime",
          "type": "uint256"
        },
        {
          "internalType": "string[]",
          "name": "_choices",
          "type": "string[]"
        },
        {
          "internalType": "string",
          "name": "_region",
          "type": "string"
        },
        {
          "internalType": "string",
          "name": "_genre",
          "type": "string"
        }
      ],
      "name": "addBet",
      "outputs": [],
      "stateMutability": "nonpayable",
      "type": "function"
    },
    {
      "inputs": [],
      "name": "setVIP",
      "outputs": [],
      "stateMutability": "payable",
      "type": "function",
      "payable": true
    },
    {
      "inputs": [
        {
          "internalType": "uint256",
          "name": "_id",
          "type": "uint256"
        },
        {
          "internalType": "uint256",
          "name": "_choice",
          "type": "uint256"
        },
        {
          "internalType": "uint256",
          "name": "_amount",
          "type": "uint256"
        }
      ],
      "name": "addMoney",
      "outputs": [],
      "stateMutability": "payable",
      "type": "function",
      "payable": true
    },
    {
      "inputs": [
        {
          "internalType": "uint256",
          "name": "_id",
          "type": "uint256"
        },
        {
          "internalType": "uint256",
          "name": "_answer",
          "type": "uint256"
        }
      ],
      "name": "setAnswer",
      "outputs": [],
      "stateMutability": "nonpayable",
      "type": "function"
    },
    {
      "inputs": [
        {
          "internalType": "uint256",
          "name": "_id",
          "type": "uint256"
        }
      ],
      "name": "distributeMoney",
      "outputs": [],
      "stateMutability": "payable",
      "type": "function",
      "payable": true
    },
    {
      "inputs": [
        {
          "internalType": "uint256",
          "name": "_id",
          "type": "uint256"
        },
        {
          "internalType": "string",
          "name": "_comment",
          "type": "string"
        }
      ],
      "name": "addComment",
      "outputs": [],
      "stateMutability": "nonpayable",
      "type": "function"
    },
    {
      "inputs": [],
      "name": "spinWheel",
      "outputs": [],
      "stateMutability": "payable",
      "type": "function",
      "payable": true
    },
    {
      "inputs": [],
      "name": "getLastBet",
      "outputs": [
        {
          "components": [
            {
              "internalType": "string",
              "name": "title",
              "type": "string"
            },
            {
              "internalType": "string[]",
              "name": "choices",
              "type": "string[]"
            },
            {
              "internalType": "string[]",
              "name": "comments",
              "type": "string[]"
            },
            {
              "internalType": "address",
              "name": "owner",
              "type": "address"
            },
            {
              "internalType": "uint256",
              "name": "lowerBound",
              "type": "uint256"
            },
            {
              "internalType": "uint256",
              "name": "currentAmount",
              "type": "uint256"
            },
            {
              "internalType": "uint256",
              "name": "upperBound",
              "type": "uint256"
            },
            {
              "internalType": "uint256",
              "name": "publishTime",
              "type": "uint256"
            },
            {
              "internalType": "uint256",
              "name": "lastBetTime",
              "type": "uint256"
            },
            {
              "internalType": "uint256",
              "name": "distributeTime",
              "type": "uint256"
            },
            {
              "internalType": "uint256",
              "name": "answer",
              "type": "uint256"
            },
            {
              "internalType": "uint256[]",
              "name": "currentChoices",
              "type": "uint256[]"
            },
            {
              "internalType": "address[]",
              "name": "voter",
              "type": "address[]"
            },
            {
              "internalType": "bool",
              "name": "isAnswerSet",
              "type": "bool"
            },
            {
              "internalType": "enum OnlineBetting.Region",
              "name": "region",
              "type": "uint8"
            },
            {
              "internalType": "enum OnlineBetting.Genre",
              "name": "genre",
              "type": "uint8"
            }
          ],
          "internalType": "struct OnlineBetting.Bet",
          "name": "",
          "type": "tuple"
        }
      ],
      "stateMutability": "view",
      "type": "function",
      "constant": true
    },
    {
      "inputs": [],
      "name": "getBets",
      "outputs": [
        {
          "internalType": "uint256[]",
          "name": "",
          "type": "uint256[]"
        },
        {
          "components": [
            {
              "internalType": "string",
              "name": "title",
              "type": "string"
            },
            {
              "internalType": "string[]",
              "name": "choices",
              "type": "string[]"
            },
            {
              "internalType": "string[]",
              "name": "comments",
              "type": "string[]"
            },
            {
              "internalType": "address",
              "name": "owner",
              "type": "address"
            },
            {
              "internalType": "uint256",
              "name": "lowerBound",
              "type": "uint256"
            },
            {
              "internalType": "uint256",
              "name": "currentAmount",
              "type": "uint256"
            },
            {
              "internalType": "uint256",
              "name": "upperBound",
              "type": "uint256"
            },
            {
              "internalType": "uint256",
              "name": "publishTime",
              "type": "uint256"
            },
            {
              "internalType": "uint256",
              "name": "lastBetTime",
              "type": "uint256"
            },
            {
              "internalType": "uint256",
              "name": "distributeTime",
              "type": "uint256"
            },
            {
              "internalType": "uint256",
              "name": "answer",
              "type": "uint256"
            },
            {
              "internalType": "uint256[]",
              "name": "currentChoices",
              "type": "uint256[]"
            },
            {
              "internalType": "address[]",
              "name": "voter",
              "type": "address[]"
            },
            {
              "internalType": "bool",
              "name": "isAnswerSet",
              "type": "bool"
            },
            {
              "internalType": "enum OnlineBetting.Region",
              "name": "region",
              "type": "uint8"
            },
            {
              "internalType": "enum OnlineBetting.Genre",
              "name": "genre",
              "type": "uint8"
            }
          ],
          "internalType": "struct OnlineBetting.Bet[]",
          "name": "",
          "type": "tuple[]"
        },
        {
          "internalType": "enum OnlineBetting.Status[]",
          "name": "",
          "type": "uint8[]"
        }
      ],
      "stateMutability": "view",
      "type": "function",
      "constant": true
    },
    {
      "inputs": [],
      "name": "getHotBets",
      "outputs": [
        {
          "internalType": "uint256[]",
          "name": "",
          "type": "uint256[]"
        },
        {
          "components": [
            {
              "internalType": "string",
              "name": "title",
              "type": "string"
            },
            {
              "internalType": "string[]",
              "name": "choices",
              "type": "string[]"
            },
            {
              "internalType": "string[]",
              "name": "comments",
              "type": "string[]"
            },
            {
              "internalType": "address",
              "name": "owner",
              "type": "address"
            },
            {
              "internalType": "uint256",
              "name": "lowerBound",
              "type": "uint256"
            },
            {
              "internalType": "uint256",
              "name": "currentAmount",
              "type": "uint256"
            },
            {
              "internalType": "uint256",
              "name": "upperBound",
              "type": "uint256"
            },
            {
              "internalType": "uint256",
              "name": "publishTime",
              "type": "uint256"
            },
            {
              "internalType": "uint256",
              "name": "lastBetTime",
              "type": "uint256"
            },
            {
              "internalType": "uint256",
              "name": "distributeTime",
              "type": "uint256"
            },
            {
              "internalType": "uint256",
              "name": "answer",
              "type": "uint256"
            },
            {
              "internalType": "uint256[]",
              "name": "currentChoices",
              "type": "uint256[]"
            },
            {
              "internalType": "address[]",
              "name": "voter",
              "type": "address[]"
            },
            {
              "internalType": "bool",
              "name": "isAnswerSet",
              "type": "bool"
            },
            {
              "internalType": "enum OnlineBetting.Region",
              "name": "region",
              "type": "uint8"
            },
            {
              "internalType": "enum OnlineBetting.Genre",
              "name": "genre",
              "type": "uint8"
            }
          ],
          "internalType": "struct OnlineBetting.Bet[]",
          "name": "",
          "type": "tuple[]"
        }
      ],
      "stateMutability": "view",
      "type": "function",
      "constant": true
    },
    {
      "inputs": [
        {
          "internalType": "uint256",
          "name": "_id",
          "type": "uint256"
        }
      ],
      "name": "getVoterChoices",
      "outputs": [
        {
          "internalType": "uint256[]",
          "name": "",
          "type": "uint256[]"
        }
      ],
      "stateMutability": "view",
      "type": "function",
      "constant": true
    },
    {
      "inputs": [
        {
          "internalType": "uint256",
          "name": "_id",
          "type": "uint256"
        }
      ],
      "name": "getComments",
      "outputs": [
        {
          "internalType": "string[]",
          "name": "",
          "type": "string[]"
        }
      ],
      "stateMutability": "view",
      "type": "function",
      "constant": true
    },
    {
      "inputs": [],
      "name": "getMemberView",
      "outputs": [
        {
          "components": [
            {
              "internalType": "uint256",
              "name": "betsConstructed",
              "type": "uint256"
            },
            {
              "internalType": "uint256",
              "name": "moneyAdded",
              "type": "uint256"
            },
            {
              "internalType": "uint256",
              "name": "howard",
              "type": "uint256"
            },
            {
              "internalType": "bool",
              "name": "isVIP",
              "type": "bool"
            },
            {
              "internalType": "bool",
              "name": "canGetReward",
              "type": "bool"
            },
            {
              "internalType": "enum OnlineBetting.Reward",
              "name": "reward",
              "type": "uint8"
            }
          ],
          "internalType": "struct OnlineBetting.MemberView",
          "name": "",
          "type": "tuple"
        }
      ],
      "stateMutability": "view",
      "type": "function",
      "constant": true
    },
    {
      "inputs": [],
      "name": "getJackpot",
      "outputs": [
        {
          "internalType": "uint256",
          "name": "",
          "type": "uint256"
        }
      ],
      "stateMutability": "view",
      "type": "function",
      "constant": true
    },
    {
      "inputs": [],
      "name": "getReward",
      "outputs": [
        {
          "internalType": "enum OnlineBetting.Reward",
          "name": "",
          "type": "uint8"
        }
      ],
      "stateMutability": "view",
      "type": "function",
      "constant": true
    }
  ],
  "bytecode": "0x608060405234801561001057600080fd5b5060008081905550615d1d80620000286000396000f3fe6080604052600436106100e85760003560e01c8063950d11871161008a578063bbce3fc211610059578063bbce3fc214610279578063caf76d41146102a4578063cfca10fd146102cd578063e6a7dc2b1461030a576100e8565b8063950d1187146101db578063a0f8973a14610207578063a6afd5fd14610223578063aa7e568314610250576100e8565b806324b204ab116100c657806324b204ab1461013e5780633a8aa9a51461015a5780633d18b912146101855780639329066c146101b0576100e8565b806315032fb2146100ed57806315ecef92146100f757806323edf69714610101575b600080fd5b6100f5610333565b005b6100ff610411565b005b34801561010d57600080fd5b50610128600480360381019061012391906144b4565b610bff565b604051610135919061565d565b60405180910390f35b6101586004803603810190610153919061456d565b610d06565b005b34801561016657600080fd5b5061016f610ffd565b60405161017c9190615861565b60405180910390f35b34801561019157600080fd5b5061019a6110d5565b6040516101a79190615724565b60405180910390f35b3480156101bc57600080fd5b506101c56111bb565b6040516101d2919061587c565b60405180910390f35b3480156101e757600080fd5b506101f06111c4565b6040516101fe9291906156a1565b60405180910390f35b610221600480360381019061021c91906144b4565b61129f565b005b34801561022f57600080fd5b506102386118de565b604051610247939291906156d8565b60405180910390f35b34801561025c57600080fd5b50610277600480360381019061027291906144dd565b611ec8565b005b34801561028557600080fd5b5061028e611f5d565b60405161029b919061583f565b60405180910390f35b3480156102b057600080fd5b506102cb60048036038101906102c69190614531565b612402565b005b3480156102d957600080fd5b506102f460048036038101906102ef91906144b4565b61250e565b604051610301919061567f565b60405180910390f35b34801561031657600080fd5b50610331600480360381019061032c919061438e565b6125b6565b005b6706f05b59d3b20000341461037d576040517f08c379a00000000000000000000000000000000000000000000000000000000081526004016103749061575f565b60405180910390fd5b6001600260003373ffffffffffffffffffffffffffffffffffffffff1673ffffffffffffffffffffffffffffffffffffffff16815260200190815260200160002060030160006101000a81548160ff0219169083151502179055507fae988cc47e58f3e7d89bba758a5bfd7227a6be5930d95147b89ab3086885b4c9336040516104079190615619565b60405180910390a1565b67016345785d8a0000341461045b576040517f08c379a0000000000000000000000000000000000000000000000000000000008152600401610452906157df565b60405180910390fd5b606460008082825401925050819055506000610475612872565b905080600260003373ffffffffffffffffffffffffffffffffffffffff1673ffffffffffffffffffffffffffffffffffffffff168152602001908152602001600020600201819055506000600260003373ffffffffffffffffffffffffffffffffffffffff1673ffffffffffffffffffffffffffffffffffffffff16815260200190815260200160002060030160016101000a81548160ff02191690831515021790555060008114156105d7573373ffffffffffffffffffffffffffffffffffffffff166108fc6000549081150290604051600060405180830381858888f1935050505015801561056a573d6000803e3d6000fd5b50600080819055506007600260003373ffffffffffffffffffffffffffffffffffffffff1673ffffffffffffffffffffffffffffffffffffffff16815260200190815260200160002060030160026101000a81548160ff021916908360078111156105d157fe5b02179055505b6000811180156105e957506101f48111155b156106ac573373ffffffffffffffffffffffffffffffffffffffff166108fc6000549081150290604051600060405180830381858888f19350505050158015610636573d6000803e3d6000fd5b5060c860008082825403925050819055506006600260003373ffffffffffffffffffffffffffffffffffffffff1673ffffffffffffffffffffffffffffffffffffffff16815260200190815260200160002060030160026101000a81548160ff021916908360078111156106a657fe5b02179055505b6101f4811180156106bf57506103e88111155b15610782573373ffffffffffffffffffffffffffffffffffffffff166108fc6000549081150290604051600060405180830381858888f1935050505015801561070c573d6000803e3d6000fd5b50606460008082825403925050819055506005600260003373ffffffffffffffffffffffffffffffffffffffff1673ffffffffffffffffffffffffffffffffffffffff16815260200190815260200160002060030160026101000a81548160ff0219169083600781111561077c57fe5b02179055505b6103e88111801561079557506107d08111155b15610858573373ffffffffffffffffffffffffffffffffffffffff166108fc6000549081150290604051600060405180830381858888f193505050501580156107e2573d6000803e3d6000fd5b50603260008082825403925050819055506004600260003373ffffffffffffffffffffffffffffffffffffffff1673ffffffffffffffffffffffffffffffffffffffff16815260200190815260200160002060030160026101000a81548160ff0219169083600781111561085257fe5b02179055505b6107d08111801561086b5750610bb88111155b1561092e573373ffffffffffffffffffffffffffffffffffffffff166108fc6000549081150290604051600060405180830381858888f193505050501580156108b8573d6000803e3d6000fd5b50601460008082825403925050819055506003600260003373ffffffffffffffffffffffffffffffffffffffff1673ffffffffffffffffffffffffffffffffffffffff16815260200190815260200160002060030160026101000a81548160ff0219169083600781111561092857fe5b02179055505b610bb8811180156109415750610fa08111155b15610a03573373ffffffffffffffffffffffffffffffffffffffff166108fc6000549081150290604051600060405180830381858888f1935050505015801561098e573d6000803e3d6000fd5b50600a600080828254039250508190555060028060003373ffffffffffffffffffffffffffffffffffffffff1673ffffffffffffffffffffffffffffffffffffffff16815260200190815260200160002060030160026101000a81548160ff021916908360078111156109fd57fe5b02179055505b610fa081118015610a165750611b588111155b15610ad9573373ffffffffffffffffffffffffffffffffffffffff166108fc6000549081150290604051600060405180830381858888f19350505050158015610a63573d6000803e3d6000fd5b50606460008082825401925050819055506000600260003373ffffffffffffffffffffffffffffffffffffffff1673ffffffffffffffffffffffffffffffffffffffff16815260200190815260200160002060030160026101000a81548160ff02191690836007811115610ad357fe5b02179055505b611b58811115610ba1573373ffffffffffffffffffffffffffffffffffffffff166108fc6000549081150290604051600060405180830381858888f19350505050158015610b2b573d6000803e3d6000fd5b50606460008082825401925050819055506001600260003373ffffffffffffffffffffffffffffffffffffffff1673ffffffffffffffffffffffffffffffffffffffff16815260200190815260200160002060030160026101000a81548160ff02191690836007811115610b9b57fe5b02179055505b6001600260003373ffffffffffffffffffffffffffffffffffffffff1673ffffffffffffffffffffffffffffffffffffffff16815260200190815260200160002060030160016101000a81548160ff02191690831515021790555050565b606060018281548110610c0e57fe5b90600052602060002090600e0201600201805480602002602001604051908101604052809291908181526020016000905b82821015610cfb578382906000526020600020018054600181600116156101000203166002900480601f016020809104026020016040519081016040528092919081815260200182805460018160011615610100020316600290048015610ce75780601f10610cbc57610100808354040283529160200191610ce7565b820191906000526020600020905b815481529060010190602001808311610cca57829003601f168201915b505050505081526020019060010190610c3f565b505050509050919050565b82610d10816128b5565b610d4f576040517f08c379a0000000000000000000000000000000000000000000000000000000008152600401610d46906157ff565b60405180910390fd5b838260018281548110610d5e57fe5b90600052602060002090600e0201600601548160018481548110610d7e57fe5b90600052602060002090600e020160050154011115610dd2576040517f08c379a0000000000000000000000000000000000000000000000000000000008152600401610dc99061581f565b60405180910390fd5b66038d7ea4c6800084023414610e1d576040517f08c379a0000000000000000000000000000000000000000000000000000000008152600401610e149061577f565b60405180910390fd5b60018681548110610e2a57fe5b90600052602060002090600e020160080154421115610e7e576040517f08c379a0000000000000000000000000000000000000000000000000000000008152600401610e75906157bf565b60405180910390fd5b8360018781548110610e8c57fe5b90600052602060002090600e0201600501600082825401925050819055508360018781548110610eb857fe5b90600052602060002090600e0201600b018681548110610ed457fe5b9060005260206000200160008282540192505081905550610ef586336128e0565b836003600088815260200190815260200160002060003373ffffffffffffffffffffffffffffffffffffffff1673ffffffffffffffffffffffffffffffffffffffff1681526020019081526020016000208681548110610f5157fe5b90600052602060002001600082825401925050819055507f9ae068d0bdbacb4831e59338d8b28e0bbd2d53764219e625df5dbad665cd3a3386338787604051610f9d9493929190615897565b60405180910390a183600260003373ffffffffffffffffffffffffffffffffffffffff1673ffffffffffffffffffffffffffffffffffffffff16815260200190815260200160002060010160008282540192505081905550505050505050565b61100561400b565b600260003373ffffffffffffffffffffffffffffffffffffffff1673ffffffffffffffffffffffffffffffffffffffff1681526020019081526020016000206040518060c00160405290816000820154815260200160018201548152602001600282015481526020016003820160009054906101000a900460ff161515151581526020016003820160019054906101000a900460ff161515151581526020016003820160029054906101000a900460ff1660078111156110c157fe5b60078111156110cc57fe5b81525050905090565b6000600260003373ffffffffffffffffffffffffffffffffffffffff1673ffffffffffffffffffffffffffffffffffffffff16815260200190815260200160002060030160019054906101000a900460ff16611166576040517f08c379a000000000000000000000000000000000000000000000000000000000815260040161115d9061573f565b60405180910390fd5b600260003373ffffffffffffffffffffffffffffffffffffffff1673ffffffffffffffffffffffffffffffffffffffff16815260200190815260200160002060030160029054906101000a900460ff16905090565b60008054905090565b6060806060806111d2612a8e565b809250819350505060606111e8600a8351612fdd565b67ffffffffffffffff811180156111fe57600080fd5b5060405190808252806020026020018201604052801561123857816020015b611225614050565b81526020019060019003908161121d5790505b5090506112458383612ff9565b60005b611254600a8451612fdd565b8110156112915782818151811061126757fe5b602002602001015182828151811061127b57fe5b6020026020010181905250806001019050611248565b508281945094505050509091565b600181815481106112ac57fe5b90600052602060002090600e020160030160009054906101000a900473ffffffffffffffffffffffffffffffffffffffff1673ffffffffffffffffffffffffffffffffffffffff163373ffffffffffffffffffffffffffffffffffffffff161461131557600080fd5b6001818154811061132257fe5b90600052602060002090600e0201600d0160009054906101000a900460ff16156116af57600060056001838154811061135757fe5b90600052602060002090600e0201600501540290506000605a6001848154811061137d57fe5b90600052602060002090600e0201600501540290506000600184815481106113a157fe5b90600052602060002090600e0201600c018054905090506000600185815481106113c757fe5b90600052602060002090600e0201600a0154905060003390508073ffffffffffffffffffffffffffffffffffffffff166108fc6509184e72a00087029081150290604051600060405180830381858888f1935050505015801561142e573d6000803e3d6000fd5b507f9bb2540ba4555d75223ea5cea496bb837f39aecdc27e8a45a41e3c7b2c4f8f558186604051611460929190615634565b60405180910390a160005b838110156116a4576001878154811061148057fe5b90600052602060002090600e0201600c01818154811061149c57fe5b9060005260206000200160009054906101000a900473ffffffffffffffffffffffffffffffffffffffff1691508173ffffffffffffffffffffffffffffffffffffffff166108fc600189815481106114f057fe5b90600052602060002090600e0201600b01858154811061150c57fe5b9060005260206000200154600360008b815260200190815260200160002060008673ffffffffffffffffffffffffffffffffffffffff1673ffffffffffffffffffffffffffffffffffffffff168152602001908152602001600020868154811061157257fe5b90600052602060002001546509184e72a0008902028161158e57fe5b049081150290604051600060405180830381858888f193505050501580156115ba573d6000803e3d6000fd5b507f9bb2540ba4555d75223ea5cea496bb837f39aecdc27e8a45a41e3c7b2c4f8f5582600189815481106115ea57fe5b90600052602060002090600e0201600b01858154811061160657fe5b9060005260206000200154600360008b815260200190815260200160002060008673ffffffffffffffffffffffffffffffffffffffff1673ffffffffffffffffffffffffffffffffffffffff168152602001908152602001600020868154811061166c57fe5b906000526020600020015488028161168057fe5b0460405161168f929190615634565b60405180910390a1808060010191505061146b565b5050505050506118db565b600080600183815481106116bf57fe5b90600052602060002090600e0201600c018054905090506000600184815481106116e557fe5b90600052602060002090600e020160010180549050905060005b828110156118d6576001858154811061171457fe5b90600052602060002090600e0201600c01818154811061173057fe5b9060005260206000200160009054906101000a900473ffffffffffffffffffffffffffffffffffffffff16935060005b828110156118c8578473ffffffffffffffffffffffffffffffffffffffff166108fc66038d7ea4c68000600360008a815260200190815260200160002060008973ffffffffffffffffffffffffffffffffffffffff1673ffffffffffffffffffffffffffffffffffffffff16815260200190815260200160002084815481106117e557fe5b9060005260206000200154029081150290604051600060405180830381858888f1935050505015801561181c573d6000803e3d6000fd5b507f9bb2540ba4555d75223ea5cea496bb837f39aecdc27e8a45a41e3c7b2c4f8f55856003600089815260200190815260200160002060008873ffffffffffffffffffffffffffffffffffffffff1673ffffffffffffffffffffffffffffffffffffffff168152602001908152602001600020838154811061189a57fe5b90600052602060002001546040516118b3929190615634565b60405180910390a18080600101915050611760565b5080806001019150506116ff565b505050505b50565b60608060608060018054905067ffffffffffffffff8111801561190057600080fd5b5060405190808252806020026020018201604052801561192f5781602001602082028036833780820191505090505b509050606060018054905067ffffffffffffffff8111801561195057600080fd5b5060405190808252806020026020018201604052801561197f5781602001602082028036833780820191505090505b50905060005b6001805490508110156119f1578083828151811061199f57fe5b6020026020010181815250506119b481613019565b8282815181106119c057fe5b602002602001019060038111156119d357fe5b908160038111156119e057fe5b815250508080600101915050611985565b508160018281805480602002602001604051908101604052809291908181526020016000905b82821015611eb557838290600052602060002090600e020160405180610200016040529081600082018054600181600116156101000203166002900480601f016020809104026020016040519081016040528092919081815260200182805460018160011615610100020316600290048015611ad45780601f10611aa957610100808354040283529160200191611ad4565b820191906000526020600020905b815481529060010190602001808311611ab757829003601f168201915b5050505050815260200160018201805480602002602001604051908101604052809291908181526020016000905b82821015611bbe578382906000526020600020018054600181600116156101000203166002900480601f016020809104026020016040519081016040528092919081815260200182805460018160011615610100020316600290048015611baa5780601f10611b7f57610100808354040283529160200191611baa565b820191906000526020600020905b815481529060010190602001808311611b8d57829003601f168201915b505050505081526020019060010190611b02565b50505050815260200160028201805480602002602001604051908101604052809291908181526020016000905b82821015611ca7578382906000526020600020018054600181600116156101000203166002900480601f016020809104026020016040519081016040528092919081815260200182805460018160011615610100020316600290048015611c935780601f10611c6857610100808354040283529160200191611c93565b820191906000526020600020905b815481529060010190602001808311611c7657829003601f168201915b505050505081526020019060010190611beb565b5050505081526020016003820160009054906101000a900473ffffffffffffffffffffffffffffffffffffffff1673ffffffffffffffffffffffffffffffffffffffff1673ffffffffffffffffffffffffffffffffffffffff168152602001600482015481526020016005820154815260200160068201548152602001600782015481526020016008820154815260200160098201548152602001600a8201548152602001600b8201805480602002602001604051908101604052809291908181526020018280548015611d9a57602002820191906000526020600020905b815481526020019060010190808311611d86575b50505050508152602001600c8201805480602002602001604051908101604052809291908181526020018280548015611e2857602002820191906000526020600020905b8160009054906101000a900473ffffffffffffffffffffffffffffffffffffffff1673ffffffffffffffffffffffffffffffffffffffff1681526020019060010190808311611dde575b50505050508152602001600d820160009054906101000a900460ff16151515158152602001600d820160019054906101000a900460ff166009811115611e6a57fe5b6009811115611e7557fe5b8152602001600d820160029054906101000a900460ff166009811115611e9757fe5b6009811115611ea257fe5b8152505081526020019060010190611a17565b5050505091509450945094505050909192565b60018281548110611ed557fe5b90600052602060002090600e020160020181908060018154018082558091505060019003906000526020600020016000909190919091509080519060200190611f1f9291906140fb565b507f3b0cf47bf0008e5099d76f10a991fc69e1984797f0830b83910efb1c4d59c1f38282604051611f519291906158dc565b60405180910390a15050565b611f65614050565b60018080805490500381548110611f7857fe5b90600052602060002090600e020160405180610200016040529081600082018054600181600116156101000203166002900480601f01602080910402602001604051908101604052809291908181526020018280546001816001161561010002031660029004801561202b5780601f106120005761010080835404028352916020019161202b565b820191906000526020600020905b81548152906001019060200180831161200e57829003601f168201915b5050505050815260200160018201805480602002602001604051908101604052809291908181526020016000905b82821015612115578382906000526020600020018054600181600116156101000203166002900480601f0160208091040260200160405190810160405280929190818152602001828054600181600116156101000203166002900480156121015780601f106120d657610100808354040283529160200191612101565b820191906000526020600020905b8154815290600101906020018083116120e457829003601f168201915b505050505081526020019060010190612059565b50505050815260200160028201805480602002602001604051908101604052809291908181526020016000905b828210156121fe578382906000526020600020018054600181600116156101000203166002900480601f0160208091040260200160405190810160405280929190818152602001828054600181600116156101000203166002900480156121ea5780601f106121bf576101008083540402835291602001916121ea565b820191906000526020600020905b8154815290600101906020018083116121cd57829003601f168201915b505050505081526020019060010190612142565b5050505081526020016003820160009054906101000a900473ffffffffffffffffffffffffffffffffffffffff1673ffffffffffffffffffffffffffffffffffffffff1673ffffffffffffffffffffffffffffffffffffffff168152602001600482015481526020016005820154815260200160068201548152602001600782015481526020016008820154815260200160098201548152602001600a8201548152602001600b82018054806020026020016040519081016040528092919081815260200182805480156122f157602002820191906000526020600020905b8154815260200190600101908083116122dd575b50505050508152602001600c820180548060200260200160405190810160405280929190818152602001828054801561237f57602002820191906000526020600020905b8160009054906101000a900473ffffffffffffffffffffffffffffffffffffffff1673ffffffffffffffffffffffffffffffffffffffff1681526020019060010190808311612335575b50505050508152602001600d820160009054906101000a900460ff16151515158152602001600d820160019054906101000a900460ff1660098111156123c157fe5b60098111156123cc57fe5b8152602001600d820160029054906101000a900460ff1660098111156123ee57fe5b60098111156123f957fe5b81525050905090565b6001828154811061240f57fe5b90600052602060002090600e020160030160009054906101000a900473ffffffffffffffffffffffffffffffffffffffff1673ffffffffffffffffffffffffffffffffffffffff163373ffffffffffffffffffffffffffffffffffffffff161461247857600080fd5b806001838154811061248657fe5b90600052602060002090600e0201600a018190555060018083815481106124a957fe5b90600052602060002090600e0201600d0160006101000a81548160ff0219169083151502179055507f4772d83d7289b527150ec81022e02e39b5b278f66492d7f0702903636f33396d828260405161250292919061590c565b60405180910390a15050565b60606003600083815260200190815260200160002060003373ffffffffffffffffffffffffffffffffffffffff1673ffffffffffffffffffffffffffffffffffffffff1681526020019081526020016000208054806020026020016040519081016040528092919081815260200182805480156125aa57602002820191906000526020600020905b815481526020019060010190808311612596575b50505050509050919050565b600260003373ffffffffffffffffffffffffffffffffffffffff1673ffffffffffffffffffffffffffffffffffffffff16815260200190815260200160002060030160009054906101000a900460ff16612645576040517f08c379a000000000000000000000000000000000000000000000000000000000815260040161263c9061579f565b60405180910390fd5b6000600180549050905060008451905060608167ffffffffffffffff8111801561266e57600080fd5b5060405190808252806020026020018201604052801561269d5781602001602082028036833780820191505090505b5090506000600180816001815401808255809150500390600052602060002090600e020190508c8160000190805190602001906126db9291906140fb565b50338160030160006101000a81548173ffffffffffffffffffffffffffffffffffffffff021916908373ffffffffffffffffffffffffffffffffffffffff1602179055508b81600401819055508a81600601819055508981600701819055508881600801819055508781600901819055508681600101908051906020019061276492919061417b565b508181600b01908051906020019061277d9291906141db565b5061278786613606565b81600d0160016101000a81548160ff021916908360098111156127a657fe5b02179055506127b485613945565b81600d0160026101000a81548160ff021916908360098111156127d357fe5b02179055507ffd9b824c32c4b314de8cc8632b170ef722e0fa61fcf35583a814356d916bc1fa848e6040516128099291906158dc565b60405180910390a1600260003373ffffffffffffffffffffffffffffffffffffffff1673ffffffffffffffffffffffffffffffffffffffff1681526020019081526020016000206000016000815480929190600101919050555050505050505050505050505050565b60008044426040516020016128889291906155ed565b6040516020818303038152906040528051906020012060001c905061271081816128ae57fe5b0691505090565b6000600182815481106128c457fe5b90600052602060002090600e0201600701544211159050919050565b816128ea816128b5565b612929576040517f08c379a0000000000000000000000000000000000000000000000000000000008152600401612920906157ff565b60405180910390fd5b60006129358484613c84565b905080612a88576001848154811061294957fe5b90600052602060002090600e0201600c01839080600181540180825580915050600190039060005260206000200160009091909190916101000a81548173ffffffffffffffffffffffffffffffffffffffff021916908373ffffffffffffffffffffffffffffffffffffffff160217905550600184815481106129c857fe5b90600052602060002090600e02016001018054905067ffffffffffffffff811180156129f357600080fd5b50604051908082528060200260200182016040528015612a225781602001602082028036833780820191505090505b506003600086815260200190815260200160002060003373ffffffffffffffffffffffffffffffffffffffff1673ffffffffffffffffffffffffffffffffffffffff1681526020019081526020016000209080519060200190612a869291906141db565b505b50505050565b60608060006060612a9d613d62565b809250819350505060608267ffffffffffffffff81118015612abe57600080fd5b50604051908082528060200260200182016040528015612af857816020015b612ae5614050565b815260200190600190039081612add5790505b50905060005b83811015612fcf576001838281518110612b1457fe5b602002602001015181548110612b2657fe5b90600052602060002090600e020160405180610200016040529081600082018054600181600116156101000203166002900480601f016020809104026020016040519081016040528092919081815260200182805460018160011615610100020316600290048015612bd95780601f10612bae57610100808354040283529160200191612bd9565b820191906000526020600020905b815481529060010190602001808311612bbc57829003601f168201915b5050505050815260200160018201805480602002602001604051908101604052809291908181526020016000905b82821015612cc3578382906000526020600020018054600181600116156101000203166002900480601f016020809104026020016040519081016040528092919081815260200182805460018160011615610100020316600290048015612caf5780601f10612c8457610100808354040283529160200191612caf565b820191906000526020600020905b815481529060010190602001808311612c9257829003601f168201915b505050505081526020019060010190612c07565b50505050815260200160028201805480602002602001604051908101604052809291908181526020016000905b82821015612dac578382906000526020600020018054600181600116156101000203166002900480601f016020809104026020016040519081016040528092919081815260200182805460018160011615610100020316600290048015612d985780601f10612d6d57610100808354040283529160200191612d98565b820191906000526020600020905b815481529060010190602001808311612d7b57829003601f168201915b505050505081526020019060010190612cf0565b5050505081526020016003820160009054906101000a900473ffffffffffffffffffffffffffffffffffffffff1673ffffffffffffffffffffffffffffffffffffffff1673ffffffffffffffffffffffffffffffffffffffff168152602001600482015481526020016005820154815260200160068201548152602001600782015481526020016008820154815260200160098201548152602001600a8201548152602001600b8201805480602002602001604051908101604052809291908181526020018280548015612e9f57602002820191906000526020600020905b815481526020019060010190808311612e8b575b50505050508152602001600c8201805480602002602001604051908101604052809291908181526020018280548015612f2d57602002820191906000526020600020905b8160009054906101000a900473ffffffffffffffffffffffffffffffffffffffff1673ffffffffffffffffffffffffffffffffffffffff1681526020019060010190808311612ee3575b50505050508152602001600d820160009054906101000a900460ff16151515158152602001600d820160019054906101000a900460ff166009811115612f6f57fe5b6009811115612f7a57fe5b8152602001600d820160029054906101000a900460ff166009811115612f9c57fe5b6009811115612fa757fe5b81525050828281518110612fb757fe5b60200260200101819052508080600101915050612afe565b508181945094505050509091565b600081831115612fef57819050612ff3565b8290505b92915050565b60008151111561301557613014828260006001855103613e10565b5b5050565b6000613023614050565b6001838154811061303057fe5b90600052602060002090600e020160405180610200016040529081600082018054600181600116156101000203166002900480601f0160208091040260200160405190810160405280929190818152602001828054600181600116156101000203166002900480156130e35780601f106130b8576101008083540402835291602001916130e3565b820191906000526020600020905b8154815290600101906020018083116130c657829003601f168201915b5050505050815260200160018201805480602002602001604051908101604052809291908181526020016000905b828210156131cd578382906000526020600020018054600181600116156101000203166002900480601f0160208091040260200160405190810160405280929190818152602001828054600181600116156101000203166002900480156131b95780601f1061318e576101008083540402835291602001916131b9565b820191906000526020600020905b81548152906001019060200180831161319c57829003601f168201915b505050505081526020019060010190613111565b50505050815260200160028201805480602002602001604051908101604052809291908181526020016000905b828210156132b6578382906000526020600020018054600181600116156101000203166002900480601f0160208091040260200160405190810160405280929190818152602001828054600181600116156101000203166002900480156132a25780601f10613277576101008083540402835291602001916132a2565b820191906000526020600020905b81548152906001019060200180831161328557829003601f168201915b5050505050815260200190600101906131fa565b5050505081526020016003820160009054906101000a900473ffffffffffffffffffffffffffffffffffffffff1673ffffffffffffffffffffffffffffffffffffffff1673ffffffffffffffffffffffffffffffffffffffff168152602001600482015481526020016005820154815260200160068201548152602001600782015481526020016008820154815260200160098201548152602001600a8201548152602001600b82018054806020026020016040519081016040528092919081815260200182805480156133a957602002820191906000526020600020905b815481526020019060010190808311613395575b50505050508152602001600c820180548060200260200160405190810160405280929190818152602001828054801561343757602002820191906000526020600020905b8160009054906101000a900473ffffffffffffffffffffffffffffffffffffffff1673ffffffffffffffffffffffffffffffffffffffff16815260200190600101908083116133ed575b50505050508152602001600d820160009054906101000a900460ff16151515158152602001600d820160019054906101000a900460ff16600981111561347957fe5b600981111561348457fe5b8152602001600d820160029054906101000a900460ff1660098111156134a657fe5b60098111156134b157fe5b8152505090503373ffffffffffffffffffffffffffffffffffffffff16816060015173ffffffffffffffffffffffffffffffffffffffff161480156134f95750428160e00151115b15613508576000915050613601565b3373ffffffffffffffffffffffffffffffffffffffff16816060015173ffffffffffffffffffffffffffffffffffffffff161415801561354b5750428160e00151115b1561355a576001915050613601565b3373ffffffffffffffffffffffffffffffffffffffff16816060015173ffffffffffffffffffffffffffffffffffffffff1614801561359d5750428160e0015111155b156135ac576002915050613601565b3373ffffffffffffffffffffffffffffffffffffffff16816060015173ffffffffffffffffffffffffffffffffffffffff16141580156135f05750428160e0015111155b156135ff576003915050613601565b505b919050565b600060405160200161361790615599565b604051602081830303815290604052805190602001208260405160200161363e919061545c565b6040516020818303038152906040528051906020012014156136635760019050613940565b60405160200161367290615506565b6040516020818303038152906040528051906020012082604051602001613699919061545c565b6040516020818303038152906040528051906020012014156136be5760029050613940565b6040516020016136cd906154f1565b60405160208183030381529060405280519060200120826040516020016136f4919061545c565b6040516020818303038152906040528051906020012014156137195760039050613940565b6040516020016137289061556f565b604051602081830303815290604052805190602001208260405160200161374f919061545c565b6040516020818303038152906040528051906020012014156137745760049050613940565b604051602001613783906155c3565b60405160208183030381529060405280519060200120826040516020016137aa919061545c565b6040516020818303038152906040528051906020012014156137cf5760059050613940565b6040516020016137de9061549d565b6040516020818303038152906040528051906020012082604051602001613805919061545c565b60405160208183030381529060405280519060200120141561382a5760069050613940565b604051602001613839906154c7565b6040516020818303038152906040528051906020012082604051602001613860919061545c565b6040516020818303038152906040528051906020012014156138855760079050613940565b60405160200161389490615584565b60405160208183030381529060405280519060200120826040516020016138bb919061545c565b6040516020818303038152906040528051906020012014156138e05760089050613940565b6040516020016138ef9061555a565b6040516020818303038152906040528051906020012082604051602001613916919061545c565b60405160208183030381529060405280519060200120141561393b5760099050613940565b600090505b919050565b6000604051602001613956906155ae565b604051602081830303815290604052805190602001208260405160200161397d919061545c565b6040516020818303038152906040528051906020012014156139a25760019050613c7f565b6040516020016139b19061551b565b60405160208183030381529060405280519060200120826040516020016139d8919061545c565b6040516020818303038152906040528051906020012014156139fd5760039050613c7f565b604051602001613a0c90615488565b6040516020818303038152906040528051906020012082604051602001613a33919061545c565b604051602081830303815290604052805190602001201415613a585760029050613c7f565b604051602001613a6790615530565b6040516020818303038152906040528051906020012082604051602001613a8e919061545c565b604051602081830303815290604052805190602001201415613ab35760049050613c7f565b604051602001613ac2906154b2565b6040516020818303038152906040528051906020012082604051602001613ae9919061545c565b604051602081830303815290604052805190602001201415613b0e5760059050613c7f565b604051602001613b1d90615473565b6040516020818303038152906040528051906020012082604051602001613b44919061545c565b604051602081830303815290604052805190602001201415613b695760069050613c7f565b604051602001613b78906155d8565b6040516020818303038152906040528051906020012082604051602001613b9f919061545c565b604051602081830303815290604052805190602001201415613bc45760079050613c7f565b604051602001613bd390615545565b6040516020818303038152906040528051906020012082604051602001613bfa919061545c565b604051602081830303815290604052805190602001201415613c1f5760089050613c7f565b604051602001613c2e906154dc565b6040516020818303038152906040528051906020012082604051602001613c55919061545c565b604051602081830303815290604052805190602001201415613c7a5760099050613c7f565b600090505b919050565b60008060018481548110613c9457fe5b90600052602060002090600e0201600c0180549050905060005b81811015613d55578373ffffffffffffffffffffffffffffffffffffffff1660018681548110613cda57fe5b90600052602060002090600e0201600c018281548110613cf657fe5b9060005260206000200160009054906101000a900473ffffffffffffffffffffffffffffffffffffffff1673ffffffffffffffffffffffffffffffffffffffff161415613d4857600192505050613d5c565b8080600101915050613cae565b5060009150505b92915050565b600060608060018054905067ffffffffffffffff81118015613d8357600080fd5b50604051908082528060200260200182016040528015613db25781602001602082028036833780820191505090505b5090506000805b600180549050811015613e0357613dcf816128b5565b15613df65780838381518110613de157fe5b60200260200101818152505081806001019250505b8080600101915050613db9565b5080829350935050509091565b60008290506000829050808210613e28575050613fb5565b613e30614050565b85600285870181613e3d57fe5b0481518110613e4857fe5b602002602001015190505b818311613f87575b613e78868481518110613e6a57fe5b602002602001015182613fbb565b15613e8a578280600101935050613e5b565b5b613ea881878481518110613e9b57fe5b6020026020010151613fbb565b15613ebb57818060019003925050613e8b565b818311613f8257858281518110613ece57fe5b6020026020010151868481518110613ee257fe5b6020026020010151878581518110613ef657fe5b60200260200101888581518110613f0957fe5b602002602001018290528290525050868281518110613f2457fe5b6020026020010151878481518110613f3857fe5b6020026020010151888581518110613f4c57fe5b60200260200101898581518110613f5f57fe5b602002602001018281525082815250505082806001019350508180600190039250505b613e53565b81851015613f9c57613f9b87878785613e10565b5b83831015613fb157613fb087878587613e10565b5b5050505b50505050565b600081610180015151836101800151511115613fda5760019050614005565b81610180015151836101800151511415614000578160a001518360a00151119050614005565b600090505b92915050565b6040518060c001604052806000815260200160008152602001600081526020016000151581526020016000151581526020016000600781111561404a57fe5b81525090565b604051806102000160405280606081526020016060815260200160608152602001600073ffffffffffffffffffffffffffffffffffffffff168152602001600081526020016000815260200160008152602001600081526020016000815260200160008152602001600081526020016060815260200160608152602001600015158152602001600060098111156140e357fe5b8152602001600060098111156140f557fe5b81525090565b828054600181600116156101000203166002900490600052602060002090601f016020900481019282601f1061413c57805160ff191683800117855561416a565b8280016001018555821561416a579182015b8281111561416957825182559160200191906001019061414e565b5b5090506141779190614228565b5090565b8280548282559060005260206000209081019282156141ca579160200282015b828111156141c95782518290805190602001906141b99291906140fb565b509160200191906001019061419b565b5b5090506141d79190614245565b5090565b828054828255906000526020600020908101928215614217579160200282015b828111156142165782518255916020019190600101906141fb565b5b5090506142249190614228565b5090565b5b80821115614241576000816000905550600101614229565b5090565b5b80821115614265576000818161425c9190614269565b50600101614246565b5090565b50805460018160011615610100020316600290046000825580601f1061428f57506142ae565b601f0160209004906000526020600020908101906142ad9190614228565b5b50565b600082601f8301126142c257600080fd5b81356142d56142d082615962565b615935565b9150818183526020840193506020810190508360005b8381101561431b57813586016143018882614325565b8452602084019350602083019250506001810190506142eb565b5050505092915050565b600082601f83011261433657600080fd5b81356143496143448261598a565b615935565b9150808252602083016020830185838301111561436557600080fd5b614370838284615c3f565b50505092915050565b60008135905061438881615cd0565b92915050565b60008060008060008060008060006101208a8c0312156143ad57600080fd5b60008a013567ffffffffffffffff8111156143c757600080fd5b6143d38c828d01614325565b99505060206143e48c828d01614379565b98505060406143f58c828d01614379565b97505060606144068c828d01614379565b96505060806144178c828d01614379565b95505060a06144288c828d01614379565b94505060c08a013567ffffffffffffffff81111561444557600080fd5b6144518c828d016142b1565b93505060e08a013567ffffffffffffffff81111561446e57600080fd5b61447a8c828d01614325565b9250506101008a013567ffffffffffffffff81111561449857600080fd5b6144a48c828d01614325565b9150509295985092959850929598565b6000602082840312156144c657600080fd5b60006144d484828501614379565b91505092915050565b600080604083850312156144f057600080fd5b60006144fe85828601614379565b925050602083013567ffffffffffffffff81111561451b57600080fd5b61452785828601614325565b9150509250929050565b6000806040838503121561454457600080fd5b600061455285828601614379565b925050602061456385828601614379565b9150509250929050565b60008060006060848603121561458257600080fd5b600061459086828701614379565b93505060206145a186828701614379565b92505060406145b286828701614379565b9150509250925092565b60006145c8838361463b565b60208301905092915050565b60006145e0838361496c565b60208301905092915050565b60006145f8838361497b565b905092915050565b600061460c83836150c4565b905092915050565b60006146208383615427565b60208301905092915050565b61463581615bc1565b82525050565b61464481615b2d565b82525050565b600061465582615a06565b61465f8185615a89565b935061466a836159b6565b8060005b8381101561469b57815161468288826145bc565b975061468d83615a48565b92505060018101905061466e565b5085935050505092915050565b60006146b382615a11565b6146bd8185615aef565b93506146c8836159c6565b8060005b838110156146f95781516146e088826145d4565b97506146eb83615a55565b9250506001810190506146cc565b5085935050505092915050565b600061471182615a1c565b61471b8185615a9a565b93508360208202850161472d856159d6565b8060005b85811015614769578484038952815161474a85826145ec565b945061475583615a62565b925060208a01995050600181019050614731565b50829750879550505050505092915050565b600061478682615a1c565b6147908185615aab565b9350836020820285016147a2856159d6565b8060005b858110156147de57848403895281516147bf85826145ec565b94506147ca83615a62565b925060208a019950506001810190506147a6565b50829750879550505050505092915050565b60006147fb82615a27565b6148058185615abc565b935083602082028501614817856159e6565b8060005b8581101561485357848403895281516148348582614600565b945061483f83615a6f565b925060208a0199505060018101905061481b565b50829750879550505050505092915050565b600061487082615a32565b61487a8185615acd565b9350614885836159f6565b8060005b838110156148b657815161489d8882614614565b97506148a883615a7c565b925050600181019050614889565b5085935050505092915050565b60006148ce82615a32565b6148d88185615ade565b93506148e3836159f6565b8060005b838110156149145781516148fb8882614614565b975061490683615a7c565b9250506001810190506148e7565b5085935050505092915050565b61492a81615b3f565b82525050565b61493981615bd3565b82525050565b61494881615be5565b82525050565b61495781615bf7565b82525050565b61496681615bf7565b82525050565b61497581615c09565b82525050565b600061498682615a3d565b6149908185615b00565b93506149a0818560208601615c4e565b6149a981615c8b565b840191505092915050565b60006149bf82615a3d565b6149c98185615b11565b93506149d9818560208601615c4e565b6149e281615c8b565b840191505092915050565b60006149f882615a3d565b614a028185615b22565b9350614a12818560208601615c4e565b80840191505092915050565b6000614a2b602183615b11565b91507f596f7520617265206e6f7420616c6c6f77656420746f2067657420526577617260008301527f64000000000000000000000000000000000000000000000000000000000000006020830152604082019050919050565b6000614a91600383615b22565b91507f41727400000000000000000000000000000000000000000000000000000000006000830152600382019050919050565b6000614ad1600883615b22565b91507f506f6c69746963730000000000000000000000000000000000000000000000006000830152600882019050919050565b6000614b11600583615b22565b91507f4b6f7265610000000000000000000000000000000000000000000000000000006000830152600582019050919050565b6000614b51600483615b22565b91507f4d656d65000000000000000000000000000000000000000000000000000000006000830152600482019050919050565b6000614b91600683615b22565b91507f43616e61646100000000000000000000000000000000000000000000000000006000830152600682019050919050565b6000614bd1600483615b22565b91507f54656368000000000000000000000000000000000000000000000000000000006000830152600482019050919050565b6000614c11601b83615b11565b91507f4e6f7420656e6f756768206d6f6e657920746f207365742056495000000000006000830152602082019050919050565b6000614c51600383615b22565b91507f55534100000000000000000000000000000000000000000000000000000000006000830152600382019050919050565b6000614c91601083615b11565b91507f4e6f7420456e6f756768204d6f6e6579000000000000000000000000000000006000830152602082019050919050565b6000614cd1601183615b11565b91507f596f7520617265206e6f742056495021210000000000000000000000000000006000830152602082019050919050565b6000614d11600583615b22565b91507f4368696e610000000000000000000000000000000000000000000000000000006000830152600582019050919050565b6000614d51600683615b22565b91507f53706f72747300000000000000000000000000000000000000000000000000006000830152600682019050919050565b6000614d91600583615b22565b91507f4d757369630000000000000000000000000000000000000000000000000000006000830152600582019050919050565b6000614dd1601083615b11565b91507f4265742074696d65206973206f766572000000000000000000000000000000006000830152602082019050919050565b6000614e11601883615b11565b91507f4e6f7420656e6f756768206d6f6e657920746f207370696e00000000000000006000830152602082019050919050565b6000614e51600f83615b11565b91507f42657420686173206578706972656400000000000000000000000000000000006000830152602082019050919050565b6000614e91601183615b11565b91507f546f6f206d756368206d6f6e65792121210000000000000000000000000000006000830152602082019050919050565b6000614ed1600683615b22565b91507f5363686f6f6c00000000000000000000000000000000000000000000000000006000830152600682019050919050565b6000614f11600583615b22565b91507f4974616c790000000000000000000000000000000000000000000000000000006000830152600582019050919050565b6000614f51600283615b22565b91507f554b0000000000000000000000000000000000000000000000000000000000006000830152600282019050919050565b6000614f91600583615b22565b91507f45677970740000000000000000000000000000000000000000000000000000006000830152600582019050919050565b6000614fd1600683615b22565b91507f54616977616e00000000000000000000000000000000000000000000000000006000830152600682019050919050565b6000615011600483615b22565b91507f4e657773000000000000000000000000000000000000000000000000000000006000830152600482019050919050565b6000615051600583615b22565b91507f4a6170616e0000000000000000000000000000000000000000000000000000006000830152600582019050919050565b6000615091600783615b22565b91507f426974636f696e000000000000000000000000000000000000000000000000006000830152600782019050919050565b60006102008301600083015184820360008601526150e2828261497b565b915050602083015184820360208601526150fc8282614706565b915050604083015184820360408601526151168282614706565b915050606083015161512b606086018261463b565b50608083015161513e6080860182615427565b5060a083015161515160a0860182615427565b5060c083015161516460c0860182615427565b5060e083015161517760e0860182615427565b5061010083015161518c610100860182615427565b506101208301516151a1610120860182615427565b506101408301516151b6610140860182615427565b506101608301518482036101608601526151d08282614865565b9150506101808301518482036101808601526151ec828261464a565b9150506101a08301516152036101a0860182614921565b506101c08301516152186101c086018261493f565b506101e083015161522d6101e0860182614930565b508091505092915050565b6000610200830160008301518482036000860152615256828261497b565b915050602083015184820360208601526152708282614706565b9150506040830151848203604086015261528a8282614706565b915050606083015161529f606086018261463b565b5060808301516152b26080860182615427565b5060a08301516152c560a0860182615427565b5060c08301516152d860c0860182615427565b5060e08301516152eb60e0860182615427565b50610100830151615300610100860182615427565b50610120830151615315610120860182615427565b5061014083015161532a610140860182615427565b506101608301518482036101608601526153448282614865565b915050610180830151848203610180860152615360828261464a565b9150506101a08301516153776101a0860182614921565b506101c083015161538c6101c086018261493f565b506101e08301516153a16101e0860182614930565b508091505092915050565b60c0820160008201516153c26000850182615427565b5060208201516153d56020850182615427565b5060408201516153e86040850182615427565b5060608201516153fb6060850182614921565b50608082015161540e6080850182614921565b5060a082015161542160a085018261494e565b50505050565b61543081615bb7565b82525050565b61543f81615bb7565b82525050565b61545661545182615bb7565b615c81565b82525050565b600061546882846149ed565b915081905092915050565b600061547e82614a84565b9150819050919050565b600061549382614ac4565b9150819050919050565b60006154a882614b04565b9150819050919050565b60006154bd82614b44565b9150819050919050565b60006154d282614b84565b9150819050919050565b60006154e782614bc4565b9150819050919050565b60006154fc82614c44565b9150819050919050565b600061551182614d04565b9150819050919050565b600061552682614d44565b9150819050919050565b600061553b82614d84565b9150819050919050565b600061555082614ec4565b9150819050919050565b600061556582614f04565b9150819050919050565b600061557a82614f44565b9150819050919050565b600061558f82614f84565b9150819050919050565b60006155a482614fc4565b9150819050919050565b60006155b982615004565b9150819050919050565b60006155ce82615044565b9150819050919050565b60006155e382615084565b9150819050919050565b60006155f98285615445565b6020820191506156098284615445565b6020820191508190509392505050565b600060208201905061562e600083018461462c565b92915050565b6000604082019050615649600083018561462c565b6156566020830184615436565b9392505050565b60006020820190508181036000830152615677818461477b565b905092915050565b6000602082019050818103600083015261569981846148c3565b905092915050565b600060408201905081810360008301526156bb81856148c3565b905081810360208301526156cf81846147f0565b90509392505050565b600060608201905081810360008301526156f281866148c3565b9050818103602083015261570681856147f0565b9050818103604083015261571a81846146a8565b9050949350505050565b6000602082019050615739600083018461495d565b92915050565b6000602082019050818103600083015261575881614a1e565b9050919050565b6000602082019050818103600083015261577881614c04565b9050919050565b6000602082019050818103600083015261579881614c84565b9050919050565b600060208201905081810360008301526157b881614cc4565b9050919050565b600060208201905081810360008301526157d881614dc4565b9050919050565b600060208201905081810360008301526157f881614e04565b9050919050565b6000602082019050818103600083015261581881614e44565b9050919050565b6000602082019050818103600083015261583881614e84565b9050919050565b600060208201905081810360008301526158598184615238565b905092915050565b600060c08201905061587660008301846153ac565b92915050565b60006020820190506158916000830184615436565b92915050565b60006080820190506158ac6000830187615436565b6158b9602083018661462c565b6158c66040830185615436565b6158d36060830184615436565b95945050505050565b60006040820190506158f16000830185615436565b818103602083015261590381846149b4565b90509392505050565b60006040820190506159216000830185615436565b61592e6020830184615436565b9392505050565b6000604051905081810181811067ffffffffffffffff8211171561595857600080fd5b8060405250919050565b600067ffffffffffffffff82111561597957600080fd5b602082029050602081019050919050565b600067ffffffffffffffff8211156159a157600080fd5b601f19601f8301169050602081019050919050565b6000819050602082019050919050565b6000819050602082019050919050565b6000819050602082019050919050565b6000819050602082019050919050565b6000819050602082019050919050565b600081519050919050565b600081519050919050565b600081519050919050565b600081519050919050565b600081519050919050565b600081519050919050565b6000602082019050919050565b6000602082019050919050565b6000602082019050919050565b6000602082019050919050565b6000602082019050919050565b600082825260208201905092915050565b600082825260208201905092915050565b600082825260208201905092915050565b600082825260208201905092915050565b600082825260208201905092915050565b600082825260208201905092915050565b600082825260208201905092915050565b600082825260208201905092915050565b600082825260208201905092915050565b600081905092915050565b6000615b3882615b97565b9050919050565b60008115159050919050565b6000819050615b5982615c9c565b919050565b6000819050615b6c82615ca9565b919050565b6000819050615b7f82615cb6565b919050565b6000819050615b9282615cc3565b919050565b600073ffffffffffffffffffffffffffffffffffffffff82169050919050565b6000819050919050565b6000615bcc82615c1b565b9050919050565b6000615bde82615b4b565b9050919050565b6000615bf082615b5e565b9050919050565b6000615c0282615b71565b9050919050565b6000615c1482615b84565b9050919050565b6000615c2682615c2d565b9050919050565b6000615c3882615b97565b9050919050565b82818337600083830152505050565b60005b83811015615c6c578082015181840152602081019050615c51565b83811115615c7b576000848401525b50505050565b6000819050919050565b6000601f19601f8301169050919050565b600a8110615ca657fe5b50565b600a8110615cb357fe5b50565b60088110615cc057fe5b50565b60048110615ccd57fe5b50565b615cd981615bb7565b8114615ce457600080fd5b5056fea2646970667358221220420983f0522d64885a5170946f942143b5abfbe741f042250f034f28799a38f564736f6c634300060c0033",
  "immutableReferences": {},
  "source": "pragma solidity >=0.6.0 <0.8.0;\npragma experimental ABIEncoderV2;\n\ncontract OnlineBetting {\n\n    //constants\n    uint constant SMALLEST_FEE = 0.001 ether;\n    uint constant PERCENTAGE_FEE = 0.00001 ether;\n\n    //events\n    event BetAdded(uint betId, string title);  //emit when\n    event MoneyAdded(uint betId, address adder, uint choice, uint amount);\n    event AnswerSet(uint betId, uint choice);\n    event MoneyGiven(address receiver, uint amount);\n    event SetVIP(address member);\n    event AddComment(uint betId, string comment);\n\n    //Enums\n    enum Status{ OwnAvailable, OtherAvailable, OwnExpire, OtherExpire }\n    enum Region{ Other, Taiwan, China, USA, UK, Japan, Korea, Canada, Egypt, Italy }\n    enum Genre{ Other, News, Politics, Sports, Music, Meme, Art, Bitcoin, School, Tech }\n    enum Reward{ Sorry, ByeBye, haha_10, haha_20, haha_50, haha_100, haha_200, Jackpot}\n\n    //Bet\n    struct Bet {\n        string title;\n        string[] choices;\n        string[] comments;\n        address owner;\n        uint lowerBound;\n        uint currentAmount;\n        uint upperBound;\n        uint publishTime;\n        uint lastBetTime;\n        uint distributeTime;\n        uint answer;\n        uint[] currentChoices;\n        address[] voter;\n        bool isAnswerSet;\n        Region region;\n        Genre genre;\n    }\n\n    struct MemberView {\n        uint betsConstructed;\n        uint moneyAdded;\n        uint howard;\n        bool isVIP;\n        bool canGetReward;\n        Reward reward;\n    }\n\n    constructor() public {\n        jackpotAmount = 0;\n    }\n\n    //Bet list\n    uint jackpotAmount;\n    Bet[] bets;\n    mapping (address => MemberView) members;\n    mapping (uint => mapping (address => uint[])) voterChoice;\n\n    //Modifiers\n    //Valid bet modifier\n    modifier isValidId(uint _id) {\n        require(_isIdValid(_id), \"Bet has expired\");\n        _;\n    }\n\n    //Valid amount\n    modifier isValidAmount(uint _id, uint _amount) {\n        require(bets[_id].currentAmount + _amount <= bets[_id].upperBound, \"Too much money!!!\");\n        _;\n    }\n\n    //functions\n    //Add bet to bets\n    function addBet(\n        string memory _title, \n        uint _lowerBound, \n        uint _upperBound, \n        uint _publishTime, \n        uint _lastBetTime, \n        uint _distributeTime,\n        string[] memory _choices, \n        string memory _region, \n        string memory _genre\n    ) public {\n        require(members[msg.sender].isVIP, \"You are not VIP!!\");\n        uint betId = bets.length;\n        uint choiceLength = _choices.length;\n        uint[] memory currentChoices = new uint[](choiceLength);\n        Bet storage bet = bets.push();\n        bet.title = _title;\n        bet.owner = msg.sender;\n        bet.lowerBound = _lowerBound;\n        bet.upperBound = _upperBound;\n        bet.publishTime = _publishTime;\n        bet.lastBetTime = _lastBetTime;\n        bet.distributeTime = _distributeTime;\n        bet.choices = _choices;\n        bet.currentChoices = currentChoices;\n        bet.region = _str2Region(_region);\n        bet.genre = _str2Genre(_genre);\n        emit BetAdded(betId, _title);\n        members[msg.sender].betsConstructed++;\n    }\n\n    function setVIP() public payable {\n        require(msg.value == 0.5 ether, \"Not enough money to set VIP\");\n        members[msg.sender].isVIP = true;\n        emit SetVIP(msg.sender);\n    }\n\n    function addMoney(uint _id, uint _choice, uint _amount) public payable isValidId(_id) isValidAmount(_id, _amount) {\n        //require(bets[_id].owner != msg.sender, \"Cannot add money to your own bets.\");\n        require(msg.value == _amount*SMALLEST_FEE, \"Not Enough Money\");\n        require(now <= bets[_id].lastBetTime, \"Bet time is over\");\n        bets[_id].currentAmount += _amount;\n        bets[_id].currentChoices[_choice] += _amount;\n        _addressInit(_id, msg.sender);\n        voterChoice[_id][msg.sender][_choice] += _amount;\n        emit MoneyAdded(_id, msg.sender, _choice, _amount);\n        members[msg.sender].moneyAdded += _amount;\n    }\n    \n    function setAnswer(uint _id, uint _answer) public {\n        require(msg.sender == bets[_id].owner);\n        bets[_id].answer = _answer;\n        bets[_id].isAnswerSet = true;\n        emit AnswerSet(_id, _answer);\n    }\n\n    function distributeMoney(uint _id) public payable {\n        require(msg.sender == bets[_id].owner);\n        if(bets[_id].isAnswerSet) {\n            uint creatorReward = uint(bets[_id].currentAmount*5);\n            uint otherReward = uint(bets[_id].currentAmount*90);\n            uint numVoters = bets[_id].voter.length;\n            uint answer = bets[_id].answer;\n\n            address payable receiver = msg.sender;\n            receiver.transfer(creatorReward * PERCENTAGE_FEE);\n            emit MoneyGiven(receiver, creatorReward);\n            for(uint i = 0; i < numVoters; i++) {\n                receiver = payable(bets[_id].voter[i]);\n                receiver.transfer(otherReward * PERCENTAGE_FEE * voterChoice[_id][receiver][answer] / bets[_id].currentChoices[answer]);\n                emit MoneyGiven(receiver, otherReward * voterChoice[_id][receiver][answer] / bets[_id].currentChoices[answer]);\n            }\n        }\n        else {\n            address payable receiver;\n            uint numVoters = bets[_id].voter.length;\n            uint numChoices = bets[_id].choices.length;\n            for(uint i = 0; i < numVoters; i++) {\n                receiver = payable(bets[_id].voter[i]);\n                for(uint j = 0; j < numChoices; j++) {\n                    receiver.transfer(voterChoice[_id][receiver][j] * SMALLEST_FEE);\n                    emit MoneyGiven(receiver, voterChoice[_id][receiver][j]);\n                }\n            }\n        }\n    }\n\n    function addComment(uint _id, string memory _comment) public {\n        bets[_id].comments.push(_comment);\n        emit AddComment(_id, _comment);\n    }\n\n    function spinWheel() public payable {\n        require(msg.value == 0.1 ether, \"Not enough money to spin\");\n        jackpotAmount += 100;\n        uint howard = _rng();\n        members[msg.sender].howard = howard;\n        members[msg.sender].canGetReward = false;\n        if(howard == 0) {\n            msg.sender.transfer(jackpotAmount);\n            jackpotAmount = 0;\n            members[msg.sender].reward = Reward.Jackpot;\n        }\n        if(howard > 0 && howard <= 500) {\n            msg.sender.transfer(jackpotAmount);\n            jackpotAmount -= 200;\n            members[msg.sender].reward = Reward.haha_200;\n        }\n        if(howard > 500 && howard <= 1000) {\n            msg.sender.transfer(jackpotAmount);\n            jackpotAmount -= 100;\n            members[msg.sender].reward = Reward.haha_100;\n        }\n        if(howard > 1000 && howard <= 2000) {\n            msg.sender.transfer(jackpotAmount);\n            jackpotAmount -= 50;\n            members[msg.sender].reward = Reward.haha_50;\n        }\n        if(howard > 2000 && howard <= 3000) {\n            msg.sender.transfer(jackpotAmount);\n            jackpotAmount -= 20;\n            members[msg.sender].reward = Reward.haha_20;\n        }\n        if(howard > 3000 && howard <= 4000) {\n            msg.sender.transfer(jackpotAmount);\n            jackpotAmount -= 10;\n            members[msg.sender].reward = Reward.haha_10;\n        }\n        if(howard > 4000 && howard <= 7000) {\n            msg.sender.transfer(jackpotAmount);\n            jackpotAmount += 100;\n            members[msg.sender].reward = Reward.Sorry;\n        }\n        if(howard > 7000) {\n            msg.sender.transfer(jackpotAmount);\n            jackpotAmount += 100;\n            members[msg.sender].reward = Reward.ByeBye;\n        }\n        members[msg.sender].canGetReward = true;\n    }\n\n    function getLastBet() public view returns(Bet memory) {\n        return bets[bets.length-1];\n    }\n\n    function getBets() public view returns(uint[] memory, Bet[] memory, Status[] memory) {\n        uint[] memory ids = new uint[](bets.length);\n        Status[] memory statuses = new Status[](bets.length);\n        for(uint i = 0; i < bets.length; i++) {\n            ids[i] = i;\n            statuses[i] = _getStatus(i);\n        }\n        return (ids, bets, statuses);\n    }\n\n    function getHotBets() public view returns(uint[] memory, Bet[] memory) {\n        uint[] memory ids;\n        Bet[] memory validBets;\n        (ids, validBets) = _getValidBets();\n        Bet[] memory hotBets = new Bet[](_min(10, validBets.length));\n        _sortBets(ids, validBets);\n        for(uint i = 0; i < _min(10, validBets.length); ++i) {\n            hotBets[i] = validBets[i];\n        }\n        return (ids, hotBets);\n    }\n\n    function getVoterChoices(uint _id) public view returns(uint[] memory) {\n        return voterChoice[_id][msg.sender];\n    }\n\n    function getComments(uint _id) public view returns(string[] memory) {\n        return bets[_id].comments;\n    }\n\n    function getMemberView() public view returns(MemberView memory) {\n        return members[msg.sender];\n    }\n\n    function getJackpot() public view returns(uint) {\n        return jackpotAmount;\n    }\n\n    function getReward() public view returns(Reward) {\n        require(members[msg.sender].canGetReward, \"You are not allowed to get Reward\");\n        return members[msg.sender].reward;\n    }\n\n    function _getValidBets() internal view returns(uint[] memory, Bet[] memory) {\n        uint count;\n        uint[] memory ids;\n        (count, ids) = _getValidIds();\n        Bet[] memory validBets = new Bet[](count);\n        for(uint i = 0; i < count; i++) {\n            validBets[i] = bets[ids[i]];\n        }\n        return (ids, validBets);\n    }\n\n    function _getValidIds() internal view returns(uint, uint[] memory) {\n        uint[] memory validIds = new uint[](bets.length);\n        uint count = 0;\n        for(uint i = 0; i < bets.length; i++) {\n            if(_isIdValid(i)) {\n                validIds[count] = i;\n                count++;\n            }\n        }\n        return (count, validIds);\n    }\n\n    function _isIdValid(uint _id) internal view returns(bool) {\n        return (now <= bets[_id].publishTime);\n    }\n\n    function _hasBet(uint _id, address _better) internal view returns(bool) {\n        uint len = bets[_id].voter.length;\n        for(uint i = 0; i < len; i++) {\n            if(bets[_id].voter[i] == _better) return true;\n        }\n        return false;\n    }\n\n    function _addressInit(uint _id, address _better) internal isValidId(_id) {\n        bool isInit = _hasBet(_id, _better);\n        if(!isInit) {\n            bets[_id].voter.push(_better);\n            voterChoice[_id][msg.sender] = new uint[](bets[_id].choices.length);\n        }\n    }\n\n    function _str2Region(string memory _region) internal pure returns(Region) {\n        if(keccak256(abi.encodePacked(_region)) == keccak256(abi.encodePacked(\"Taiwan\"))) return Region.Taiwan;\n        if(keccak256(abi.encodePacked(_region)) == keccak256(abi.encodePacked(\"China\"))) return Region.China;\n        if(keccak256(abi.encodePacked(_region)) == keccak256(abi.encodePacked(\"USA\"))) return Region.USA;\n        if(keccak256(abi.encodePacked(_region)) == keccak256(abi.encodePacked(\"UK\"))) return Region.UK;\n        if(keccak256(abi.encodePacked(_region)) == keccak256(abi.encodePacked(\"Japan\"))) return Region.Japan;\n        if(keccak256(abi.encodePacked(_region)) == keccak256(abi.encodePacked(\"Korea\"))) return Region.Korea;\n        if(keccak256(abi.encodePacked(_region)) == keccak256(abi.encodePacked(\"Canada\"))) return Region.Canada;\n        if(keccak256(abi.encodePacked(_region)) == keccak256(abi.encodePacked(\"Egypt\"))) return Region.Egypt;\n        if(keccak256(abi.encodePacked(_region)) == keccak256(abi.encodePacked(\"Italy\"))) return Region.Italy;\n        else return Region.Other;\n    }\n\n    function _str2Genre(string memory _genre) internal pure returns(Genre) {\n        if(keccak256(abi.encodePacked(_genre)) == keccak256(abi.encodePacked(\"News\"))) return Genre.News;\n        if(keccak256(abi.encodePacked(_genre)) == keccak256(abi.encodePacked(\"Sports\"))) return Genre.Sports;\n        if(keccak256(abi.encodePacked(_genre)) == keccak256(abi.encodePacked(\"Politics\"))) return Genre.Politics;\n        if(keccak256(abi.encodePacked(_genre)) == keccak256(abi.encodePacked(\"Music\"))) return Genre.Music;\n        if(keccak256(abi.encodePacked(_genre)) == keccak256(abi.encodePacked(\"Meme\"))) return Genre.Meme;\n        if(keccak256(abi.encodePacked(_genre)) == keccak256(abi.encodePacked(\"Art\"))) return Genre.Art;\n        if(keccak256(abi.encodePacked(_genre)) == keccak256(abi.encodePacked(\"Bitcoin\"))) return Genre.Bitcoin;\n        if(keccak256(abi.encodePacked(_genre)) == keccak256(abi.encodePacked(\"School\"))) return Genre.School;\n        if(keccak256(abi.encodePacked(_genre)) == keccak256(abi.encodePacked(\"Tech\"))) return Genre.Tech;\n        return Genre.Other;\n    }\n\n    function _sortBets(uint[] memory ids, Bet[] memory _bets) internal pure {\n        if(_bets.length > 0) _quickSort(ids, _bets, 0, _bets.length-1);\n    }\n\n    function _quickSort(uint[] memory ids, Bet[] memory _bets, uint _init, uint _end) internal pure {\n        uint i = _init;\n        uint j = _end;\n        if(i >= j) return;\n        Bet memory pivot = _bets[(_init+_end )/ 2];\n        while (i <= j) {\n            while (_isLargerThan(_bets[i], pivot)) i++;\n            while (_isLargerThan(pivot, _bets[j])) j--;\n            if (i <= j) {\n                (_bets[i], _bets[j]) = (_bets[j], _bets[i]);\n                (ids[i], ids[j]) = (ids[j], ids[i]);\n                i++;\n                j--;\n            }\n        }\n        if (_init < j)\n            _quickSort(ids, _bets, _init, j);\n        if (i < _end)\n            _quickSort(ids, _bets, i, _end);\n    }\n\n    function _isLargerThan(Bet memory _bet1, Bet memory _bet2) internal pure returns(bool) {\n        if(_bet1.voter.length > _bet2.voter.length) return true;\n        else if(_bet1.voter.length == _bet2.voter.length) return _bet1.currentAmount > _bet2.currentAmount;\n        else return false;\n    }\n\n    function _min(uint a, uint b) internal pure returns(uint) {\n        if(a > b) return b;\n        else return a;\n    }\n\n    function _getStatus(uint _id) internal view returns(Status) {\n        Bet memory bet = bets[_id];\n        if(bet.owner == msg.sender && bet.publishTime > now) return Status.OwnAvailable;\n        else if(bet.owner != msg.sender && bet.publishTime > now) return Status.OtherAvailable;\n        else if(bet.owner == msg.sender && bet.publishTime <= now) return Status.OwnExpire;\n        else if(bet.owner != msg.sender && bet.publishTime <= now) return Status.OtherExpire;\n    }\n\n    function _rng() internal view returns(uint) {\n        uint random = uint(keccak256(abi.encodePacked(block.difficulty, now)));\n        return random%10000;\n    }\n}",
  "sourcePath": "/Users/peterlin/OnlineBetting/ethereum/contracts/OnlineBetting.sol",
  "compiler": {
    "name": "solc",
    "version": "0.6.12+commit.27d51765.Emscripten.clang"
  },
  "schemaVersion": "3.4.0",
  "updatedAt": "2021-06-26T15:43:37.580Z",
  "networkType": "ethereum",
  "devdoc": {
    "kind": "dev",
    "methods": {},
    "version": 1
  },
  "userdoc": {
    "kind": "user",
    "methods": {},
    "version": 1
  }
}