{
  "contractName": "OnlineBetting",
  "abi": [
    {
      "inputs": [],
      "stateMutability": "nonpayable",
      "type": "constructor"
    },
    {
      "anonymous": false,
      "inputs": [
        {
          "indexed": false,
          "internalType": "uint256",
          "name": "betId",
          "type": "uint256"
        },
        {
          "indexed": false,
          "internalType": "string",
          "name": "comment",
          "type": "string"
        }
      ],
      "name": "AddComment",
      "type": "event"
    },
    {
      "anonymous": false,
      "inputs": [
        {
          "indexed": false,
          "internalType": "uint256",
          "name": "betId",
          "type": "uint256"
        },
        {
          "indexed": false,
          "internalType": "uint256",
          "name": "choice",
          "type": "uint256"
        }
      ],
      "name": "AnswerSet",
      "type": "event"
    },
    {
      "anonymous": false,
      "inputs": [
        {
          "indexed": false,
          "internalType": "uint256",
          "name": "betId",
          "type": "uint256"
        },
        {
          "indexed": false,
          "internalType": "string",
          "name": "title",
          "type": "string"
        }
      ],
      "name": "BetAdded",
      "type": "event"
    },
    {
      "anonymous": false,
      "inputs": [
        {
          "indexed": false,
          "internalType": "uint256",
          "name": "betId",
          "type": "uint256"
        },
        {
          "indexed": false,
          "internalType": "address",
          "name": "adder",
          "type": "address"
        },
        {
          "indexed": false,
          "internalType": "uint256",
          "name": "choice",
          "type": "uint256"
        },
        {
          "indexed": false,
          "internalType": "uint256",
          "name": "amount",
          "type": "uint256"
        }
      ],
      "name": "MoneyAdded",
      "type": "event"
    },
    {
      "anonymous": false,
      "inputs": [
        {
          "indexed": false,
          "internalType": "address",
          "name": "receiver",
          "type": "address"
        },
        {
          "indexed": false,
          "internalType": "uint256",
          "name": "amount",
          "type": "uint256"
        }
      ],
      "name": "MoneyGiven",
      "type": "event"
    },
    {
      "anonymous": false,
      "inputs": [
        {
          "indexed": false,
          "internalType": "address",
          "name": "member",
          "type": "address"
        }
      ],
      "name": "SetVIP",
      "type": "event"
    },
    {
      "inputs": [
        {
          "internalType": "string",
          "name": "_title",
          "type": "string"
        },
        {
          "internalType": "uint256",
          "name": "_lowerBound",
          "type": "uint256"
        },
        {
          "internalType": "uint256",
          "name": "_upperBound",
          "type": "uint256"
        },
        {
          "internalType": "uint256",
          "name": "_publishTime",
          "type": "uint256"
        },
        {
          "internalType": "uint256",
          "name": "_lastBetTime",
          "type": "uint256"
        },
        {
          "internalType": "uint256",
          "name": "_distributeTime",
          "type": "uint256"
        },
        {
          "internalType": "string[]",
          "name": "_choices",
          "type": "string[]"
        },
        {
          "internalType": "string",
          "name": "_region",
          "type": "string"
        },
        {
          "internalType": "string",
          "name": "_genre",
          "type": "string"
        }
      ],
      "name": "addBet",
      "outputs": [],
      "stateMutability": "nonpayable",
      "type": "function"
    },
    {
      "inputs": [],
      "name": "setVIP",
      "outputs": [],
      "stateMutability": "payable",
      "type": "function",
      "payable": true
    },
    {
      "inputs": [
        {
          "internalType": "uint256",
          "name": "_id",
          "type": "uint256"
        },
        {
          "internalType": "uint256",
          "name": "_choice",
          "type": "uint256"
        },
        {
          "internalType": "uint256",
          "name": "_amount",
          "type": "uint256"
        }
      ],
      "name": "addMoney",
      "outputs": [],
      "stateMutability": "payable",
      "type": "function",
      "payable": true
    },
    {
      "inputs": [
        {
          "internalType": "uint256",
          "name": "_id",
          "type": "uint256"
        },
        {
          "internalType": "uint256",
          "name": "_answer",
          "type": "uint256"
        }
      ],
      "name": "setAnswer",
      "outputs": [],
      "stateMutability": "nonpayable",
      "type": "function"
    },
    {
      "inputs": [
        {
          "internalType": "uint256",
          "name": "_id",
          "type": "uint256"
        }
      ],
      "name": "distributeMoney",
      "outputs": [],
      "stateMutability": "payable",
      "type": "function",
      "payable": true
    },
    {
      "inputs": [
        {
          "internalType": "uint256",
          "name": "_id",
          "type": "uint256"
        },
        {
          "internalType": "string",
          "name": "_comment",
          "type": "string"
        }
      ],
      "name": "addComment",
      "outputs": [],
      "stateMutability": "nonpayable",
      "type": "function"
    },
    {
      "inputs": [],
      "name": "spinWheel",
      "outputs": [
        {
          "internalType": "enum OnlineBetting.Reward",
          "name": "",
          "type": "uint8"
        }
      ],
      "stateMutability": "payable",
      "type": "function",
      "payable": true
    },
    {
      "inputs": [],
      "name": "getIds",
      "outputs": [
        {
          "internalType": "uint256[]",
          "name": "",
          "type": "uint256[]"
        },
        {
          "internalType": "enum OnlineBetting.Status[]",
          "name": "",
          "type": "uint8[]"
        }
      ],
      "stateMutability": "view",
      "type": "function",
      "constant": true
    },
    {
      "inputs": [],
      "name": "getLastBet",
      "outputs": [
        {
          "components": [
            {
              "internalType": "string",
              "name": "title",
              "type": "string"
            },
            {
              "internalType": "string[]",
              "name": "choices",
              "type": "string[]"
            },
            {
              "internalType": "string[]",
              "name": "comments",
              "type": "string[]"
            },
            {
              "internalType": "address",
              "name": "owner",
              "type": "address"
            },
            {
              "internalType": "uint256",
              "name": "lowerBound",
              "type": "uint256"
            },
            {
              "internalType": "uint256",
              "name": "currentAmount",
              "type": "uint256"
            },
            {
              "internalType": "uint256",
              "name": "upperBound",
              "type": "uint256"
            },
            {
              "internalType": "uint256",
              "name": "publishTime",
              "type": "uint256"
            },
            {
              "internalType": "uint256",
              "name": "lastBetTime",
              "type": "uint256"
            },
            {
              "internalType": "uint256",
              "name": "distributeTime",
              "type": "uint256"
            },
            {
              "internalType": "uint256",
              "name": "answer",
              "type": "uint256"
            },
            {
              "internalType": "uint256[]",
              "name": "currentChoices",
              "type": "uint256[]"
            },
            {
              "internalType": "address[]",
              "name": "voter",
              "type": "address[]"
            },
            {
              "internalType": "bool",
              "name": "isAnswerSet",
              "type": "bool"
            },
            {
              "internalType": "enum OnlineBetting.Region",
              "name": "region",
              "type": "uint8"
            },
            {
              "internalType": "enum OnlineBetting.Genre",
              "name": "genre",
              "type": "uint8"
            }
          ],
          "internalType": "struct OnlineBetting.Bet",
          "name": "",
          "type": "tuple"
        }
      ],
      "stateMutability": "view",
      "type": "function",
      "constant": true
    },
    {
      "inputs": [],
      "name": "getBets",
      "outputs": [
        {
          "components": [
            {
              "internalType": "string",
              "name": "title",
              "type": "string"
            },
            {
              "internalType": "string[]",
              "name": "choices",
              "type": "string[]"
            },
            {
              "internalType": "string[]",
              "name": "comments",
              "type": "string[]"
            },
            {
              "internalType": "address",
              "name": "owner",
              "type": "address"
            },
            {
              "internalType": "uint256",
              "name": "lowerBound",
              "type": "uint256"
            },
            {
              "internalType": "uint256",
              "name": "currentAmount",
              "type": "uint256"
            },
            {
              "internalType": "uint256",
              "name": "upperBound",
              "type": "uint256"
            },
            {
              "internalType": "uint256",
              "name": "publishTime",
              "type": "uint256"
            },
            {
              "internalType": "uint256",
              "name": "lastBetTime",
              "type": "uint256"
            },
            {
              "internalType": "uint256",
              "name": "distributeTime",
              "type": "uint256"
            },
            {
              "internalType": "uint256",
              "name": "answer",
              "type": "uint256"
            },
            {
              "internalType": "uint256[]",
              "name": "currentChoices",
              "type": "uint256[]"
            },
            {
              "internalType": "address[]",
              "name": "voter",
              "type": "address[]"
            },
            {
              "internalType": "bool",
              "name": "isAnswerSet",
              "type": "bool"
            },
            {
              "internalType": "enum OnlineBetting.Region",
              "name": "region",
              "type": "uint8"
            },
            {
              "internalType": "enum OnlineBetting.Genre",
              "name": "genre",
              "type": "uint8"
            }
          ],
          "internalType": "struct OnlineBetting.Bet[]",
          "name": "",
          "type": "tuple[]"
        }
      ],
      "stateMutability": "view",
      "type": "function",
      "constant": true
    },
    {
      "inputs": [],
      "name": "getHotBets",
      "outputs": [
        {
          "components": [
            {
              "internalType": "string",
              "name": "title",
              "type": "string"
            },
            {
              "internalType": "string[]",
              "name": "choices",
              "type": "string[]"
            },
            {
              "internalType": "string[]",
              "name": "comments",
              "type": "string[]"
            },
            {
              "internalType": "address",
              "name": "owner",
              "type": "address"
            },
            {
              "internalType": "uint256",
              "name": "lowerBound",
              "type": "uint256"
            },
            {
              "internalType": "uint256",
              "name": "currentAmount",
              "type": "uint256"
            },
            {
              "internalType": "uint256",
              "name": "upperBound",
              "type": "uint256"
            },
            {
              "internalType": "uint256",
              "name": "publishTime",
              "type": "uint256"
            },
            {
              "internalType": "uint256",
              "name": "lastBetTime",
              "type": "uint256"
            },
            {
              "internalType": "uint256",
              "name": "distributeTime",
              "type": "uint256"
            },
            {
              "internalType": "uint256",
              "name": "answer",
              "type": "uint256"
            },
            {
              "internalType": "uint256[]",
              "name": "currentChoices",
              "type": "uint256[]"
            },
            {
              "internalType": "address[]",
              "name": "voter",
              "type": "address[]"
            },
            {
              "internalType": "bool",
              "name": "isAnswerSet",
              "type": "bool"
            },
            {
              "internalType": "enum OnlineBetting.Region",
              "name": "region",
              "type": "uint8"
            },
            {
              "internalType": "enum OnlineBetting.Genre",
              "name": "genre",
              "type": "uint8"
            }
          ],
          "internalType": "struct OnlineBetting.Bet[]",
          "name": "",
          "type": "tuple[]"
        }
      ],
      "stateMutability": "view",
      "type": "function",
      "constant": true
    },
    {
      "inputs": [
        {
          "internalType": "uint256",
          "name": "_id",
          "type": "uint256"
        }
      ],
      "name": "getComments",
      "outputs": [
        {
          "internalType": "string[]",
          "name": "",
          "type": "string[]"
        }
      ],
      "stateMutability": "view",
      "type": "function",
      "constant": true
    }
  ],
  "bytecode": "0x608060405234801561001057600080fd5b5060008081905550614651806100276000396000f3fe6080604052600436106100a75760003560e01c8063a0f8973a11610064578063a0f8973a14610184578063a6afd5fd146101a0578063aa7e5683146101cb578063bbce3fc2146101f4578063caf76d411461021f578063e6a7dc2b14610248576100a7565b806315032fb2146100ac57806315ecef92146100b657806323edf697146100d457806324b204ab146101115780632b1056631461012d578063950d118714610159575b600080fd5b6100b4610271565b005b6100be61034f565b6040516100cb91906140ae565b60405180910390f35b3480156100e057600080fd5b506100fb60048036038101906100f69190613321565b610737565b6040516101089190614033565b60405180910390f35b61012b600480360381019061012691906133da565b61083e565b005b34801561013957600080fd5b50610142610b35565b604051610150929190614077565b60405180910390f35b34801561016557600080fd5b5061016e610bb7565b60405161017b9190614055565b60405180910390f35b61019e60048036038101906101999190613321565b610c79565b005b3480156101ac57600080fd5b506101b56112b8565b6040516101c29190614055565b60405180910390f35b3480156101d757600080fd5b506101f260048036038101906101ed919061334a565b611802565b005b34801561020057600080fd5b50610209611897565b60405161021691906141a9565b60405180910390f35b34801561022b57600080fd5b506102466004803603810190610241919061339e565b611d3c565b005b34801561025457600080fd5b5061026f600480360381019061026a91906131fb565b611e48565b005b6706f05b59d3b2000034146102bb576040517f08c379a00000000000000000000000000000000000000000000000000000000081526004016102b2906140c9565b60405180910390fd5b6001600260003373ffffffffffffffffffffffffffffffffffffffff1673ffffffffffffffffffffffffffffffffffffffff16815260200190815260200160002060020160006101000a81548160ff0219169083151502179055507fae988cc47e58f3e7d89bba758a5bfd7227a6be5930d95147b89ab3086885b4c9336040516103459190613fef565b60405180910390a1565b600067016345785d8a0000341461039b576040517f08c379a000000000000000000000000000000000000000000000000000000000815260040161039290614149565b60405180910390fd5b6064600080828254019250508190555060006103b5612104565b9050600081141561041a573373ffffffffffffffffffffffffffffffffffffffff166108fc6000549081150290604051600060405180830381858888f19350505050158015610408573d6000803e3d6000fd5b50600080819055506007915050610734565b60008111801561042c57506101f48111155b15610494573373ffffffffffffffffffffffffffffffffffffffff166108fc6000549081150290604051600060405180830381858888f19350505050158015610479573d6000803e3d6000fd5b5060c860008082825403925050819055506006915050610734565b6101f4811180156104a757506103e88111155b15610506573373ffffffffffffffffffffffffffffffffffffffff166108fc6000549081150290604051600060405180830381858888f193505050501580156104f4573d6000803e3d6000fd5b50600080819055506005915050610734565b6103e88111801561051957506107d08111155b15610578573373ffffffffffffffffffffffffffffffffffffffff166108fc6000549081150290604051600060405180830381858888f19350505050158015610566573d6000803e3d6000fd5b50600080819055506004915050610734565b6107d08111801561058b5750610bb88111155b156105ea573373ffffffffffffffffffffffffffffffffffffffff166108fc6000549081150290604051600060405180830381858888f193505050501580156105d8573d6000803e3d6000fd5b50600080819055506003915050610734565b610bb8811180156105fd5750610fa08111155b1561065c573373ffffffffffffffffffffffffffffffffffffffff166108fc6000549081150290604051600060405180830381858888f1935050505015801561064a573d6000803e3d6000fd5b50600080819055506002915050610734565b610fa08111801561066f5750611b588111155b156106ce573373ffffffffffffffffffffffffffffffffffffffff166108fc6000549081150290604051600060405180830381858888f193505050501580156106bc573d6000803e3d6000fd5b50600080819055506000915050610734565b611b58811115610732573373ffffffffffffffffffffffffffffffffffffffff166108fc6000549081150290604051600060405180830381858888f19350505050158015610720573d6000803e3d6000fd5b50600080819055506001915050610734565b505b90565b60606001828154811061074657fe5b90600052602060002090600e0201600201805480602002602001604051908101604052809291908181526020016000905b82821015610833578382906000526020600020018054600181600116156101000203166002900480601f01602080910402602001604051908101604052809291908181526020018280546001816001161561010002031660029004801561081f5780601f106107f45761010080835404028352916020019161081f565b820191906000526020600020905b81548152906001019060200180831161080257829003601f168201915b505050505081526020019060010190610777565b505050509050919050565b8261084881612147565b610887576040517f08c379a000000000000000000000000000000000000000000000000000000000815260040161087e90614169565b60405180910390fd5b83826001828154811061089657fe5b90600052602060002090600e02016006015481600184815481106108b657fe5b90600052602060002090600e02016005015401111561090a576040517f08c379a000000000000000000000000000000000000000000000000000000000815260040161090190614189565b60405180910390fd5b66038d7ea4c6800084023414610955576040517f08c379a000000000000000000000000000000000000000000000000000000000815260040161094c906140e9565b60405180910390fd5b6001868154811061096257fe5b90600052602060002090600e0201600801544211156109b6576040517f08c379a00000000000000000000000000000000000000000000000000000000081526004016109ad90614129565b60405180910390fd5b83600187815481106109c457fe5b90600052602060002090600e02016005016000828254019250508190555083600187815481106109f057fe5b90600052602060002090600e0201600b018681548110610a0c57fe5b9060005260206000200160008282540192505081905550610a2d8633612172565b836003600088815260200190815260200160002060003373ffffffffffffffffffffffffffffffffffffffff1673ffffffffffffffffffffffffffffffffffffffff1681526020019081526020016000208681548110610a8957fe5b90600052602060002001600082825401925050819055507f9ae068d0bdbacb4831e59338d8b28e0bbd2d53764219e625df5dbad665cd3a3386338787604051610ad594939291906141cb565b60405180910390a183600260003373ffffffffffffffffffffffffffffffffffffffff1673ffffffffffffffffffffffffffffffffffffffff16815260200190815260200160002060010160008282540192505081905550505050505050565b60608060608060005b600180549050811015610baa5780838281518110610b5857fe5b602002602001018181525050610b6d81612320565b828281518110610b7957fe5b60200260200101906003811115610b8c57fe5b90816003811115610b9957fe5b815250508080600101915050610b3e565b5081819350935050509091565b606080610bc26112b8565b90506060600a67ffffffffffffffff81118015610bde57600080fd5b50604051908082528060200260200182016040528015610c1857816020015b610c05612ebd565b815260200190600190039081610bfd5790505b509050610c2482612910565b60005b610c33600a8451612923565b811015610c7057828181518110610c4657fe5b6020026020010151828281518110610c5a57fe5b6020026020010181905250806001019050610c27565b50809250505090565b60018181548110610c8657fe5b90600052602060002090600e020160030160009054906101000a900473ffffffffffffffffffffffffffffffffffffffff1673ffffffffffffffffffffffffffffffffffffffff163373ffffffffffffffffffffffffffffffffffffffff1614610cef57600080fd5b60018181548110610cfc57fe5b90600052602060002090600e0201600d0160009054906101000a900460ff1615611089576000600560018381548110610d3157fe5b90600052602060002090600e0201600501540290506000605a60018481548110610d5757fe5b90600052602060002090600e020160050154029050600060018481548110610d7b57fe5b90600052602060002090600e0201600c01805490509050600060018581548110610da157fe5b90600052602060002090600e0201600a0154905060003390508073ffffffffffffffffffffffffffffffffffffffff166108fc6509184e72a00087029081150290604051600060405180830381858888f19350505050158015610e08573d6000803e3d6000fd5b507f9bb2540ba4555d75223ea5cea496bb837f39aecdc27e8a45a41e3c7b2c4f8f558186604051610e3a92919061400a565b60405180910390a160005b8381101561107e5760018781548110610e5a57fe5b90600052602060002090600e0201600c018181548110610e7657fe5b9060005260206000200160009054906101000a900473ffffffffffffffffffffffffffffffffffffffff1691508173ffffffffffffffffffffffffffffffffffffffff166108fc60018981548110610eca57fe5b90600052602060002090600e0201600b018581548110610ee657fe5b9060005260206000200154600360008b815260200190815260200160002060008673ffffffffffffffffffffffffffffffffffffffff1673ffffffffffffffffffffffffffffffffffffffff1681526020019081526020016000208681548110610f4c57fe5b90600052602060002001546509184e72a00089020281610f6857fe5b049081150290604051600060405180830381858888f19350505050158015610f94573d6000803e3d6000fd5b507f9bb2540ba4555d75223ea5cea496bb837f39aecdc27e8a45a41e3c7b2c4f8f558260018981548110610fc457fe5b90600052602060002090600e0201600b018581548110610fe057fe5b9060005260206000200154600360008b815260200190815260200160002060008673ffffffffffffffffffffffffffffffffffffffff1673ffffffffffffffffffffffffffffffffffffffff168152602001908152602001600020868154811061104657fe5b906000526020600020015488028161105a57fe5b0460405161106992919061400a565b60405180910390a18080600101915050610e45565b5050505050506112b5565b6000806001838154811061109957fe5b90600052602060002090600e0201600c018054905090506000600184815481106110bf57fe5b90600052602060002090600e020160010180549050905060005b828110156112b057600185815481106110ee57fe5b90600052602060002090600e0201600c01818154811061110a57fe5b9060005260206000200160009054906101000a900473ffffffffffffffffffffffffffffffffffffffff16935060005b828110156112a2578473ffffffffffffffffffffffffffffffffffffffff166108fc66038d7ea4c68000600360008a815260200190815260200160002060008973ffffffffffffffffffffffffffffffffffffffff1673ffffffffffffffffffffffffffffffffffffffff16815260200190815260200160002084815481106111bf57fe5b9060005260206000200154029081150290604051600060405180830381858888f193505050501580156111f6573d6000803e3d6000fd5b507f9bb2540ba4555d75223ea5cea496bb837f39aecdc27e8a45a41e3c7b2c4f8f55856003600089815260200190815260200160002060008873ffffffffffffffffffffffffffffffffffffffff1673ffffffffffffffffffffffffffffffffffffffff168152602001908152602001600020838154811061127457fe5b906000526020600020015460405161128d92919061400a565b60405180910390a1808060010191505061113a565b5080806001019150506110d9565b505050505b50565b6060600060606112c661293f565b809250819350505060608267ffffffffffffffff811180156112e757600080fd5b5060405190808252806020026020018201604052801561132157816020015b61130e612ebd565b8152602001906001900390816113065790505b50905060005b838110156117f857600183828151811061133d57fe5b60200260200101518154811061134f57fe5b90600052602060002090600e020160405180610200016040529081600082018054600181600116156101000203166002900480601f0160208091040260200160405190810160405280929190818152602001828054600181600116156101000203166002900480156114025780601f106113d757610100808354040283529160200191611402565b820191906000526020600020905b8154815290600101906020018083116113e557829003601f168201915b5050505050815260200160018201805480602002602001604051908101604052809291908181526020016000905b828210156114ec578382906000526020600020018054600181600116156101000203166002900480601f0160208091040260200160405190810160405280929190818152602001828054600181600116156101000203166002900480156114d85780601f106114ad576101008083540402835291602001916114d8565b820191906000526020600020905b8154815290600101906020018083116114bb57829003601f168201915b505050505081526020019060010190611430565b50505050815260200160028201805480602002602001604051908101604052809291908181526020016000905b828210156115d5578382906000526020600020018054600181600116156101000203166002900480601f0160208091040260200160405190810160405280929190818152602001828054600181600116156101000203166002900480156115c15780601f10611596576101008083540402835291602001916115c1565b820191906000526020600020905b8154815290600101906020018083116115a457829003601f168201915b505050505081526020019060010190611519565b5050505081526020016003820160009054906101000a900473ffffffffffffffffffffffffffffffffffffffff1673ffffffffffffffffffffffffffffffffffffffff1673ffffffffffffffffffffffffffffffffffffffff168152602001600482015481526020016005820154815260200160068201548152602001600782015481526020016008820154815260200160098201548152602001600a8201548152602001600b82018054806020026020016040519081016040528092919081815260200182805480156116c857602002820191906000526020600020905b8154815260200190600101908083116116b4575b50505050508152602001600c820180548060200260200160405190810160405280929190818152602001828054801561175657602002820191906000526020600020905b8160009054906101000a900473ffffffffffffffffffffffffffffffffffffffff1673ffffffffffffffffffffffffffffffffffffffff168152602001906001019080831161170c575b50505050508152602001600d820160009054906101000a900460ff16151515158152602001600d820160019054906101000a900460ff16600481111561179857fe5b60048111156117a357fe5b8152602001600d820160029054906101000a900460ff1660038111156117c557fe5b60038111156117d057fe5b815250508282815181106117e057fe5b60200260200101819052508080600101915050611327565b5080935050505090565b6001828154811061180f57fe5b90600052602060002090600e020160020181908060018154018082558091505060019003906000526020600020016000909190919091509080519060200190611859929190612f68565b507f3b0cf47bf0008e5099d76f10a991fc69e1984797f0830b83910efb1c4d59c1f3828260405161188b929190614210565b60405180910390a15050565b61189f612ebd565b600180808054905003815481106118b257fe5b90600052602060002090600e020160405180610200016040529081600082018054600181600116156101000203166002900480601f0160208091040260200160405190810160405280929190818152602001828054600181600116156101000203166002900480156119655780601f1061193a57610100808354040283529160200191611965565b820191906000526020600020905b81548152906001019060200180831161194857829003601f168201915b5050505050815260200160018201805480602002602001604051908101604052809291908181526020016000905b82821015611a4f578382906000526020600020018054600181600116156101000203166002900480601f016020809104026020016040519081016040528092919081815260200182805460018160011615610100020316600290048015611a3b5780601f10611a1057610100808354040283529160200191611a3b565b820191906000526020600020905b815481529060010190602001808311611a1e57829003601f168201915b505050505081526020019060010190611993565b50505050815260200160028201805480602002602001604051908101604052809291908181526020016000905b82821015611b38578382906000526020600020018054600181600116156101000203166002900480601f016020809104026020016040519081016040528092919081815260200182805460018160011615610100020316600290048015611b245780601f10611af957610100808354040283529160200191611b24565b820191906000526020600020905b815481529060010190602001808311611b0757829003601f168201915b505050505081526020019060010190611a7c565b5050505081526020016003820160009054906101000a900473ffffffffffffffffffffffffffffffffffffffff1673ffffffffffffffffffffffffffffffffffffffff1673ffffffffffffffffffffffffffffffffffffffff168152602001600482015481526020016005820154815260200160068201548152602001600782015481526020016008820154815260200160098201548152602001600a8201548152602001600b8201805480602002602001604051908101604052809291908181526020018280548015611c2b57602002820191906000526020600020905b815481526020019060010190808311611c17575b50505050508152602001600c8201805480602002602001604051908101604052809291908181526020018280548015611cb957602002820191906000526020600020905b8160009054906101000a900473ffffffffffffffffffffffffffffffffffffffff1673ffffffffffffffffffffffffffffffffffffffff1681526020019060010190808311611c6f575b50505050508152602001600d820160009054906101000a900460ff16151515158152602001600d820160019054906101000a900460ff166004811115611cfb57fe5b6004811115611d0657fe5b8152602001600d820160029054906101000a900460ff166003811115611d2857fe5b6003811115611d3357fe5b81525050905090565b60018281548110611d4957fe5b90600052602060002090600e020160030160009054906101000a900473ffffffffffffffffffffffffffffffffffffffff1673ffffffffffffffffffffffffffffffffffffffff163373ffffffffffffffffffffffffffffffffffffffff1614611db257600080fd5b8060018381548110611dc057fe5b90600052602060002090600e0201600a01819055506001808381548110611de357fe5b90600052602060002090600e0201600d0160006101000a81548160ff0219169083151502179055507f4772d83d7289b527150ec81022e02e39b5b278f66492d7f0702903636f33396d8282604051611e3c929190614240565b60405180910390a15050565b600260003373ffffffffffffffffffffffffffffffffffffffff1673ffffffffffffffffffffffffffffffffffffffff16815260200190815260200160002060020160009054906101000a900460ff16611ed7576040517f08c379a0000000000000000000000000000000000000000000000000000000008152600401611ece90614109565b60405180910390fd5b6000600180549050905060008451905060608167ffffffffffffffff81118015611f0057600080fd5b50604051908082528060200260200182016040528015611f2f5781602001602082028036833780820191505090505b5090506000600180816001815401808255809150500390600052602060002090600e020190508c816000019080519060200190611f6d929190612f68565b50338160030160006101000a81548173ffffffffffffffffffffffffffffffffffffffff021916908373ffffffffffffffffffffffffffffffffffffffff1602179055508b81600401819055508a816006018190555089816007018190555088816008018190555087816009018190555086816001019080519060200190611ff6929190612fe8565b508181600b01908051906020019061200f929190613048565b50612019866129ed565b81600d0160016101000a81548160ff0219169083600481111561203857fe5b021790555061204685612b65565b81600d0160026101000a81548160ff0219169083600381111561206557fe5b02179055507ffd9b824c32c4b314de8cc8632b170ef722e0fa61fcf35583a814356d916bc1fa848e60405161209b929190614210565b60405180910390a1600260003373ffffffffffffffffffffffffffffffffffffffff1673ffffffffffffffffffffffffffffffffffffffff1681526020019081526020016000206000016000815480929190600101919050555050505050505050505050505050565b600080444260405160200161211a929190613fc3565b6040516020818303038152906040528051906020012060001c9050612710818161214057fe5b0691505090565b60006001828154811061215657fe5b90600052602060002090600e0201600701544211159050919050565b8161217c81612147565b6121bb576040517f08c379a00000000000000000000000000000000000000000000000000000000081526004016121b290614169565b60405180910390fd5b60006121c78484612c82565b90508061231a57600184815481106121db57fe5b90600052602060002090600e0201600c01839080600181540180825580915050600190039060005260206000200160009091909190916101000a81548173ffffffffffffffffffffffffffffffffffffffff021916908373ffffffffffffffffffffffffffffffffffffffff1602179055506001848154811061225a57fe5b90600052602060002090600e02016001018054905067ffffffffffffffff8111801561228557600080fd5b506040519080825280602002602001820160405280156122b45781602001602082028036833780820191505090505b506003600086815260200190815260200160002060003373ffffffffffffffffffffffffffffffffffffffff1673ffffffffffffffffffffffffffffffffffffffff1681526020019081526020016000209080519060200190612318929190613048565b505b50505050565b600061232a612ebd565b6001838154811061233757fe5b90600052602060002090600e020160405180610200016040529081600082018054600181600116156101000203166002900480601f0160208091040260200160405190810160405280929190818152602001828054600181600116156101000203166002900480156123ea5780601f106123bf576101008083540402835291602001916123ea565b820191906000526020600020905b8154815290600101906020018083116123cd57829003601f168201915b5050505050815260200160018201805480602002602001604051908101604052809291908181526020016000905b828210156124d4578382906000526020600020018054600181600116156101000203166002900480601f0160208091040260200160405190810160405280929190818152602001828054600181600116156101000203166002900480156124c05780601f10612495576101008083540402835291602001916124c0565b820191906000526020600020905b8154815290600101906020018083116124a357829003601f168201915b505050505081526020019060010190612418565b50505050815260200160028201805480602002602001604051908101604052809291908181526020016000905b828210156125bd578382906000526020600020018054600181600116156101000203166002900480601f0160208091040260200160405190810160405280929190818152602001828054600181600116156101000203166002900480156125a95780601f1061257e576101008083540402835291602001916125a9565b820191906000526020600020905b81548152906001019060200180831161258c57829003601f168201915b505050505081526020019060010190612501565b5050505081526020016003820160009054906101000a900473ffffffffffffffffffffffffffffffffffffffff1673ffffffffffffffffffffffffffffffffffffffff1673ffffffffffffffffffffffffffffffffffffffff168152602001600482015481526020016005820154815260200160068201548152602001600782015481526020016008820154815260200160098201548152602001600a8201548152602001600b82018054806020026020016040519081016040528092919081815260200182805480156126b057602002820191906000526020600020905b81548152602001906001019080831161269c575b50505050508152602001600c820180548060200260200160405190810160405280929190818152602001828054801561273e57602002820191906000526020600020905b8160009054906101000a900473ffffffffffffffffffffffffffffffffffffffff1673ffffffffffffffffffffffffffffffffffffffff16815260200190600101908083116126f4575b50505050508152602001600d820160009054906101000a900460ff16151515158152602001600d820160019054906101000a900460ff16600481111561278057fe5b600481111561278b57fe5b8152602001600d820160029054906101000a900460ff1660038111156127ad57fe5b60038111156127b857fe5b8152505090503373ffffffffffffffffffffffffffffffffffffffff16816060015173ffffffffffffffffffffffffffffffffffffffff161480156128015750428160e0015111155b1561281057600091505061290b565b3373ffffffffffffffffffffffffffffffffffffffff16816060015173ffffffffffffffffffffffffffffffffffffffff16141580156128545750428160e0015111155b1561286357600191505061290b565b3373ffffffffffffffffffffffffffffffffffffffff16816060015173ffffffffffffffffffffffffffffffffffffffff16141580156128a75750428160e0015111155b156128b657600291505061290b565b3373ffffffffffffffffffffffffffffffffffffffff16816060015173ffffffffffffffffffffffffffffffffffffffff16141580156128fa5750428160e0015111155b1561290957600391505061290b565b505b919050565b6129208160006001845103612d60565b50565b60008183111561293557829050612939565b8190505b92915050565b600060608060018054905067ffffffffffffffff8111801561296057600080fd5b5060405190808252806020026020018201604052801561298f5781602001602082028036833780820191505090505b5090506000805b6001805490508110156129e0576129ac81612147565b156129d357808383815181106129be57fe5b60200260200101818152505081806001019250505b8080600101915050612996565b5080829350935050509091565b60006040516020016129fe90613f99565b6040516020818303038152906040528051906020012082604051602001612a259190613f19565b604051602081830303815290604052805190602001201415612a4a5760019050612b60565b604051602001612a5990613f6f565b6040516020818303038152906040528051906020012082604051602001612a809190613f19565b604051602081830303815290604052805190602001201415612aa55760029050612b60565b604051602001612ab490613f5a565b6040516020818303038152906040528051906020012082604051602001612adb9190613f19565b604051602081830303815290604052805190602001201415612b005760019050612b60565b604051602001612b0f90613f30565b6040516020818303038152906040528051906020012082604051602001612b369190613f19565b604051602081830303815290604052805190602001201415612b5b5760049050612b60565b600090505b919050565b6000604051602001612b7690613fae565b6040516020818303038152906040528051906020012082604051602001612b9d9190613f19565b604051602081830303815290604052805190602001201415612bc25760019050612c7d565b604051602001612bd190613f84565b6040516020818303038152906040528051906020012082604051602001612bf89190613f19565b604051602081830303815290604052805190602001201415612c1d5760039050612c7d565b604051602001612c2c90613f45565b6040516020818303038152906040528051906020012082604051602001612c539190613f19565b604051602081830303815290604052805190602001201415612c785760029050612c7d565b600090505b919050565b60008060018481548110612c9257fe5b90600052602060002090600e0201600c0180549050905060005b81811015612d53578373ffffffffffffffffffffffffffffffffffffffff1660018681548110612cd857fe5b90600052602060002090600e0201600c018281548110612cf457fe5b9060005260206000200160009054906101000a900473ffffffffffffffffffffffffffffffffffffffff1673ffffffffffffffffffffffffffffffffffffffff161415612d4657600192505050612d5a565b8080600101915050612cac565b5060009150505b92915050565b6000829050600082905080821415612d79575050612eb8565b612d81612ebd565b85600286860381612d8e57fe5b04860181518110612d9b57fe5b602002602001015190505b818311612e8c575b80610180015151868481518110612dc157fe5b60200260200101516101800151511015612de2578280600101935050612dae565b5b858281518110612def57fe5b6020026020010151610180015151816101800151511015612e1857818060019003925050612de3565b818311612e8757858281518110612e2b57fe5b6020026020010151868481518110612e3f57fe5b6020026020010151878581518110612e5357fe5b60200260200101888581518110612e6657fe5b60200260200101829052829052505082806001019350508180600190039250505b612da6565b81851015612ea057612e9f868684612d60565b5b83831015612eb457612eb3868486612d60565b5b5050505b505050565b604051806102000160405280606081526020016060815260200160608152602001600073ffffffffffffffffffffffffffffffffffffffff16815260200160008152602001600081526020016000815260200160008152602001600081526020016000815260200160008152602001606081526020016060815260200160001515815260200160006004811115612f5057fe5b815260200160006003811115612f6257fe5b81525090565b828054600181600116156101000203166002900490600052602060002090601f016020900481019282601f10612fa957805160ff1916838001178555612fd7565b82800160010185558215612fd7579182015b82811115612fd6578251825591602001919060010190612fbb565b5b509050612fe49190613095565b5090565b828054828255906000526020600020908101928215613037579160200282015b82811115613036578251829080519060200190613026929190612f68565b5091602001919060010190613008565b5b50905061304491906130b2565b5090565b828054828255906000526020600020908101928215613084579160200282015b82811115613083578251825591602001919060010190613068565b5b5090506130919190613095565b5090565b5b808211156130ae576000816000905550600101613096565b5090565b5b808211156130d257600081816130c991906130d6565b506001016130b3565b5090565b50805460018160011615610100020316600290046000825580601f106130fc575061311b565b601f01602090049060005260206000209081019061311a9190613095565b5b50565b600082601f83011261312f57600080fd5b813561314261313d82614296565b614269565b9150818183526020840193506020810190508360005b83811015613188578135860161316e8882613192565b845260208401935060208301925050600181019050613158565b5050505092915050565b600082601f8301126131a357600080fd5b81356131b66131b1826142be565b614269565b915080825260208301602083018583830111156131d257600080fd5b6131dd838284614573565b50505092915050565b6000813590506131f581614604565b92915050565b60008060008060008060008060006101208a8c03121561321a57600080fd5b60008a013567ffffffffffffffff81111561323457600080fd5b6132408c828d01613192565b99505060206132518c828d016131e6565b98505060406132628c828d016131e6565b97505060606132738c828d016131e6565b96505060806132848c828d016131e6565b95505060a06132958c828d016131e6565b94505060c08a013567ffffffffffffffff8111156132b257600080fd5b6132be8c828d0161311e565b93505060e08a013567ffffffffffffffff8111156132db57600080fd5b6132e78c828d01613192565b9250506101008a013567ffffffffffffffff81111561330557600080fd5b6133118c828d01613192565b9150509295985092959850929598565b60006020828403121561333357600080fd5b6000613341848285016131e6565b91505092915050565b6000806040838503121561335d57600080fd5b600061336b858286016131e6565b925050602083013567ffffffffffffffff81111561338857600080fd5b61339485828601613192565b9150509250929050565b600080604083850312156133b157600080fd5b60006133bf858286016131e6565b92505060206133d0858286016131e6565b9150509250929050565b6000806000606084860312156133ef57600080fd5b60006133fd868287016131e6565b935050602061340e868287016131e6565b925050604061341f868287016131e6565b9150509250925092565b600061343583836134a8565b60208301905092915050565b600061344d83836137ca565b60208301905092915050565b600061346583836137d9565b905092915050565b60006134798383613bfc565b905092915050565b600061348d8383613ee4565b60208301905092915050565b6134a2816144f5565b82525050565b6134b181614461565b82525050565b60006134c28261433a565b6134cc81856143bd565b93506134d7836142ea565b8060005b838110156135085781516134ef8882613429565b97506134fa8361437c565b9250506001810190506134db565b5085935050505092915050565b600061352082614345565b61352a8185614423565b9350613535836142fa565b8060005b8381101561356657815161354d8882613441565b975061355883614389565b925050600181019050613539565b5085935050505092915050565b600061357e82614350565b61358881856143ce565b93508360208202850161359a8561430a565b8060005b858110156135d657848403895281516135b78582613459565b94506135c283614396565b925060208a0199505060018101905061359e565b50829750879550505050505092915050565b60006135f382614350565b6135fd81856143df565b93508360208202850161360f8561430a565b8060005b8581101561364b578484038952815161362c8582613459565b945061363783614396565b925060208a01995050600181019050613613565b50829750879550505050505092915050565b60006136688261435b565b61367281856143f0565b9350836020820285016136848561431a565b8060005b858110156136c057848403895281516136a1858261346d565b94506136ac836143a3565b925060208a01995050600181019050613688565b50829750879550505050505092915050565b60006136dd82614366565b6136e78185614401565b93506136f28361432a565b8060005b8381101561372357815161370a8882613481565b9750613715836143b0565b9250506001810190506136f6565b5085935050505092915050565b600061373b82614366565b6137458185614412565b93506137508361432a565b8060005b838110156137815781516137688882613481565b9750613773836143b0565b925050600181019050613754565b5085935050505092915050565b61379781614473565b82525050565b6137a681614507565b82525050565b6137b581614519565b82525050565b6137c48161452b565b82525050565b6137d38161453d565b82525050565b60006137e482614371565b6137ee8185614434565b93506137fe818560208601614582565b613807816145bf565b840191505092915050565b600061381d82614371565b6138278185614445565b9350613837818560208601614582565b613840816145bf565b840191505092915050565b600061385682614371565b6138608185614456565b9350613870818560208601614582565b80840191505092915050565b6000613889600683614456565b91507f4575726f706500000000000000000000000000000000000000000000000000006000830152600682019050919050565b60006138c9600883614456565b91507f506f6c69746963730000000000000000000000000000000000000000000000006000830152600882019050919050565b6000613909601b83614445565b91507f4e6f7420656e6f756768206d6f6e657920746f207365742056495000000000006000830152602082019050919050565b6000613949600383614456565b91507f55534100000000000000000000000000000000000000000000000000000000006000830152600382019050919050565b6000613989601083614445565b91507f4e6f7420456e6f756768204d6f6e6579000000000000000000000000000000006000830152602082019050919050565b60006139c9601183614445565b91507f596f7520617265206e6f742056495021210000000000000000000000000000006000830152602082019050919050565b6000613a09600583614456565b91507f4368696e610000000000000000000000000000000000000000000000000000006000830152600582019050919050565b6000613a49600683614456565b91507f53706f72747300000000000000000000000000000000000000000000000000006000830152600682019050919050565b6000613a89601083614445565b91507f4265742074696d65206973206f766572000000000000000000000000000000006000830152602082019050919050565b6000613ac9601883614445565b91507f4e6f7420656e6f756768206d6f6e657920746f207370696e00000000000000006000830152602082019050919050565b6000613b09600f83614445565b91507f42657420686173206578706972656400000000000000000000000000000000006000830152602082019050919050565b6000613b49601183614445565b91507f546f6f206d756368206d6f6e65792121210000000000000000000000000000006000830152602082019050919050565b6000613b89600683614456565b91507f54616977616e00000000000000000000000000000000000000000000000000006000830152600682019050919050565b6000613bc9600483614456565b91507f4e657773000000000000000000000000000000000000000000000000000000006000830152600482019050919050565b6000610200830160008301518482036000860152613c1a82826137d9565b91505060208301518482036020860152613c348282613573565b91505060408301518482036040860152613c4e8282613573565b9150506060830151613c6360608601826134a8565b506080830151613c766080860182613ee4565b5060a0830151613c8960a0860182613ee4565b5060c0830151613c9c60c0860182613ee4565b5060e0830151613caf60e0860182613ee4565b50610100830151613cc4610100860182613ee4565b50610120830151613cd9610120860182613ee4565b50610140830151613cee610140860182613ee4565b50610160830151848203610160860152613d0882826136d2565b915050610180830151848203610180860152613d2482826134b7565b9150506101a0830151613d3b6101a086018261378e565b506101c0830151613d506101c08601826137ac565b506101e0830151613d656101e086018261379d565b508091505092915050565b6000610200830160008301518482036000860152613d8e82826137d9565b91505060208301518482036020860152613da88282613573565b91505060408301518482036040860152613dc28282613573565b9150506060830151613dd760608601826134a8565b506080830151613dea6080860182613ee4565b5060a0830151613dfd60a0860182613ee4565b5060c0830151613e1060c0860182613ee4565b5060e0830151613e2360e0860182613ee4565b50610100830151613e38610100860182613ee4565b50610120830151613e4d610120860182613ee4565b50610140830151613e62610140860182613ee4565b50610160830151848203610160860152613e7c82826136d2565b915050610180830151848203610180860152613e9882826134b7565b9150506101a0830151613eaf6101a086018261378e565b506101c0830151613ec46101c08601826137ac565b506101e0830151613ed96101e086018261379d565b508091505092915050565b613eed816144eb565b82525050565b613efc816144eb565b82525050565b613f13613f0e826144eb565b6145b5565b82525050565b6000613f25828461384b565b915081905092915050565b6000613f3b8261387c565b9150819050919050565b6000613f50826138bc565b9150819050919050565b6000613f658261393c565b9150819050919050565b6000613f7a826139fc565b9150819050919050565b6000613f8f82613a3c565b9150819050919050565b6000613fa482613b7c565b9150819050919050565b6000613fb982613bbc565b9150819050919050565b6000613fcf8285613f02565b602082019150613fdf8284613f02565b6020820191508190509392505050565b60006020820190506140046000830184613499565b92915050565b600060408201905061401f6000830185613499565b61402c6020830184613ef3565b9392505050565b6000602082019050818103600083015261404d81846135e8565b905092915050565b6000602082019050818103600083015261406f818461365d565b905092915050565b600060408201905081810360008301526140918185613730565b905081810360208301526140a58184613515565b90509392505050565b60006020820190506140c360008301846137bb565b92915050565b600060208201905081810360008301526140e2816138fc565b9050919050565b600060208201905081810360008301526141028161397c565b9050919050565b60006020820190508181036000830152614122816139bc565b9050919050565b6000602082019050818103600083015261414281613a7c565b9050919050565b6000602082019050818103600083015261416281613abc565b9050919050565b6000602082019050818103600083015261418281613afc565b9050919050565b600060208201905081810360008301526141a281613b3c565b9050919050565b600060208201905081810360008301526141c38184613d70565b905092915050565b60006080820190506141e06000830187613ef3565b6141ed6020830186613499565b6141fa6040830185613ef3565b6142076060830184613ef3565b95945050505050565b60006040820190506142256000830185613ef3565b81810360208301526142378184613812565b90509392505050565b60006040820190506142556000830185613ef3565b6142626020830184613ef3565b9392505050565b6000604051905081810181811067ffffffffffffffff8211171561428c57600080fd5b8060405250919050565b600067ffffffffffffffff8211156142ad57600080fd5b602082029050602081019050919050565b600067ffffffffffffffff8211156142d557600080fd5b601f19601f8301169050602081019050919050565b6000819050602082019050919050565b6000819050602082019050919050565b6000819050602082019050919050565b6000819050602082019050919050565b6000819050602082019050919050565b600081519050919050565b600081519050919050565b600081519050919050565b600081519050919050565b600081519050919050565b600081519050919050565b6000602082019050919050565b6000602082019050919050565b6000602082019050919050565b6000602082019050919050565b6000602082019050919050565b600082825260208201905092915050565b600082825260208201905092915050565b600082825260208201905092915050565b600082825260208201905092915050565b600082825260208201905092915050565b600082825260208201905092915050565b600082825260208201905092915050565b600082825260208201905092915050565b600082825260208201905092915050565b600081905092915050565b600061446c826144cb565b9050919050565b60008115159050919050565b600081905061448d826145d0565b919050565b60008190506144a0826145dd565b919050565b60008190506144b3826145ea565b919050565b60008190506144c6826145f7565b919050565b600073ffffffffffffffffffffffffffffffffffffffff82169050919050565b6000819050919050565b60006145008261454f565b9050919050565b60006145128261447f565b9050919050565b600061452482614492565b9050919050565b6000614536826144a5565b9050919050565b6000614548826144b8565b9050919050565b600061455a82614561565b9050919050565b600061456c826144cb565b9050919050565b82818337600083830152505050565b60005b838110156145a0578082015181840152602081019050614585565b838111156145af576000848401525b50505050565b6000819050919050565b6000601f19601f8301169050919050565b600481106145da57fe5b50565b600581106145e757fe5b50565b600881106145f457fe5b50565b6004811061460157fe5b50565b61460d816144eb565b811461461857600080fd5b5056fea264697066735822122009005a9cc2eb74e09cae958b10ab79a37d73ef7eec52be34a0bf78aceb639d2f64736f6c634300060c0033",
  "immutableReferences": {},
  "source": "pragma solidity >=0.6.0 <0.8.0;\npragma experimental ABIEncoderV2;\n\ncontract OnlineBetting {\n\n    //constants\n    uint constant SMALLEST_FEE = 0.001 ether;\n    uint constant PERCENTAGE_FEE = 0.00001 ether;\n\n    //events\n    event BetAdded(uint betId, string title);  //emit when\n    event MoneyAdded(uint betId, address adder, uint choice, uint amount);\n    event AnswerSet(uint betId, uint choice);\n    event MoneyGiven(address receiver, uint amount);\n    event SetVIP(address member);\n    event AddComment(uint betId, string comment);\n\n    //Enums\n    enum Status{ OwnAvailable, OtherAvailable, OwnExpire, OtherExpire }\n    enum Region{ Other, Taiwan, China, USA, Europe }\n    enum Genre{ Other, News, Politics, Sports }\n    enum Reward{ Sorry, ByeBye, haha_10, haha_20, haha_50, haha_100, haha_200, Jackpot}\n\n    //Bet\n    struct Bet {\n        string title;\n        string[] choices;\n        string[] comments;\n        address owner;\n        uint lowerBound;\n        uint currentAmount;\n        uint upperBound;\n        uint publishTime;\n        uint lastBetTime;\n        uint distributeTime;\n        uint answer;\n        uint[] currentChoices;\n        address[] voter;\n        bool isAnswerSet;\n        Region region;\n        Genre genre;\n    }\n\n    struct MemberView {\n        uint betsConstructed;\n        uint moneyAdded;\n        bool isVIP;\n    }\n\n    constructor() public {\n        jackpotAmount = 0;\n    }\n\n    //Bet list\n    uint jackpotAmount;\n    Bet[] bets;\n    mapping (address => MemberView) members;\n    mapping (uint => mapping (address => uint[])) voterChoice;\n    mapping (uint => mapping (address => string[])) comments;\n\n    //Modifiers\n    //Valid bet modifier\n    modifier isValidId(uint _id) {\n        require(_isIdValid(_id), \"Bet has expired\");\n        _;\n    }\n\n    //Valid amount\n    modifier isValidAmount(uint _id, uint _amount) {\n        require(bets[_id].currentAmount + _amount <= bets[_id].upperBound, \"Too much money!!!\");\n        _;\n    }\n\n    //functions\n    //Add bet to bets\n    function addBet(\n        string memory _title, \n        uint _lowerBound, \n        uint _upperBound, \n        uint _publishTime, \n        uint _lastBetTime, \n        uint _distributeTime,\n        string[] memory _choices, \n        string memory _region, \n        string memory _genre\n    ) public {\n        require(members[msg.sender].isVIP, \"You are not VIP!!\");\n        uint betId = bets.length;\n        uint choiceLength = _choices.length;\n        uint[] memory currentChoices = new uint[](choiceLength);\n        Bet storage bet = bets.push();\n        bet.title = _title;\n        bet.owner = msg.sender;\n        bet.lowerBound = _lowerBound;\n        bet.upperBound = _upperBound;\n        bet.publishTime = _publishTime;\n        bet.lastBetTime = _lastBetTime;\n        bet.distributeTime = _distributeTime;\n        bet.choices = _choices;\n        bet.currentChoices = currentChoices;\n        bet.region = _str2Region(_region);\n        bet.genre = _str2Genre(_genre);\n        emit BetAdded(betId, _title);\n        members[msg.sender].betsConstructed++;\n    }\n\n    function setVIP() public payable {\n        require(msg.value == 0.5 ether, \"Not enough money to set VIP\");\n        members[msg.sender].isVIP = true;\n        emit SetVIP(msg.sender);\n    }\n\n    function addMoney(uint _id, uint _choice, uint _amount) public payable isValidId(_id) isValidAmount(_id, _amount) {\n        //require(bets[_id].owner != msg.sender, \"Cannot add money to your own bets.\");\n        require(msg.value == _amount*SMALLEST_FEE, \"Not Enough Money\");\n        require(now <= bets[_id].lastBetTime, \"Bet time is over\");\n        bets[_id].currentAmount += _amount;\n        bets[_id].currentChoices[_choice] += _amount;\n        _addressInit(_id, msg.sender);\n        voterChoice[_id][msg.sender][_choice] += _amount;\n        emit MoneyAdded(_id, msg.sender, _choice, _amount);\n        members[msg.sender].moneyAdded += _amount;\n    }\n    \n    function setAnswer(uint _id, uint _answer) public {\n        require(msg.sender == bets[_id].owner);\n        bets[_id].answer = _answer;\n        bets[_id].isAnswerSet = true;\n        emit AnswerSet(_id, _answer);\n    }\n\n    function distributeMoney(uint _id) public payable {\n        require(msg.sender == bets[_id].owner);\n        if(bets[_id].isAnswerSet) {\n            uint creatorReward = uint(bets[_id].currentAmount*5);\n            uint otherReward = uint(bets[_id].currentAmount*90);\n            uint numVoters = bets[_id].voter.length;\n            uint answer = bets[_id].answer;\n\n            address payable receiver = msg.sender;\n            receiver.transfer(creatorReward * PERCENTAGE_FEE);\n            emit MoneyGiven(receiver, creatorReward);\n            for(uint i = 0; i < numVoters; i++) {\n                receiver = payable(bets[_id].voter[i]);\n                receiver.transfer(otherReward * PERCENTAGE_FEE * voterChoice[_id][receiver][answer] / bets[_id].currentChoices[answer]);\n                emit MoneyGiven(receiver, otherReward * voterChoice[_id][receiver][answer] / bets[_id].currentChoices[answer]);\n            }\n        }\n        else {\n            address payable receiver;\n            uint numVoters = bets[_id].voter.length;\n            uint numChoices = bets[_id].choices.length;\n            for(uint i = 0; i < numVoters; i++) {\n                receiver = payable(bets[_id].voter[i]);\n                for(uint j = 0; j < numChoices; j++) {\n                    receiver.transfer(voterChoice[_id][receiver][j] * SMALLEST_FEE);\n                    emit MoneyGiven(receiver, voterChoice[_id][receiver][j]);\n                }\n            }\n        }\n    }\n\n    function addComment(uint _id, string memory _comment) public {\n        bets[_id].comments.push(_comment);\n        emit AddComment(_id, _comment);\n    }\n\n    function spinWheel() public payable returns(Reward) {\n        require(msg.value == 0.1 ether, \"Not enough money to spin\");\n        jackpotAmount += 100;\n        uint howard = _rng();\n        if(howard == 0) {\n            msg.sender.transfer(jackpotAmount);\n            jackpotAmount = 0;\n            return Reward.Jackpot;\n        }\n        if(howard > 0 && howard <= 500) {\n            msg.sender.transfer(jackpotAmount);\n            jackpotAmount -= 200;\n            return Reward.haha_200;\n        }\n        if(howard > 500 && howard <= 1000) {\n            msg.sender.transfer(jackpotAmount);\n            jackpotAmount = 0;\n            return Reward.haha_100;\n        }\n        if(howard > 1000 && howard <= 2000) {\n            msg.sender.transfer(jackpotAmount);\n            jackpotAmount = 0;\n            return Reward.haha_50;\n        }\n        if(howard > 2000 && howard <= 3000) {\n            msg.sender.transfer(jackpotAmount);\n            jackpotAmount = 0;\n            return Reward.haha_20;\n        }\n        if(howard > 3000 && howard <= 4000) {\n            msg.sender.transfer(jackpotAmount);\n            jackpotAmount = 0;\n            return Reward.haha_10;\n        }\n        if(howard > 4000 && howard <= 7000) {\n            msg.sender.transfer(jackpotAmount);\n            jackpotAmount = 0;\n            return Reward.Sorry;\n        }\n        if(howard > 7000) {\n            msg.sender.transfer(jackpotAmount);\n            jackpotAmount = 0;\n            return Reward.ByeBye;\n        }\n    }\n\n    function getIds() public view returns(uint[] memory, Status[] memory) {\n        uint[] memory ids;\n        Status[] memory statuses;\n        for(uint i = 0; i < bets.length; i++) {\n            ids[i] = i;\n            statuses[i] = _getStatus(i);\n        }\n        return (ids, statuses);\n    }\n\n    function getLastBet() public view returns(Bet memory) {\n        return bets[bets.length-1];\n    }\n\n    function getBets() public view returns(Bet[] memory) {\n        uint count;\n        uint[] memory ids;\n        (count, ids) = _getValidIds();\n        Bet[] memory validBets = new Bet[](count);\n        for(uint i = 0; i < count; i++) {\n            validBets[i] = bets[ids[i]];\n        }\n        return validBets;\n    }\n\n    function getHotBets() public view returns(Bet[] memory) {\n        Bet[] memory validBets = getBets();\n        Bet[] memory hotBets = new Bet[](10);\n        _sortBets(validBets);\n        for(uint i = 0; i < _max(10, validBets.length); ++i) {\n            hotBets[i] = validBets[i];\n        }\n        return hotBets;\n    }\n\n    function getComments(uint _id) public view returns(string[] memory) {\n        return bets[_id].comments;\n    }\n\n    function _getValidIds() internal view returns(uint, uint[] memory) {\n        uint[] memory validIds = new uint[](bets.length);\n        uint count = 0;\n        for(uint i = 0; i < bets.length; i++) {\n            if(_isIdValid(i)) {\n                validIds[count] = i;\n                count++;\n            }\n        }\n        return (count, validIds);\n    }\n\n    function _isIdValid(uint _id) internal view returns(bool) {\n        return (now <= bets[_id].publishTime);\n    }\n\n    function _hasBet(uint _id, address _better) internal view returns(bool) {\n        uint len = bets[_id].voter.length;\n        for(uint i = 0; i < len; i++) {\n            if(bets[_id].voter[i] == _better) return true;\n        }\n        return false;\n    }\n\n    function _addressInit(uint _id, address _better) internal isValidId(_id) {\n        bool isInit = _hasBet(_id, _better);\n        if(!isInit) {\n            bets[_id].voter.push(_better);\n            voterChoice[_id][msg.sender] = new uint[](bets[_id].choices.length);\n        }\n    }\n\n    function _str2Region(string memory _region) internal pure returns(Region) {\n        if(keccak256(abi.encodePacked(_region)) == keccak256(abi.encodePacked(\"Taiwan\"))) return Region.Taiwan;\n        if(keccak256(abi.encodePacked(_region)) == keccak256(abi.encodePacked(\"China\"))) return Region.China;\n        if(keccak256(abi.encodePacked(_region)) == keccak256(abi.encodePacked(\"USA\"))) return Region.Taiwan;\n        if(keccak256(abi.encodePacked(_region)) == keccak256(abi.encodePacked(\"Europe\"))) return Region.Europe;\n        else return Region.Other;\n    }\n\n    function _str2Genre(string memory _genre) internal pure returns(Genre) {\n        if(keccak256(abi.encodePacked(_genre)) == keccak256(abi.encodePacked(\"News\"))) return Genre.News;\n        if(keccak256(abi.encodePacked(_genre)) == keccak256(abi.encodePacked(\"Sports\"))) return Genre.Sports;\n        if(keccak256(abi.encodePacked(_genre)) == keccak256(abi.encodePacked(\"Politics\"))) return Genre.Politics;\n        return Genre.Other;\n    }\n\n    function _sortBets(Bet[] memory _bets) internal pure {\n        _quickSort(_bets, 0, _bets.length-1);\n    }\n\n    function _quickSort(Bet[] memory _bets, uint _init, uint _end) internal pure {\n        uint i = _init;\n        uint j = _end;\n        if(i == j) return;\n        Bet memory pivot = _bets[(_init + (_end - _init) / 2)];\n        while (i <= j) {\n            while (_bets[i].voter.length < pivot.voter.length) i++;\n            while (pivot.voter.length < _bets[j].voter.length) j--;\n            if (i <= j) {\n                (_bets[uint(i)], _bets[uint(j)]) = (_bets[uint(j)], _bets[uint(i)]);\n                i++;\n                j--;\n            }\n        }\n        if (_init < j)\n            _quickSort(_bets, _init, j);\n        if (i < _end)\n            _quickSort(_bets, i, _end);\n    }\n\n    function _max(uint a, uint b) internal pure returns(uint) {\n        if(a > b) return a;\n        else return b;\n    }\n\n    function _getStatus(uint _id) internal view returns(Status) {\n        Bet memory bet = bets[_id];\n        if(bet.owner == msg.sender && bet.publishTime <= now) return Status.OwnAvailable;\n        else if(bet.owner != msg.sender && bet.publishTime <= now) return Status.OtherAvailable;\n        else if(bet.owner != msg.sender && bet.publishTime <= now) return Status.OwnExpire;\n        else if(bet.owner != msg.sender && bet.publishTime <= now) return Status.OtherExpire;\n    }\n\n    function _rng() internal view returns(uint) {\n        uint random = uint(keccak256(abi.encodePacked(block.difficulty, now)));\n        return random%10000;\n    }\n}",
  "sourcePath": "/Users/peterlin/OnlineBetting/ethereum/contracts/OnlineBetting.sol",
  "compiler": {
    "name": "solc",
    "version": "0.6.12+commit.27d51765.Emscripten.clang"
  },
  "schemaVersion": "3.4.0",
  "updatedAt": "2021-06-25T11:52:38.039Z",
  "networkType": "ethereum",
  "devdoc": {
    "kind": "dev",
    "methods": {},
    "version": 1
  },
  "userdoc": {
    "kind": "user",
    "methods": {},
    "version": 1
  }
}