{
  "contractName": "OnlineBetting",
  "abi": [
    {
      "anonymous": false,
      "inputs": [
        {
          "indexed": false,
          "internalType": "uint256",
          "name": "betId",
          "type": "uint256"
        },
        {
          "indexed": false,
          "internalType": "string",
          "name": "title",
          "type": "string"
        }
      ],
      "name": "BetAdded",
      "type": "event"
    },
    {
      "anonymous": false,
      "inputs": [
        {
          "indexed": false,
          "internalType": "uint256",
          "name": "betId",
          "type": "uint256"
        },
        {
          "indexed": false,
          "internalType": "string",
          "name": "choice",
          "type": "string"
        },
        {
          "indexed": false,
          "internalType": "uint256",
          "name": "amount",
          "type": "uint256"
        }
      ],
      "name": "MoneyAdded",
      "type": "event"
    },
    {
      "constant": false,
      "inputs": [
        {
          "internalType": "string",
          "name": "_title",
          "type": "string"
        },
        {
          "internalType": "uint256",
          "name": "_lowerBound",
          "type": "uint256"
        },
        {
          "internalType": "uint256",
          "name": "_upperBound",
          "type": "uint256"
        },
        {
          "internalType": "uint256",
          "name": "_publishTime",
          "type": "uint256"
        },
        {
          "internalType": "uint256",
          "name": "_lastBetTime",
          "type": "uint256"
        }
      ],
      "name": "addBet",
      "outputs": [],
      "payable": false,
      "stateMutability": "nonpayable",
      "type": "function"
    },
    {
      "constant": false,
      "inputs": [
        {
          "internalType": "uint256",
          "name": "_id",
          "type": "uint256"
        },
        {
          "internalType": "string",
          "name": "_choice",
          "type": "string"
        },
        {
          "internalType": "uint256",
          "name": "_amount",
          "type": "uint256"
        }
      ],
      "name": "addMoney",
      "outputs": [],
      "payable": true,
      "stateMutability": "payable",
      "type": "function"
    },
    {
      "constant": true,
      "inputs": [],
      "name": "getOwnId",
      "outputs": [
        {
          "internalType": "bool[]",
          "name": "",
          "type": "bool[]"
        }
      ],
      "payable": false,
      "stateMutability": "view",
      "type": "function"
    },
    {
      "constant": true,
      "inputs": [
        {
          "internalType": "uint256",
          "name": "_id",
          "type": "uint256"
        }
      ],
      "name": "getTitle",
      "outputs": [
        {
          "internalType": "string",
          "name": "",
          "type": "string"
        }
      ],
      "payable": false,
      "stateMutability": "view",
      "type": "function"
    },
    {
      "constant": true,
      "inputs": [
        {
          "internalType": "uint256",
          "name": "_id",
          "type": "uint256"
        }
      ],
      "name": "getLowerBound",
      "outputs": [
        {
          "internalType": "uint256",
          "name": "",
          "type": "uint256"
        }
      ],
      "payable": false,
      "stateMutability": "view",
      "type": "function"
    },
    {
      "constant": true,
      "inputs": [
        {
          "internalType": "uint256",
          "name": "_id",
          "type": "uint256"
        }
      ],
      "name": "getCurrentAmount",
      "outputs": [
        {
          "internalType": "uint256",
          "name": "",
          "type": "uint256"
        }
      ],
      "payable": false,
      "stateMutability": "view",
      "type": "function"
    },
    {
      "constant": true,
      "inputs": [
        {
          "internalType": "uint256",
          "name": "_id",
          "type": "uint256"
        }
      ],
      "name": "getUpperBound",
      "outputs": [
        {
          "internalType": "uint256",
          "name": "",
          "type": "uint256"
        }
      ],
      "payable": false,
      "stateMutability": "view",
      "type": "function"
    },
    {
      "constant": true,
      "inputs": [
        {
          "internalType": "uint256",
          "name": "_id",
          "type": "uint256"
        },
        {
          "internalType": "string",
          "name": "_choice",
          "type": "string"
        }
      ],
      "name": "getChoiceAmount",
      "outputs": [
        {
          "internalType": "uint256",
          "name": "",
          "type": "uint256"
        }
      ],
      "payable": false,
      "stateMutability": "view",
      "type": "function"
    }
  ],
  "bytecode": "0x608060405234801561001057600080fd5b506114c6806100206000396000f3fe60806040526004361061007b5760003560e01c8063b1c4713e1161004e578063b1c4713e146102d5578063bf40a1ce14610324578063d787629114610414578063fb7cc35a146104635761007b565b806328d4155a1461008057806356e78dc314610166578063929a79b1146101b5578063a57f60c914610269575b600080fd5b34801561008c57600080fd5b50610150600480360360408110156100a357600080fd5b8101908080359060200190929190803590602001906401000000008111156100ca57600080fd5b8201836020820111156100dc57600080fd5b803590602001918460018302840111640100000000831117156100fe57600080fd5b91908080601f016020809104026020016040519081016040528093929190818152602001838380828437600081840152601f19601f820116905080830192505050505050509192919290505050610532565b6040518082815260200191505060405180910390f35b34801561017257600080fd5b5061019f6004803603602081101561018957600080fd5b8101908080359060200190929190505050610633565b6040518082815260200191505060405180910390f35b3480156101c157600080fd5b506101ee600480360360208110156101d857600080fd5b8101908080359060200190929190505050610818565b6040518080602001828103825283818151815260200191508051906020019080838360005b8381101561022e578082015181840152602081019050610213565b50505050905090810190601f16801561025b5780820380516001836020036101000a031916815260200191505b509250505060405180910390f35b34801561027557600080fd5b5061027e6109fd565b6040518080602001828103825283818151815260200191508051906020019060200280838360005b838110156102c15780820151818401526020810190506102a6565b505050509050019250505060405180910390f35b3480156102e157600080fd5b5061030e600480360360208110156102f857600080fd5b8101908080359060200190929190505050610aea565b6040518082815260200191505060405180910390f35b34801561033057600080fd5b50610412600480360360a081101561034757600080fd5b810190808035906020019064010000000081111561036457600080fd5b82018360208201111561037657600080fd5b8035906020019184600183028401116401000000008311171561039857600080fd5b91908080601f016020809104026020016040519081016040528093929190818152602001838380828437600081840152601f19601f82011690508083019250505050505050919291929080359060200190929190803590602001909291908035906020019092919080359060200190929190505050610ccf565b005b34801561042057600080fd5b5061044d6004803603602081101561043757600080fd5b8101908080359060200190929190505050610e9d565b6040518082815260200191505060405180910390f35b6105306004803603606081101561047957600080fd5b8101908080359060200190929190803590602001906401000000008111156104a057600080fd5b8201836020820111156104b257600080fd5b803590602001918460018302840111640100000000831117156104d457600080fd5b91908080601f016020809104026020016040519081016040528093929190818152602001838380828437600081840152601f19601f82011690508083019250505050505050919291929080359060200190929190505050611082565b005b60008260008054905081106105af576040517f08c379a000000000000000000000000000000000000000000000000000000000815260040180806020018281038252600d8152602001807f496e76616c69642049442121210000000000000000000000000000000000000081525060200191505060405180910390fd5b60016000858152602001908152602001600020836040518082805190602001908083835b602083106105f657805182526020820191506020810190506020830392506105d3565b6001836020036101000a03801982511681845116808217855250505050505090500191505090815260200160405180910390205491505092915050565b60008160008054905081106106b0576040517f08c379a000000000000000000000000000000000000000000000000000000000815260040180806020018281038252600d8152602001807f496e76616c69642049442121210000000000000000000000000000000000000081525060200191505060405180910390fd5b6106b8611399565b600084815481106106c557fe5b90600052602060002090600702016040518060e0016040529081600082018054600181600116156101000203166002900480601f0160208091040260200160405190810160405280929190818152602001828054600181600116156101000203166002900480156107775780601f1061074c57610100808354040283529160200191610777565b820191906000526020600020905b81548152906001019060200180831161075a57829003601f168201915b505050505081526020016001820160009054906101000a900473ffffffffffffffffffffffffffffffffffffffff1673ffffffffffffffffffffffffffffffffffffffff1673ffffffffffffffffffffffffffffffffffffffff168152602001600282015481526020016003820154815260200160048201548152602001600582015481526020016006820154815250509050806060015192505050919050565b6060816000805490508110610895576040517f08c379a000000000000000000000000000000000000000000000000000000000815260040180806020018281038252600d8152602001807f496e76616c69642049442121210000000000000000000000000000000000000081525060200191505060405180910390fd5b61089d611399565b600084815481106108aa57fe5b90600052602060002090600702016040518060e0016040529081600082018054600181600116156101000203166002900480601f01602080910402602001604051908101604052809291908181526020018280546001816001161561010002031660029004801561095c5780601f106109315761010080835404028352916020019161095c565b820191906000526020600020905b81548152906001019060200180831161093f57829003601f168201915b505050505081526020016001820160009054906101000a900473ffffffffffffffffffffffffffffffffffffffff1673ffffffffffffffffffffffffffffffffffffffff1673ffffffffffffffffffffffffffffffffffffffff168152602001600282015481526020016003820154815260200160048201548152602001600582015481526020016006820154815250509050806000015192505050919050565b606080600080549050604051908082528060200260200182016040528015610a345781602001602082028038833980820191505090505b50905060008090505b600080549050811015610ae2573373ffffffffffffffffffffffffffffffffffffffff1660008281548110610a6e57fe5b906000526020600020906007020160010160009054906101000a900473ffffffffffffffffffffffffffffffffffffffff1673ffffffffffffffffffffffffffffffffffffffff1614828281518110610ac357fe5b6020026020010190151590811515815250508080600101915050610a3d565b508091505090565b6000816000805490508110610b67576040517f08c379a000000000000000000000000000000000000000000000000000000000815260040180806020018281038252600d8152602001807f496e76616c69642049442121210000000000000000000000000000000000000081525060200191505060405180910390fd5b610b6f611399565b60008481548110610b7c57fe5b90600052602060002090600702016040518060e0016040529081600082018054600181600116156101000203166002900480601f016020809104026020016040519081016040528092919081815260200182805460018160011615610100020316600290048015610c2e5780601f10610c0357610100808354040283529160200191610c2e565b820191906000526020600020905b815481529060010190602001808311610c1157829003601f168201915b505050505081526020016001820160009054906101000a900473ffffffffffffffffffffffffffffffffffffffff1673ffffffffffffffffffffffffffffffffffffffff1673ffffffffffffffffffffffffffffffffffffffff168152602001600282015481526020016003820154815260200160048201548152602001600582015481526020016006820154815250509050806040015192505050919050565b610cd7611399565b6040518060e001604052808781526020013373ffffffffffffffffffffffffffffffffffffffff1681526020018681526020016000815260200185815260200184815260200183815250905060006001600083908060018154018082558091505090600182039060005260206000209060070201600090919290919091506000820151816000019080519060200190610d719291906113ec565b5060208201518160010160006101000a81548173ffffffffffffffffffffffffffffffffffffffff021916908373ffffffffffffffffffffffffffffffffffffffff16021790555060408201518160020155606082015181600301556080820151816004015560a0820151816005015560c0820151816006015550500390507ffd9b824c32c4b314de8cc8632b170ef722e0fa61fcf35583a814356d916bc1fa81886040518083815260200180602001828103825283818151815260200191508051906020019080838360005b83811015610e59578082015181840152602081019050610e3e565b50505050905090810190601f168015610e865780820380516001836020036101000a031916815260200191505b50935050505060405180910390a150505050505050565b6000816000805490508110610f1a576040517f08c379a000000000000000000000000000000000000000000000000000000000815260040180806020018281038252600d8152602001807f496e76616c69642049442121210000000000000000000000000000000000000081525060200191505060405180910390fd5b610f22611399565b60008481548110610f2f57fe5b90600052602060002090600702016040518060e0016040529081600082018054600181600116156101000203166002900480601f016020809104026020016040519081016040528092919081815260200182805460018160011615610100020316600290048015610fe15780601f10610fb657610100808354040283529160200191610fe1565b820191906000526020600020905b815481529060010190602001808311610fc457829003601f168201915b505050505081526020016001820160009054906101000a900473ffffffffffffffffffffffffffffffffffffffff1673ffffffffffffffffffffffffffffffffffffffff1673ffffffffffffffffffffffffffffffffffffffff168152602001600282015481526020016003820154815260200160048201548152602001600582015481526020016006820154815250509050806080015192505050919050565b8260008054905081106110fd576040517f08c379a000000000000000000000000000000000000000000000000000000000815260040180806020018281038252600d8152602001807f496e76616c69642049442121210000000000000000000000000000000000000081525060200191505060405180910390fd5b83826000828154811061110c57fe5b906000526020600020906007020160040154816000848154811061112c57fe5b9060005260206000209060070201600301540111156111b3576040517f08c379a00000000000000000000000000000000000000000000000000000000081526004018080602001828103825260118152602001807f546f6f206d756368206d6f6e657921212100000000000000000000000000000081525060200191505060405180910390fd5b66038d7ea4c6800084023414611231576040517f08c379a00000000000000000000000000000000000000000000000000000000081526004018080602001828103825260108152602001807f4e6f7420456e6f756768204d6f6e65790000000000000000000000000000000081525060200191505060405180910390fd5b836000878154811061123f57fe5b9060005260206000209060070201600301600082825401925050819055508360016000888152602001908152602001600020866040518082805190602001908083835b602083106112a55780518252602082019150602081019050602083039250611282565b6001836020036101000a0380198251168184511680821785525050505050509050019150509081526020016040518091039020600082825401925050819055507f5b10a10d5e4a332d7df29badbed73d4cd6cd22729938f55d2193eee562e0e21b8686866040518084815260200180602001838152602001828103825284818151815260200191508051906020019080838360005b8381101561135557808201518184015260208101905061133a565b50505050905090810190601f1680156113825780820380516001836020036101000a031916815260200191505b5094505050505060405180910390a1505050505050565b6040518060e0016040528060608152602001600073ffffffffffffffffffffffffffffffffffffffff16815260200160008152602001600081526020016000815260200160008152602001600081525090565b828054600181600116156101000203166002900490600052602060002090601f016020900481019282601f1061142d57805160ff191683800117855561145b565b8280016001018555821561145b579182015b8281111561145a57825182559160200191906001019061143f565b5b509050611468919061146c565b5090565b61148e91905b8082111561148a576000816000905550600101611472565b5090565b9056fea265627a7a7231582031ba0a368050ebc7c0f14722d89901397f07a0bdb595f6a85fed65e6c0d932b564736f6c63430005100032",
  "source": "pragma solidity >=0.4.21 <0.6.0;\n\ncontract OnlineBetting {\n\n    //constants\n    uint constant SMALLEST_FEE = 0.001 ether;\n\n    //events\n    event BetAdded(uint betId, string title);  //emit when\n    event MoneyAdded(uint betId, string choice, uint amount);\n\n    //Bet\n    struct Bet {\n        string title;\n        address owner;\n        uint lowerBound;\n        uint currentAmount;\n        uint upperBound;\n        uint publishTime;\n        uint lastBetTime;\n    }\n\n    //Bet list\n    Bet[] bets;\n    mapping (uint => mapping (string => uint)) currentChoice;\n\n    //Modifiers\n    //Valid bet modifier\n    modifier isValidId(uint _id) {\n        require(_id < bets.length, \"Invalid ID!!!\");\n        //require(now <= bets[_id].publishTime, \"Bet has expired\");\n        _;\n    }\n\n    //Valid amount\n    modifier isValidAmount(uint _id, uint _amount) {\n        require(bets[_id].currentAmount + _amount <= bets[_id].upperBound, \"Too much money!!!\");\n        _;\n    }\n\n    //functions\n    //Add bet to bets\n    function addBet(string memory _title, uint _lowerBound, uint _upperBound, uint _publishTime, uint _lastBetTime) public {\n        Bet memory bet = Bet(_title, msg.sender, _lowerBound, 0, _upperBound, _publishTime, _lastBetTime);\n        uint betId = bets.push(bet) - 1;\n        emit BetAdded(betId, _title);\n    }\n\n    //Add money to selected choice\n    function addMoney(uint _id, string memory _choice, uint _amount) public payable isValidId(_id) isValidAmount(_id, _amount) {\n        //require(bets[_id].owner != msg.sender, \"Cannot add money to your own bets.\");\n        require(msg.value == _amount*SMALLEST_FEE, \"Not Enough Money\");\n        bets[_id].currentAmount += _amount;\n        currentChoice[_id][_choice] += _amount;\n        emit MoneyAdded(_id, _choice, _amount);\n    }\n    \n    //Get Title from ID\n    function getOwnId() public view returns(bool[] memory) {\n        bool[] memory isOwnBets = new bool[](bets.length);\n        for(uint i = 0; i < bets.length; i++) {\n            isOwnBets[i] = (bets[i].owner == msg.sender);\n        }\n        return isOwnBets;\n    }\n\n    function getTitle(uint _id) public view isValidId(_id) returns(string memory) {\n        Bet memory bet = bets[_id];\n        return bet.title;\n    }\n\n    function getLowerBound(uint _id) public view isValidId(_id) returns(uint) {\n        Bet memory bet = bets[_id];\n        return bet.lowerBound;\n    }\n\n    function getCurrentAmount(uint _id) public view isValidId(_id) returns(uint) {\n        Bet memory bet = bets[_id];\n        return bet.currentAmount;\n    }\n\n    function getUpperBound(uint _id) public view isValidId(_id) returns(uint) {\n        Bet memory bet = bets[_id];\n        return bet.upperBound;\n    }\n\n    //Get Amount from choice\n    function getChoiceAmount(uint _id, string memory _choice) public view isValidId(_id) returns(uint) {\n        return currentChoice[_id][_choice];\n    }\n}",
  "sourcePath": "/Users/peterlin/OnlineBetting/ethereum/contracts/OnlineBetting.sol",
  "compiler": {
    "name": "solc",
    "version": "0.5.16+commit.9c3226ce.Emscripten.clang"
  },
  "schemaVersion": "3.4.0",
  "updatedAt": "2021-06-02T08:27:31.203Z",
  "networkType": "ethereum",
  "devdoc": {
    "methods": {}
  },
  "userdoc": {
    "methods": {}
  }
}