{
  "contractName": "OnlineBetting",
  "abi": [
    {
      "inputs": [],
      "stateMutability": "nonpayable",
      "type": "constructor"
    },
    {
      "anonymous": false,
      "inputs": [
        {
          "indexed": false,
          "internalType": "uint256",
          "name": "betId",
          "type": "uint256"
        },
        {
          "indexed": false,
          "internalType": "string",
          "name": "comment",
          "type": "string"
        }
      ],
      "name": "AddComment",
      "type": "event"
    },
    {
      "anonymous": false,
      "inputs": [
        {
          "indexed": false,
          "internalType": "uint256",
          "name": "betId",
          "type": "uint256"
        },
        {
          "indexed": false,
          "internalType": "uint256",
          "name": "choice",
          "type": "uint256"
        }
      ],
      "name": "AnswerSet",
      "type": "event"
    },
    {
      "anonymous": false,
      "inputs": [
        {
          "indexed": false,
          "internalType": "uint256",
          "name": "betId",
          "type": "uint256"
        },
        {
          "indexed": false,
          "internalType": "string",
          "name": "title",
          "type": "string"
        }
      ],
      "name": "BetAdded",
      "type": "event"
    },
    {
      "anonymous": false,
      "inputs": [
        {
          "indexed": false,
          "internalType": "uint256",
          "name": "betId",
          "type": "uint256"
        },
        {
          "indexed": false,
          "internalType": "address",
          "name": "adder",
          "type": "address"
        },
        {
          "indexed": false,
          "internalType": "uint256",
          "name": "choice",
          "type": "uint256"
        },
        {
          "indexed": false,
          "internalType": "uint256",
          "name": "amount",
          "type": "uint256"
        }
      ],
      "name": "MoneyAdded",
      "type": "event"
    },
    {
      "anonymous": false,
      "inputs": [
        {
          "indexed": false,
          "internalType": "address",
          "name": "receiver",
          "type": "address"
        },
        {
          "indexed": false,
          "internalType": "uint256",
          "name": "amount",
          "type": "uint256"
        }
      ],
      "name": "MoneyGiven",
      "type": "event"
    },
    {
      "anonymous": false,
      "inputs": [
        {
          "indexed": false,
          "internalType": "address",
          "name": "member",
          "type": "address"
        }
      ],
      "name": "SetVIP",
      "type": "event"
    },
    {
      "inputs": [
        {
          "internalType": "string",
          "name": "_title",
          "type": "string"
        },
        {
          "internalType": "uint256",
          "name": "_lowerBound",
          "type": "uint256"
        },
        {
          "internalType": "uint256",
          "name": "_upperBound",
          "type": "uint256"
        },
        {
          "internalType": "uint256",
          "name": "_publishTime",
          "type": "uint256"
        },
        {
          "internalType": "uint256",
          "name": "_lastBetTime",
          "type": "uint256"
        },
        {
          "internalType": "uint256",
          "name": "_distributeTime",
          "type": "uint256"
        },
        {
          "internalType": "string[]",
          "name": "_choices",
          "type": "string[]"
        },
        {
          "internalType": "string",
          "name": "_region",
          "type": "string"
        },
        {
          "internalType": "string",
          "name": "_genre",
          "type": "string"
        }
      ],
      "name": "addBet",
      "outputs": [],
      "stateMutability": "nonpayable",
      "type": "function"
    },
    {
      "inputs": [],
      "name": "setVIP",
      "outputs": [],
      "stateMutability": "payable",
      "type": "function",
      "payable": true
    },
    {
      "inputs": [
        {
          "internalType": "uint256",
          "name": "_id",
          "type": "uint256"
        },
        {
          "internalType": "uint256",
          "name": "_choice",
          "type": "uint256"
        },
        {
          "internalType": "uint256",
          "name": "_amount",
          "type": "uint256"
        }
      ],
      "name": "addMoney",
      "outputs": [],
      "stateMutability": "payable",
      "type": "function",
      "payable": true
    },
    {
      "inputs": [
        {
          "internalType": "uint256",
          "name": "_id",
          "type": "uint256"
        },
        {
          "internalType": "uint256",
          "name": "_answer",
          "type": "uint256"
        }
      ],
      "name": "setAnswer",
      "outputs": [],
      "stateMutability": "nonpayable",
      "type": "function"
    },
    {
      "inputs": [
        {
          "internalType": "uint256",
          "name": "_id",
          "type": "uint256"
        }
      ],
      "name": "distributeMoney",
      "outputs": [],
      "stateMutability": "payable",
      "type": "function",
      "payable": true
    },
    {
      "inputs": [
        {
          "internalType": "uint256",
          "name": "_id",
          "type": "uint256"
        },
        {
          "internalType": "string",
          "name": "_comment",
          "type": "string"
        }
      ],
      "name": "addComment",
      "outputs": [],
      "stateMutability": "nonpayable",
      "type": "function"
    },
    {
      "inputs": [],
      "name": "spinWheel",
      "outputs": [
        {
          "internalType": "enum OnlineBetting.Reward",
          "name": "",
          "type": "uint8"
        }
      ],
      "stateMutability": "payable",
      "type": "function",
      "payable": true
    },
    {
      "inputs": [],
      "name": "getIds",
      "outputs": [
        {
          "internalType": "uint256[]",
          "name": "",
          "type": "uint256[]"
        },
        {
          "internalType": "enum OnlineBetting.Status[]",
          "name": "",
          "type": "uint8[]"
        }
      ],
      "stateMutability": "view",
      "type": "function",
      "constant": true
    },
    {
      "inputs": [],
      "name": "getLastBet",
      "outputs": [
        {
          "components": [
            {
              "internalType": "string",
              "name": "title",
              "type": "string"
            },
            {
              "internalType": "string[]",
              "name": "choices",
              "type": "string[]"
            },
            {
              "internalType": "string[]",
              "name": "comments",
              "type": "string[]"
            },
            {
              "internalType": "address",
              "name": "owner",
              "type": "address"
            },
            {
              "internalType": "uint256",
              "name": "lowerBound",
              "type": "uint256"
            },
            {
              "internalType": "uint256",
              "name": "currentAmount",
              "type": "uint256"
            },
            {
              "internalType": "uint256",
              "name": "upperBound",
              "type": "uint256"
            },
            {
              "internalType": "uint256",
              "name": "publishTime",
              "type": "uint256"
            },
            {
              "internalType": "uint256",
              "name": "lastBetTime",
              "type": "uint256"
            },
            {
              "internalType": "uint256",
              "name": "distributeTime",
              "type": "uint256"
            },
            {
              "internalType": "uint256",
              "name": "answer",
              "type": "uint256"
            },
            {
              "internalType": "uint256[]",
              "name": "currentChoices",
              "type": "uint256[]"
            },
            {
              "internalType": "address[]",
              "name": "voter",
              "type": "address[]"
            },
            {
              "internalType": "bool",
              "name": "isAnswerSet",
              "type": "bool"
            },
            {
              "internalType": "enum OnlineBetting.Region",
              "name": "region",
              "type": "uint8"
            },
            {
              "internalType": "enum OnlineBetting.Genre",
              "name": "genre",
              "type": "uint8"
            }
          ],
          "internalType": "struct OnlineBetting.Bet",
          "name": "",
          "type": "tuple"
        }
      ],
      "stateMutability": "view",
      "type": "function",
      "constant": true
    },
    {
      "inputs": [],
      "name": "getBets",
      "outputs": [
        {
          "components": [
            {
              "internalType": "string",
              "name": "title",
              "type": "string"
            },
            {
              "internalType": "string[]",
              "name": "choices",
              "type": "string[]"
            },
            {
              "internalType": "string[]",
              "name": "comments",
              "type": "string[]"
            },
            {
              "internalType": "address",
              "name": "owner",
              "type": "address"
            },
            {
              "internalType": "uint256",
              "name": "lowerBound",
              "type": "uint256"
            },
            {
              "internalType": "uint256",
              "name": "currentAmount",
              "type": "uint256"
            },
            {
              "internalType": "uint256",
              "name": "upperBound",
              "type": "uint256"
            },
            {
              "internalType": "uint256",
              "name": "publishTime",
              "type": "uint256"
            },
            {
              "internalType": "uint256",
              "name": "lastBetTime",
              "type": "uint256"
            },
            {
              "internalType": "uint256",
              "name": "distributeTime",
              "type": "uint256"
            },
            {
              "internalType": "uint256",
              "name": "answer",
              "type": "uint256"
            },
            {
              "internalType": "uint256[]",
              "name": "currentChoices",
              "type": "uint256[]"
            },
            {
              "internalType": "address[]",
              "name": "voter",
              "type": "address[]"
            },
            {
              "internalType": "bool",
              "name": "isAnswerSet",
              "type": "bool"
            },
            {
              "internalType": "enum OnlineBetting.Region",
              "name": "region",
              "type": "uint8"
            },
            {
              "internalType": "enum OnlineBetting.Genre",
              "name": "genre",
              "type": "uint8"
            }
          ],
          "internalType": "struct OnlineBetting.Bet[]",
          "name": "",
          "type": "tuple[]"
        }
      ],
      "stateMutability": "view",
      "type": "function",
      "constant": true
    },
    {
      "inputs": [],
      "name": "getHotBets",
      "outputs": [
        {
          "components": [
            {
              "internalType": "string",
              "name": "title",
              "type": "string"
            },
            {
              "internalType": "string[]",
              "name": "choices",
              "type": "string[]"
            },
            {
              "internalType": "string[]",
              "name": "comments",
              "type": "string[]"
            },
            {
              "internalType": "address",
              "name": "owner",
              "type": "address"
            },
            {
              "internalType": "uint256",
              "name": "lowerBound",
              "type": "uint256"
            },
            {
              "internalType": "uint256",
              "name": "currentAmount",
              "type": "uint256"
            },
            {
              "internalType": "uint256",
              "name": "upperBound",
              "type": "uint256"
            },
            {
              "internalType": "uint256",
              "name": "publishTime",
              "type": "uint256"
            },
            {
              "internalType": "uint256",
              "name": "lastBetTime",
              "type": "uint256"
            },
            {
              "internalType": "uint256",
              "name": "distributeTime",
              "type": "uint256"
            },
            {
              "internalType": "uint256",
              "name": "answer",
              "type": "uint256"
            },
            {
              "internalType": "uint256[]",
              "name": "currentChoices",
              "type": "uint256[]"
            },
            {
              "internalType": "address[]",
              "name": "voter",
              "type": "address[]"
            },
            {
              "internalType": "bool",
              "name": "isAnswerSet",
              "type": "bool"
            },
            {
              "internalType": "enum OnlineBetting.Region",
              "name": "region",
              "type": "uint8"
            },
            {
              "internalType": "enum OnlineBetting.Genre",
              "name": "genre",
              "type": "uint8"
            }
          ],
          "internalType": "struct OnlineBetting.Bet[]",
          "name": "",
          "type": "tuple[]"
        }
      ],
      "stateMutability": "view",
      "type": "function",
      "constant": true
    },
    {
      "inputs": [
        {
          "internalType": "uint256",
          "name": "_id",
          "type": "uint256"
        }
      ],
      "name": "getComments",
      "outputs": [
        {
          "internalType": "string[]",
          "name": "",
          "type": "string[]"
        }
      ],
      "stateMutability": "view",
      "type": "function",
      "constant": true
    },
    {
      "inputs": [],
      "name": "getMemberView",
      "outputs": [
        {
          "components": [
            {
              "internalType": "uint256",
              "name": "betsConstructed",
              "type": "uint256"
            },
            {
              "internalType": "uint256",
              "name": "moneyAdded",
              "type": "uint256"
            },
            {
              "internalType": "bool",
              "name": "isVIP",
              "type": "bool"
            }
          ],
          "internalType": "struct OnlineBetting.MemberView",
          "name": "",
          "type": "tuple"
        }
      ],
      "stateMutability": "view",
      "type": "function",
      "constant": true
    }
  ],
  "bytecode": "0x608060405234801561001057600080fd5b5060008081905550614fce806100276000396000f3fe6080604052600436106100c25760003560e01c8063950d11871161007f578063aa7e568311610059578063aa7e568314610211578063bbce3fc21461023a578063caf76d4114610265578063e6a7dc2b1461028e576100c2565b8063950d11871461019f578063a0f8973a146101ca578063a6afd5fd146101e6576100c2565b806315032fb2146100c757806315ecef92146100d157806323edf697146100ef57806324b204ab1461012c5780632b105663146101485780633a8aa9a514610174575b600080fd5b6100cf6102b7565b005b6100d9610395565b6040516100e69190614a10565b60405180910390f35b3480156100fb57600080fd5b506101166004803603810190610111919061389a565b61077d565b6040516101239190614995565b60405180910390f35b61014660048036038101906101419190613953565b610884565b005b34801561015457600080fd5b5061015d610b7b565b60405161016b9291906149d9565b60405180910390f35b34801561018057600080fd5b50610189610c9a565b6040516101969190614b2d565b60405180910390f35b3480156101ab57600080fd5b506101b4610d20565b6040516101c191906149b7565b60405180910390f35b6101e460048036038101906101df919061389a565b610dec565b005b3480156101f257600080fd5b506101fb61142b565b60405161020891906149b7565b60405180910390f35b34801561021d57600080fd5b50610238600480360381019061023391906138c3565b611975565b005b34801561024657600080fd5b5061024f611a0a565b60405161025c9190614b0b565b60405180910390f35b34801561027157600080fd5b5061028c60048036038101906102879190613917565b611eaf565b005b34801561029a57600080fd5b506102b560048036038101906102b09190613774565b611fbb565b005b6706f05b59d3b200003414610301576040517f08c379a00000000000000000000000000000000000000000000000000000000081526004016102f890614a2b565b60405180910390fd5b6001600260003373ffffffffffffffffffffffffffffffffffffffff1673ffffffffffffffffffffffffffffffffffffffff16815260200190815260200160002060020160006101000a81548160ff0219169083151502179055507fae988cc47e58f3e7d89bba758a5bfd7227a6be5930d95147b89ab3086885b4c93360405161038b9190614951565b60405180910390a1565b600067016345785d8a000034146103e1576040517f08c379a00000000000000000000000000000000000000000000000000000000081526004016103d890614aab565b60405180910390fd5b6064600080828254019250508190555060006103fb612277565b90506000811415610460573373ffffffffffffffffffffffffffffffffffffffff166108fc6000549081150290604051600060405180830381858888f1935050505015801561044e573d6000803e3d6000fd5b5060008081905550600791505061077a565b60008111801561047257506101f48111155b156104da573373ffffffffffffffffffffffffffffffffffffffff166108fc6000549081150290604051600060405180830381858888f193505050501580156104bf573d6000803e3d6000fd5b5060c86000808282540392505081905550600691505061077a565b6101f4811180156104ed57506103e88111155b1561054c573373ffffffffffffffffffffffffffffffffffffffff166108fc6000549081150290604051600060405180830381858888f1935050505015801561053a573d6000803e3d6000fd5b5060008081905550600591505061077a565b6103e88111801561055f57506107d08111155b156105be573373ffffffffffffffffffffffffffffffffffffffff166108fc6000549081150290604051600060405180830381858888f193505050501580156105ac573d6000803e3d6000fd5b5060008081905550600491505061077a565b6107d0811180156105d15750610bb88111155b15610630573373ffffffffffffffffffffffffffffffffffffffff166108fc6000549081150290604051600060405180830381858888f1935050505015801561061e573d6000803e3d6000fd5b5060008081905550600391505061077a565b610bb8811180156106435750610fa08111155b156106a2573373ffffffffffffffffffffffffffffffffffffffff166108fc6000549081150290604051600060405180830381858888f19350505050158015610690573d6000803e3d6000fd5b5060008081905550600291505061077a565b610fa0811180156106b55750611b588111155b15610714573373ffffffffffffffffffffffffffffffffffffffff166108fc6000549081150290604051600060405180830381858888f19350505050158015610702573d6000803e3d6000fd5b5060008081905550600091505061077a565b611b58811115610778573373ffffffffffffffffffffffffffffffffffffffff166108fc6000549081150290604051600060405180830381858888f19350505050158015610766573d6000803e3d6000fd5b5060008081905550600191505061077a565b505b90565b60606001828154811061078c57fe5b90600052602060002090600e0201600201805480602002602001604051908101604052809291908181526020016000905b82821015610879578382906000526020600020018054600181600116156101000203166002900480601f0160208091040260200160405190810160405280929190818152602001828054600181600116156101000203166002900480156108655780601f1061083a57610100808354040283529160200191610865565b820191906000526020600020905b81548152906001019060200180831161084857829003601f168201915b5050505050815260200190600101906107bd565b505050509050919050565b8261088e816122ba565b6108cd576040517f08c379a00000000000000000000000000000000000000000000000000000000081526004016108c490614acb565b60405180910390fd5b8382600182815481106108dc57fe5b90600052602060002090600e02016006015481600184815481106108fc57fe5b90600052602060002090600e020160050154011115610950576040517f08c379a000000000000000000000000000000000000000000000000000000000815260040161094790614aeb565b60405180910390fd5b66038d7ea4c680008402341461099b576040517f08c379a000000000000000000000000000000000000000000000000000000000815260040161099290614a4b565b60405180910390fd5b600186815481106109a857fe5b90600052602060002090600e0201600801544211156109fc576040517f08c379a00000000000000000000000000000000000000000000000000000000081526004016109f390614a8b565b60405180910390fd5b8360018781548110610a0a57fe5b90600052602060002090600e0201600501600082825401925050819055508360018781548110610a3657fe5b90600052602060002090600e0201600b018681548110610a5257fe5b9060005260206000200160008282540192505081905550610a7386336122e5565b836003600088815260200190815260200160002060003373ffffffffffffffffffffffffffffffffffffffff1673ffffffffffffffffffffffffffffffffffffffff1681526020019081526020016000208681548110610acf57fe5b90600052602060002001600082825401925050819055507f9ae068d0bdbacb4831e59338d8b28e0bbd2d53764219e625df5dbad665cd3a3386338787604051610b1b9493929190614b48565b60405180910390a183600260003373ffffffffffffffffffffffffffffffffffffffff1673ffffffffffffffffffffffffffffffffffffffff16815260200190815260200160002060010160008282540192505081905550505050505050565b606080606060018054905067ffffffffffffffff81118015610b9c57600080fd5b50604051908082528060200260200182016040528015610bcb5781602001602082028036833780820191505090505b509050606060018054905067ffffffffffffffff81118015610bec57600080fd5b50604051908082528060200260200182016040528015610c1b5781602001602082028036833780820191505090505b50905060005b600180549050811015610c8d5780838281518110610c3b57fe5b602002602001018181525050610c5081612493565b828281518110610c5c57fe5b60200260200101906003811115610c6f57fe5b90816003811115610c7c57fe5b815250508080600101915050610c21565b5081819350935050509091565b610ca2613413565b600260003373ffffffffffffffffffffffffffffffffffffffff1673ffffffffffffffffffffffffffffffffffffffff16815260200190815260200160002060405180606001604052908160008201548152602001600182015481526020016002820160009054906101000a900460ff161515151581525050905090565b606080610d2b61142b565b90506060610d3b600a8351612a80565b67ffffffffffffffff81118015610d5157600080fd5b50604051908082528060200260200182016040528015610d8b57816020015b610d78613436565b815260200190600190039081610d705790505b509050610d9782612a9c565b60005b610da6600a8451612a80565b811015610de357828181518110610db957fe5b6020026020010151828281518110610dcd57fe5b6020026020010181905250806001019050610d9a565b50809250505090565b60018181548110610df957fe5b90600052602060002090600e020160030160009054906101000a900473ffffffffffffffffffffffffffffffffffffffff1673ffffffffffffffffffffffffffffffffffffffff163373ffffffffffffffffffffffffffffffffffffffff1614610e6257600080fd5b60018181548110610e6f57fe5b90600052602060002090600e0201600d0160009054906101000a900460ff16156111fc576000600560018381548110610ea457fe5b90600052602060002090600e0201600501540290506000605a60018481548110610eca57fe5b90600052602060002090600e020160050154029050600060018481548110610eee57fe5b90600052602060002090600e0201600c01805490509050600060018581548110610f1457fe5b90600052602060002090600e0201600a0154905060003390508073ffffffffffffffffffffffffffffffffffffffff166108fc6509184e72a00087029081150290604051600060405180830381858888f19350505050158015610f7b573d6000803e3d6000fd5b507f9bb2540ba4555d75223ea5cea496bb837f39aecdc27e8a45a41e3c7b2c4f8f558186604051610fad92919061496c565b60405180910390a160005b838110156111f15760018781548110610fcd57fe5b90600052602060002090600e0201600c018181548110610fe957fe5b9060005260206000200160009054906101000a900473ffffffffffffffffffffffffffffffffffffffff1691508173ffffffffffffffffffffffffffffffffffffffff166108fc6001898154811061103d57fe5b90600052602060002090600e0201600b01858154811061105957fe5b9060005260206000200154600360008b815260200190815260200160002060008673ffffffffffffffffffffffffffffffffffffffff1673ffffffffffffffffffffffffffffffffffffffff16815260200190815260200160002086815481106110bf57fe5b90600052602060002001546509184e72a000890202816110db57fe5b049081150290604051600060405180830381858888f19350505050158015611107573d6000803e3d6000fd5b507f9bb2540ba4555d75223ea5cea496bb837f39aecdc27e8a45a41e3c7b2c4f8f55826001898154811061113757fe5b90600052602060002090600e0201600b01858154811061115357fe5b9060005260206000200154600360008b815260200190815260200160002060008673ffffffffffffffffffffffffffffffffffffffff1673ffffffffffffffffffffffffffffffffffffffff16815260200190815260200160002086815481106111b957fe5b90600052602060002001548802816111cd57fe5b046040516111dc92919061496c565b60405180910390a18080600101915050610fb8565b505050505050611428565b6000806001838154811061120c57fe5b90600052602060002090600e0201600c0180549050905060006001848154811061123257fe5b90600052602060002090600e020160010180549050905060005b82811015611423576001858154811061126157fe5b90600052602060002090600e0201600c01818154811061127d57fe5b9060005260206000200160009054906101000a900473ffffffffffffffffffffffffffffffffffffffff16935060005b82811015611415578473ffffffffffffffffffffffffffffffffffffffff166108fc66038d7ea4c68000600360008a815260200190815260200160002060008973ffffffffffffffffffffffffffffffffffffffff1673ffffffffffffffffffffffffffffffffffffffff168152602001908152602001600020848154811061133257fe5b9060005260206000200154029081150290604051600060405180830381858888f19350505050158015611369573d6000803e3d6000fd5b507f9bb2540ba4555d75223ea5cea496bb837f39aecdc27e8a45a41e3c7b2c4f8f55856003600089815260200190815260200160002060008873ffffffffffffffffffffffffffffffffffffffff1673ffffffffffffffffffffffffffffffffffffffff16815260200190815260200160002083815481106113e757fe5b906000526020600020015460405161140092919061496c565b60405180910390a180806001019150506112ad565b50808060010191505061124c565b505050505b50565b606060006060611439612aaf565b809250819350505060608267ffffffffffffffff8111801561145a57600080fd5b5060405190808252806020026020018201604052801561149457816020015b611481613436565b8152602001906001900390816114795790505b50905060005b8381101561196b5760018382815181106114b057fe5b6020026020010151815481106114c257fe5b90600052602060002090600e020160405180610200016040529081600082018054600181600116156101000203166002900480601f0160208091040260200160405190810160405280929190818152602001828054600181600116156101000203166002900480156115755780601f1061154a57610100808354040283529160200191611575565b820191906000526020600020905b81548152906001019060200180831161155857829003601f168201915b5050505050815260200160018201805480602002602001604051908101604052809291908181526020016000905b8282101561165f578382906000526020600020018054600181600116156101000203166002900480601f01602080910402602001604051908101604052809291908181526020018280546001816001161561010002031660029004801561164b5780601f106116205761010080835404028352916020019161164b565b820191906000526020600020905b81548152906001019060200180831161162e57829003601f168201915b5050505050815260200190600101906115a3565b50505050815260200160028201805480602002602001604051908101604052809291908181526020016000905b82821015611748578382906000526020600020018054600181600116156101000203166002900480601f0160208091040260200160405190810160405280929190818152602001828054600181600116156101000203166002900480156117345780601f1061170957610100808354040283529160200191611734565b820191906000526020600020905b81548152906001019060200180831161171757829003601f168201915b50505050508152602001906001019061168c565b5050505081526020016003820160009054906101000a900473ffffffffffffffffffffffffffffffffffffffff1673ffffffffffffffffffffffffffffffffffffffff1673ffffffffffffffffffffffffffffffffffffffff168152602001600482015481526020016005820154815260200160068201548152602001600782015481526020016008820154815260200160098201548152602001600a8201548152602001600b820180548060200260200160405190810160405280929190818152602001828054801561183b57602002820191906000526020600020905b815481526020019060010190808311611827575b50505050508152602001600c82018054806020026020016040519081016040528092919081815260200182805480156118c957602002820191906000526020600020905b8160009054906101000a900473ffffffffffffffffffffffffffffffffffffffff1673ffffffffffffffffffffffffffffffffffffffff168152602001906001019080831161187f575b50505050508152602001600d820160009054906101000a900460ff16151515158152602001600d820160019054906101000a900460ff16600981111561190b57fe5b600981111561191657fe5b8152602001600d820160029054906101000a900460ff16600981111561193857fe5b600981111561194357fe5b8152505082828151811061195357fe5b6020026020010181905250808060010191505061149a565b5080935050505090565b6001828154811061198257fe5b90600052602060002090600e0201600201819080600181540180825580915050600190039060005260206000200160009091909190915090805190602001906119cc9291906134e1565b507f3b0cf47bf0008e5099d76f10a991fc69e1984797f0830b83910efb1c4d59c1f382826040516119fe929190614b8d565b60405180910390a15050565b611a12613436565b60018080805490500381548110611a2557fe5b90600052602060002090600e020160405180610200016040529081600082018054600181600116156101000203166002900480601f016020809104026020016040519081016040528092919081815260200182805460018160011615610100020316600290048015611ad85780601f10611aad57610100808354040283529160200191611ad8565b820191906000526020600020905b815481529060010190602001808311611abb57829003601f168201915b5050505050815260200160018201805480602002602001604051908101604052809291908181526020016000905b82821015611bc2578382906000526020600020018054600181600116156101000203166002900480601f016020809104026020016040519081016040528092919081815260200182805460018160011615610100020316600290048015611bae5780601f10611b8357610100808354040283529160200191611bae565b820191906000526020600020905b815481529060010190602001808311611b9157829003601f168201915b505050505081526020019060010190611b06565b50505050815260200160028201805480602002602001604051908101604052809291908181526020016000905b82821015611cab578382906000526020600020018054600181600116156101000203166002900480601f016020809104026020016040519081016040528092919081815260200182805460018160011615610100020316600290048015611c975780601f10611c6c57610100808354040283529160200191611c97565b820191906000526020600020905b815481529060010190602001808311611c7a57829003601f168201915b505050505081526020019060010190611bef565b5050505081526020016003820160009054906101000a900473ffffffffffffffffffffffffffffffffffffffff1673ffffffffffffffffffffffffffffffffffffffff1673ffffffffffffffffffffffffffffffffffffffff168152602001600482015481526020016005820154815260200160068201548152602001600782015481526020016008820154815260200160098201548152602001600a8201548152602001600b8201805480602002602001604051908101604052809291908181526020018280548015611d9e57602002820191906000526020600020905b815481526020019060010190808311611d8a575b50505050508152602001600c8201805480602002602001604051908101604052809291908181526020018280548015611e2c57602002820191906000526020600020905b8160009054906101000a900473ffffffffffffffffffffffffffffffffffffffff1673ffffffffffffffffffffffffffffffffffffffff1681526020019060010190808311611de2575b50505050508152602001600d820160009054906101000a900460ff16151515158152602001600d820160019054906101000a900460ff166009811115611e6e57fe5b6009811115611e7957fe5b8152602001600d820160029054906101000a900460ff166009811115611e9b57fe5b6009811115611ea657fe5b81525050905090565b60018281548110611ebc57fe5b90600052602060002090600e020160030160009054906101000a900473ffffffffffffffffffffffffffffffffffffffff1673ffffffffffffffffffffffffffffffffffffffff163373ffffffffffffffffffffffffffffffffffffffff1614611f2557600080fd5b8060018381548110611f3357fe5b90600052602060002090600e0201600a01819055506001808381548110611f5657fe5b90600052602060002090600e0201600d0160006101000a81548160ff0219169083151502179055507f4772d83d7289b527150ec81022e02e39b5b278f66492d7f0702903636f33396d8282604051611faf929190614bbd565b60405180910390a15050565b600260003373ffffffffffffffffffffffffffffffffffffffff1673ffffffffffffffffffffffffffffffffffffffff16815260200190815260200160002060020160009054906101000a900460ff1661204a576040517f08c379a000000000000000000000000000000000000000000000000000000000815260040161204190614a6b565b60405180910390fd5b6000600180549050905060008451905060608167ffffffffffffffff8111801561207357600080fd5b506040519080825280602002602001820160405280156120a25781602001602082028036833780820191505090505b5090506000600180816001815401808255809150500390600052602060002090600e020190508c8160000190805190602001906120e09291906134e1565b50338160030160006101000a81548173ffffffffffffffffffffffffffffffffffffffff021916908373ffffffffffffffffffffffffffffffffffffffff1602179055508b81600401819055508a816006018190555089816007018190555088816008018190555087816009018190555086816001019080519060200190612169929190613561565b508181600b0190805190602001906121829291906135c1565b5061218c86612b5d565b81600d0160016101000a81548160ff021916908360098111156121ab57fe5b02179055506121b985612e9c565b81600d0160026101000a81548160ff021916908360098111156121d857fe5b02179055507ffd9b824c32c4b314de8cc8632b170ef722e0fa61fcf35583a814356d916bc1fa848e60405161220e929190614b8d565b60405180910390a1600260003373ffffffffffffffffffffffffffffffffffffffff1673ffffffffffffffffffffffffffffffffffffffff1681526020019081526020016000206000016000815480929190600101919050555050505050505050505050505050565b600080444260405160200161228d929190614925565b6040516020818303038152906040528051906020012060001c905061271081816122b357fe5b0691505090565b6000600182815481106122c957fe5b90600052602060002090600e0201600701544211159050919050565b816122ef816122ba565b61232e576040517f08c379a000000000000000000000000000000000000000000000000000000000815260040161232590614acb565b60405180910390fd5b600061233a84846131db565b90508061248d576001848154811061234e57fe5b90600052602060002090600e0201600c01839080600181540180825580915050600190039060005260206000200160009091909190916101000a81548173ffffffffffffffffffffffffffffffffffffffff021916908373ffffffffffffffffffffffffffffffffffffffff160217905550600184815481106123cd57fe5b90600052602060002090600e02016001018054905067ffffffffffffffff811180156123f857600080fd5b506040519080825280602002602001820160405280156124275781602001602082028036833780820191505090505b506003600086815260200190815260200160002060003373ffffffffffffffffffffffffffffffffffffffff1673ffffffffffffffffffffffffffffffffffffffff168152602001908152602001600020908051906020019061248b9291906135c1565b505b50505050565b600061249d613436565b600183815481106124aa57fe5b90600052602060002090600e020160405180610200016040529081600082018054600181600116156101000203166002900480601f01602080910402602001604051908101604052809291908181526020018280546001816001161561010002031660029004801561255d5780601f106125325761010080835404028352916020019161255d565b820191906000526020600020905b81548152906001019060200180831161254057829003601f168201915b5050505050815260200160018201805480602002602001604051908101604052809291908181526020016000905b82821015612647578382906000526020600020018054600181600116156101000203166002900480601f0160208091040260200160405190810160405280929190818152602001828054600181600116156101000203166002900480156126335780601f1061260857610100808354040283529160200191612633565b820191906000526020600020905b81548152906001019060200180831161261657829003601f168201915b50505050508152602001906001019061258b565b50505050815260200160028201805480602002602001604051908101604052809291908181526020016000905b82821015612730578382906000526020600020018054600181600116156101000203166002900480601f01602080910402602001604051908101604052809291908181526020018280546001816001161561010002031660029004801561271c5780601f106126f15761010080835404028352916020019161271c565b820191906000526020600020905b8154815290600101906020018083116126ff57829003601f168201915b505050505081526020019060010190612674565b5050505081526020016003820160009054906101000a900473ffffffffffffffffffffffffffffffffffffffff1673ffffffffffffffffffffffffffffffffffffffff1673ffffffffffffffffffffffffffffffffffffffff168152602001600482015481526020016005820154815260200160068201548152602001600782015481526020016008820154815260200160098201548152602001600a8201548152602001600b820180548060200260200160405190810160405280929190818152602001828054801561282357602002820191906000526020600020905b81548152602001906001019080831161280f575b50505050508152602001600c82018054806020026020016040519081016040528092919081815260200182805480156128b157602002820191906000526020600020905b8160009054906101000a900473ffffffffffffffffffffffffffffffffffffffff1673ffffffffffffffffffffffffffffffffffffffff1681526020019060010190808311612867575b50505050508152602001600d820160009054906101000a900460ff16151515158152602001600d820160019054906101000a900460ff1660098111156128f357fe5b60098111156128fe57fe5b8152602001600d820160029054906101000a900460ff16600981111561292057fe5b600981111561292b57fe5b8152505090503373ffffffffffffffffffffffffffffffffffffffff16816060015173ffffffffffffffffffffffffffffffffffffffff161480156129735750428160e00151115b15612982576000915050612a7b565b3373ffffffffffffffffffffffffffffffffffffffff16816060015173ffffffffffffffffffffffffffffffffffffffff16141580156129c55750428160e00151115b156129d4576001915050612a7b565b3373ffffffffffffffffffffffffffffffffffffffff16816060015173ffffffffffffffffffffffffffffffffffffffff16148015612a175750428160e0015111155b15612a26576002915050612a7b565b3373ffffffffffffffffffffffffffffffffffffffff16816060015173ffffffffffffffffffffffffffffffffffffffff1614158015612a6a5750428160e0015111155b15612a79576003915050612a7b565b505b919050565b600081831115612a9257819050612a96565b8290505b92915050565b612aac81600060018451036132b9565b50565b600060608060018054905067ffffffffffffffff81118015612ad057600080fd5b50604051908082528060200260200182016040528015612aff5781602001602082028036833780820191505090505b5090506000805b600180549050811015612b5057612b1c816122ba565b15612b435780838381518110612b2e57fe5b60200260200101818152505081806001019250505b8080600101915050612b06565b5080829350935050509091565b6000604051602001612b6e906148d1565b6040516020818303038152906040528051906020012082604051602001612b959190614794565b604051602081830303815290604052805190602001201415612bba5760019050612e97565b604051602001612bc99061483e565b6040516020818303038152906040528051906020012082604051602001612bf09190614794565b604051602081830303815290604052805190602001201415612c155760029050612e97565b604051602001612c2490614829565b6040516020818303038152906040528051906020012082604051602001612c4b9190614794565b604051602081830303815290604052805190602001201415612c705760039050612e97565b604051602001612c7f906148a7565b6040516020818303038152906040528051906020012082604051602001612ca69190614794565b604051602081830303815290604052805190602001201415612ccb5760049050612e97565b604051602001612cda906148fb565b6040516020818303038152906040528051906020012082604051602001612d019190614794565b604051602081830303815290604052805190602001201415612d265760059050612e97565b604051602001612d35906147d5565b6040516020818303038152906040528051906020012082604051602001612d5c9190614794565b604051602081830303815290604052805190602001201415612d815760069050612e97565b604051602001612d90906147ff565b6040516020818303038152906040528051906020012082604051602001612db79190614794565b604051602081830303815290604052805190602001201415612ddc5760079050612e97565b604051602001612deb906148bc565b6040516020818303038152906040528051906020012082604051602001612e129190614794565b604051602081830303815290604052805190602001201415612e375760089050612e97565b604051602001612e4690614892565b6040516020818303038152906040528051906020012082604051602001612e6d9190614794565b604051602081830303815290604052805190602001201415612e925760099050612e97565b600090505b919050565b6000604051602001612ead906148e6565b6040516020818303038152906040528051906020012082604051602001612ed49190614794565b604051602081830303815290604052805190602001201415612ef957600190506131d6565b604051602001612f0890614853565b6040516020818303038152906040528051906020012082604051602001612f2f9190614794565b604051602081830303815290604052805190602001201415612f5457600390506131d6565b604051602001612f63906147c0565b6040516020818303038152906040528051906020012082604051602001612f8a9190614794565b604051602081830303815290604052805190602001201415612faf57600290506131d6565b604051602001612fbe90614868565b6040516020818303038152906040528051906020012082604051602001612fe59190614794565b60405160208183030381529060405280519060200120141561300a57600490506131d6565b604051602001613019906147ea565b60405160208183030381529060405280519060200120826040516020016130409190614794565b60405160208183030381529060405280519060200120141561306557600590506131d6565b604051602001613074906147ab565b604051602081830303815290604052805190602001208260405160200161309b9190614794565b6040516020818303038152906040528051906020012014156130c057600690506131d6565b6040516020016130cf90614910565b60405160208183030381529060405280519060200120826040516020016130f69190614794565b60405160208183030381529060405280519060200120141561311b57600790506131d6565b60405160200161312a9061487d565b60405160208183030381529060405280519060200120826040516020016131519190614794565b60405160208183030381529060405280519060200120141561317657600890506131d6565b60405160200161318590614814565b60405160208183030381529060405280519060200120826040516020016131ac9190614794565b6040516020818303038152906040528051906020012014156131d157600990506131d6565b600090505b919050565b600080600184815481106131eb57fe5b90600052602060002090600e0201600c0180549050905060005b818110156132ac578373ffffffffffffffffffffffffffffffffffffffff166001868154811061323157fe5b90600052602060002090600e0201600c01828154811061324d57fe5b9060005260206000200160009054906101000a900473ffffffffffffffffffffffffffffffffffffffff1673ffffffffffffffffffffffffffffffffffffffff16141561329f576001925050506132b3565b8080600101915050613205565b5060009150505b92915050565b600082905060008290508082106132d157505061340e565b6132d9613436565b856002858701816132e657fe5b04815181106132f157fe5b602002602001015190505b8183116133e2575b8061018001515186848151811061331757fe5b60200260200101516101800151511115613338578280600101935050613304565b5b85828151811061334557fe5b602002602001015161018001515181610180015151111561336e57818060019003925050613339565b8183116133dd5785828151811061338157fe5b602002602001015186848151811061339557fe5b60200260200101518785815181106133a957fe5b602002602001018885815181106133bc57fe5b60200260200101829052829052505082806001019350508180600190039250505b6132fc565b818510156133f6576133f58686846132b9565b5b8383101561340a576134098684866132b9565b5b5050505b505050565b604051806060016040528060008152602001600081526020016000151581525090565b604051806102000160405280606081526020016060815260200160608152602001600073ffffffffffffffffffffffffffffffffffffffff168152602001600081526020016000815260200160008152602001600081526020016000815260200160008152602001600081526020016060815260200160608152602001600015158152602001600060098111156134c957fe5b8152602001600060098111156134db57fe5b81525090565b828054600181600116156101000203166002900490600052602060002090601f016020900481019282601f1061352257805160ff1916838001178555613550565b82800160010185558215613550579182015b8281111561354f578251825591602001919060010190613534565b5b50905061355d919061360e565b5090565b8280548282559060005260206000209081019282156135b0579160200282015b828111156135af57825182908051906020019061359f9291906134e1565b5091602001919060010190613581565b5b5090506135bd919061362b565b5090565b8280548282559060005260206000209081019282156135fd579160200282015b828111156135fc5782518255916020019190600101906135e1565b5b50905061360a919061360e565b5090565b5b8082111561362757600081600090555060010161360f565b5090565b5b8082111561364b5760008181613642919061364f565b5060010161362c565b5090565b50805460018160011615610100020316600290046000825580601f106136755750613694565b601f016020900490600052602060002090810190613693919061360e565b5b50565b600082601f8301126136a857600080fd5b81356136bb6136b682614c13565b614be6565b9150818183526020840193506020810190508360005b8381101561370157813586016136e7888261370b565b8452602084019350602083019250506001810190506136d1565b5050505092915050565b600082601f83011261371c57600080fd5b813561372f61372a82614c3b565b614be6565b9150808252602083016020830185838301111561374b57600080fd5b613756838284614ef0565b50505092915050565b60008135905061376e81614f81565b92915050565b60008060008060008060008060006101208a8c03121561379357600080fd5b60008a013567ffffffffffffffff8111156137ad57600080fd5b6137b98c828d0161370b565b99505060206137ca8c828d0161375f565b98505060406137db8c828d0161375f565b97505060606137ec8c828d0161375f565b96505060806137fd8c828d0161375f565b95505060a061380e8c828d0161375f565b94505060c08a013567ffffffffffffffff81111561382b57600080fd5b6138378c828d01613697565b93505060e08a013567ffffffffffffffff81111561385457600080fd5b6138608c828d0161370b565b9250506101008a013567ffffffffffffffff81111561387e57600080fd5b61388a8c828d0161370b565b9150509295985092959850929598565b6000602082840312156138ac57600080fd5b60006138ba8482850161375f565b91505092915050565b600080604083850312156138d657600080fd5b60006138e48582860161375f565b925050602083013567ffffffffffffffff81111561390157600080fd5b61390d8582860161370b565b9150509250929050565b6000806040838503121561392a57600080fd5b60006139388582860161375f565b92505060206139498582860161375f565b9150509250929050565b60008060006060848603121561396857600080fd5b60006139768682870161375f565b93505060206139878682870161375f565b92505060406139988682870161375f565b9150509250925092565b60006139ae8383613a21565b60208301905092915050565b60006139c68383613d43565b60208301905092915050565b60006139de8383613d52565b905092915050565b60006139f28383614435565b905092915050565b6000613a06838361475f565b60208301905092915050565b613a1b81614e72565b82525050565b613a2a81614dde565b82525050565b6000613a3b82614cb7565b613a458185614d3a565b9350613a5083614c67565b8060005b83811015613a81578151613a6888826139a2565b9750613a7383614cf9565b925050600181019050613a54565b5085935050505092915050565b6000613a9982614cc2565b613aa38185614da0565b9350613aae83614c77565b8060005b83811015613adf578151613ac688826139ba565b9750613ad183614d06565b925050600181019050613ab2565b5085935050505092915050565b6000613af782614ccd565b613b018185614d4b565b935083602082028501613b1385614c87565b8060005b85811015613b4f5784840389528151613b3085826139d2565b9450613b3b83614d13565b925060208a01995050600181019050613b17565b50829750879550505050505092915050565b6000613b6c82614ccd565b613b768185614d5c565b935083602082028501613b8885614c87565b8060005b85811015613bc45784840389528151613ba585826139d2565b9450613bb083614d13565b925060208a01995050600181019050613b8c565b50829750879550505050505092915050565b6000613be182614cd8565b613beb8185614d6d565b935083602082028501613bfd85614c97565b8060005b85811015613c395784840389528151613c1a85826139e6565b9450613c2583614d20565b925060208a01995050600181019050613c01565b50829750879550505050505092915050565b6000613c5682614ce3565b613c608185614d7e565b9350613c6b83614ca7565b8060005b83811015613c9c578151613c8388826139fa565b9750613c8e83614d2d565b925050600181019050613c6f565b5085935050505092915050565b6000613cb482614ce3565b613cbe8185614d8f565b9350613cc983614ca7565b8060005b83811015613cfa578151613ce188826139fa565b9750613cec83614d2d565b925050600181019050613ccd565b5085935050505092915050565b613d1081614df0565b82525050565b613d1f81614e84565b82525050565b613d2e81614e96565b82525050565b613d3d81614ea8565b82525050565b613d4c81614eba565b82525050565b6000613d5d82614cee565b613d678185614db1565b9350613d77818560208601614eff565b613d8081614f3c565b840191505092915050565b6000613d9682614cee565b613da08185614dc2565b9350613db0818560208601614eff565b613db981614f3c565b840191505092915050565b6000613dcf82614cee565b613dd98185614dd3565b9350613de9818560208601614eff565b80840191505092915050565b6000613e02600383614dd3565b91507f41727400000000000000000000000000000000000000000000000000000000006000830152600382019050919050565b6000613e42600883614dd3565b91507f506f6c69746963730000000000000000000000000000000000000000000000006000830152600882019050919050565b6000613e82600583614dd3565b91507f4b6f7265610000000000000000000000000000000000000000000000000000006000830152600582019050919050565b6000613ec2600483614dd3565b91507f4d656d65000000000000000000000000000000000000000000000000000000006000830152600482019050919050565b6000613f02600683614dd3565b91507f43616e61646100000000000000000000000000000000000000000000000000006000830152600682019050919050565b6000613f42600483614dd3565b91507f54656368000000000000000000000000000000000000000000000000000000006000830152600482019050919050565b6000613f82601b83614dc2565b91507f4e6f7420656e6f756768206d6f6e657920746f207365742056495000000000006000830152602082019050919050565b6000613fc2600383614dd3565b91507f55534100000000000000000000000000000000000000000000000000000000006000830152600382019050919050565b6000614002601083614dc2565b91507f4e6f7420456e6f756768204d6f6e6579000000000000000000000000000000006000830152602082019050919050565b6000614042601183614dc2565b91507f596f7520617265206e6f742056495021210000000000000000000000000000006000830152602082019050919050565b6000614082600583614dd3565b91507f4368696e610000000000000000000000000000000000000000000000000000006000830152600582019050919050565b60006140c2600683614dd3565b91507f53706f72747300000000000000000000000000000000000000000000000000006000830152600682019050919050565b6000614102600583614dd3565b91507f4d757369630000000000000000000000000000000000000000000000000000006000830152600582019050919050565b6000614142601083614dc2565b91507f4265742074696d65206973206f766572000000000000000000000000000000006000830152602082019050919050565b6000614182601883614dc2565b91507f4e6f7420656e6f756768206d6f6e657920746f207370696e00000000000000006000830152602082019050919050565b60006141c2600f83614dc2565b91507f42657420686173206578706972656400000000000000000000000000000000006000830152602082019050919050565b6000614202601183614dc2565b91507f546f6f206d756368206d6f6e65792121210000000000000000000000000000006000830152602082019050919050565b6000614242600683614dd3565b91507f5363686f6f6c00000000000000000000000000000000000000000000000000006000830152600682019050919050565b6000614282600583614dd3565b91507f4974616c790000000000000000000000000000000000000000000000000000006000830152600582019050919050565b60006142c2600283614dd3565b91507f554b0000000000000000000000000000000000000000000000000000000000006000830152600282019050919050565b6000614302600583614dd3565b91507f45677970740000000000000000000000000000000000000000000000000000006000830152600582019050919050565b6000614342600683614dd3565b91507f54616977616e00000000000000000000000000000000000000000000000000006000830152600682019050919050565b6000614382600483614dd3565b91507f4e657773000000000000000000000000000000000000000000000000000000006000830152600482019050919050565b60006143c2600583614dd3565b91507f4a6170616e0000000000000000000000000000000000000000000000000000006000830152600582019050919050565b6000614402600783614dd3565b91507f426974636f696e000000000000000000000000000000000000000000000000006000830152600782019050919050565b60006102008301600083015184820360008601526144538282613d52565b9150506020830151848203602086015261446d8282613aec565b915050604083015184820360408601526144878282613aec565b915050606083015161449c6060860182613a21565b5060808301516144af608086018261475f565b5060a08301516144c260a086018261475f565b5060c08301516144d560c086018261475f565b5060e08301516144e860e086018261475f565b506101008301516144fd61010086018261475f565b5061012083015161451261012086018261475f565b5061014083015161452761014086018261475f565b506101608301518482036101608601526145418282613c4b565b91505061018083015184820361018086015261455d8282613a30565b9150506101a08301516145746101a0860182613d07565b506101c08301516145896101c0860182613d25565b506101e083015161459e6101e0860182613d16565b508091505092915050565b60006102008301600083015184820360008601526145c78282613d52565b915050602083015184820360208601526145e18282613aec565b915050604083015184820360408601526145fb8282613aec565b91505060608301516146106060860182613a21565b506080830151614623608086018261475f565b5060a083015161463660a086018261475f565b5060c083015161464960c086018261475f565b5060e083015161465c60e086018261475f565b5061010083015161467161010086018261475f565b5061012083015161468661012086018261475f565b5061014083015161469b61014086018261475f565b506101608301518482036101608601526146b58282613c4b565b9150506101808301518482036101808601526146d18282613a30565b9150506101a08301516146e86101a0860182613d07565b506101c08301516146fd6101c0860182613d25565b506101e08301516147126101e0860182613d16565b508091505092915050565b606082016000820151614733600085018261475f565b506020820151614746602085018261475f565b5060408201516147596040850182613d07565b50505050565b61476881614e68565b82525050565b61477781614e68565b82525050565b61478e61478982614e68565b614f32565b82525050565b60006147a08284613dc4565b915081905092915050565b60006147b682613df5565b9150819050919050565b60006147cb82613e35565b9150819050919050565b60006147e082613e75565b9150819050919050565b60006147f582613eb5565b9150819050919050565b600061480a82613ef5565b9150819050919050565b600061481f82613f35565b9150819050919050565b600061483482613fb5565b9150819050919050565b600061484982614075565b9150819050919050565b600061485e826140b5565b9150819050919050565b6000614873826140f5565b9150819050919050565b600061488882614235565b9150819050919050565b600061489d82614275565b9150819050919050565b60006148b2826142b5565b9150819050919050565b60006148c7826142f5565b9150819050919050565b60006148dc82614335565b9150819050919050565b60006148f182614375565b9150819050919050565b6000614906826143b5565b9150819050919050565b600061491b826143f5565b9150819050919050565b6000614931828561477d565b602082019150614941828461477d565b6020820191508190509392505050565b60006020820190506149666000830184613a12565b92915050565b60006040820190506149816000830185613a12565b61498e602083018461476e565b9392505050565b600060208201905081810360008301526149af8184613b61565b905092915050565b600060208201905081810360008301526149d18184613bd6565b905092915050565b600060408201905081810360008301526149f38185613ca9565b90508181036020830152614a078184613a8e565b90509392505050565b6000602082019050614a256000830184613d34565b92915050565b60006020820190508181036000830152614a4481613f75565b9050919050565b60006020820190508181036000830152614a6481613ff5565b9050919050565b60006020820190508181036000830152614a8481614035565b9050919050565b60006020820190508181036000830152614aa481614135565b9050919050565b60006020820190508181036000830152614ac481614175565b9050919050565b60006020820190508181036000830152614ae4816141b5565b9050919050565b60006020820190508181036000830152614b04816141f5565b9050919050565b60006020820190508181036000830152614b2581846145a9565b905092915050565b6000606082019050614b42600083018461471d565b92915050565b6000608082019050614b5d600083018761476e565b614b6a6020830186613a12565b614b77604083018561476e565b614b84606083018461476e565b95945050505050565b6000604082019050614ba2600083018561476e565b8181036020830152614bb48184613d8b565b90509392505050565b6000604082019050614bd2600083018561476e565b614bdf602083018461476e565b9392505050565b6000604051905081810181811067ffffffffffffffff82111715614c0957600080fd5b8060405250919050565b600067ffffffffffffffff821115614c2a57600080fd5b602082029050602081019050919050565b600067ffffffffffffffff821115614c5257600080fd5b601f19601f8301169050602081019050919050565b6000819050602082019050919050565b6000819050602082019050919050565b6000819050602082019050919050565b6000819050602082019050919050565b6000819050602082019050919050565b600081519050919050565b600081519050919050565b600081519050919050565b600081519050919050565b600081519050919050565b600081519050919050565b6000602082019050919050565b6000602082019050919050565b6000602082019050919050565b6000602082019050919050565b6000602082019050919050565b600082825260208201905092915050565b600082825260208201905092915050565b600082825260208201905092915050565b600082825260208201905092915050565b600082825260208201905092915050565b600082825260208201905092915050565b600082825260208201905092915050565b600082825260208201905092915050565b600082825260208201905092915050565b600081905092915050565b6000614de982614e48565b9050919050565b60008115159050919050565b6000819050614e0a82614f4d565b919050565b6000819050614e1d82614f5a565b919050565b6000819050614e3082614f67565b919050565b6000819050614e4382614f74565b919050565b600073ffffffffffffffffffffffffffffffffffffffff82169050919050565b6000819050919050565b6000614e7d82614ecc565b9050919050565b6000614e8f82614dfc565b9050919050565b6000614ea182614e0f565b9050919050565b6000614eb382614e22565b9050919050565b6000614ec582614e35565b9050919050565b6000614ed782614ede565b9050919050565b6000614ee982614e48565b9050919050565b82818337600083830152505050565b60005b83811015614f1d578082015181840152602081019050614f02565b83811115614f2c576000848401525b50505050565b6000819050919050565b6000601f19601f8301169050919050565b600a8110614f5757fe5b50565b600a8110614f6457fe5b50565b60088110614f7157fe5b50565b60048110614f7e57fe5b50565b614f8a81614e68565b8114614f9557600080fd5b5056fea264697066735822122077b979d5e03e3b92a2bad3d59f1370d7357c29b0d39c9db29bff1e75ce3783e964736f6c634300060c0033",
  "immutableReferences": {},
  "source": "pragma solidity >=0.6.0 <0.8.0;\npragma experimental ABIEncoderV2;\n\ncontract OnlineBetting {\n\n    //constants\n    uint constant SMALLEST_FEE = 0.001 ether;\n    uint constant PERCENTAGE_FEE = 0.00001 ether;\n\n    //events\n    event BetAdded(uint betId, string title);  //emit when\n    event MoneyAdded(uint betId, address adder, uint choice, uint amount);\n    event AnswerSet(uint betId, uint choice);\n    event MoneyGiven(address receiver, uint amount);\n    event SetVIP(address member);\n    event AddComment(uint betId, string comment);\n\n    //Enums\n    enum Status{ OwnAvailable, OtherAvailable, OwnExpire, OtherExpire }\n    enum Region{ Other, Taiwan, China, USA, UK, Japan, Korea, Canada, Egypt, Italy }\n    enum Genre{ Other, News, Politics, Sports, Music, Meme, Art, Bitcoin, School, Tech }\n    enum Reward{ Sorry, ByeBye, haha_10, haha_20, haha_50, haha_100, haha_200, Jackpot}\n\n    //Bet\n    struct Bet {\n        string title;\n        string[] choices;\n        string[] comments;\n        address owner;\n        uint lowerBound;\n        uint currentAmount;\n        uint upperBound;\n        uint publishTime;\n        uint lastBetTime;\n        uint distributeTime;\n        uint answer;\n        uint[] currentChoices;\n        address[] voter;\n        bool isAnswerSet;\n        Region region;\n        Genre genre;\n    }\n\n    struct MemberView {\n        uint betsConstructed;\n        uint moneyAdded;\n        bool isVIP;\n    }\n\n    constructor() public {\n        jackpotAmount = 0;\n    }\n\n    //Bet list\n    uint jackpotAmount;\n    Bet[] bets;\n    mapping (address => MemberView) members;\n    mapping (uint => mapping (address => uint[])) voterChoice;\n    mapping (uint => mapping (address => string[])) comments;\n\n    //Modifiers\n    //Valid bet modifier\n    modifier isValidId(uint _id) {\n        require(_isIdValid(_id), \"Bet has expired\");\n        _;\n    }\n\n    //Valid amount\n    modifier isValidAmount(uint _id, uint _amount) {\n        require(bets[_id].currentAmount + _amount <= bets[_id].upperBound, \"Too much money!!!\");\n        _;\n    }\n\n    //functions\n    //Add bet to bets\n    function addBet(\n        string memory _title, \n        uint _lowerBound, \n        uint _upperBound, \n        uint _publishTime, \n        uint _lastBetTime, \n        uint _distributeTime,\n        string[] memory _choices, \n        string memory _region, \n        string memory _genre\n    ) public {\n        require(members[msg.sender].isVIP, \"You are not VIP!!\");\n        uint betId = bets.length;\n        uint choiceLength = _choices.length;\n        uint[] memory currentChoices = new uint[](choiceLength);\n        Bet storage bet = bets.push();\n        bet.title = _title;\n        bet.owner = msg.sender;\n        bet.lowerBound = _lowerBound;\n        bet.upperBound = _upperBound;\n        bet.publishTime = _publishTime;\n        bet.lastBetTime = _lastBetTime;\n        bet.distributeTime = _distributeTime;\n        bet.choices = _choices;\n        bet.currentChoices = currentChoices;\n        bet.region = _str2Region(_region);\n        bet.genre = _str2Genre(_genre);\n        emit BetAdded(betId, _title);\n        members[msg.sender].betsConstructed++;\n    }\n\n    function setVIP() public payable {\n        require(msg.value == 0.5 ether, \"Not enough money to set VIP\");\n        members[msg.sender].isVIP = true;\n        emit SetVIP(msg.sender);\n    }\n\n    function addMoney(uint _id, uint _choice, uint _amount) public payable isValidId(_id) isValidAmount(_id, _amount) {\n        //require(bets[_id].owner != msg.sender, \"Cannot add money to your own bets.\");\n        require(msg.value == _amount*SMALLEST_FEE, \"Not Enough Money\");\n        require(now <= bets[_id].lastBetTime, \"Bet time is over\");\n        bets[_id].currentAmount += _amount;\n        bets[_id].currentChoices[_choice] += _amount;\n        _addressInit(_id, msg.sender);\n        voterChoice[_id][msg.sender][_choice] += _amount;\n        emit MoneyAdded(_id, msg.sender, _choice, _amount);\n        members[msg.sender].moneyAdded += _amount;\n    }\n    \n    function setAnswer(uint _id, uint _answer) public {\n        require(msg.sender == bets[_id].owner);\n        bets[_id].answer = _answer;\n        bets[_id].isAnswerSet = true;\n        emit AnswerSet(_id, _answer);\n    }\n\n    function distributeMoney(uint _id) public payable {\n        require(msg.sender == bets[_id].owner);\n        if(bets[_id].isAnswerSet) {\n            uint creatorReward = uint(bets[_id].currentAmount*5);\n            uint otherReward = uint(bets[_id].currentAmount*90);\n            uint numVoters = bets[_id].voter.length;\n            uint answer = bets[_id].answer;\n\n            address payable receiver = msg.sender;\n            receiver.transfer(creatorReward * PERCENTAGE_FEE);\n            emit MoneyGiven(receiver, creatorReward);\n            for(uint i = 0; i < numVoters; i++) {\n                receiver = payable(bets[_id].voter[i]);\n                receiver.transfer(otherReward * PERCENTAGE_FEE * voterChoice[_id][receiver][answer] / bets[_id].currentChoices[answer]);\n                emit MoneyGiven(receiver, otherReward * voterChoice[_id][receiver][answer] / bets[_id].currentChoices[answer]);\n            }\n        }\n        else {\n            address payable receiver;\n            uint numVoters = bets[_id].voter.length;\n            uint numChoices = bets[_id].choices.length;\n            for(uint i = 0; i < numVoters; i++) {\n                receiver = payable(bets[_id].voter[i]);\n                for(uint j = 0; j < numChoices; j++) {\n                    receiver.transfer(voterChoice[_id][receiver][j] * SMALLEST_FEE);\n                    emit MoneyGiven(receiver, voterChoice[_id][receiver][j]);\n                }\n            }\n        }\n    }\n\n    function addComment(uint _id, string memory _comment) public {\n        bets[_id].comments.push(_comment);\n        emit AddComment(_id, _comment);\n    }\n\n    function spinWheel() public payable returns(Reward) {\n        require(msg.value == 0.1 ether, \"Not enough money to spin\");\n        jackpotAmount += 100;\n        uint howard = _rng();\n        if(howard == 0) {\n            msg.sender.transfer(jackpotAmount);\n            jackpotAmount = 0;\n            return Reward.Jackpot;\n        }\n        if(howard > 0 && howard <= 500) {\n            msg.sender.transfer(jackpotAmount);\n            jackpotAmount -= 200;\n            return Reward.haha_200;\n        }\n        if(howard > 500 && howard <= 1000) {\n            msg.sender.transfer(jackpotAmount);\n            jackpotAmount = 0;\n            return Reward.haha_100;\n        }\n        if(howard > 1000 && howard <= 2000) {\n            msg.sender.transfer(jackpotAmount);\n            jackpotAmount = 0;\n            return Reward.haha_50;\n        }\n        if(howard > 2000 && howard <= 3000) {\n            msg.sender.transfer(jackpotAmount);\n            jackpotAmount = 0;\n            return Reward.haha_20;\n        }\n        if(howard > 3000 && howard <= 4000) {\n            msg.sender.transfer(jackpotAmount);\n            jackpotAmount = 0;\n            return Reward.haha_10;\n        }\n        if(howard > 4000 && howard <= 7000) {\n            msg.sender.transfer(jackpotAmount);\n            jackpotAmount = 0;\n            return Reward.Sorry;\n        }\n        if(howard > 7000) {\n            msg.sender.transfer(jackpotAmount);\n            jackpotAmount = 0;\n            return Reward.ByeBye;\n        }\n    }\n\n    function getIds() public view returns(uint[] memory, Status[] memory) {\n        uint[] memory ids = new uint[](bets.length);\n        Status[] memory statuses = new Status[](bets.length);\n        for(uint i = 0; i < bets.length; i++) {\n            ids[i] = i;\n            statuses[i] = _getStatus(i);\n        }\n        return (ids, statuses);\n    }\n\n    function getLastBet() public view returns(Bet memory) {\n        return bets[bets.length-1];\n    }\n\n    function getBets() public view returns(Bet[] memory) {\n        uint count;\n        uint[] memory ids;\n        (count, ids) = _getValidIds();\n        Bet[] memory validBets = new Bet[](count);\n        for(uint i = 0; i < count; i++) {\n            validBets[i] = bets[ids[i]];\n        }\n        return validBets;\n    }\n\n    function getHotBets() public view returns(Bet[] memory) {\n        Bet[] memory validBets = getBets();\n        Bet[] memory hotBets = new Bet[](_min(10, validBets.length));\n        _sortBets(validBets);\n        for(uint i = 0; i < _min(10, validBets.length); ++i) {\n            hotBets[i] = validBets[i];\n        }\n        return hotBets;\n    }\n\n    function getComments(uint _id) public view returns(string[] memory) {\n        return bets[_id].comments;\n    }\n\n    function getMemberView() public view returns(MemberView memory) {\n        return members[msg.sender];\n    }\n\n    function _getValidIds() internal view returns(uint, uint[] memory) {\n        uint[] memory validIds = new uint[](bets.length);\n        uint count = 0;\n        for(uint i = 0; i < bets.length; i++) {\n            if(_isIdValid(i)) {\n                validIds[count] = i;\n                count++;\n            }\n        }\n        return (count, validIds);\n    }\n\n    function _isIdValid(uint _id) internal view returns(bool) {\n        return (now <= bets[_id].publishTime);\n    }\n\n    function _hasBet(uint _id, address _better) internal view returns(bool) {\n        uint len = bets[_id].voter.length;\n        for(uint i = 0; i < len; i++) {\n            if(bets[_id].voter[i] == _better) return true;\n        }\n        return false;\n    }\n\n    function _addressInit(uint _id, address _better) internal isValidId(_id) {\n        bool isInit = _hasBet(_id, _better);\n        if(!isInit) {\n            bets[_id].voter.push(_better);\n            voterChoice[_id][msg.sender] = new uint[](bets[_id].choices.length);\n        }\n    }\n\n    function _str2Region(string memory _region) internal pure returns(Region) {\n        if(keccak256(abi.encodePacked(_region)) == keccak256(abi.encodePacked(\"Taiwan\"))) return Region.Taiwan;\n        if(keccak256(abi.encodePacked(_region)) == keccak256(abi.encodePacked(\"China\"))) return Region.China;\n        if(keccak256(abi.encodePacked(_region)) == keccak256(abi.encodePacked(\"USA\"))) return Region.USA;\n        if(keccak256(abi.encodePacked(_region)) == keccak256(abi.encodePacked(\"UK\"))) return Region.UK;\n        if(keccak256(abi.encodePacked(_region)) == keccak256(abi.encodePacked(\"Japan\"))) return Region.Japan;\n        if(keccak256(abi.encodePacked(_region)) == keccak256(abi.encodePacked(\"Korea\"))) return Region.Korea;\n        if(keccak256(abi.encodePacked(_region)) == keccak256(abi.encodePacked(\"Canada\"))) return Region.Canada;\n        if(keccak256(abi.encodePacked(_region)) == keccak256(abi.encodePacked(\"Egypt\"))) return Region.Egypt;\n        if(keccak256(abi.encodePacked(_region)) == keccak256(abi.encodePacked(\"Italy\"))) return Region.Italy;\n        else return Region.Other;\n    }\n\n    function _str2Genre(string memory _genre) internal pure returns(Genre) {\n        if(keccak256(abi.encodePacked(_genre)) == keccak256(abi.encodePacked(\"News\"))) return Genre.News;\n        if(keccak256(abi.encodePacked(_genre)) == keccak256(abi.encodePacked(\"Sports\"))) return Genre.Sports;\n        if(keccak256(abi.encodePacked(_genre)) == keccak256(abi.encodePacked(\"Politics\"))) return Genre.Politics;\n        if(keccak256(abi.encodePacked(_genre)) == keccak256(abi.encodePacked(\"Music\"))) return Genre.Music;\n        if(keccak256(abi.encodePacked(_genre)) == keccak256(abi.encodePacked(\"Meme\"))) return Genre.Meme;\n        if(keccak256(abi.encodePacked(_genre)) == keccak256(abi.encodePacked(\"Art\"))) return Genre.Art;\n        if(keccak256(abi.encodePacked(_genre)) == keccak256(abi.encodePacked(\"Bitcoin\"))) return Genre.Bitcoin;\n        if(keccak256(abi.encodePacked(_genre)) == keccak256(abi.encodePacked(\"School\"))) return Genre.School;\n        if(keccak256(abi.encodePacked(_genre)) == keccak256(abi.encodePacked(\"Tech\"))) return Genre.Tech;\n        return Genre.Other;\n    }\n\n    function _sortBets(Bet[] memory _bets) internal pure {\n        _quickSort(_bets, 0, _bets.length-1);\n    }\n\n    function _quickSort(Bet[] memory _bets, uint _init, uint _end) internal pure {\n        uint i = _init;\n        uint j = _end;\n        if(i >= j) return;\n        Bet memory pivot = _bets[(_init+_end )/ 2];\n        while (i <= j) {\n            while (_bets[i].voter.length > pivot.voter.length) i++;\n            while (pivot.voter.length > _bets[j].voter.length) j--;\n            if (i <= j) {\n                (_bets[i], _bets[j]) = (_bets[j], _bets[i]);\n                i++;\n                j--;\n            }\n        }\n        if (_init < j)\n            _quickSort(_bets, _init, j);\n        if (i < _end)\n            _quickSort(_bets, i, _end);\n    }\n\n    function _min(uint a, uint b) internal pure returns(uint) {\n        if(a > b) return b;\n        else return a;\n    }\n\n    function _getStatus(uint _id) internal view returns(Status) {\n        Bet memory bet = bets[_id];\n        if(bet.owner == msg.sender && bet.publishTime > now) return Status.OwnAvailable;\n        else if(bet.owner != msg.sender && bet.publishTime > now) return Status.OtherAvailable;\n        else if(bet.owner == msg.sender && bet.publishTime <= now) return Status.OwnExpire;\n        else if(bet.owner != msg.sender && bet.publishTime <= now) return Status.OtherExpire;\n    }\n\n    function _rng() internal view returns(uint) {\n        uint random = uint(keccak256(abi.encodePacked(block.difficulty, now)));\n        return random%10000;\n    }\n}",
  "sourcePath": "/Users/peterlin/OnlineBetting/ethereum/contracts/OnlineBetting.sol",
  "compiler": {
    "name": "solc",
    "version": "0.6.12+commit.27d51765.Emscripten.clang"
  },
  "schemaVersion": "3.4.0",
  "updatedAt": "2021-06-25T14:39:40.524Z",
  "networkType": "ethereum",
  "devdoc": {
    "kind": "dev",
    "methods": {},
    "version": 1
  },
  "userdoc": {
    "kind": "user",
    "methods": {},
    "version": 1
  }
}