{
  "contractName": "OnlineBetting",
  "abi": [
    {
      "inputs": [],
      "stateMutability": "nonpayable",
      "type": "constructor"
    },
    {
      "anonymous": false,
      "inputs": [
        {
          "indexed": false,
          "internalType": "uint256",
          "name": "betId",
          "type": "uint256"
        },
        {
          "indexed": false,
          "internalType": "string",
          "name": "comment",
          "type": "string"
        }
      ],
      "name": "AddComment",
      "type": "event"
    },
    {
      "anonymous": false,
      "inputs": [
        {
          "indexed": false,
          "internalType": "uint256",
          "name": "betId",
          "type": "uint256"
        },
        {
          "indexed": false,
          "internalType": "uint256",
          "name": "choice",
          "type": "uint256"
        }
      ],
      "name": "AnswerSet",
      "type": "event"
    },
    {
      "anonymous": false,
      "inputs": [
        {
          "indexed": false,
          "internalType": "uint256",
          "name": "betId",
          "type": "uint256"
        },
        {
          "indexed": false,
          "internalType": "string",
          "name": "title",
          "type": "string"
        }
      ],
      "name": "BetAdded",
      "type": "event"
    },
    {
      "anonymous": false,
      "inputs": [
        {
          "indexed": false,
          "internalType": "uint256",
          "name": "betId",
          "type": "uint256"
        },
        {
          "indexed": false,
          "internalType": "address",
          "name": "adder",
          "type": "address"
        },
        {
          "indexed": false,
          "internalType": "uint256",
          "name": "choice",
          "type": "uint256"
        },
        {
          "indexed": false,
          "internalType": "uint256",
          "name": "amount",
          "type": "uint256"
        }
      ],
      "name": "MoneyAdded",
      "type": "event"
    },
    {
      "anonymous": false,
      "inputs": [
        {
          "indexed": false,
          "internalType": "address",
          "name": "receiver",
          "type": "address"
        },
        {
          "indexed": false,
          "internalType": "uint256",
          "name": "amount",
          "type": "uint256"
        }
      ],
      "name": "MoneyGiven",
      "type": "event"
    },
    {
      "anonymous": false,
      "inputs": [
        {
          "indexed": false,
          "internalType": "address",
          "name": "member",
          "type": "address"
        }
      ],
      "name": "SetVIP",
      "type": "event"
    },
    {
      "inputs": [
        {
          "internalType": "string",
          "name": "_title",
          "type": "string"
        },
        {
          "internalType": "uint256",
          "name": "_lowerBound",
          "type": "uint256"
        },
        {
          "internalType": "uint256",
          "name": "_upperBound",
          "type": "uint256"
        },
        {
          "internalType": "uint256",
          "name": "_publishTime",
          "type": "uint256"
        },
        {
          "internalType": "uint256",
          "name": "_lastBetTime",
          "type": "uint256"
        },
        {
          "internalType": "uint256",
          "name": "_distributeTime",
          "type": "uint256"
        },
        {
          "internalType": "string[]",
          "name": "_choices",
          "type": "string[]"
        },
        {
          "internalType": "string",
          "name": "_region",
          "type": "string"
        },
        {
          "internalType": "string",
          "name": "_genre",
          "type": "string"
        }
      ],
      "name": "addBet",
      "outputs": [],
      "stateMutability": "nonpayable",
      "type": "function"
    },
    {
      "inputs": [],
      "name": "setVIP",
      "outputs": [],
      "stateMutability": "payable",
      "type": "function",
      "payable": true
    },
    {
      "inputs": [
        {
          "internalType": "uint256",
          "name": "_id",
          "type": "uint256"
        },
        {
          "internalType": "uint256",
          "name": "_choice",
          "type": "uint256"
        },
        {
          "internalType": "uint256",
          "name": "_amount",
          "type": "uint256"
        }
      ],
      "name": "addMoney",
      "outputs": [],
      "stateMutability": "payable",
      "type": "function",
      "payable": true
    },
    {
      "inputs": [
        {
          "internalType": "uint256",
          "name": "_id",
          "type": "uint256"
        },
        {
          "internalType": "uint256",
          "name": "_answer",
          "type": "uint256"
        }
      ],
      "name": "setAnswer",
      "outputs": [],
      "stateMutability": "nonpayable",
      "type": "function"
    },
    {
      "inputs": [
        {
          "internalType": "uint256",
          "name": "_id",
          "type": "uint256"
        }
      ],
      "name": "distributeMoney",
      "outputs": [],
      "stateMutability": "payable",
      "type": "function",
      "payable": true
    },
    {
      "inputs": [
        {
          "internalType": "uint256",
          "name": "_id",
          "type": "uint256"
        },
        {
          "internalType": "string",
          "name": "_comment",
          "type": "string"
        }
      ],
      "name": "addComment",
      "outputs": [],
      "stateMutability": "nonpayable",
      "type": "function"
    },
    {
      "inputs": [],
      "name": "spinWheel",
      "outputs": [
        {
          "internalType": "enum OnlineBetting.Reward",
          "name": "",
          "type": "uint8"
        }
      ],
      "stateMutability": "payable",
      "type": "function",
      "payable": true
    },
    {
      "inputs": [],
      "name": "getIds",
      "outputs": [
        {
          "internalType": "uint256[]",
          "name": "",
          "type": "uint256[]"
        },
        {
          "internalType": "enum OnlineBetting.Status[]",
          "name": "",
          "type": "uint8[]"
        }
      ],
      "stateMutability": "view",
      "type": "function",
      "constant": true
    },
    {
      "inputs": [],
      "name": "getLastBet",
      "outputs": [
        {
          "components": [
            {
              "internalType": "string",
              "name": "title",
              "type": "string"
            },
            {
              "internalType": "string[]",
              "name": "choices",
              "type": "string[]"
            },
            {
              "internalType": "string[]",
              "name": "comments",
              "type": "string[]"
            },
            {
              "internalType": "address",
              "name": "owner",
              "type": "address"
            },
            {
              "internalType": "uint256",
              "name": "lowerBound",
              "type": "uint256"
            },
            {
              "internalType": "uint256",
              "name": "currentAmount",
              "type": "uint256"
            },
            {
              "internalType": "uint256",
              "name": "upperBound",
              "type": "uint256"
            },
            {
              "internalType": "uint256",
              "name": "publishTime",
              "type": "uint256"
            },
            {
              "internalType": "uint256",
              "name": "lastBetTime",
              "type": "uint256"
            },
            {
              "internalType": "uint256",
              "name": "distributeTime",
              "type": "uint256"
            },
            {
              "internalType": "uint256",
              "name": "answer",
              "type": "uint256"
            },
            {
              "internalType": "uint256[]",
              "name": "currentChoices",
              "type": "uint256[]"
            },
            {
              "internalType": "address[]",
              "name": "voter",
              "type": "address[]"
            },
            {
              "internalType": "bool",
              "name": "isAnswerSet",
              "type": "bool"
            },
            {
              "internalType": "enum OnlineBetting.Region",
              "name": "region",
              "type": "uint8"
            },
            {
              "internalType": "enum OnlineBetting.Genre",
              "name": "genre",
              "type": "uint8"
            }
          ],
          "internalType": "struct OnlineBetting.Bet",
          "name": "",
          "type": "tuple"
        }
      ],
      "stateMutability": "view",
      "type": "function",
      "constant": true
    },
    {
      "inputs": [],
      "name": "getBets",
      "outputs": [
        {
          "components": [
            {
              "internalType": "string",
              "name": "title",
              "type": "string"
            },
            {
              "internalType": "string[]",
              "name": "choices",
              "type": "string[]"
            },
            {
              "internalType": "string[]",
              "name": "comments",
              "type": "string[]"
            },
            {
              "internalType": "address",
              "name": "owner",
              "type": "address"
            },
            {
              "internalType": "uint256",
              "name": "lowerBound",
              "type": "uint256"
            },
            {
              "internalType": "uint256",
              "name": "currentAmount",
              "type": "uint256"
            },
            {
              "internalType": "uint256",
              "name": "upperBound",
              "type": "uint256"
            },
            {
              "internalType": "uint256",
              "name": "publishTime",
              "type": "uint256"
            },
            {
              "internalType": "uint256",
              "name": "lastBetTime",
              "type": "uint256"
            },
            {
              "internalType": "uint256",
              "name": "distributeTime",
              "type": "uint256"
            },
            {
              "internalType": "uint256",
              "name": "answer",
              "type": "uint256"
            },
            {
              "internalType": "uint256[]",
              "name": "currentChoices",
              "type": "uint256[]"
            },
            {
              "internalType": "address[]",
              "name": "voter",
              "type": "address[]"
            },
            {
              "internalType": "bool",
              "name": "isAnswerSet",
              "type": "bool"
            },
            {
              "internalType": "enum OnlineBetting.Region",
              "name": "region",
              "type": "uint8"
            },
            {
              "internalType": "enum OnlineBetting.Genre",
              "name": "genre",
              "type": "uint8"
            }
          ],
          "internalType": "struct OnlineBetting.Bet[]",
          "name": "",
          "type": "tuple[]"
        }
      ],
      "stateMutability": "view",
      "type": "function",
      "constant": true
    },
    {
      "inputs": [],
      "name": "getHotBets",
      "outputs": [
        {
          "components": [
            {
              "internalType": "string",
              "name": "title",
              "type": "string"
            },
            {
              "internalType": "string[]",
              "name": "choices",
              "type": "string[]"
            },
            {
              "internalType": "string[]",
              "name": "comments",
              "type": "string[]"
            },
            {
              "internalType": "address",
              "name": "owner",
              "type": "address"
            },
            {
              "internalType": "uint256",
              "name": "lowerBound",
              "type": "uint256"
            },
            {
              "internalType": "uint256",
              "name": "currentAmount",
              "type": "uint256"
            },
            {
              "internalType": "uint256",
              "name": "upperBound",
              "type": "uint256"
            },
            {
              "internalType": "uint256",
              "name": "publishTime",
              "type": "uint256"
            },
            {
              "internalType": "uint256",
              "name": "lastBetTime",
              "type": "uint256"
            },
            {
              "internalType": "uint256",
              "name": "distributeTime",
              "type": "uint256"
            },
            {
              "internalType": "uint256",
              "name": "answer",
              "type": "uint256"
            },
            {
              "internalType": "uint256[]",
              "name": "currentChoices",
              "type": "uint256[]"
            },
            {
              "internalType": "address[]",
              "name": "voter",
              "type": "address[]"
            },
            {
              "internalType": "bool",
              "name": "isAnswerSet",
              "type": "bool"
            },
            {
              "internalType": "enum OnlineBetting.Region",
              "name": "region",
              "type": "uint8"
            },
            {
              "internalType": "enum OnlineBetting.Genre",
              "name": "genre",
              "type": "uint8"
            }
          ],
          "internalType": "struct OnlineBetting.Bet[]",
          "name": "",
          "type": "tuple[]"
        }
      ],
      "stateMutability": "view",
      "type": "function",
      "constant": true
    },
    {
      "inputs": [
        {
          "internalType": "uint256",
          "name": "_id",
          "type": "uint256"
        }
      ],
      "name": "getComments",
      "outputs": [
        {
          "internalType": "string[]",
          "name": "",
          "type": "string[]"
        }
      ],
      "stateMutability": "view",
      "type": "function",
      "constant": true
    },
    {
      "inputs": [],
      "name": "getMemberView",
      "outputs": [
        {
          "components": [
            {
              "internalType": "uint256",
              "name": "betsConstructed",
              "type": "uint256"
            },
            {
              "internalType": "uint256",
              "name": "moneyAdded",
              "type": "uint256"
            },
            {
              "internalType": "bool",
              "name": "isVIP",
              "type": "bool"
            }
          ],
          "internalType": "struct OnlineBetting.MemberView",
          "name": "",
          "type": "tuple"
        }
      ],
      "stateMutability": "view",
      "type": "function",
      "constant": true
    }
  ],
  "bytecode": "0x608060405234801561001057600080fd5b5060008081905550614f2d806100276000396000f3fe6080604052600436106100c25760003560e01c8063950d11871161007f578063aa7e568311610059578063aa7e568314610211578063bbce3fc21461023a578063caf76d4114610265578063e6a7dc2b1461028e576100c2565b8063950d11871461019f578063a0f8973a146101ca578063a6afd5fd146101e6576100c2565b806315032fb2146100c757806315ecef92146100d157806323edf697146100ef57806324b204ab1461012c5780632b105663146101485780633a8aa9a514610174575b600080fd5b6100cf6102b7565b005b6100d9610395565b6040516100e6919061496f565b60405180910390f35b3480156100fb57600080fd5b50610116600480360381019061011191906137f9565b61077d565b60405161012391906148f4565b60405180910390f35b610146600480360381019061014191906138b2565b610884565b005b34801561015457600080fd5b5061015d610b7b565b60405161016b929190614938565b60405180910390f35b34801561018057600080fd5b50610189610bfd565b6040516101969190614a8c565b60405180910390f35b3480156101ab57600080fd5b506101b4610c83565b6040516101c19190614916565b60405180910390f35b6101e460048036038101906101df91906137f9565b610d45565b005b3480156101f257600080fd5b506101fb611384565b6040516102089190614916565b60405180910390f35b34801561021d57600080fd5b5061023860048036038101906102339190613822565b6118ce565b005b34801561024657600080fd5b5061024f611963565b60405161025c9190614a6a565b60405180910390f35b34801561027157600080fd5b5061028c60048036038101906102879190613876565b611e08565b005b34801561029a57600080fd5b506102b560048036038101906102b091906136d3565b611f14565b005b6706f05b59d3b200003414610301576040517f08c379a00000000000000000000000000000000000000000000000000000000081526004016102f89061498a565b60405180910390fd5b6001600260003373ffffffffffffffffffffffffffffffffffffffff1673ffffffffffffffffffffffffffffffffffffffff16815260200190815260200160002060020160006101000a81548160ff0219169083151502179055507fae988cc47e58f3e7d89bba758a5bfd7227a6be5930d95147b89ab3086885b4c93360405161038b91906148b0565b60405180910390a1565b600067016345785d8a000034146103e1576040517f08c379a00000000000000000000000000000000000000000000000000000000081526004016103d890614a0a565b60405180910390fd5b6064600080828254019250508190555060006103fb6121d0565b90506000811415610460573373ffffffffffffffffffffffffffffffffffffffff166108fc6000549081150290604051600060405180830381858888f1935050505015801561044e573d6000803e3d6000fd5b5060008081905550600791505061077a565b60008111801561047257506101f48111155b156104da573373ffffffffffffffffffffffffffffffffffffffff166108fc6000549081150290604051600060405180830381858888f193505050501580156104bf573d6000803e3d6000fd5b5060c86000808282540392505081905550600691505061077a565b6101f4811180156104ed57506103e88111155b1561054c573373ffffffffffffffffffffffffffffffffffffffff166108fc6000549081150290604051600060405180830381858888f1935050505015801561053a573d6000803e3d6000fd5b5060008081905550600591505061077a565b6103e88111801561055f57506107d08111155b156105be573373ffffffffffffffffffffffffffffffffffffffff166108fc6000549081150290604051600060405180830381858888f193505050501580156105ac573d6000803e3d6000fd5b5060008081905550600491505061077a565b6107d0811180156105d15750610bb88111155b15610630573373ffffffffffffffffffffffffffffffffffffffff166108fc6000549081150290604051600060405180830381858888f1935050505015801561061e573d6000803e3d6000fd5b5060008081905550600391505061077a565b610bb8811180156106435750610fa08111155b156106a2573373ffffffffffffffffffffffffffffffffffffffff166108fc6000549081150290604051600060405180830381858888f19350505050158015610690573d6000803e3d6000fd5b5060008081905550600291505061077a565b610fa0811180156106b55750611b588111155b15610714573373ffffffffffffffffffffffffffffffffffffffff166108fc6000549081150290604051600060405180830381858888f19350505050158015610702573d6000803e3d6000fd5b5060008081905550600091505061077a565b611b58811115610778573373ffffffffffffffffffffffffffffffffffffffff166108fc6000549081150290604051600060405180830381858888f19350505050158015610766573d6000803e3d6000fd5b5060008081905550600191505061077a565b505b90565b60606001828154811061078c57fe5b90600052602060002090600e0201600201805480602002602001604051908101604052809291908181526020016000905b82821015610879578382906000526020600020018054600181600116156101000203166002900480601f0160208091040260200160405190810160405280929190818152602001828054600181600116156101000203166002900480156108655780601f1061083a57610100808354040283529160200191610865565b820191906000526020600020905b81548152906001019060200180831161084857829003601f168201915b5050505050815260200190600101906107bd565b505050509050919050565b8261088e81612213565b6108cd576040517f08c379a00000000000000000000000000000000000000000000000000000000081526004016108c490614a2a565b60405180910390fd5b8382600182815481106108dc57fe5b90600052602060002090600e02016006015481600184815481106108fc57fe5b90600052602060002090600e020160050154011115610950576040517f08c379a000000000000000000000000000000000000000000000000000000000815260040161094790614a4a565b60405180910390fd5b66038d7ea4c680008402341461099b576040517f08c379a0000000000000000000000000000000000000000000000000000000008152600401610992906149aa565b60405180910390fd5b600186815481106109a857fe5b90600052602060002090600e0201600801544211156109fc576040517f08c379a00000000000000000000000000000000000000000000000000000000081526004016109f3906149ea565b60405180910390fd5b8360018781548110610a0a57fe5b90600052602060002090600e0201600501600082825401925050819055508360018781548110610a3657fe5b90600052602060002090600e0201600b018681548110610a5257fe5b9060005260206000200160008282540192505081905550610a73863361223e565b836003600088815260200190815260200160002060003373ffffffffffffffffffffffffffffffffffffffff1673ffffffffffffffffffffffffffffffffffffffff1681526020019081526020016000208681548110610acf57fe5b90600052602060002001600082825401925050819055507f9ae068d0bdbacb4831e59338d8b28e0bbd2d53764219e625df5dbad665cd3a3386338787604051610b1b9493929190614aa7565b60405180910390a183600260003373ffffffffffffffffffffffffffffffffffffffff1673ffffffffffffffffffffffffffffffffffffffff16815260200190815260200160002060010160008282540192505081905550505050505050565b60608060608060005b600180549050811015610bf05780838281518110610b9e57fe5b602002602001018181525050610bb3816123ec565b828281518110610bbf57fe5b60200260200101906003811115610bd257fe5b90816003811115610bdf57fe5b815250508080600101915050610b84565b5081819350935050509091565b610c05613372565b600260003373ffffffffffffffffffffffffffffffffffffffff1673ffffffffffffffffffffffffffffffffffffffff16815260200190815260200160002060405180606001604052908160008201548152602001600182015481526020016002820160009054906101000a900460ff161515151581525050905090565b606080610c8e611384565b90506060600a67ffffffffffffffff81118015610caa57600080fd5b50604051908082528060200260200182016040528015610ce457816020015b610cd1613395565b815260200190600190039081610cc95790505b509050610cf0826129dc565b60005b610cff600a84516129ef565b811015610d3c57828181518110610d1257fe5b6020026020010151828281518110610d2657fe5b6020026020010181905250806001019050610cf3565b50809250505090565b60018181548110610d5257fe5b90600052602060002090600e020160030160009054906101000a900473ffffffffffffffffffffffffffffffffffffffff1673ffffffffffffffffffffffffffffffffffffffff163373ffffffffffffffffffffffffffffffffffffffff1614610dbb57600080fd5b60018181548110610dc857fe5b90600052602060002090600e0201600d0160009054906101000a900460ff1615611155576000600560018381548110610dfd57fe5b90600052602060002090600e0201600501540290506000605a60018481548110610e2357fe5b90600052602060002090600e020160050154029050600060018481548110610e4757fe5b90600052602060002090600e0201600c01805490509050600060018581548110610e6d57fe5b90600052602060002090600e0201600a0154905060003390508073ffffffffffffffffffffffffffffffffffffffff166108fc6509184e72a00087029081150290604051600060405180830381858888f19350505050158015610ed4573d6000803e3d6000fd5b507f9bb2540ba4555d75223ea5cea496bb837f39aecdc27e8a45a41e3c7b2c4f8f558186604051610f069291906148cb565b60405180910390a160005b8381101561114a5760018781548110610f2657fe5b90600052602060002090600e0201600c018181548110610f4257fe5b9060005260206000200160009054906101000a900473ffffffffffffffffffffffffffffffffffffffff1691508173ffffffffffffffffffffffffffffffffffffffff166108fc60018981548110610f9657fe5b90600052602060002090600e0201600b018581548110610fb257fe5b9060005260206000200154600360008b815260200190815260200160002060008673ffffffffffffffffffffffffffffffffffffffff1673ffffffffffffffffffffffffffffffffffffffff168152602001908152602001600020868154811061101857fe5b90600052602060002001546509184e72a0008902028161103457fe5b049081150290604051600060405180830381858888f19350505050158015611060573d6000803e3d6000fd5b507f9bb2540ba4555d75223ea5cea496bb837f39aecdc27e8a45a41e3c7b2c4f8f55826001898154811061109057fe5b90600052602060002090600e0201600b0185815481106110ac57fe5b9060005260206000200154600360008b815260200190815260200160002060008673ffffffffffffffffffffffffffffffffffffffff1673ffffffffffffffffffffffffffffffffffffffff168152602001908152602001600020868154811061111257fe5b906000526020600020015488028161112657fe5b046040516111359291906148cb565b60405180910390a18080600101915050610f11565b505050505050611381565b6000806001838154811061116557fe5b90600052602060002090600e0201600c0180549050905060006001848154811061118b57fe5b90600052602060002090600e020160010180549050905060005b8281101561137c57600185815481106111ba57fe5b90600052602060002090600e0201600c0181815481106111d657fe5b9060005260206000200160009054906101000a900473ffffffffffffffffffffffffffffffffffffffff16935060005b8281101561136e578473ffffffffffffffffffffffffffffffffffffffff166108fc66038d7ea4c68000600360008a815260200190815260200160002060008973ffffffffffffffffffffffffffffffffffffffff1673ffffffffffffffffffffffffffffffffffffffff168152602001908152602001600020848154811061128b57fe5b9060005260206000200154029081150290604051600060405180830381858888f193505050501580156112c2573d6000803e3d6000fd5b507f9bb2540ba4555d75223ea5cea496bb837f39aecdc27e8a45a41e3c7b2c4f8f55856003600089815260200190815260200160002060008873ffffffffffffffffffffffffffffffffffffffff1673ffffffffffffffffffffffffffffffffffffffff168152602001908152602001600020838154811061134057fe5b90600052602060002001546040516113599291906148cb565b60405180910390a18080600101915050611206565b5080806001019150506111a5565b505050505b50565b606060006060611392612a0b565b809250819350505060608267ffffffffffffffff811180156113b357600080fd5b506040519080825280602002602001820160405280156113ed57816020015b6113da613395565b8152602001906001900390816113d25790505b50905060005b838110156118c457600183828151811061140957fe5b60200260200101518154811061141b57fe5b90600052602060002090600e020160405180610200016040529081600082018054600181600116156101000203166002900480601f0160208091040260200160405190810160405280929190818152602001828054600181600116156101000203166002900480156114ce5780601f106114a3576101008083540402835291602001916114ce565b820191906000526020600020905b8154815290600101906020018083116114b157829003601f168201915b5050505050815260200160018201805480602002602001604051908101604052809291908181526020016000905b828210156115b8578382906000526020600020018054600181600116156101000203166002900480601f0160208091040260200160405190810160405280929190818152602001828054600181600116156101000203166002900480156115a45780601f10611579576101008083540402835291602001916115a4565b820191906000526020600020905b81548152906001019060200180831161158757829003601f168201915b5050505050815260200190600101906114fc565b50505050815260200160028201805480602002602001604051908101604052809291908181526020016000905b828210156116a1578382906000526020600020018054600181600116156101000203166002900480601f01602080910402602001604051908101604052809291908181526020018280546001816001161561010002031660029004801561168d5780601f106116625761010080835404028352916020019161168d565b820191906000526020600020905b81548152906001019060200180831161167057829003601f168201915b5050505050815260200190600101906115e5565b5050505081526020016003820160009054906101000a900473ffffffffffffffffffffffffffffffffffffffff1673ffffffffffffffffffffffffffffffffffffffff1673ffffffffffffffffffffffffffffffffffffffff168152602001600482015481526020016005820154815260200160068201548152602001600782015481526020016008820154815260200160098201548152602001600a8201548152602001600b820180548060200260200160405190810160405280929190818152602001828054801561179457602002820191906000526020600020905b815481526020019060010190808311611780575b50505050508152602001600c820180548060200260200160405190810160405280929190818152602001828054801561182257602002820191906000526020600020905b8160009054906101000a900473ffffffffffffffffffffffffffffffffffffffff1673ffffffffffffffffffffffffffffffffffffffff16815260200190600101908083116117d8575b50505050508152602001600d820160009054906101000a900460ff16151515158152602001600d820160019054906101000a900460ff16600981111561186457fe5b600981111561186f57fe5b8152602001600d820160029054906101000a900460ff16600981111561189157fe5b600981111561189c57fe5b815250508282815181106118ac57fe5b602002602001018190525080806001019150506113f3565b5080935050505090565b600182815481106118db57fe5b90600052602060002090600e020160020181908060018154018082558091505060019003906000526020600020016000909190919091509080519060200190611925929190613440565b507f3b0cf47bf0008e5099d76f10a991fc69e1984797f0830b83910efb1c4d59c1f38282604051611957929190614aec565b60405180910390a15050565b61196b613395565b6001808080549050038154811061197e57fe5b90600052602060002090600e020160405180610200016040529081600082018054600181600116156101000203166002900480601f016020809104026020016040519081016040528092919081815260200182805460018160011615610100020316600290048015611a315780601f10611a0657610100808354040283529160200191611a31565b820191906000526020600020905b815481529060010190602001808311611a1457829003601f168201915b5050505050815260200160018201805480602002602001604051908101604052809291908181526020016000905b82821015611b1b578382906000526020600020018054600181600116156101000203166002900480601f016020809104026020016040519081016040528092919081815260200182805460018160011615610100020316600290048015611b075780601f10611adc57610100808354040283529160200191611b07565b820191906000526020600020905b815481529060010190602001808311611aea57829003601f168201915b505050505081526020019060010190611a5f565b50505050815260200160028201805480602002602001604051908101604052809291908181526020016000905b82821015611c04578382906000526020600020018054600181600116156101000203166002900480601f016020809104026020016040519081016040528092919081815260200182805460018160011615610100020316600290048015611bf05780601f10611bc557610100808354040283529160200191611bf0565b820191906000526020600020905b815481529060010190602001808311611bd357829003601f168201915b505050505081526020019060010190611b48565b5050505081526020016003820160009054906101000a900473ffffffffffffffffffffffffffffffffffffffff1673ffffffffffffffffffffffffffffffffffffffff1673ffffffffffffffffffffffffffffffffffffffff168152602001600482015481526020016005820154815260200160068201548152602001600782015481526020016008820154815260200160098201548152602001600a8201548152602001600b8201805480602002602001604051908101604052809291908181526020018280548015611cf757602002820191906000526020600020905b815481526020019060010190808311611ce3575b50505050508152602001600c8201805480602002602001604051908101604052809291908181526020018280548015611d8557602002820191906000526020600020905b8160009054906101000a900473ffffffffffffffffffffffffffffffffffffffff1673ffffffffffffffffffffffffffffffffffffffff1681526020019060010190808311611d3b575b50505050508152602001600d820160009054906101000a900460ff16151515158152602001600d820160019054906101000a900460ff166009811115611dc757fe5b6009811115611dd257fe5b8152602001600d820160029054906101000a900460ff166009811115611df457fe5b6009811115611dff57fe5b81525050905090565b60018281548110611e1557fe5b90600052602060002090600e020160030160009054906101000a900473ffffffffffffffffffffffffffffffffffffffff1673ffffffffffffffffffffffffffffffffffffffff163373ffffffffffffffffffffffffffffffffffffffff1614611e7e57600080fd5b8060018381548110611e8c57fe5b90600052602060002090600e0201600a01819055506001808381548110611eaf57fe5b90600052602060002090600e0201600d0160006101000a81548160ff0219169083151502179055507f4772d83d7289b527150ec81022e02e39b5b278f66492d7f0702903636f33396d8282604051611f08929190614b1c565b60405180910390a15050565b600260003373ffffffffffffffffffffffffffffffffffffffff1673ffffffffffffffffffffffffffffffffffffffff16815260200190815260200160002060020160009054906101000a900460ff16611fa3576040517f08c379a0000000000000000000000000000000000000000000000000000000008152600401611f9a906149ca565b60405180910390fd5b6000600180549050905060008451905060608167ffffffffffffffff81118015611fcc57600080fd5b50604051908082528060200260200182016040528015611ffb5781602001602082028036833780820191505090505b5090506000600180816001815401808255809150500390600052602060002090600e020190508c816000019080519060200190612039929190613440565b50338160030160006101000a81548173ffffffffffffffffffffffffffffffffffffffff021916908373ffffffffffffffffffffffffffffffffffffffff1602179055508b81600401819055508a8160060181905550898160070181905550888160080181905550878160090181905550868160010190805190602001906120c29291906134c0565b508181600b0190805190602001906120db929190613520565b506120e586612ab9565b81600d0160016101000a81548160ff0219169083600981111561210457fe5b021790555061211285612df8565b81600d0160026101000a81548160ff0219169083600981111561213157fe5b02179055507ffd9b824c32c4b314de8cc8632b170ef722e0fa61fcf35583a814356d916bc1fa848e604051612167929190614aec565b60405180910390a1600260003373ffffffffffffffffffffffffffffffffffffffff1673ffffffffffffffffffffffffffffffffffffffff1681526020019081526020016000206000016000815480929190600101919050555050505050505050505050505050565b60008044426040516020016121e6929190614884565b6040516020818303038152906040528051906020012060001c9050612710818161220c57fe5b0691505090565b60006001828154811061222257fe5b90600052602060002090600e0201600701544211159050919050565b8161224881612213565b612287576040517f08c379a000000000000000000000000000000000000000000000000000000000815260040161227e90614a2a565b60405180910390fd5b60006122938484613137565b9050806123e657600184815481106122a757fe5b90600052602060002090600e0201600c01839080600181540180825580915050600190039060005260206000200160009091909190916101000a81548173ffffffffffffffffffffffffffffffffffffffff021916908373ffffffffffffffffffffffffffffffffffffffff1602179055506001848154811061232657fe5b90600052602060002090600e02016001018054905067ffffffffffffffff8111801561235157600080fd5b506040519080825280602002602001820160405280156123805781602001602082028036833780820191505090505b506003600086815260200190815260200160002060003373ffffffffffffffffffffffffffffffffffffffff1673ffffffffffffffffffffffffffffffffffffffff16815260200190815260200160002090805190602001906123e4929190613520565b505b50505050565b60006123f6613395565b6001838154811061240357fe5b90600052602060002090600e020160405180610200016040529081600082018054600181600116156101000203166002900480601f0160208091040260200160405190810160405280929190818152602001828054600181600116156101000203166002900480156124b65780601f1061248b576101008083540402835291602001916124b6565b820191906000526020600020905b81548152906001019060200180831161249957829003601f168201915b5050505050815260200160018201805480602002602001604051908101604052809291908181526020016000905b828210156125a0578382906000526020600020018054600181600116156101000203166002900480601f01602080910402602001604051908101604052809291908181526020018280546001816001161561010002031660029004801561258c5780601f106125615761010080835404028352916020019161258c565b820191906000526020600020905b81548152906001019060200180831161256f57829003601f168201915b5050505050815260200190600101906124e4565b50505050815260200160028201805480602002602001604051908101604052809291908181526020016000905b82821015612689578382906000526020600020018054600181600116156101000203166002900480601f0160208091040260200160405190810160405280929190818152602001828054600181600116156101000203166002900480156126755780601f1061264a57610100808354040283529160200191612675565b820191906000526020600020905b81548152906001019060200180831161265857829003601f168201915b5050505050815260200190600101906125cd565b5050505081526020016003820160009054906101000a900473ffffffffffffffffffffffffffffffffffffffff1673ffffffffffffffffffffffffffffffffffffffff1673ffffffffffffffffffffffffffffffffffffffff168152602001600482015481526020016005820154815260200160068201548152602001600782015481526020016008820154815260200160098201548152602001600a8201548152602001600b820180548060200260200160405190810160405280929190818152602001828054801561277c57602002820191906000526020600020905b815481526020019060010190808311612768575b50505050508152602001600c820180548060200260200160405190810160405280929190818152602001828054801561280a57602002820191906000526020600020905b8160009054906101000a900473ffffffffffffffffffffffffffffffffffffffff1673ffffffffffffffffffffffffffffffffffffffff16815260200190600101908083116127c0575b50505050508152602001600d820160009054906101000a900460ff16151515158152602001600d820160019054906101000a900460ff16600981111561284c57fe5b600981111561285757fe5b8152602001600d820160029054906101000a900460ff16600981111561287957fe5b600981111561288457fe5b8152505090503373ffffffffffffffffffffffffffffffffffffffff16816060015173ffffffffffffffffffffffffffffffffffffffff161480156128cd5750428160e0015111155b156128dc5760009150506129d7565b3373ffffffffffffffffffffffffffffffffffffffff16816060015173ffffffffffffffffffffffffffffffffffffffff16141580156129205750428160e0015111155b1561292f5760019150506129d7565b3373ffffffffffffffffffffffffffffffffffffffff16816060015173ffffffffffffffffffffffffffffffffffffffff16141580156129735750428160e0015111155b156129825760029150506129d7565b3373ffffffffffffffffffffffffffffffffffffffff16816060015173ffffffffffffffffffffffffffffffffffffffff16141580156129c65750428160e0015111155b156129d55760039150506129d7565b505b919050565b6129ec8160006001845103613215565b50565b600081831115612a0157829050612a05565b8190505b92915050565b600060608060018054905067ffffffffffffffff81118015612a2c57600080fd5b50604051908082528060200260200182016040528015612a5b5781602001602082028036833780820191505090505b5090506000805b600180549050811015612aac57612a7881612213565b15612a9f5780838381518110612a8a57fe5b60200260200101818152505081806001019250505b8080600101915050612a62565b5080829350935050509091565b6000604051602001612aca90614830565b6040516020818303038152906040528051906020012082604051602001612af191906146f3565b604051602081830303815290604052805190602001201415612b165760019050612df3565b604051602001612b259061479d565b6040516020818303038152906040528051906020012082604051602001612b4c91906146f3565b604051602081830303815290604052805190602001201415612b715760029050612df3565b604051602001612b8090614788565b6040516020818303038152906040528051906020012082604051602001612ba791906146f3565b604051602081830303815290604052805190602001201415612bcc5760039050612df3565b604051602001612bdb90614806565b6040516020818303038152906040528051906020012082604051602001612c0291906146f3565b604051602081830303815290604052805190602001201415612c275760049050612df3565b604051602001612c369061485a565b6040516020818303038152906040528051906020012082604051602001612c5d91906146f3565b604051602081830303815290604052805190602001201415612c825760059050612df3565b604051602001612c9190614734565b6040516020818303038152906040528051906020012082604051602001612cb891906146f3565b604051602081830303815290604052805190602001201415612cdd5760069050612df3565b604051602001612cec9061475e565b6040516020818303038152906040528051906020012082604051602001612d1391906146f3565b604051602081830303815290604052805190602001201415612d385760079050612df3565b604051602001612d479061481b565b6040516020818303038152906040528051906020012082604051602001612d6e91906146f3565b604051602081830303815290604052805190602001201415612d935760089050612df3565b604051602001612da2906147f1565b6040516020818303038152906040528051906020012082604051602001612dc991906146f3565b604051602081830303815290604052805190602001201415612dee5760099050612df3565b600090505b919050565b6000604051602001612e0990614845565b6040516020818303038152906040528051906020012082604051602001612e3091906146f3565b604051602081830303815290604052805190602001201415612e555760019050613132565b604051602001612e64906147b2565b6040516020818303038152906040528051906020012082604051602001612e8b91906146f3565b604051602081830303815290604052805190602001201415612eb05760039050613132565b604051602001612ebf9061471f565b6040516020818303038152906040528051906020012082604051602001612ee691906146f3565b604051602081830303815290604052805190602001201415612f0b5760029050613132565b604051602001612f1a906147c7565b6040516020818303038152906040528051906020012082604051602001612f4191906146f3565b604051602081830303815290604052805190602001201415612f665760049050613132565b604051602001612f7590614749565b6040516020818303038152906040528051906020012082604051602001612f9c91906146f3565b604051602081830303815290604052805190602001201415612fc15760059050613132565b604051602001612fd09061470a565b6040516020818303038152906040528051906020012082604051602001612ff791906146f3565b60405160208183030381529060405280519060200120141561301c5760069050613132565b60405160200161302b9061486f565b604051602081830303815290604052805190602001208260405160200161305291906146f3565b6040516020818303038152906040528051906020012014156130775760079050613132565b604051602001613086906147dc565b60405160208183030381529060405280519060200120826040516020016130ad91906146f3565b6040516020818303038152906040528051906020012014156130d25760089050613132565b6040516020016130e190614773565b604051602081830303815290604052805190602001208260405160200161310891906146f3565b60405160208183030381529060405280519060200120141561312d5760099050613132565b600090505b919050565b6000806001848154811061314757fe5b90600052602060002090600e0201600c0180549050905060005b81811015613208578373ffffffffffffffffffffffffffffffffffffffff166001868154811061318d57fe5b90600052602060002090600e0201600c0182815481106131a957fe5b9060005260206000200160009054906101000a900473ffffffffffffffffffffffffffffffffffffffff1673ffffffffffffffffffffffffffffffffffffffff1614156131fb5760019250505061320f565b8080600101915050613161565b5060009150505b92915050565b600082905060008290508082141561322e57505061336d565b613236613395565b8560028686038161324357fe5b0486018151811061325057fe5b602002602001015190505b818311613341575b8061018001515186848151811061327657fe5b60200260200101516101800151511015613297578280600101935050613263565b5b8582815181106132a457fe5b60200260200101516101800151518161018001515110156132cd57818060019003925050613298565b81831161333c578582815181106132e057fe5b60200260200101518684815181106132f457fe5b602002602001015187858151811061330857fe5b6020026020010188858151811061331b57fe5b60200260200101829052829052505082806001019350508180600190039250505b61325b565b8185101561335557613354868684613215565b5b8383101561336957613368868486613215565b5b5050505b505050565b604051806060016040528060008152602001600081526020016000151581525090565b604051806102000160405280606081526020016060815260200160608152602001600073ffffffffffffffffffffffffffffffffffffffff1681526020016000815260200160008152602001600081526020016000815260200160008152602001600081526020016000815260200160608152602001606081526020016000151581526020016000600981111561342857fe5b81526020016000600981111561343a57fe5b81525090565b828054600181600116156101000203166002900490600052602060002090601f016020900481019282601f1061348157805160ff19168380011785556134af565b828001600101855582156134af579182015b828111156134ae578251825591602001919060010190613493565b5b5090506134bc919061356d565b5090565b82805482825590600052602060002090810192821561350f579160200282015b8281111561350e5782518290805190602001906134fe929190613440565b50916020019190600101906134e0565b5b50905061351c919061358a565b5090565b82805482825590600052602060002090810192821561355c579160200282015b8281111561355b578251825591602001919060010190613540565b5b509050613569919061356d565b5090565b5b8082111561358657600081600090555060010161356e565b5090565b5b808211156135aa57600081816135a191906135ae565b5060010161358b565b5090565b50805460018160011615610100020316600290046000825580601f106135d457506135f3565b601f0160209004906000526020600020908101906135f2919061356d565b5b50565b600082601f83011261360757600080fd5b813561361a61361582614b72565b614b45565b9150818183526020840193506020810190508360005b838110156136605781358601613646888261366a565b845260208401935060208301925050600181019050613630565b5050505092915050565b600082601f83011261367b57600080fd5b813561368e61368982614b9a565b614b45565b915080825260208301602083018583830111156136aa57600080fd5b6136b5838284614e4f565b50505092915050565b6000813590506136cd81614ee0565b92915050565b60008060008060008060008060006101208a8c0312156136f257600080fd5b60008a013567ffffffffffffffff81111561370c57600080fd5b6137188c828d0161366a565b99505060206137298c828d016136be565b985050604061373a8c828d016136be565b975050606061374b8c828d016136be565b965050608061375c8c828d016136be565b95505060a061376d8c828d016136be565b94505060c08a013567ffffffffffffffff81111561378a57600080fd5b6137968c828d016135f6565b93505060e08a013567ffffffffffffffff8111156137b357600080fd5b6137bf8c828d0161366a565b9250506101008a013567ffffffffffffffff8111156137dd57600080fd5b6137e98c828d0161366a565b9150509295985092959850929598565b60006020828403121561380b57600080fd5b6000613819848285016136be565b91505092915050565b6000806040838503121561383557600080fd5b6000613843858286016136be565b925050602083013567ffffffffffffffff81111561386057600080fd5b61386c8582860161366a565b9150509250929050565b6000806040838503121561388957600080fd5b6000613897858286016136be565b92505060206138a8858286016136be565b9150509250929050565b6000806000606084860312156138c757600080fd5b60006138d5868287016136be565b93505060206138e6868287016136be565b92505060406138f7868287016136be565b9150509250925092565b600061390d8383613980565b60208301905092915050565b60006139258383613ca2565b60208301905092915050565b600061393d8383613cb1565b905092915050565b60006139518383614394565b905092915050565b600061396583836146be565b60208301905092915050565b61397a81614dd1565b82525050565b61398981614d3d565b82525050565b600061399a82614c16565b6139a48185614c99565b93506139af83614bc6565b8060005b838110156139e05781516139c78882613901565b97506139d283614c58565b9250506001810190506139b3565b5085935050505092915050565b60006139f882614c21565b613a028185614cff565b9350613a0d83614bd6565b8060005b83811015613a3e578151613a258882613919565b9750613a3083614c65565b925050600181019050613a11565b5085935050505092915050565b6000613a5682614c2c565b613a608185614caa565b935083602082028501613a7285614be6565b8060005b85811015613aae5784840389528151613a8f8582613931565b9450613a9a83614c72565b925060208a01995050600181019050613a76565b50829750879550505050505092915050565b6000613acb82614c2c565b613ad58185614cbb565b935083602082028501613ae785614be6565b8060005b85811015613b235784840389528151613b048582613931565b9450613b0f83614c72565b925060208a01995050600181019050613aeb565b50829750879550505050505092915050565b6000613b4082614c37565b613b4a8185614ccc565b935083602082028501613b5c85614bf6565b8060005b85811015613b985784840389528151613b798582613945565b9450613b8483614c7f565b925060208a01995050600181019050613b60565b50829750879550505050505092915050565b6000613bb582614c42565b613bbf8185614cdd565b9350613bca83614c06565b8060005b83811015613bfb578151613be28882613959565b9750613bed83614c8c565b925050600181019050613bce565b5085935050505092915050565b6000613c1382614c42565b613c1d8185614cee565b9350613c2883614c06565b8060005b83811015613c59578151613c408882613959565b9750613c4b83614c8c565b925050600181019050613c2c565b5085935050505092915050565b613c6f81614d4f565b82525050565b613c7e81614de3565b82525050565b613c8d81614df5565b82525050565b613c9c81614e07565b82525050565b613cab81614e19565b82525050565b6000613cbc82614c4d565b613cc68185614d10565b9350613cd6818560208601614e5e565b613cdf81614e9b565b840191505092915050565b6000613cf582614c4d565b613cff8185614d21565b9350613d0f818560208601614e5e565b613d1881614e9b565b840191505092915050565b6000613d2e82614c4d565b613d388185614d32565b9350613d48818560208601614e5e565b80840191505092915050565b6000613d61600383614d32565b91507f41727400000000000000000000000000000000000000000000000000000000006000830152600382019050919050565b6000613da1600883614d32565b91507f506f6c69746963730000000000000000000000000000000000000000000000006000830152600882019050919050565b6000613de1600583614d32565b91507f4b6f7265610000000000000000000000000000000000000000000000000000006000830152600582019050919050565b6000613e21600483614d32565b91507f4d656d65000000000000000000000000000000000000000000000000000000006000830152600482019050919050565b6000613e61600683614d32565b91507f43616e61646100000000000000000000000000000000000000000000000000006000830152600682019050919050565b6000613ea1600483614d32565b91507f54656368000000000000000000000000000000000000000000000000000000006000830152600482019050919050565b6000613ee1601b83614d21565b91507f4e6f7420656e6f756768206d6f6e657920746f207365742056495000000000006000830152602082019050919050565b6000613f21600383614d32565b91507f55534100000000000000000000000000000000000000000000000000000000006000830152600382019050919050565b6000613f61601083614d21565b91507f4e6f7420456e6f756768204d6f6e6579000000000000000000000000000000006000830152602082019050919050565b6000613fa1601183614d21565b91507f596f7520617265206e6f742056495021210000000000000000000000000000006000830152602082019050919050565b6000613fe1600583614d32565b91507f4368696e610000000000000000000000000000000000000000000000000000006000830152600582019050919050565b6000614021600683614d32565b91507f53706f72747300000000000000000000000000000000000000000000000000006000830152600682019050919050565b6000614061600583614d32565b91507f4d757369630000000000000000000000000000000000000000000000000000006000830152600582019050919050565b60006140a1601083614d21565b91507f4265742074696d65206973206f766572000000000000000000000000000000006000830152602082019050919050565b60006140e1601883614d21565b91507f4e6f7420656e6f756768206d6f6e657920746f207370696e00000000000000006000830152602082019050919050565b6000614121600f83614d21565b91507f42657420686173206578706972656400000000000000000000000000000000006000830152602082019050919050565b6000614161601183614d21565b91507f546f6f206d756368206d6f6e65792121210000000000000000000000000000006000830152602082019050919050565b60006141a1600683614d32565b91507f5363686f6f6c00000000000000000000000000000000000000000000000000006000830152600682019050919050565b60006141e1600583614d32565b91507f4974616c790000000000000000000000000000000000000000000000000000006000830152600582019050919050565b6000614221600283614d32565b91507f554b0000000000000000000000000000000000000000000000000000000000006000830152600282019050919050565b6000614261600583614d32565b91507f45677970740000000000000000000000000000000000000000000000000000006000830152600582019050919050565b60006142a1600683614d32565b91507f54616977616e00000000000000000000000000000000000000000000000000006000830152600682019050919050565b60006142e1600483614d32565b91507f4e657773000000000000000000000000000000000000000000000000000000006000830152600482019050919050565b6000614321600583614d32565b91507f4a6170616e0000000000000000000000000000000000000000000000000000006000830152600582019050919050565b6000614361600783614d32565b91507f426974636f696e000000000000000000000000000000000000000000000000006000830152600782019050919050565b60006102008301600083015184820360008601526143b28282613cb1565b915050602083015184820360208601526143cc8282613a4b565b915050604083015184820360408601526143e68282613a4b565b91505060608301516143fb6060860182613980565b50608083015161440e60808601826146be565b5060a083015161442160a08601826146be565b5060c083015161443460c08601826146be565b5060e083015161444760e08601826146be565b5061010083015161445c6101008601826146be565b506101208301516144716101208601826146be565b506101408301516144866101408601826146be565b506101608301518482036101608601526144a08282613baa565b9150506101808301518482036101808601526144bc828261398f565b9150506101a08301516144d36101a0860182613c66565b506101c08301516144e86101c0860182613c84565b506101e08301516144fd6101e0860182613c75565b508091505092915050565b60006102008301600083015184820360008601526145268282613cb1565b915050602083015184820360208601526145408282613a4b565b9150506040830151848203604086015261455a8282613a4b565b915050606083015161456f6060860182613980565b50608083015161458260808601826146be565b5060a083015161459560a08601826146be565b5060c08301516145a860c08601826146be565b5060e08301516145bb60e08601826146be565b506101008301516145d06101008601826146be565b506101208301516145e56101208601826146be565b506101408301516145fa6101408601826146be565b506101608301518482036101608601526146148282613baa565b915050610180830151848203610180860152614630828261398f565b9150506101a08301516146476101a0860182613c66565b506101c083015161465c6101c0860182613c84565b506101e08301516146716101e0860182613c75565b508091505092915050565b60608201600082015161469260008501826146be565b5060208201516146a560208501826146be565b5060408201516146b86040850182613c66565b50505050565b6146c781614dc7565b82525050565b6146d681614dc7565b82525050565b6146ed6146e882614dc7565b614e91565b82525050565b60006146ff8284613d23565b915081905092915050565b600061471582613d54565b9150819050919050565b600061472a82613d94565b9150819050919050565b600061473f82613dd4565b9150819050919050565b600061475482613e14565b9150819050919050565b600061476982613e54565b9150819050919050565b600061477e82613e94565b9150819050919050565b600061479382613f14565b9150819050919050565b60006147a882613fd4565b9150819050919050565b60006147bd82614014565b9150819050919050565b60006147d282614054565b9150819050919050565b60006147e782614194565b9150819050919050565b60006147fc826141d4565b9150819050919050565b600061481182614214565b9150819050919050565b600061482682614254565b9150819050919050565b600061483b82614294565b9150819050919050565b6000614850826142d4565b9150819050919050565b600061486582614314565b9150819050919050565b600061487a82614354565b9150819050919050565b600061489082856146dc565b6020820191506148a082846146dc565b6020820191508190509392505050565b60006020820190506148c56000830184613971565b92915050565b60006040820190506148e06000830185613971565b6148ed60208301846146cd565b9392505050565b6000602082019050818103600083015261490e8184613ac0565b905092915050565b600060208201905081810360008301526149308184613b35565b905092915050565b600060408201905081810360008301526149528185613c08565b9050818103602083015261496681846139ed565b90509392505050565b60006020820190506149846000830184613c93565b92915050565b600060208201905081810360008301526149a381613ed4565b9050919050565b600060208201905081810360008301526149c381613f54565b9050919050565b600060208201905081810360008301526149e381613f94565b9050919050565b60006020820190508181036000830152614a0381614094565b9050919050565b60006020820190508181036000830152614a23816140d4565b9050919050565b60006020820190508181036000830152614a4381614114565b9050919050565b60006020820190508181036000830152614a6381614154565b9050919050565b60006020820190508181036000830152614a848184614508565b905092915050565b6000606082019050614aa1600083018461467c565b92915050565b6000608082019050614abc60008301876146cd565b614ac96020830186613971565b614ad660408301856146cd565b614ae360608301846146cd565b95945050505050565b6000604082019050614b0160008301856146cd565b8181036020830152614b138184613cea565b90509392505050565b6000604082019050614b3160008301856146cd565b614b3e60208301846146cd565b9392505050565b6000604051905081810181811067ffffffffffffffff82111715614b6857600080fd5b8060405250919050565b600067ffffffffffffffff821115614b8957600080fd5b602082029050602081019050919050565b600067ffffffffffffffff821115614bb157600080fd5b601f19601f8301169050602081019050919050565b6000819050602082019050919050565b6000819050602082019050919050565b6000819050602082019050919050565b6000819050602082019050919050565b6000819050602082019050919050565b600081519050919050565b600081519050919050565b600081519050919050565b600081519050919050565b600081519050919050565b600081519050919050565b6000602082019050919050565b6000602082019050919050565b6000602082019050919050565b6000602082019050919050565b6000602082019050919050565b600082825260208201905092915050565b600082825260208201905092915050565b600082825260208201905092915050565b600082825260208201905092915050565b600082825260208201905092915050565b600082825260208201905092915050565b600082825260208201905092915050565b600082825260208201905092915050565b600082825260208201905092915050565b600081905092915050565b6000614d4882614da7565b9050919050565b60008115159050919050565b6000819050614d6982614eac565b919050565b6000819050614d7c82614eb9565b919050565b6000819050614d8f82614ec6565b919050565b6000819050614da282614ed3565b919050565b600073ffffffffffffffffffffffffffffffffffffffff82169050919050565b6000819050919050565b6000614ddc82614e2b565b9050919050565b6000614dee82614d5b565b9050919050565b6000614e0082614d6e565b9050919050565b6000614e1282614d81565b9050919050565b6000614e2482614d94565b9050919050565b6000614e3682614e3d565b9050919050565b6000614e4882614da7565b9050919050565b82818337600083830152505050565b60005b83811015614e7c578082015181840152602081019050614e61565b83811115614e8b576000848401525b50505050565b6000819050919050565b6000601f19601f8301169050919050565b600a8110614eb657fe5b50565b600a8110614ec357fe5b50565b60088110614ed057fe5b50565b60048110614edd57fe5b50565b614ee981614dc7565b8114614ef457600080fd5b5056fea26469706673582212208467e5c71c7b71986464a6d3f34de5a9f3d1bb2c930c376ebf57028572da376764736f6c634300060c0033",
  "immutableReferences": {},
  "source": "pragma solidity >=0.6.0 <0.8.0;\npragma experimental ABIEncoderV2;\n\ncontract OnlineBetting {\n\n    //constants\n    uint constant SMALLEST_FEE = 0.001 ether;\n    uint constant PERCENTAGE_FEE = 0.00001 ether;\n\n    //events\n    event BetAdded(uint betId, string title);  //emit when\n    event MoneyAdded(uint betId, address adder, uint choice, uint amount);\n    event AnswerSet(uint betId, uint choice);\n    event MoneyGiven(address receiver, uint amount);\n    event SetVIP(address member);\n    event AddComment(uint betId, string comment);\n\n    //Enums\n    enum Status{ OwnAvailable, OtherAvailable, OwnExpire, OtherExpire }\n    enum Region{ Other, Taiwan, China, USA, UK, Japan, Korea, Canada, Egypt, Italy }\n    enum Genre{ Other, News, Politics, Sports, Music, Meme, Art, Bitcoin, School, Tech }\n    enum Reward{ Sorry, ByeBye, haha_10, haha_20, haha_50, haha_100, haha_200, Jackpot}\n\n    //Bet\n    struct Bet {\n        string title;\n        string[] choices;\n        string[] comments;\n        address owner;\n        uint lowerBound;\n        uint currentAmount;\n        uint upperBound;\n        uint publishTime;\n        uint lastBetTime;\n        uint distributeTime;\n        uint answer;\n        uint[] currentChoices;\n        address[] voter;\n        bool isAnswerSet;\n        Region region;\n        Genre genre;\n    }\n\n    struct MemberView {\n        uint betsConstructed;\n        uint moneyAdded;\n        bool isVIP;\n    }\n\n    constructor() public {\n        jackpotAmount = 0;\n    }\n\n    //Bet list\n    uint jackpotAmount;\n    Bet[] bets;\n    mapping (address => MemberView) members;\n    mapping (uint => mapping (address => uint[])) voterChoice;\n    mapping (uint => mapping (address => string[])) comments;\n\n    //Modifiers\n    //Valid bet modifier\n    modifier isValidId(uint _id) {\n        require(_isIdValid(_id), \"Bet has expired\");\n        _;\n    }\n\n    //Valid amount\n    modifier isValidAmount(uint _id, uint _amount) {\n        require(bets[_id].currentAmount + _amount <= bets[_id].upperBound, \"Too much money!!!\");\n        _;\n    }\n\n    //functions\n    //Add bet to bets\n    function addBet(\n        string memory _title, \n        uint _lowerBound, \n        uint _upperBound, \n        uint _publishTime, \n        uint _lastBetTime, \n        uint _distributeTime,\n        string[] memory _choices, \n        string memory _region, \n        string memory _genre\n    ) public {\n        require(members[msg.sender].isVIP, \"You are not VIP!!\");\n        uint betId = bets.length;\n        uint choiceLength = _choices.length;\n        uint[] memory currentChoices = new uint[](choiceLength);\n        Bet storage bet = bets.push();\n        bet.title = _title;\n        bet.owner = msg.sender;\n        bet.lowerBound = _lowerBound;\n        bet.upperBound = _upperBound;\n        bet.publishTime = _publishTime;\n        bet.lastBetTime = _lastBetTime;\n        bet.distributeTime = _distributeTime;\n        bet.choices = _choices;\n        bet.currentChoices = currentChoices;\n        bet.region = _str2Region(_region);\n        bet.genre = _str2Genre(_genre);\n        emit BetAdded(betId, _title);\n        members[msg.sender].betsConstructed++;\n    }\n\n    function setVIP() public payable {\n        require(msg.value == 0.5 ether, \"Not enough money to set VIP\");\n        members[msg.sender].isVIP = true;\n        emit SetVIP(msg.sender);\n    }\n\n    function addMoney(uint _id, uint _choice, uint _amount) public payable isValidId(_id) isValidAmount(_id, _amount) {\n        //require(bets[_id].owner != msg.sender, \"Cannot add money to your own bets.\");\n        require(msg.value == _amount*SMALLEST_FEE, \"Not Enough Money\");\n        require(now <= bets[_id].lastBetTime, \"Bet time is over\");\n        bets[_id].currentAmount += _amount;\n        bets[_id].currentChoices[_choice] += _amount;\n        _addressInit(_id, msg.sender);\n        voterChoice[_id][msg.sender][_choice] += _amount;\n        emit MoneyAdded(_id, msg.sender, _choice, _amount);\n        members[msg.sender].moneyAdded += _amount;\n    }\n    \n    function setAnswer(uint _id, uint _answer) public {\n        require(msg.sender == bets[_id].owner);\n        bets[_id].answer = _answer;\n        bets[_id].isAnswerSet = true;\n        emit AnswerSet(_id, _answer);\n    }\n\n    function distributeMoney(uint _id) public payable {\n        require(msg.sender == bets[_id].owner);\n        if(bets[_id].isAnswerSet) {\n            uint creatorReward = uint(bets[_id].currentAmount*5);\n            uint otherReward = uint(bets[_id].currentAmount*90);\n            uint numVoters = bets[_id].voter.length;\n            uint answer = bets[_id].answer;\n\n            address payable receiver = msg.sender;\n            receiver.transfer(creatorReward * PERCENTAGE_FEE);\n            emit MoneyGiven(receiver, creatorReward);\n            for(uint i = 0; i < numVoters; i++) {\n                receiver = payable(bets[_id].voter[i]);\n                receiver.transfer(otherReward * PERCENTAGE_FEE * voterChoice[_id][receiver][answer] / bets[_id].currentChoices[answer]);\n                emit MoneyGiven(receiver, otherReward * voterChoice[_id][receiver][answer] / bets[_id].currentChoices[answer]);\n            }\n        }\n        else {\n            address payable receiver;\n            uint numVoters = bets[_id].voter.length;\n            uint numChoices = bets[_id].choices.length;\n            for(uint i = 0; i < numVoters; i++) {\n                receiver = payable(bets[_id].voter[i]);\n                for(uint j = 0; j < numChoices; j++) {\n                    receiver.transfer(voterChoice[_id][receiver][j] * SMALLEST_FEE);\n                    emit MoneyGiven(receiver, voterChoice[_id][receiver][j]);\n                }\n            }\n        }\n    }\n\n    function addComment(uint _id, string memory _comment) public {\n        bets[_id].comments.push(_comment);\n        emit AddComment(_id, _comment);\n    }\n\n    function spinWheel() public payable returns(Reward) {\n        require(msg.value == 0.1 ether, \"Not enough money to spin\");\n        jackpotAmount += 100;\n        uint howard = _rng();\n        if(howard == 0) {\n            msg.sender.transfer(jackpotAmount);\n            jackpotAmount = 0;\n            return Reward.Jackpot;\n        }\n        if(howard > 0 && howard <= 500) {\n            msg.sender.transfer(jackpotAmount);\n            jackpotAmount -= 200;\n            return Reward.haha_200;\n        }\n        if(howard > 500 && howard <= 1000) {\n            msg.sender.transfer(jackpotAmount);\n            jackpotAmount = 0;\n            return Reward.haha_100;\n        }\n        if(howard > 1000 && howard <= 2000) {\n            msg.sender.transfer(jackpotAmount);\n            jackpotAmount = 0;\n            return Reward.haha_50;\n        }\n        if(howard > 2000 && howard <= 3000) {\n            msg.sender.transfer(jackpotAmount);\n            jackpotAmount = 0;\n            return Reward.haha_20;\n        }\n        if(howard > 3000 && howard <= 4000) {\n            msg.sender.transfer(jackpotAmount);\n            jackpotAmount = 0;\n            return Reward.haha_10;\n        }\n        if(howard > 4000 && howard <= 7000) {\n            msg.sender.transfer(jackpotAmount);\n            jackpotAmount = 0;\n            return Reward.Sorry;\n        }\n        if(howard > 7000) {\n            msg.sender.transfer(jackpotAmount);\n            jackpotAmount = 0;\n            return Reward.ByeBye;\n        }\n    }\n\n    function getIds() public view returns(uint[] memory, Status[] memory) {\n        uint[] memory ids;\n        Status[] memory statuses;\n        for(uint i = 0; i < bets.length; i++) {\n            ids[i] = i;\n            statuses[i] = _getStatus(i);\n        }\n        return (ids, statuses);\n    }\n\n    function getLastBet() public view returns(Bet memory) {\n        return bets[bets.length-1];\n    }\n\n    function getBets() public view returns(Bet[] memory) {\n        uint count;\n        uint[] memory ids;\n        (count, ids) = _getValidIds();\n        Bet[] memory validBets = new Bet[](count);\n        for(uint i = 0; i < count; i++) {\n            validBets[i] = bets[ids[i]];\n        }\n        return validBets;\n    }\n\n    function getHotBets() public view returns(Bet[] memory) {\n        Bet[] memory validBets = getBets();\n        Bet[] memory hotBets = new Bet[](10);\n        _sortBets(validBets);\n        for(uint i = 0; i < _max(10, validBets.length); ++i) {\n            hotBets[i] = validBets[i];\n        }\n        return hotBets;\n    }\n\n    function getComments(uint _id) public view returns(string[] memory) {\n        return bets[_id].comments;\n    }\n\n    function getMemberView() public view returns(MemberView memory) {\n        return members[msg.sender];\n    }\n\n    function _getValidIds() internal view returns(uint, uint[] memory) {\n        uint[] memory validIds = new uint[](bets.length);\n        uint count = 0;\n        for(uint i = 0; i < bets.length; i++) {\n            if(_isIdValid(i)) {\n                validIds[count] = i;\n                count++;\n            }\n        }\n        return (count, validIds);\n    }\n\n    function _isIdValid(uint _id) internal view returns(bool) {\n        return (now <= bets[_id].publishTime);\n    }\n\n    function _hasBet(uint _id, address _better) internal view returns(bool) {\n        uint len = bets[_id].voter.length;\n        for(uint i = 0; i < len; i++) {\n            if(bets[_id].voter[i] == _better) return true;\n        }\n        return false;\n    }\n\n    function _addressInit(uint _id, address _better) internal isValidId(_id) {\n        bool isInit = _hasBet(_id, _better);\n        if(!isInit) {\n            bets[_id].voter.push(_better);\n            voterChoice[_id][msg.sender] = new uint[](bets[_id].choices.length);\n        }\n    }\n\n    function _str2Region(string memory _region) internal pure returns(Region) {\n        if(keccak256(abi.encodePacked(_region)) == keccak256(abi.encodePacked(\"Taiwan\"))) return Region.Taiwan;\n        if(keccak256(abi.encodePacked(_region)) == keccak256(abi.encodePacked(\"China\"))) return Region.China;\n        if(keccak256(abi.encodePacked(_region)) == keccak256(abi.encodePacked(\"USA\"))) return Region.USA;\n        if(keccak256(abi.encodePacked(_region)) == keccak256(abi.encodePacked(\"UK\"))) return Region.UK;\n        if(keccak256(abi.encodePacked(_region)) == keccak256(abi.encodePacked(\"Japan\"))) return Region.Japan;\n        if(keccak256(abi.encodePacked(_region)) == keccak256(abi.encodePacked(\"Korea\"))) return Region.Korea;\n        if(keccak256(abi.encodePacked(_region)) == keccak256(abi.encodePacked(\"Canada\"))) return Region.Canada;\n        if(keccak256(abi.encodePacked(_region)) == keccak256(abi.encodePacked(\"Egypt\"))) return Region.Egypt;\n        if(keccak256(abi.encodePacked(_region)) == keccak256(abi.encodePacked(\"Italy\"))) return Region.Italy;\n        else return Region.Other;\n    }\n\n    function _str2Genre(string memory _genre) internal pure returns(Genre) {\n        if(keccak256(abi.encodePacked(_genre)) == keccak256(abi.encodePacked(\"News\"))) return Genre.News;\n        if(keccak256(abi.encodePacked(_genre)) == keccak256(abi.encodePacked(\"Sports\"))) return Genre.Sports;\n        if(keccak256(abi.encodePacked(_genre)) == keccak256(abi.encodePacked(\"Politics\"))) return Genre.Politics;\n        if(keccak256(abi.encodePacked(_genre)) == keccak256(abi.encodePacked(\"Music\"))) return Genre.Music;\n        if(keccak256(abi.encodePacked(_genre)) == keccak256(abi.encodePacked(\"Meme\"))) return Genre.Meme;\n        if(keccak256(abi.encodePacked(_genre)) == keccak256(abi.encodePacked(\"Art\"))) return Genre.Art;\n        if(keccak256(abi.encodePacked(_genre)) == keccak256(abi.encodePacked(\"Bitcoin\"))) return Genre.Bitcoin;\n        if(keccak256(abi.encodePacked(_genre)) == keccak256(abi.encodePacked(\"School\"))) return Genre.School;\n        if(keccak256(abi.encodePacked(_genre)) == keccak256(abi.encodePacked(\"Tech\"))) return Genre.Tech;\n        return Genre.Other;\n    }\n\n    function _sortBets(Bet[] memory _bets) internal pure {\n        _quickSort(_bets, 0, _bets.length-1);\n    }\n\n    function _quickSort(Bet[] memory _bets, uint _init, uint _end) internal pure {\n        uint i = _init;\n        uint j = _end;\n        if(i == j) return;\n        Bet memory pivot = _bets[(_init + (_end - _init) / 2)];\n        while (i <= j) {\n            while (_bets[i].voter.length < pivot.voter.length) i++;\n            while (pivot.voter.length < _bets[j].voter.length) j--;\n            if (i <= j) {\n                (_bets[uint(i)], _bets[uint(j)]) = (_bets[uint(j)], _bets[uint(i)]);\n                i++;\n                j--;\n            }\n        }\n        if (_init < j)\n            _quickSort(_bets, _init, j);\n        if (i < _end)\n            _quickSort(_bets, i, _end);\n    }\n\n    function _max(uint a, uint b) internal pure returns(uint) {\n        if(a > b) return a;\n        else return b;\n    }\n\n    function _getStatus(uint _id) internal view returns(Status) {\n        Bet memory bet = bets[_id];\n        if(bet.owner == msg.sender && bet.publishTime <= now) return Status.OwnAvailable;\n        else if(bet.owner != msg.sender && bet.publishTime <= now) return Status.OtherAvailable;\n        else if(bet.owner != msg.sender && bet.publishTime <= now) return Status.OwnExpire;\n        else if(bet.owner != msg.sender && bet.publishTime <= now) return Status.OtherExpire;\n    }\n\n    function _rng() internal view returns(uint) {\n        uint random = uint(keccak256(abi.encodePacked(block.difficulty, now)));\n        return random%10000;\n    }\n}",
  "sourcePath": "/Users/peterlin/OnlineBetting/ethereum/contracts/OnlineBetting.sol",
  "compiler": {
    "name": "solc",
    "version": "0.6.12+commit.27d51765.Emscripten.clang"
  },
  "schemaVersion": "3.4.0",
  "updatedAt": "2021-06-25T11:59:23.702Z",
  "networkType": "ethereum",
  "devdoc": {
    "kind": "dev",
    "methods": {},
    "version": 1
  },
  "userdoc": {
    "kind": "user",
    "methods": {},
    "version": 1
  }
}